{
  "_format": "hh-sol-artifact-1",
  "contractName": "WenTradePoolV1",
  "sourceName": "contracts/WenCore/WenTradePool/WenTradePoolV1.sol",
  "abi": [
    {
      "anonymous": false,
      "inputs": [
        {
          "indexed": false,
          "internalType": "address",
          "name": "previousAdmin",
          "type": "address"
        },
        {
          "indexed": false,
          "internalType": "address",
          "name": "newAdmin",
          "type": "address"
        }
      ],
      "name": "AdminChanged",
      "type": "event"
    },
    {
      "anonymous": false,
      "inputs": [
        {
          "indexed": true,
          "internalType": "address",
          "name": "beacon",
          "type": "address"
        }
      ],
      "name": "BeaconUpgraded",
      "type": "event"
    },
    {
      "anonymous": false,
      "inputs": [
        {
          "indexed": false,
          "internalType": "uint256",
          "name": "amount",
          "type": "uint256"
        }
      ],
      "name": "FeesReceived",
      "type": "event"
    },
    {
      "anonymous": false,
      "inputs": [
        {
          "indexed": false,
          "internalType": "uint8",
          "name": "version",
          "type": "uint8"
        }
      ],
      "name": "Initialized",
      "type": "event"
    },
    {
      "anonymous": false,
      "inputs": [
        {
          "indexed": true,
          "internalType": "address",
          "name": "previousOwner",
          "type": "address"
        },
        {
          "indexed": true,
          "internalType": "address",
          "name": "newOwner",
          "type": "address"
        }
      ],
      "name": "OwnershipTransferred",
      "type": "event"
    },
    {
      "anonymous": false,
      "inputs": [
        {
          "indexed": false,
          "internalType": "address",
          "name": "account",
          "type": "address"
        }
      ],
      "name": "Paused",
      "type": "event"
    },
    {
      "anonymous": false,
      "inputs": [
        {
          "indexed": false,
          "internalType": "uint256",
          "name": "stakedETH",
          "type": "uint256"
        },
        {
          "indexed": false,
          "internalType": "uint256",
          "name": "mintedwenETH",
          "type": "uint256"
        }
      ],
      "name": "Stake",
      "type": "event"
    },
    {
      "anonymous": false,
      "inputs": [
        {
          "indexed": false,
          "internalType": "address",
          "name": "account",
          "type": "address"
        }
      ],
      "name": "Unpaused",
      "type": "event"
    },
    {
      "anonymous": false,
      "inputs": [
        {
          "indexed": false,
          "internalType": "uint256",
          "name": "redeemedwenETH",
          "type": "uint256"
        },
        {
          "indexed": false,
          "internalType": "uint256",
          "name": "ETHQueued",
          "type": "uint256"
        }
      ],
      "name": "Unstake",
      "type": "event"
    },
    {
      "anonymous": false,
      "inputs": [
        {
          "indexed": true,
          "internalType": "address",
          "name": "implementation",
          "type": "address"
        }
      ],
      "name": "Upgraded",
      "type": "event"
    },
    {
      "stateMutability": "payable",
      "type": "fallback"
    },
    {
      "inputs": [],
      "name": "blast",
      "outputs": [
        {
          "internalType": "contract IBlast",
          "name": "",
          "type": "address"
        }
      ],
      "stateMutability": "view",
      "type": "function"
    },
    {
      "inputs": [
        {
          "internalType": "address",
          "name": "recipient",
          "type": "address"
        }
      ],
      "name": "claimAllYield",
      "outputs": [],
      "stateMutability": "nonpayable",
      "type": "function"
    },
    {
      "inputs": [
        {
          "internalType": "address",
          "name": "recipient",
          "type": "address"
        },
        {
          "internalType": "uint256",
          "name": "amount",
          "type": "uint256"
        }
      ],
      "name": "claimYield",
      "outputs": [],
      "stateMutability": "nonpayable",
      "type": "function"
    },
    {
      "inputs": [
        {
          "internalType": "uint256",
          "name": "inputETH",
          "type": "uint256"
        }
      ],
      "name": "ethToWenETH",
      "outputs": [
        {
          "internalType": "uint256",
          "name": "",
          "type": "uint256"
        }
      ],
      "stateMutability": "view",
      "type": "function"
    },
    {
      "inputs": [],
      "name": "getCurrentEthBalance",
      "outputs": [
        {
          "internalType": "uint256",
          "name": "",
          "type": "uint256"
        }
      ],
      "stateMutability": "view",
      "type": "function"
    },
    {
      "inputs": [],
      "name": "getwenETHExchangeRate",
      "outputs": [
        {
          "internalType": "uint256",
          "name": "",
          "type": "uint256"
        }
      ],
      "stateMutability": "view",
      "type": "function"
    },
    {
      "inputs": [],
      "name": "initialize",
      "outputs": [],
      "stateMutability": "nonpayable",
      "type": "function"
    },
    {
      "inputs": [
        {
          "internalType": "address",
          "name": "",
          "type": "address"
        }
      ],
      "name": "operators",
      "outputs": [
        {
          "internalType": "bool",
          "name": "",
          "type": "bool"
        }
      ],
      "stateMutability": "view",
      "type": "function"
    },
    {
      "inputs": [],
      "name": "owner",
      "outputs": [
        {
          "internalType": "address",
          "name": "",
          "type": "address"
        }
      ],
      "stateMutability": "view",
      "type": "function"
    },
    {
      "inputs": [],
      "name": "pause",
      "outputs": [],
      "stateMutability": "nonpayable",
      "type": "function"
    },
    {
      "inputs": [],
      "name": "paused",
      "outputs": [
        {
          "internalType": "bool",
          "name": "",
          "type": "bool"
        }
      ],
      "stateMutability": "view",
      "type": "function"
    },
    {
      "inputs": [],
      "name": "proxiableUUID",
      "outputs": [
        {
          "internalType": "bytes32",
          "name": "",
          "type": "bytes32"
        }
      ],
      "stateMutability": "view",
      "type": "function"
    },
    {
      "inputs": [],
      "name": "renounceOwnership",
      "outputs": [],
      "stateMutability": "nonpayable",
      "type": "function"
    },
    {
      "inputs": [
        {
          "internalType": "address",
          "name": "_operator",
          "type": "address"
        }
      ],
      "name": "revokeOperator",
      "outputs": [],
      "stateMutability": "nonpayable",
      "type": "function"
    },
    {
      "inputs": [
        {
          "internalType": "address",
          "name": "_blast",
          "type": "address"
        }
      ],
      "name": "setBlast",
      "outputs": [],
      "stateMutability": "nonpayable",
      "type": "function"
    },
    {
      "inputs": [
        {
          "internalType": "address",
          "name": "_governor",
          "type": "address"
        }
      ],
      "name": "setBlastGovernor",
      "outputs": [],
      "stateMutability": "nonpayable",
      "type": "function"
    },
    {
      "inputs": [
        {
          "internalType": "address",
          "name": "_wenETH",
          "type": "address"
        },
        {
          "internalType": "address",
          "name": "_blast",
          "type": "address"
        }
      ],
      "name": "setInitialInfo",
      "outputs": [],
      "stateMutability": "nonpayable",
      "type": "function"
    },
    {
      "inputs": [
        {
          "internalType": "address[]",
          "name": "_operators",
          "type": "address[]"
        }
      ],
      "name": "setOperator",
      "outputs": [],
      "stateMutability": "nonpayable",
      "type": "function"
    },
    {
      "inputs": [],
      "name": "stake",
      "outputs": [],
      "stateMutability": "payable",
      "type": "function"
    },
    {
      "inputs": [
        {
          "internalType": "address",
          "name": "newOwner",
          "type": "address"
        }
      ],
      "name": "transferOwnership",
      "outputs": [],
      "stateMutability": "nonpayable",
      "type": "function"
    },
    {
      "inputs": [],
      "name": "unpause",
      "outputs": [],
      "stateMutability": "nonpayable",
      "type": "function"
    },
    {
      "inputs": [
        {
          "internalType": "uint256",
          "name": "_amount",
          "type": "uint256"
        }
      ],
      "name": "unstake",
      "outputs": [],
      "stateMutability": "nonpayable",
      "type": "function"
    },
    {
      "inputs": [
        {
          "internalType": "address",
          "name": "newImplementation",
          "type": "address"
        }
      ],
      "name": "upgradeTo",
      "outputs": [],
      "stateMutability": "nonpayable",
      "type": "function"
    },
    {
      "inputs": [
        {
          "internalType": "address",
          "name": "newImplementation",
          "type": "address"
        },
        {
          "internalType": "bytes",
          "name": "data",
          "type": "bytes"
        }
      ],
      "name": "upgradeToAndCall",
      "outputs": [],
      "stateMutability": "payable",
      "type": "function"
    },
    {
      "inputs": [],
      "name": "wenETH",
      "outputs": [
        {
          "internalType": "contract IwenETHToken",
          "name": "",
          "type": "address"
        }
      ],
      "stateMutability": "view",
      "type": "function"
    },
    {
      "stateMutability": "payable",
      "type": "receive"
    }
  ],
  "bytecode": "0x60a06040523060805234801561001457600080fd5b506080516125a061004c600039600081816109030152818161098801528181610dff01528181610e840152610f6e01526125a06000f3fe6080604052600436106101825760003560e01c806352d1902d116100d55780638456cb5911610084578063cf85c2fb11610061578063cf85c2fb146103f7578063f2d19d8814610417578063f2fde38b14610437578063fad8b32a1461045757005b80638456cb59146103a45780638da5cb5b146103b9578063c2d94aec146103d757005b8063715018a6116100b2578063715018a614610365578063763826411461037a5780638129fc1c1461038f57005b806352d1902d146103185780635c975abb1461032d5780636266d3241461034557005b80633659cfe6116101315780633f4ba83a1161010e5780633f4ba83a146102d057806342082c1e146102e55780634f1ef2861461030557005b80633659cfe6146102885780633a4b66f1146102a85780633b52c810146102b057005b80631f3b02a61161015f5780631f3b02a61461022a5780632e17de781461024b5780632ed6f71c1461026b57005b806313e7c9d81461018b578063175e1a7d146101d15780631869ebda1461020a57005b3661018957005b005b34801561019757600080fd5b506101bc6101a6366004612238565b61012f6020526000908152604090205460ff1681565b60405190151581526020015b60405180910390f35b3480156101dd57600080fd5b5061012e546101f2906001600160a01b031681565b6040516001600160a01b0390911681526020016101c8565b34801561021657600080fd5b50610189610225366004612253565b610477565b34801561023657600080fd5b5061012d546101f2906001600160a01b031681565b34801561025757600080fd5b5061018961026636600461227d565b6105a6565b34801561027757600080fd5b50475b6040519081526020016101c8565b34801561029457600080fd5b506101896102a3366004612238565b6108f9565b610189610a71565b3480156102bc57600080fd5b5061027a6102cb36600461227d565b610caa565b3480156102dc57600080fd5b50610189610d67565b3480156102f157600080fd5b50610189610300366004612296565b610d7f565b610189610313366004612321565b610df5565b34801561032457600080fd5b5061027a610f61565b34801561033957600080fd5b5060fb5460ff166101bc565b34801561035157600080fd5b50610189610360366004612238565b611026565b34801561037157600080fd5b506101896110aa565b34801561038657600080fd5b5061027a6110bc565b34801561039b57600080fd5b50610189611160565b3480156103b057600080fd5b5061018961128f565b3480156103c557600080fd5b506097546001600160a01b03166101f2565b3480156103e357600080fd5b506101896103f2366004612238565b6112a7565b34801561040357600080fd5b50610189610412366004612238565b61141b565b34801561042357600080fd5b506101896104323660046123e3565b611453565b34801561044357600080fd5b50610189610452366004612238565b61156d565b34801561046357600080fd5b50610189610472366004612238565b6115fa565b33600090815261012f602052604090205460ff166104ce5760405162461bcd60e51b815260206004820152600f60248201526e4e6f742061206f70657261746f727360881b60448201526064015b60405180910390fd5b61012e546040517ff97196620000000000000000000000000000000000000000000000000000000081523060048201526001600160a01b03848116602483015260448201849052600092169063f9719662906064016020604051808303816000875af1158015610542573d6000803e3d6000fd5b505050506040513d601f19601f820116820180604052508101906105669190612416565b90507f91b044947b8ab661360de0aedacf8d16ad45adfb1f3bafb2ac8c4633e297b9718160405161059991815260200190565b60405180910390a1505050565b6105ae61168d565b6105b66116e0565b6000811161062c5760405162461bcd60e51b815260206004820152602560248201527f52656465656d2077656e4554482073686f756c6420626520626967676572207460448201527f68616e203000000000000000000000000000000000000000000000000000000060648201526084016104c5565b61012d546040517f70a0823100000000000000000000000000000000000000000000000000000000815233600482015282916001600160a01b0316906370a0823190602401602060405180830381865afa15801561068e573d6000803e3d6000fd5b505050506040513d601f19601f820116820180604052508101906106b29190612416565b10156107255760405162461bcd60e51b8152602060048201526024808201527f4e6f7420656e6f7567682077656e45544820616d6f756e7420746f20756e737460448201527f616b652e0000000000000000000000000000000000000000000000000000000060648201526084016104c5565b61012d5461073e906001600160a01b0316333084611739565b61012d54604080516318160ddd60e01b8152905147926000926001600160a01b03909116916318160ddd916004808201926020929091908290030181865afa15801561078e573d6000803e3d6000fd5b505050506040513d601f19601f820116820180604052508101906107b29190612416565b90506000816107c18486612445565b6107d390670de0b6b3a7640000612445565b6107dd919061245c565b90506107f1670de0b6b3a76400008261245c565b61012d546040517f9dc29fac000000000000000000000000000000000000000000000000000000008152306004820152602481018790529192506001600160a01b031690639dc29fac906044016020604051808303816000875af115801561085d573d6000803e3d6000fd5b505050506040513d601f19601f82011682018060405250810190610881919061247e565b50604051339082156108fc029083906000818181858888f193505050501580156108af573d6000803e3d6000fd5b5060408051858152602081018390527f9045c2ac9b2026de8075f2701bbdde882cd5e830b3b1ead9a15b22f2b5b93742910160405180910390a15050506108f6600160c955565b50565b6001600160a01b037f00000000000000000000000000000000000000000000000000000000000000001630036109865760405162461bcd60e51b815260206004820152602c60248201527f46756e6374696f6e206d7573742062652063616c6c6564207468726f7567682060448201526b19195b1959d85d1958d85b1b60a21b60648201526084016104c5565b7f00000000000000000000000000000000000000000000000000000000000000006001600160a01b03166109e17f360894a13ba1a3210667c828492db98dca3e2076cc3735a920a3ca505d382bbc546001600160a01b031690565b6001600160a01b031614610a4c5760405162461bcd60e51b815260206004820152602c60248201527f46756e6374696f6e206d7573742062652063616c6c6564207468726f7567682060448201526b6163746976652070726f787960a01b60648201526084016104c5565b610a55816117ce565b604080516000808252602082019092526108f6918391906117d6565b610a7961168d565b610a816116e0565b60003411610af75760405162461bcd60e51b815260206004820152602860248201527f5374616b652045544820616d6f756e742073686f756c6420626520626967676560448201527f72207468616e203000000000000000000000000000000000000000000000000060648201526084016104c5565b346000610b0482476124a7565b9050600061012d60009054906101000a90046001600160a01b03166001600160a01b03166318160ddd6040518163ffffffff1660e01b8152600401602060405180830381865afa158015610b5c573d6000803e3d6000fd5b505050506040513d601f19601f82011682018060405250810190610b809190612416565b9050600082600003610b93575082610bd1565b82610b9e8386612445565b610bb090670de0b6b3a7640000612445565b610bba919061245c565b9050610bce670de0b6b3a76400008261245c565b90505b61012d546040517f40c10f19000000000000000000000000000000000000000000000000000000008152336004820152602481018390526001600160a01b03909116906340c10f19906044016020604051808303816000875af1158015610c3c573d6000803e3d6000fd5b505050506040513d601f19601f82011682018060405250810190610c60919061247e565b5060408051858152602081018390527fc9ec05ea5037818736839e1365dc3d9a74a735c447af0697da66633b7a9d0fab910160405180910390a150505050610ca8600160c955565b565b600047808203610cbb575090919050565b61012d54604080516318160ddd60e01b815290516000926001600160a01b0316916318160ddd9160048083019260209291908290030181865afa158015610d06573d6000803e3d6000fd5b505050506040513d601f19601f82011682018060405250810190610d2a9190612416565b9050670de0b6b3a76400008285610d418484612445565b610d4b9190612445565b610d55919061245c565b610d5f919061245c565b949350505050565b610d6f611976565b610d776119d0565b610ca8611a22565b610d87611976565b60005b81811015610df057600161012f6000858585818110610dab57610dab6124ba565b9050602002016020810190610dc09190612238565b6001600160a01b031681526020810191909152604001600020805460ff1916911515919091179055600101610d8a565b505050565b6001600160a01b037f0000000000000000000000000000000000000000000000000000000000000000163003610e825760405162461bcd60e51b815260206004820152602c60248201527f46756e6374696f6e206d7573742062652063616c6c6564207468726f7567682060448201526b19195b1959d85d1958d85b1b60a21b60648201526084016104c5565b7f00000000000000000000000000000000000000000000000000000000000000006001600160a01b0316610edd7f360894a13ba1a3210667c828492db98dca3e2076cc3735a920a3ca505d382bbc546001600160a01b031690565b6001600160a01b031614610f485760405162461bcd60e51b815260206004820152602c60248201527f46756e6374696f6e206d7573742062652063616c6c6564207468726f7567682060448201526b6163746976652070726f787960a01b60648201526084016104c5565b610f51826117ce565b610f5d828260016117d6565b5050565b6000306001600160a01b037f000000000000000000000000000000000000000000000000000000000000000016146110015760405162461bcd60e51b815260206004820152603860248201527f555550535570677261646561626c653a206d757374206e6f742062652063616c60448201527f6c6564207468726f7567682064656c656761746563616c6c000000000000000060648201526084016104c5565b507f360894a13ba1a3210667c828492db98dca3e2076cc3735a920a3ca505d382bbc90565b61102e611976565b61012e546040517feb8646980000000000000000000000000000000000000000000000000000000081526001600160a01b0383811660048301529091169063eb86469890602401600060405180830381600087803b15801561108f57600080fd5b505af11580156110a3573d6000803e3d6000fd5b5050505050565b6110b2611976565b610ca86000611a74565b6000478082036110d0576298968091505090565b61012d54604080516318160ddd60e01b815290516000926001600160a01b0316916318160ddd9160048083019260209291908290030181865afa15801561111b573d6000803e3d6000fd5b505050506040513d601f19601f8201168201806040525081019061113f9190612416565b90508061114f8362989680612445565b611159919061245c565b9250505090565b600054610100900460ff16158080156111805750600054600160ff909116105b8061119a5750303b15801561119a575060005460ff166001145b61120c5760405162461bcd60e51b815260206004820152602e60248201527f496e697469616c697a61626c653a20636f6e747261637420697320616c72656160448201527f647920696e697469616c697a656400000000000000000000000000000000000060648201526084016104c5565b6000805460ff19166001179055801561122f576000805461ff0019166101001790555b611237611ad3565b61123f611b46565b611247611bb9565b80156108f6576000805461ff0019169055604051600181527f7f26b83ff96e1f2b6a682f133852f6798a09c465da95921460cefb38474024989060200160405180910390a150565b611297611976565b61129f61168d565b610ca8611c2c565b33600090815261012f602052604090205460ff166112f95760405162461bcd60e51b815260206004820152600f60248201526e4e6f742061206f70657261746f727360881b60448201526064016104c5565b33600090815261012f602052604090205460ff1661134b5760405162461bcd60e51b815260206004820152600f60248201526e4e6f742061206f70657261746f727360881b60448201526064016104c5565b61012e546040517f860043b60000000000000000000000000000000000000000000000000000000081523060048201526001600160a01b038381166024830152600092169063860043b6906044016020604051808303816000875af11580156113b8573d6000803e3d6000fd5b505050506040513d601f19601f820116820180604052508101906113dc9190612416565b90507f91b044947b8ab661360de0aedacf8d16ad45adfb1f3bafb2ac8c4633e297b9718160405161140f91815260200190565b60405180910390a15050565b611423611976565b61012e805473ffffffffffffffffffffffffffffffffffffffff19166001600160a01b0392909216919091179055565b61145b611976565b61012d80546001600160a01b0380851673ffffffffffffffffffffffffffffffffffffffff199283161790925561012e80549284169290911682179055604080517ff098767a000000000000000000000000000000000000000000000000000000008152905163f098767a9160048082019260009290919082900301818387803b1580156114e857600080fd5b505af11580156114fc573d6000803e3d6000fd5b5050505061012e60009054906101000a90046001600160a01b03166001600160a01b0316634e606c476040518163ffffffff1660e01b8152600401600060405180830381600087803b15801561155157600080fd5b505af1158015611565573d6000803e3d6000fd5b505050505050565b611575611976565b6001600160a01b0381166115f15760405162461bcd60e51b815260206004820152602660248201527f4f776e61626c653a206e6577206f776e657220697320746865207a65726f206160448201527f646472657373000000000000000000000000000000000000000000000000000060648201526084016104c5565b6108f681611a74565b611602611976565b6001600160a01b038116600090815261012f602052604090205460ff1661166b5760405162461bcd60e51b815260206004820152601f60248201527f546869732061646472657373206973206e6f7420616e206f70657261746f720060448201526064016104c5565b6001600160a01b0316600090815261012f60205260409020805460ff19169055565b60fb5460ff1615610ca85760405162461bcd60e51b815260206004820152601060248201527f5061757361626c653a207061757365640000000000000000000000000000000060448201526064016104c5565b600260c954036117325760405162461bcd60e51b815260206004820152601f60248201527f5265656e7472616e637947756172643a207265656e7472616e742063616c6c0060448201526064016104c5565b600260c955565b604080516001600160a01b0385811660248301528416604482015260648082018490528251808303909101815260849091019091526020810180517bffffffffffffffffffffffffffffffffffffffffffffffffffffffff167f23b872dd000000000000000000000000000000000000000000000000000000001790526117c1908590611c69565b50505050565b600160c955565b6108f6611976565b7f4910fdfa16fed3260ed0e7147f7cc6da11a60208b5b9406d12a635614ffd91435460ff161561180957610df083611d51565b826001600160a01b03166352d1902d6040518163ffffffff1660e01b8152600401602060405180830381865afa925050508015611863575060408051601f3d908101601f1916820190925261186091810190612416565b60015b6118d55760405162461bcd60e51b815260206004820152602e60248201527f45524331393637557067726164653a206e657720696d706c656d656e7461746960448201527f6f6e206973206e6f74205555505300000000000000000000000000000000000060648201526084016104c5565b7f360894a13ba1a3210667c828492db98dca3e2076cc3735a920a3ca505d382bbc811461196a5760405162461bcd60e51b815260206004820152602960248201527f45524331393637557067726164653a20756e737570706f727465642070726f7860448201527f6961626c6555554944000000000000000000000000000000000000000000000060648201526084016104c5565b50610df0838383611e1c565b6097546001600160a01b03163314610ca85760405162461bcd60e51b815260206004820181905260248201527f4f776e61626c653a2063616c6c6572206973206e6f7420746865206f776e657260448201526064016104c5565b60fb5460ff16610ca85760405162461bcd60e51b815260206004820152601460248201527f5061757361626c653a206e6f742070617573656400000000000000000000000060448201526064016104c5565b611a2a6119d0565b60fb805460ff191690557f5db9ee0a495bf2e6ff9c91a7834c1ba4fdd244a5e8aa4e537bd38aeae4b073aa335b6040516001600160a01b03909116815260200160405180910390a1565b609780546001600160a01b0383811673ffffffffffffffffffffffffffffffffffffffff19831681179093556040519116919082907f8be0079c531659141344cd1fd0a4f28419497f9722a3daafe3b4186f6b6457e090600090a35050565b600054610100900460ff16611b3e5760405162461bcd60e51b815260206004820152602b60248201527f496e697469616c697a61626c653a20636f6e7472616374206973206e6f74206960448201526a6e697469616c697a696e6760a81b60648201526084016104c5565b610ca8611e41565b600054610100900460ff16611bb15760405162461bcd60e51b815260206004820152602b60248201527f496e697469616c697a61626c653a20636f6e7472616374206973206e6f74206960448201526a6e697469616c697a696e6760a81b60648201526084016104c5565b610ca8611eb5565b600054610100900460ff16611c245760405162461bcd60e51b815260206004820152602b60248201527f496e697469616c697a61626c653a20636f6e7472616374206973206e6f74206960448201526a6e697469616c697a696e6760a81b60648201526084016104c5565b610ca8611f20565b611c3461168d565b60fb805460ff191660011790557f62e78cea01bee320cd4e420270b5ea74000d11b0c9f74754ebdbfc544b05a258611a573390565b6000611cbe826040518060400160405280602081526020017f5361666545524332303a206c6f772d6c6576656c2063616c6c206661696c6564815250856001600160a01b0316611f979092919063ffffffff16565b9050805160001480611cdf575080806020019051810190611cdf919061247e565b610df05760405162461bcd60e51b815260206004820152602a60248201527f5361666545524332303a204552433230206f7065726174696f6e20646964206e60448201527f6f7420737563636565640000000000000000000000000000000000000000000060648201526084016104c5565b6001600160a01b0381163b611dce5760405162461bcd60e51b815260206004820152602d60248201527f455243313936373a206e657720696d706c656d656e746174696f6e206973206e60448201527f6f74206120636f6e74726163740000000000000000000000000000000000000060648201526084016104c5565b7f360894a13ba1a3210667c828492db98dca3e2076cc3735a920a3ca505d382bbc805473ffffffffffffffffffffffffffffffffffffffff19166001600160a01b0392909216919091179055565b611e2583611fa6565b600082511180611e325750805b15610df0576117c18383611fe6565b600054610100900460ff16611eac5760405162461bcd60e51b815260206004820152602b60248201527f496e697469616c697a61626c653a20636f6e7472616374206973206e6f74206960448201526a6e697469616c697a696e6760a81b60648201526084016104c5565b610ca833611a74565b600054610100900460ff166117c75760405162461bcd60e51b815260206004820152602b60248201527f496e697469616c697a61626c653a20636f6e7472616374206973206e6f74206960448201526a6e697469616c697a696e6760a81b60648201526084016104c5565b600054610100900460ff16611f8b5760405162461bcd60e51b815260206004820152602b60248201527f496e697469616c697a61626c653a20636f6e7472616374206973206e6f74206960448201526a6e697469616c697a696e6760a81b60648201526084016104c5565b60fb805460ff19169055565b6060610d5f8484600085612014565b611faf81611d51565b6040516001600160a01b038216907fbc7cd75a20ee27fd9adebab32041f755214dbc6bffa90cc0225b39da2e5c2d3b90600090a250565b606061200b838360405180606001604052806027815260200161254460279139612106565b90505b92915050565b60608247101561208c5760405162461bcd60e51b815260206004820152602660248201527f416464726573733a20696e73756666696369656e742062616c616e636520666f60448201527f722063616c6c000000000000000000000000000000000000000000000000000060648201526084016104c5565b600080866001600160a01b031685876040516120a891906124f4565b60006040518083038185875af1925050503d80600081146120e5576040519150601f19603f3d011682016040523d82523d6000602084013e6120ea565b606091505b50915091506120fb8783838761217e565b979650505050505050565b6060600080856001600160a01b03168560405161212391906124f4565b600060405180830381855af49150503d806000811461215e576040519150601f19603f3d011682016040523d82523d6000602084013e612163565b606091505b50915091506121748683838761217e565b9695505050505050565b606083156121ed5782516000036121e6576001600160a01b0385163b6121e65760405162461bcd60e51b815260206004820152601d60248201527f416464726573733a2063616c6c20746f206e6f6e2d636f6e747261637400000060448201526064016104c5565b5081610d5f565b610d5f83838151156122025781518083602001fd5b8060405162461bcd60e51b81526004016104c59190612510565b80356001600160a01b038116811461223357600080fd5b919050565b60006020828403121561224a57600080fd5b61200b8261221c565b6000806040838503121561226657600080fd5b61226f8361221c565b946020939093013593505050565b60006020828403121561228f57600080fd5b5035919050565b600080602083850312156122a957600080fd5b823567ffffffffffffffff808211156122c157600080fd5b818501915085601f8301126122d557600080fd5b8135818111156122e457600080fd5b8660208260051b85010111156122f957600080fd5b60209290920196919550909350505050565b634e487b7160e01b600052604160045260246000fd5b6000806040838503121561233457600080fd5b61233d8361221c565b9150602083013567ffffffffffffffff8082111561235a57600080fd5b818501915085601f83011261236e57600080fd5b8135818111156123805761238061230b565b604051601f8201601f19908116603f011681019083821181831017156123a8576123a861230b565b816040528281528860208487010111156123c157600080fd5b8260208601602083013760006020848301015280955050505050509250929050565b600080604083850312156123f657600080fd5b6123ff8361221c565b915061240d6020840161221c565b90509250929050565b60006020828403121561242857600080fd5b5051919050565b634e487b7160e01b600052601160045260246000fd5b808202811582820484141761200e5761200e61242f565b60008261247957634e487b7160e01b600052601260045260246000fd5b500490565b60006020828403121561249057600080fd5b815180151581146124a057600080fd5b9392505050565b8181038181111561200e5761200e61242f565b634e487b7160e01b600052603260045260246000fd5b60005b838110156124eb5781810151838201526020016124d3565b50506000910152565b600082516125068184602087016124d0565b9190910192915050565b602081526000825180602084015261252f8160408501602087016124d0565b601f01601f1916919091016040019291505056fe416464726573733a206c6f772d6c6576656c2064656c65676174652063616c6c206661696c6564a2646970667358221220670c77ddf60335aa16207ddfb3aa161017e70a2e95fe38c080c4c5a8a82cbc0c64736f6c63430008180033",
  "linkReferences": {},
  "deployedLinkReferences": {}
}