{
  "_format": "hh-sol-artifact-1",
  "contractName": "RoyaltiesManager",
  "sourceName": "contracts/managers/RoyaltiesManager.sol",
  "abi": [
    {
      "inputs": [],
      "stateMutability": "nonpayable",
      "type": "constructor"
    },
    {
      "inputs": [
        {
          "internalType": "address",
          "name": "_contractAddress",
          "type": "address"
        },
        {
          "internalType": "uint256",
          "name": "_tokenId",
          "type": "uint256"
        }
      ],
      "name": "getRoyaltiesReceiver",
      "outputs": [
        {
          "internalType": "address",
          "name": "royaltiesReceiver",
          "type": "address"
        }
      ],
      "stateMutability": "view",
      "type": "function"
    }
  ],
  "bytecode": "0x608060405234801561001057600080fd5b5061057a806100206000396000f3fe608060405234801561001057600080fd5b506004361061002b5760003560e01c8063cca1d0b714610030575b600080fd5b61004361003e366004610320565b61005f565b6040516001600160a01b03909116815260200160405180910390f35b6000806060846001600160a01b0316637efd911260e01b8560405160240161008991815260200190565b60408051601f198184030181529181526020820180516001600160e01b03167fffffffff000000000000000000000000000000000000000000000000000000009094169390931790925290516100df9190610370565b600060405180830381855afa9150503d806000811461011a576040519150601f19603f3d011682016040523d82523d6000602084013e61011f565b606091505b50909250905081610131575050610302565b600081806020019051810190610147919061038c565b509050856001600160a01b031663bfb231d260e01b8260405160240161016f91815260200190565b60408051601f198184030181529181526020820180516001600160e01b03167fffffffff000000000000000000000000000000000000000000000000000000009094169390931790925290516101c59190610370565b600060405180830381855afa9150503d8060008114610200576040519150601f19603f3d011682016040523d82523d6000602084013e610205565b606091505b509093509150821561022f57818060200190518101906102259190610467565b5090985050505050505b6001600160a01b0384166102fe5760408051600481526024810182526020810180516001600160e01b03167f02d05d3f0000000000000000000000000000000000000000000000000000000017905290516001600160a01b0388169161029491610370565b600060405180830381855afa9150503d80600081146102cf576040519150601f19603f3d011682016040523d82523d6000602084013e6102d4565b606091505b509093509150826102e757505050610302565b818060200190518101906102fb9190610520565b93505b5050505b92915050565b6001600160a01b038116811461031d57600080fd5b50565b6000806040838503121561033357600080fd5b823561033e81610308565b946020939093013593505050565b60005b8381101561036757818101518382015260200161034f565b50506000910152565b6000825161038281846020870161034c565b9190910192915050565b6000806040838503121561039f57600080fd5b505080516020909101519092909150565b7f4e487b7100000000000000000000000000000000000000000000000000000000600052604160045260246000fd5b600082601f8301126103f057600080fd5b815167ffffffffffffffff8082111561040b5761040b6103b0565b604051601f8301601f19908116603f01168101908282118183101715610433576104336103b0565b8160405283815286602085880101111561044c57600080fd5b61045d84602083016020890161034c565b9695505050505050565b600080600080600080600060e0888a03121561048257600080fd5b875167ffffffffffffffff8082111561049a57600080fd5b6104a68b838c016103df565b985060208a0151975060408a0151965060608a0151955060808a015191506104cd82610308565b60a08a0151919450808211156104e257600080fd5b6104ee8b838c016103df565b935060c08a015191508082111561050457600080fd5b506105118a828b016103df565b91505092959891949750929550565b60006020828403121561053257600080fd5b815161053d81610308565b939250505056fea26469706673582212208c81bb6e9b1944f8eb292a5533e73bce83574077282f931431a83a0ad34c3bdb64736f6c63430008180033",
  "linkReferences": {},
  "deployedLinkReferences": {}
}