{"contracts/WenCore/WenStakingV1.sol":{"WenStakingV1":{"abi":[{"anonymous":false,"inputs":[{"indexed":false,"internalType":"address","name":"previousAdmin","type":"address"},{"indexed":false,"internalType":"address","name":"newAdmin","type":"address"}],"name":"AdminChanged","type":"event"},{"anonymous":false,"inputs":[{"indexed":true,"internalType":"address","name":"beacon","type":"address"}],"name":"BeaconUpgraded","type":"event"},{"anonymous":false,"inputs":[{"indexed":false,"internalType":"uint8","name":"version","type":"uint8"}],"name":"Initialized","type":"event"},{"anonymous":false,"inputs":[{"indexed":true,"internalType":"address","name":"previousOwner","type":"address"},{"indexed":true,"internalType":"address","name":"newOwner","type":"address"}],"name":"OwnershipTransferred","type":"event"},{"anonymous":false,"inputs":[{"indexed":false,"internalType":"address","name":"account","type":"address"}],"name":"Paused","type":"event"},{"anonymous":false,"inputs":[{"indexed":true,"internalType":"address","name":"rewardsToken","type":"address"},{"indexed":false,"internalType":"uint256","name":"reward","type":"uint256"}],"name":"RewardAdded","type":"event"},{"anonymous":false,"inputs":[{"indexed":true,"internalType":"address","name":"user","type":"address"},{"indexed":true,"internalType":"address","name":"rewardsToken","type":"address"},{"indexed":false,"internalType":"uint256","name":"reward","type":"uint256"}],"name":"RewardPaid","type":"event"},{"anonymous":false,"inputs":[{"indexed":false,"internalType":"uint256","name":"newDuration","type":"uint256"}],"name":"RewardsDurationUpdated","type":"event"},{"anonymous":false,"inputs":[{"indexed":true,"internalType":"address","name":"user","type":"address"},{"indexed":false,"internalType":"uint256","name":"amount","type":"uint256"}],"name":"Staked","type":"event"},{"anonymous":false,"inputs":[{"indexed":false,"internalType":"address","name":"account","type":"address"}],"name":"Unpaused","type":"event"},{"anonymous":false,"inputs":[{"indexed":false,"internalType":"address","name":"rewardToken","type":"address"},{"indexed":false,"internalType":"uint256","name":"rewardPerTokenStored","type":"uint256"},{"indexed":false,"internalType":"address","name":"user","type":"address"},{"indexed":false,"internalType":"uint256","name":"earned","type":"uint256"},{"indexed":false,"internalType":"uint256","name":"userRewardPerTokenPaid","type":"uint256"}],"name":"UpdateReward","type":"event"},{"anonymous":false,"inputs":[{"indexed":true,"internalType":"address","name":"implementation","type":"address"}],"name":"Upgraded","type":"event"},{"anonymous":false,"inputs":[{"indexed":true,"internalType":"address","name":"user","type":"address"},{"indexed":false,"internalType":"uint256","name":"amount","type":"uint256"}],"name":"Withdrawn","type":"event"},{"stateMutability":"payable","type":"fallback"},{"inputs":[],"name":"REWARDS_DURATION","outputs":[{"internalType":"uint256","name":"","type":"uint256"}],"stateMutability":"view","type":"function"},{"inputs":[{"internalType":"address","name":"","type":"address"}],"name":"balanceOf","outputs":[{"internalType":"uint256","name":"","type":"uint256"}],"stateMutability":"view","type":"function"},{"inputs":[],"name":"claimReward","outputs":[],"stateMutability":"nonpayable","type":"function"},{"inputs":[{"internalType":"address","name":"account","type":"address"},{"internalType":"address","name":"_rewardsToken","type":"address"}],"name":"earned","outputs":[{"internalType":"uint256","name":"","type":"uint256"}],"stateMutability":"view","type":"function"},{"inputs":[{"internalType":"address","name":"_rewardsToken","type":"address"}],"name":"getRewardForDuration","outputs":[{"internalType":"uint256","name":"","type":"uint256"}],"stateMutability":"view","type":"function"},{"inputs":[],"name":"initialize","outputs":[],"stateMutability":"nonpayable","type":"function"},{"inputs":[{"internalType":"address","name":"_rewardsToken","type":"address"}],"name":"lastTimeRewardApplicable","outputs":[{"internalType":"uint256","name":"","type":"uint256"}],"stateMutability":"view","type":"function"},{"inputs":[],"name":"owner","outputs":[{"internalType":"address","name":"","type":"address"}],"stateMutability":"view","type":"function"},{"inputs":[],"name":"pause","outputs":[],"stateMutability":"nonpayable","type":"function"},{"inputs":[],"name":"paused","outputs":[{"internalType":"bool","name":"","type":"bool"}],"stateMutability":"view","type":"function"},{"inputs":[],"name":"proxiableUUID","outputs":[{"internalType":"bytes32","name":"","type":"bytes32"}],"stateMutability":"view","type":"function"},{"inputs":[],"name":"renounceOwnership","outputs":[],"stateMutability":"nonpayable","type":"function"},{"inputs":[{"internalType":"address","name":"","type":"address"}],"name":"rewardData","outputs":[{"internalType":"uint256","name":"periodFinish","type":"uint256"},{"internalType":"uint256","name":"rewardRate","type":"uint256"},{"internalType":"uint256","name":"lastUpdateTime","type":"uint256"},{"internalType":"uint256","name":"rewardPerTokenStored","type":"uint256"},{"internalType":"uint256","name":"balance","type":"uint256"}],"stateMutability":"view","type":"function"},{"inputs":[{"internalType":"address","name":"_rewardsToken","type":"address"}],"name":"rewardPerToken","outputs":[{"internalType":"uint256","name":"","type":"uint256"}],"stateMutability":"view","type":"function"},{"inputs":[{"internalType":"uint256","name":"","type":"uint256"}],"name":"rewardTokens","outputs":[{"internalType":"address","name":"","type":"address"}],"stateMutability":"view","type":"function"},{"inputs":[{"internalType":"address","name":"","type":"address"},{"internalType":"address","name":"","type":"address"}],"name":"rewards","outputs":[{"internalType":"uint256","name":"","type":"uint256"}],"stateMutability":"view","type":"function"},{"inputs":[],"name":"rewardsDistribution","outputs":[{"internalType":"address","name":"","type":"address"}],"stateMutability":"view","type":"function"},{"inputs":[{"internalType":"address","name":"_stakingToken","type":"address"},{"internalType":"address[2]","name":"_rewardTokens","type":"address[2]"},{"internalType":"uint256","name":"_rewardDuration","type":"uint256"},{"internalType":"address","name":"_rewardsDistribution","type":"address"}],"name":"setInitialInfo","outputs":[],"stateMutability":"nonpayable","type":"function"},{"inputs":[{"internalType":"address","name":"_rewardsDistribution","type":"address"}],"name":"setRewardsDistribution","outputs":[],"stateMutability":"nonpayable","type":"function"},{"inputs":[{"internalType":"uint256","name":"_rewardsDuration","type":"uint256"}],"name":"setRewardsDuration","outputs":[],"stateMutability":"nonpayable","type":"function"},{"inputs":[{"internalType":"address","name":"_WenAddr","type":"address"}],"name":"setWen","outputs":[],"stateMutability":"nonpayable","type":"function"},{"inputs":[{"internalType":"uint256","name":"amount","type":"uint256"}],"name":"stake","outputs":[],"stateMutability":"nonpayable","type":"function"},{"inputs":[],"name":"stakingToken","outputs":[{"internalType":"contract IERC20Upgradeable","name":"","type":"address"}],"stateMutability":"view","type":"function"},{"inputs":[],"name":"totalSupply","outputs":[{"internalType":"uint256","name":"","type":"uint256"}],"stateMutability":"view","type":"function"},{"inputs":[{"internalType":"address","name":"newOwner","type":"address"}],"name":"transferOwnership","outputs":[],"stateMutability":"nonpayable","type":"function"},{"inputs":[],"name":"unpause","outputs":[],"stateMutability":"nonpayable","type":"function"},{"inputs":[],"name":"updateRewardAmount","outputs":[],"stateMutability":"nonpayable","type":"function"},{"inputs":[{"internalType":"address","name":"newImplementation","type":"address"}],"name":"upgradeTo","outputs":[],"stateMutability":"nonpayable","type":"function"},{"inputs":[{"internalType":"address","name":"newImplementation","type":"address"},{"internalType":"bytes","name":"data","type":"bytes"}],"name":"upgradeToAndCall","outputs":[],"stateMutability":"payable","type":"function"},{"inputs":[{"internalType":"address","name":"","type":"address"},{"internalType":"address","name":"","type":"address"}],"name":"userRewardPerTokenPaid","outputs":[{"internalType":"uint256","name":"","type":"uint256"}],"stateMutability":"view","type":"function"},{"inputs":[{"internalType":"address","name":"account","type":"address"}],"name":"wen_earned","outputs":[{"internalType":"uint256","name":"","type":"uint256"}],"stateMutability":"view","type":"function"},{"inputs":[],"name":"wen_getRewardForDuration","outputs":[{"internalType":"uint256","name":"","type":"uint256"}],"stateMutability":"view","type":"function"},{"inputs":[],"name":"wen_lastTimeRewardApplicable","outputs":[{"internalType":"uint256","name":"","type":"uint256"}],"stateMutability":"view","type":"function"},{"inputs":[],"name":"wen_rewardData","outputs":[{"internalType":"uint256","name":"periodFinish","type":"uint256"},{"internalType":"uint256","name":"rewardRate","type":"uint256"},{"internalType":"uint256","name":"lastUpdateTime","type":"uint256"},{"internalType":"uint256","name":"rewardPerTokenStored","type":"uint256"},{"internalType":"uint256","name":"balance","type":"uint256"}],"stateMutability":"view","type":"function"},{"inputs":[],"name":"wen_rewardPerToken","outputs":[{"internalType":"uint256","name":"","type":"uint256"}],"stateMutability":"view","type":"function"},{"inputs":[],"name":"wen_rewardToken","outputs":[{"internalType":"address","name":"","type":"address"}],"stateMutability":"view","type":"function"},{"inputs":[{"internalType":"address","name":"","type":"address"}],"name":"wen_rewards","outputs":[{"internalType":"uint256","name":"","type":"uint256"}],"stateMutability":"view","type":"function"},{"inputs":[{"internalType":"uint256","name":"_amount","type":"uint256"}],"name":"wen_updateRewardAmount","outputs":[],"stateMutability":"nonpayable","type":"function"},{"inputs":[{"internalType":"address","name":"","type":"address"}],"name":"wen_userRewardPerTokenPaid","outputs":[{"internalType":"uint256","name":"","type":"uint256"}],"stateMutability":"view","type":"function"},{"inputs":[{"internalType":"uint256","name":"amount","type":"uint256"}],"name":"withdraw","outputs":[],"stateMutability":"nonpayable","type":"function"},{"stateMutability":"payable","type":"receive"}],"evm":{"bytecode":{"linkReferences":{},"object":"60a06040523060805234801561001457600080fd5b506080516137b661004c60003960008181610c6501528181610cea01528181611149015281816111ce01526112b801526137b66000f3fe60806040526004361061028f5760003560e01c80638129fc1c11610156578063cc6059c6116100bf578063f43c2bca11610079578063f833027d11610061578063f833027d1461079d578063fa9465d5146107cb578063fe7ed097146107e057005b8063f43c2bca1461075a578063f45424941461078657005b8063e70b9e27116100a7578063e70b9e27146106e1578063f12297771461071a578063f2fde38b1461073a57005b8063cc6059c6146106ac578063d9167de7146106c157005b8063a89d800311610110578063b88a802f116100f8578063b88a802f14610657578063bcd110141461066c578063cc1a378f1461068c57005b8063a89d800314610609578063b32f8d9f1461062957005b80638da5cb5b1161013e5780638da5cb5b146105aa57806390559094146105c8578063a694fc3a146105e957005b80638129fc1c146105805780638456cb591461059557005b80634f1ef286116101f85780637035ab98116101b2578063715018a61161019a578063715018a61461052a57806372f702f31461053f5780637bb7bed11461056057005b80637035ab98146104c357806370a08231146104fc57005b80635533de90116101e05780635533de901461046b5780635c975abb14610480578063638634ee146104a357005b80634f1ef2861461044357806352d1902d1461045657005b80633659cfe6116102495780633fc6df6e116102315780633fc6df6e14610377578063477c8fc1146103b057806348e5d9f8146103d057005b80633659cfe6146103425780633f4ba83a1461036257005b80631c9c4694116102775780631c9c4694146102e2578063211dc32d146103025780632e1a7d4d1461032257005b806318160ddd1461029857806319762143146102c257005b3661029657005b005b3480156102a457600080fd5b506102af6101345481565b6040519081526020015b60405180910390f35b3480156102ce57600080fd5b506102966102dd36600461341e565b6107f5565b3480156102ee57600080fd5b506102966102fd36600461341e565b610820565b34801561030e57600080fd5b506102af61031d366004613439565b61084b565b34801561032e57600080fd5b5061029661033d36600461346c565b6108f6565b34801561034e57600080fd5b5061029661035d36600461341e565b610c5b565b34801561036e57600080fd5b50610296610dd3565b34801561038357600080fd5b5061013154610398906001600160a01b031681565b6040516001600160a01b0390911681526020016102b9565b3480156103bc57600080fd5b506102966103cb36600461346c565b610ded565b3480156103dc57600080fd5b5061041b6103eb36600461341e565b61013060205260009081526040902080546001820154600283015460038401546004909401549293919290919085565b604080519586526020860194909452928401919091526060830152608082015260a0016102b9565b6102966104513660046134cc565b61113f565b34801561046257600080fd5b506102af6112ab565b34801561047757600080fd5b506102af611370565b34801561048c57600080fd5b5060fb5460ff1660405190151581526020016102b9565b3480156104af57600080fd5b506102af6104be36600461341e565b611389565b3480156104cf57600080fd5b506102af6104de366004613439565b61013260209081526000928352604080842090915290825290205481565b34801561050857600080fd5b506102af61051736600461341e565b6101356020526000908152604090205481565b34801561053657600080fd5b506102966113b9565b34801561054b57600080fd5b5061012d54610398906001600160a01b031681565b34801561056c57600080fd5b5061039861057b36600461346c565b6113cb565b34801561058c57600080fd5b506102966113ec565b3480156105a157600080fd5b5061029661151c565b3480156105b657600080fd5b506097546001600160a01b0316610398565b3480156105d457600080fd5b5061013754610398906001600160a01b031681565b3480156105f557600080fd5b5061029661060436600461346c565b611534565b34801561061557600080fd5b50610296610624366004613572565b61181b565b34801561063557600080fd5b506102af61064436600461341e565b61013e6020526000908152604090205481565b34801561066357600080fd5b50610296611879565b34801561067857600080fd5b506102af61068736600461341e565b611d57565b34801561069857600080fd5b506102966106a736600461346c565b611d83565b3480156106b857600080fd5b506102af611e37565b3480156106cd57600080fd5b506102af6106dc36600461341e565b611e53565b3480156106ed57600080fd5b506102af6106fc366004613439565b61013360209081526000928352604080842090915290825290205481565b34801561072657600080fd5b506102af61073536600461341e565b611ed5565b34801561074657600080fd5b5061029661075536600461341e565b611fb0565b34801561076657600080fd5b50610138546101395461013a5461013b5461013c5461041b949392919085565b34801561079257600080fd5b506102af6101365481565b3480156107a957600080fd5b506102af6107b836600461341e565b61013d6020526000908152604090205481565b3480156107d757600080fd5b5061029661203d565b3480156107ec57600080fd5b506102af6123cc565b6107fd612447565b61013180546001600160a01b0319166001600160a01b0392909216919091179055565b610828612447565b61013780546001600160a01b0319166001600160a01b0392909216919091179055565b6001600160a01b03808316600090815261013260209081526040808320938516835292905290812054819061087f84611ed5565b6108899190613636565b6001600160a01b038086166000818152610133602090815260408083209489168352938152838220549282526101359052919091205491925090670de0b6b3a7640000906108d8908490613649565b6108e29190613660565b6108ec9190613682565b9150505b92915050565b6108fe6124a1565b6109066124fa565b3360005b6002811015610a3d57600061012e826002811061092957610929613695565b01546001600160a01b0316905061093f81611ed5565b6001600160a01b0382166000908152610130602052604090206003015561096581611389565b6001600160a01b0380831660009081526101306020526040902060020191909155831615610a3457610997838261084b565b6001600160a01b03848116600081815261013360209081526040808320948716808452948252808320958655610130825280832060030154848452610132835281842086855283529281902083905594548551948552908401829052838501929092526060830191909152608082015290517fe18754a2d63e1e9c2a4f61712ccd2c8df6dfb1eae9f53b2158e316c62823ce2a9181900360a00190a15b5060010161090a565b50610137546001600160a01b031615610b0557610a586123cc565b61013b55610a64611e37565b61013a556001600160a01b03811615610b0557610a8081611e53565b6001600160a01b03828116600081815261013e6020908152604080832095865561013b5461013d8352928190208390556101375495548151969095168652908501829052840191909152606083019190915260808201527fe18754a2d63e1e9c2a4f61712ccd2c8df6dfb1eae9f53b2158e316c62823ce2a9060a00160405180910390a15b60008211610b5a5760405162461bcd60e51b815260206004820152601160248201527f43616e6e6f74207769746864726177203000000000000000000000000000000060448201526064015b60405180910390fd5b3360009081526101356020526040902054821115610bba5760405162461bcd60e51b815260206004820152601660248201527f42616c616e6365206973206e6f7420656e6f7567682e000000000000000000006044820152606401610b51565b610bc261254d565b816101346000828254610bd59190613636565b9091555050336000908152610135602052604081208054849290610bfa908490613636565b909155505061012d54610c17906001600160a01b0316338461281a565b60405182815233907f7084f5476618d8e60b11ef0d7d3f06914655adb8793e28ff7f018d4c76d505d5906020015b60405180910390a250610c58600160c955565b50565b6001600160a01b037f0000000000000000000000000000000000000000000000000000000000000000163003610ce85760405162461bcd60e51b815260206004820152602c60248201527f46756e6374696f6e206d7573742062652063616c6c6564207468726f7567682060448201526b19195b1959d85d1958d85b1b60a21b6064820152608401610b51565b7f00000000000000000000000000000000000000000000000000000000000000006001600160a01b0316610d437f360894a13ba1a3210667c828492db98dca3e2076cc3735a920a3ca505d382bbc546001600160a01b031690565b6001600160a01b031614610dae5760405162461bcd60e51b815260206004820152602c60248201527f46756e6374696f6e206d7573742062652063616c6c6564207468726f7567682060448201526b6163746976652070726f787960a01b6064820152608401610b51565b610db7816128cf565b60408051600080825260208201909252610c58918391906128d7565b610ddb612447565b610de3612a77565b610deb612ac9565b565b610131546001600160a01b03163314610e5b5760405162461bcd60e51b815260206004820152602a60248201527f43616c6c6572206973206e6f742052657761726473446973747269627574696f6044820152691b8818dbdb9d1c9858dd60b21b6064820152608401610b51565b6000805b6002811015610f9257600061012e8260028110610e7e57610e7e613695565b01546001600160a01b03169050610e9481611ed5565b6001600160a01b03821660009081526101306020526040902060030155610eba81611389565b6001600160a01b0380831660009081526101306020526040902060020191909155831615610f8957610eec838261084b565b6001600160a01b03848116600081815261013360209081526040808320948716808452948252808320958655610130825280832060030154848452610132835281842086855283529281902083905594548551948552908401829052838501929092526060830191909152608082015290517fe18754a2d63e1e9c2a4f61712ccd2c8df6dfb1eae9f53b2158e316c62823ce2a9181900360a00190a15b50600101610e5f565b50610137546001600160a01b03161561105a57610fad6123cc565b61013b55610fb9611e37565b61013a556001600160a01b0381161561105a57610fd581611e53565b6001600160a01b03828116600081815261013e6020908152604080832095865561013b5461013d8352928190208390556101375495548151969095168652908501829052840191909152606083019190915260808201527fe18754a2d63e1e9c2a4f61712ccd2c8df6dfb1eae9f53b2158e316c62823ce2a9060a00160405180910390a15b600082116110d05760405162461bcd60e51b815260206004820152602c60248201527f5570646174652052657761726420416d6f756e742073686f756c64206265206260448201527f6967676572207468616e203000000000000000000000000000000000000000006064820152608401610b51565b61013754610138906110ed906001600160a01b0316333086612b1b565b6110f78184612b72565b610137546040518481526001600160a01b03909116907fac24935fd910bc682b5ccb1a07b718cadf8cf2f6d1404c4f3ddc3662dae40e299060200160405180910390a2505050565b6001600160a01b037f00000000000000000000000000000000000000000000000000000000000000001630036111cc5760405162461bcd60e51b815260206004820152602c60248201527f46756e6374696f6e206d7573742062652063616c6c6564207468726f7567682060448201526b19195b1959d85d1958d85b1b60a21b6064820152608401610b51565b7f00000000000000000000000000000000000000000000000000000000000000006001600160a01b03166112277f360894a13ba1a3210667c828492db98dca3e2076cc3735a920a3ca505d382bbc546001600160a01b031690565b6001600160a01b0316146112925760405162461bcd60e51b815260206004820152602c60248201527f46756e6374696f6e206d7573742062652063616c6c6564207468726f7567682060448201526b6163746976652070726f787960a01b6064820152608401610b51565b61129b826128cf565b6112a7828260016128d7565b5050565b6000306001600160a01b037f0000000000000000000000000000000000000000000000000000000000000000161461134b5760405162461bcd60e51b815260206004820152603860248201527f555550535570677261646561626c653a206d757374206e6f742062652063616c60448201527f6c6564207468726f7567682064656c656761746563616c6c00000000000000006064820152608401610b51565b507f360894a13ba1a3210667c828492db98dca3e2076cc3735a920a3ca505d382bbc90565b610136546101395460009161138491613649565b905090565b6001600160a01b038116600090815261013060205260408120544281116113b057806113b2565b425b9392505050565b6113c1612447565b610deb6000612c10565b61012e81600281106113dc57600080fd5b01546001600160a01b0316905081565b600054610100900460ff161580801561140c5750600054600160ff909116105b806114265750303b158015611426575060005460ff166001145b6114985760405162461bcd60e51b815260206004820152602e60248201527f496e697469616c697a61626c653a20636f6e747261637420697320616c72656160448201527f647920696e697469616c697a65640000000000000000000000000000000000006064820152608401610b51565b6000805460ff1916600117905580156114bb576000805461ff0019166101001790555b6114c3612c62565b6114cb612cd5565b6114d3612d48565b8015610c58576000805461ff0019169055604051600181527f7f26b83ff96e1f2b6a682f133852f6798a09c465da95921460cefb3847402498906020015b60405180910390a150565b611524612447565b61152c6124fa565b610deb612dbb565b61153c6124a1565b6115446124fa565b3360005b600281101561167b57600061012e826002811061156757611567613695565b01546001600160a01b0316905061157d81611ed5565b6001600160a01b038216600090815261013060205260409020600301556115a381611389565b6001600160a01b0380831660009081526101306020526040902060020191909155831615611672576115d5838261084b565b6001600160a01b03848116600081815261013360209081526040808320948716808452948252808320958655610130825280832060030154848452610132835281842086855283529281902083905594548551948552908401829052838501929092526060830191909152608082015290517fe18754a2d63e1e9c2a4f61712ccd2c8df6dfb1eae9f53b2158e316c62823ce2a9181900360a00190a15b50600101611548565b50610137546001600160a01b031615611743576116966123cc565b61013b556116a2611e37565b61013a556001600160a01b03811615611743576116be81611e53565b6001600160a01b03828116600081815261013e6020908152604080832095865561013b5461013d8352928190208390556101375495548151969095168652908501829052840191909152606083019190915260808201527fe18754a2d63e1e9c2a4f61712ccd2c8df6dfb1eae9f53b2158e316c62823ce2a9060a00160405180910390a15b600082116117935760405162461bcd60e51b815260206004820152600e60248201527f43616e6e6f74207374616b6520300000000000000000000000000000000000006044820152606401610b51565b8161013460008282546117a69190613682565b90915550503360009081526101356020526040812080548492906117cb908490613682565b909155505061012d546117e9906001600160a01b0316333085612b1b565b60405182815233907f9e71bc8eea02a63969f509818f2dafb9254532904319f9dbda79b67bd34a5f3d90602001610c45565b611823612447565b61012d80546001600160a01b0319166001600160a01b03861617905561184d61012e846002613395565b506101369190915561013180546001600160a01b0319166001600160a01b039092169190911790555050565b6118816124a1565b6118896124fa565b3360005b60028110156119c057600061012e82600281106118ac576118ac613695565b01546001600160a01b031690506118c281611ed5565b6001600160a01b038216600090815261013060205260409020600301556118e881611389565b6001600160a01b03808316600090815261013060205260409020600201919091558316156119b75761191a838261084b565b6001600160a01b03848116600081815261013360209081526040808320948716808452948252808320958655610130825280832060030154848452610132835281842086855283529281902083905594548551948552908401829052838501929092526060830191909152608082015290517fe18754a2d63e1e9c2a4f61712ccd2c8df6dfb1eae9f53b2158e316c62823ce2a9181900360a00190a15b5060010161188d565b50610137546001600160a01b031615611a88576119db6123cc565b61013b556119e7611e37565b61013a556001600160a01b03811615611a8857611a0381611e53565b6001600160a01b03828116600081815261013e6020908152604080832095865561013b5461013d8352928190208390556101375495548151969095168652908501829052840191909152606083019190915260808201527fe18754a2d63e1e9c2a4f61712ccd2c8df6dfb1eae9f53b2158e316c62823ce2a9060a00160405180910390a15b60005b6002811015611c9157600061012e8260028110611aaa57611aaa613695565b01546001600160a01b03166000818152610130602052604090209091508115611c87578054611adb90610e10613682565b61013654611ae99042613682565b1115611bc4576004818101546040516370a0823160e01b815230928101929092526000916001600160a01b038516906370a0823190602401602060405180830381865afa158015611b3e573d6000803e3d6000fd5b505050506040513d601f19601f82011682018060405250810190611b6291906136ab565b611b6c9190613636565b90508015611bc257611b7e8282612b72565b826001600160a01b03167fac24935fd910bc682b5ccb1a07b718cadf8cf2f6d1404c4f3ddc3662dae40e2982604051611bb991815260200190565b60405180910390a25b505b336000908152610133602090815260408083206001600160a01b03861684529091529020548015611c8557336000908152610133602090815260408083206001600160a01b03871684529091528120819055600483018054839290611c2a908490613636565b90915550611c4490506001600160a01b038416338361281a565b6040518181526001600160a01b0384169033907f540798df468d7b23d11f156fdb954cb19ad414d150722a7b6d55ba369dea792e9060200160405180910390a35b505b5050600101611a8b565b50610137546001600160a01b031615611d4c5733600090815261013e6020526040902054610138908015611d495733600090815261013e60205260408120819055600483018054839290611ce6908490613636565b909155505061013754611d03906001600160a01b0316338361281a565b610137546040518281526001600160a01b039091169033907f540798df468d7b23d11f156fdb954cb19ad414d150722a7b6d55ba369dea792e9060200160405180910390a35b50505b50610deb600160c955565b610136546001600160a01b0382166000908152610130602052604081206001015490916108f091613649565b611d8b612447565b60008111611e015760405162461bcd60e51b815260206004820152602860248201527f726577617264206475726174696f6e692073686f756c64206265206c6f6e676560448201527f72207468616e20300000000000000000000000000000000000000000000000006064820152608401610b51565b6101368190556040518181527ffb46ca5a5e06d4540d6387b930a7c978bce0db5f449ec6b3f5d07c6e1d44f2d390602001611511565b61013854600090428111611e4b5780611e4d565b425b91505090565b6001600160a01b038116600090815261013d60205260408120548190611e776123cc565b611e819190613636565b6001600160a01b038416600090815261013e60209081526040808320546101359092529091205491925090670de0b6b3a764000090611ec1908490613649565b611ecb9190613660565b6113b29190613682565b600061013454600003611f0257506001600160a01b03166000908152610130602052604090206003015490565b6001600160a01b03821660009081526101306020526040812060020154611f2884611389565b611f329190613636565b610134546001600160a01b0385166000908152610130602052604081206001015492935091611f619084613649565b611f7390670de0b6b3a7640000613649565b611f7d9190613660565b6001600160a01b03851660009081526101306020526040902060030154909150611fa8908290613682565b949350505050565b611fb8612447565b6001600160a01b0381166120345760405162461bcd60e51b815260206004820152602660248201527f4f776e61626c653a206e6577206f776e657220697320746865207a65726f206160448201527f64647265737300000000000000000000000000000000000000000000000000006064820152608401610b51565b610c5881612c10565b610131546001600160a01b031633146120ab5760405162461bcd60e51b815260206004820152602a60248201527f43616c6c6572206973206e6f742052657761726473446973747269627574696f6044820152691b8818dbdb9d1c9858dd60b21b6064820152608401610b51565b6000805b60028110156121e257600061012e82600281106120ce576120ce613695565b01546001600160a01b031690506120e481611ed5565b6001600160a01b0382166000908152610130602052604090206003015561210a81611389565b6001600160a01b03808316600090815261013060205260409020600201919091558316156121d95761213c838261084b565b6001600160a01b03848116600081815261013360209081526040808320948716808452948252808320958655610130825280832060030154848452610132835281842086855283529281902083905594548551948552908401829052838501929092526060830191909152608082015290517fe18754a2d63e1e9c2a4f61712ccd2c8df6dfb1eae9f53b2158e316c62823ce2a9181900360a00190a15b506001016120af565b50610137546001600160a01b0316156122aa576121fd6123cc565b61013b55612209611e37565b61013a556001600160a01b038116156122aa5761222581611e53565b6001600160a01b03828116600081815261013e6020908152604080832095865561013b5461013d8352928190208390556101375495548151969095168652908501829052840191909152606083019190915260808201527fe18754a2d63e1e9c2a4f61712ccd2c8df6dfb1eae9f53b2158e316c62823ce2a9060a00160405180910390a15b60005b60028110156112a757600061012e82600281106122cc576122cc613695565b01546001600160a01b0316905080156123c3576001600160a01b0381166000818152610130602052604080822060048082015492516370a0823160e01b815230918101919091529093906370a0823190602401602060405180830381865afa15801561233c573d6000803e3d6000fd5b505050506040513d601f19601f8201168201806040525081019061236091906136ab565b61236a9190613636565b905080156123c05761237c8282612b72565b826001600160a01b03167fac24935fd910bc682b5ccb1a07b718cadf8cf2f6d1404c4f3ddc3662dae40e29826040516123b791815260200190565b60405180910390a25b50505b506001016122ad565b6000610134546000036123e1575061013b5490565b61013a546000906123f0611e37565b6123fa9190613636565b61013454610139549192506000916124129084613649565b61242490670de0b6b3a7640000613649565b61242e9190613660565b61013b54909150612440908290613682565b9250505090565b6097546001600160a01b03163314610deb5760405162461bcd60e51b815260206004820181905260248201527f4f776e61626c653a2063616c6c6572206973206e6f7420746865206f776e65726044820152606401610b51565b600260c954036124f35760405162461bcd60e51b815260206004820152601f60248201527f5265656e7472616e637947756172643a207265656e7472616e742063616c6c006044820152606401610b51565b600260c955565b60fb5460ff1615610deb5760405162461bcd60e51b815260206004820152601060248201527f5061757361626c653a20706175736564000000000000000000000000000000006044820152606401610b51565b60005b600281101561275f57600061012e826002811061256f5761256f613695565b01546001600160a01b031690508015612756576001600160a01b03811660009081526101306020526040902080546125a990610e10613682565b610136546125b79042613682565b1115612692576004818101546040516370a0823160e01b815230928101929092526000916001600160a01b038516906370a0823190602401602060405180830381865afa15801561260c573d6000803e3d6000fd5b505050506040513d601f19601f8201168201806040525081019061263091906136ab565b61263a9190613636565b905080156126905761264c8282612b72565b826001600160a01b03167fac24935fd910bc682b5ccb1a07b718cadf8cf2f6d1404c4f3ddc3662dae40e298260405161268791815260200190565b60405180910390a25b505b336000908152610133602090815260408083206001600160a01b0386168452909152902054801561275357336000908152610133602090815260408083206001600160a01b038716845290915281208190556004830180548392906126f8908490613636565b9091555061271290506001600160a01b038416338361281a565b6040518181526001600160a01b0384169033907f540798df468d7b23d11f156fdb954cb19ad414d150722a7b6d55ba369dea792e9060200160405180910390a35b50505b50600101612550565b50610137546001600160a01b031615610deb5733600090815261013e60205260409020546101389080156112a75733600090815261013e602052604081208190556004830180548392906127b4908490613636565b9091555050610137546127d1906001600160a01b0316338361281a565b610137546040518281526001600160a01b039091169033907f540798df468d7b23d11f156fdb954cb19ad414d150722a7b6d55ba369dea792e9060200160405180910390a35050565b6040516001600160a01b0383166024820152604481018290526128c39084907fa9059cbb00000000000000000000000000000000000000000000000000000000906064015b60408051601f198184030181529190526020810180517bffffffffffffffffffffffffffffffffffffffffffffffffffffffff167fffffffff0000000000000000000000000000000000000000000000000000000090931692909217909152612df8565b505050565b600160c955565b610c58612447565b7f4910fdfa16fed3260ed0e7147f7cc6da11a60208b5b9406d12a635614ffd91435460ff161561290a576128c383612ee0565b826001600160a01b03166352d1902d6040518163ffffffff1660e01b8152600401602060405180830381865afa925050508015612964575060408051601f3d908101601f19168201909252612961918101906136ab565b60015b6129d65760405162461bcd60e51b815260206004820152602e60248201527f45524331393637557067726164653a206e657720696d706c656d656e7461746960448201527f6f6e206973206e6f7420555550530000000000000000000000000000000000006064820152608401610b51565b7f360894a13ba1a3210667c828492db98dca3e2076cc3735a920a3ca505d382bbc8114612a6b5760405162461bcd60e51b815260206004820152602960248201527f45524331393637557067726164653a20756e737570706f727465642070726f7860448201527f6961626c655555494400000000000000000000000000000000000000000000006064820152608401610b51565b506128c3838383612f9e565b60fb5460ff16610deb5760405162461bcd60e51b815260206004820152601460248201527f5061757361626c653a206e6f74207061757365640000000000000000000000006044820152606401610b51565b612ad1612a77565b60fb805460ff191690557f5db9ee0a495bf2e6ff9c91a7834c1ba4fdd244a5e8aa4e537bd38aeae4b073aa335b6040516001600160a01b03909116815260200160405180910390a1565b6040516001600160a01b0380851660248301528316604482015260648101829052612b6c9085907f23b872dd000000000000000000000000000000000000000000000000000000009060840161285f565b50505050565b81544210612b925761013654612b889082613660565b6001830155612bd9565b8154600090612ba2904290613636565b90506000836001015482612bb69190613649565b61013654909150612bc78285613682565b612bd19190613660565b600185015550505b426002830181905561013654612bee91613682565b8255600482018054829190600090612c07908490613682565b90915550505050565b609780546001600160a01b038381166001600160a01b0319831681179093556040519116919082907f8be0079c531659141344cd1fd0a4f28419497f9722a3daafe3b4186f6b6457e090600090a35050565b600054610100900460ff16612ccd5760405162461bcd60e51b815260206004820152602b60248201527f496e697469616c697a61626c653a20636f6e7472616374206973206e6f74206960448201526a6e697469616c697a696e6760a81b6064820152608401610b51565b610deb612fc3565b600054610100900460ff16612d405760405162461bcd60e51b815260206004820152602b60248201527f496e697469616c697a61626c653a20636f6e7472616374206973206e6f74206960448201526a6e697469616c697a696e6760a81b6064820152608401610b51565b610deb613037565b600054610100900460ff16612db35760405162461bcd60e51b815260206004820152602b60248201527f496e697469616c697a61626c653a20636f6e7472616374206973206e6f74206960448201526a6e697469616c697a696e6760a81b6064820152608401610b51565b610deb6130a2565b612dc36124fa565b60fb805460ff191660011790557f62e78cea01bee320cd4e420270b5ea74000d11b0c9f74754ebdbfc544b05a258612afe3390565b6000612e4d826040518060400160405280602081526020017f5361666545524332303a206c6f772d6c6576656c2063616c6c206661696c6564815250856001600160a01b03166131199092919063ffffffff16565b9050805160001480612e6e575080806020019051810190612e6e91906136c4565b6128c35760405162461bcd60e51b815260206004820152602a60248201527f5361666545524332303a204552433230206f7065726174696f6e20646964206e60448201527f6f742073756363656564000000000000000000000000000000000000000000006064820152608401610b51565b6001600160a01b0381163b612f5d5760405162461bcd60e51b815260206004820152602d60248201527f455243313936373a206e657720696d706c656d656e746174696f6e206973206e60448201527f6f74206120636f6e7472616374000000000000000000000000000000000000006064820152608401610b51565b7f360894a13ba1a3210667c828492db98dca3e2076cc3735a920a3ca505d382bbc80546001600160a01b0319166001600160a01b0392909216919091179055565b612fa783613128565b600082511180612fb45750805b156128c357612b6c8383613168565b600054610100900460ff1661302e5760405162461bcd60e51b815260206004820152602b60248201527f496e697469616c697a61626c653a20636f6e7472616374206973206e6f74206960448201526a6e697469616c697a696e6760a81b6064820152608401610b51565b610deb33612c10565b600054610100900460ff166128c85760405162461bcd60e51b815260206004820152602b60248201527f496e697469616c697a61626c653a20636f6e7472616374206973206e6f74206960448201526a6e697469616c697a696e6760a81b6064820152608401610b51565b600054610100900460ff1661310d5760405162461bcd60e51b815260206004820152602b60248201527f496e697469616c697a61626c653a20636f6e7472616374206973206e6f74206960448201526a6e697469616c697a696e6760a81b6064820152608401610b51565b60fb805460ff19169055565b6060611fa8848460008561318d565b61313181612ee0565b6040516001600160a01b038216907fbc7cd75a20ee27fd9adebab32041f755214dbc6bffa90cc0225b39da2e5c2d3b90600090a250565b60606113b2838360405180606001604052806027815260200161375a6027913961327f565b6060824710156132055760405162461bcd60e51b815260206004820152602660248201527f416464726573733a20696e73756666696369656e742062616c616e636520666f60448201527f722063616c6c00000000000000000000000000000000000000000000000000006064820152608401610b51565b600080866001600160a01b03168587604051613221919061370a565b60006040518083038185875af1925050503d806000811461325e576040519150601f19603f3d011682016040523d82523d6000602084013e613263565b606091505b5091509150613274878383876132f7565b979650505050505050565b6060600080856001600160a01b03168560405161329c919061370a565b600060405180830381855af49150503d80600081146132d7576040519150601f19603f3d011682016040523d82523d6000602084013e6132dc565b606091505b50915091506132ed868383876132f7565b9695505050505050565b6060831561336657825160000361335f576001600160a01b0385163b61335f5760405162461bcd60e51b815260206004820152601d60248201527f416464726573733a2063616c6c20746f206e6f6e2d636f6e74726163740000006044820152606401610b51565b5081611fa8565b611fa8838381511561337b5781518083602001fd5b8060405162461bcd60e51b8152600401610b519190613726565b82600281019282156133dd579160200282015b828111156133dd57825182546001600160a01b0319166001600160a01b039091161782556020909201916001909101906133a8565b506133e99291506133ed565b5090565b5b808211156133e957600081556001016133ee565b80356001600160a01b038116811461341957600080fd5b919050565b60006020828403121561343057600080fd5b6113b282613402565b6000806040838503121561344c57600080fd5b61345583613402565b915061346360208401613402565b90509250929050565b60006020828403121561347e57600080fd5b5035919050565b634e487b7160e01b600052604160045260246000fd5b604051601f8201601f1916810167ffffffffffffffff811182821017156134c4576134c4613485565b604052919050565b600080604083850312156134df57600080fd5b6134e883613402565b915060208084013567ffffffffffffffff8082111561350657600080fd5b818601915086601f83011261351a57600080fd5b81358181111561352c5761352c613485565b61353e601f8201601f1916850161349b565b9150808252878482850101111561355457600080fd5b80848401858401376000848284010152508093505050509250929050565b60008060008060a0858703121561358857600080fd5b61359185613402565b9350602086603f8701126135a457600080fd5b6040516040810181811067ffffffffffffffff821117156135c7576135c7613485565b6040528060608801898111156135dc57600080fd5b602089015b818110156135ff576135f281613402565b83529184019184016135e1565b5091955050359250613615905060808601613402565b905092959194509250565b634e487b7160e01b600052601160045260246000fd5b818103818111156108f0576108f0613620565b80820281158282048414176108f0576108f0613620565b60008261367d57634e487b7160e01b600052601260045260246000fd5b500490565b808201808211156108f0576108f0613620565b634e487b7160e01b600052603260045260246000fd5b6000602082840312156136bd57600080fd5b5051919050565b6000602082840312156136d657600080fd5b815180151581146113b257600080fd5b60005b838110156137015781810151838201526020016136e9565b50506000910152565b6000825161371c8184602087016136e6565b9190910192915050565b60208152600082518060208401526137458160408501602087016136e6565b601f01601f1916919091016040019291505056fe416464726573733a206c6f772d6c6576656c2064656c65676174652063616c6c206661696c6564a26469706673582212201b16f3931547f571b7eca80ef3b7ee7921c88ae7bae04dd294984b879aca114b64736f6c63430008180033","opcodes":"PUSH1 0xA0 PUSH1 0x40 MSTORE ADDRESS PUSH1 0x80 MSTORE CALLVALUE DUP1 ISZERO PUSH2 0x14 JUMPI PUSH1 0x0 DUP1 REVERT JUMPDEST POP PUSH1 0x80 MLOAD PUSH2 0x37B6 PUSH2 0x4C PUSH1 0x0 CODECOPY PUSH1 0x0 DUP2 DUP2 PUSH2 0xC65 ADD MSTORE DUP2 DUP2 PUSH2 0xCEA ADD MSTORE DUP2 DUP2 PUSH2 0x1149 ADD MSTORE DUP2 DUP2 PUSH2 0x11CE ADD MSTORE PUSH2 0x12B8 ADD MSTORE PUSH2 0x37B6 PUSH1 0x0 RETURN INVALID PUSH1 0x80 PUSH1 0x40 MSTORE PUSH1 0x4 CALLDATASIZE LT PUSH2 0x28F JUMPI PUSH1 0x0 CALLDATALOAD PUSH1 0xE0 SHR DUP1 PUSH4 0x8129FC1C GT PUSH2 0x156 JUMPI DUP1 PUSH4 0xCC6059C6 GT PUSH2 0xBF JUMPI DUP1 PUSH4 0xF43C2BCA GT PUSH2 0x79 JUMPI DUP1 PUSH4 0xF833027D GT PUSH2 0x61 JUMPI DUP1 PUSH4 0xF833027D EQ PUSH2 0x79D JUMPI DUP1 PUSH4 0xFA9465D5 EQ PUSH2 0x7CB JUMPI DUP1 PUSH4 0xFE7ED097 EQ PUSH2 0x7E0 JUMPI STOP JUMPDEST DUP1 PUSH4 0xF43C2BCA EQ PUSH2 0x75A JUMPI DUP1 PUSH4 0xF4542494 EQ PUSH2 0x786 JUMPI STOP JUMPDEST DUP1 PUSH4 0xE70B9E27 GT PUSH2 0xA7 JUMPI DUP1 PUSH4 0xE70B9E27 EQ PUSH2 0x6E1 JUMPI DUP1 PUSH4 0xF1229777 EQ PUSH2 0x71A JUMPI DUP1 PUSH4 0xF2FDE38B EQ PUSH2 0x73A JUMPI STOP JUMPDEST DUP1 PUSH4 0xCC6059C6 EQ PUSH2 0x6AC JUMPI DUP1 PUSH4 0xD9167DE7 EQ PUSH2 0x6C1 JUMPI STOP JUMPDEST DUP1 PUSH4 0xA89D8003 GT PUSH2 0x110 JUMPI DUP1 PUSH4 0xB88A802F GT PUSH2 0xF8 JUMPI DUP1 PUSH4 0xB88A802F EQ PUSH2 0x657 JUMPI DUP1 PUSH4 0xBCD11014 EQ PUSH2 0x66C JUMPI DUP1 PUSH4 0xCC1A378F EQ PUSH2 0x68C JUMPI STOP JUMPDEST DUP1 PUSH4 0xA89D8003 EQ PUSH2 0x609 JUMPI DUP1 PUSH4 0xB32F8D9F EQ PUSH2 0x629 JUMPI STOP JUMPDEST DUP1 PUSH4 0x8DA5CB5B GT PUSH2 0x13E JUMPI DUP1 PUSH4 0x8DA5CB5B EQ PUSH2 0x5AA JUMPI DUP1 PUSH4 0x90559094 EQ PUSH2 0x5C8 JUMPI DUP1 PUSH4 0xA694FC3A EQ PUSH2 0x5E9 JUMPI STOP JUMPDEST DUP1 PUSH4 0x8129FC1C EQ PUSH2 0x580 JUMPI DUP1 PUSH4 0x8456CB59 EQ PUSH2 0x595 JUMPI STOP JUMPDEST DUP1 PUSH4 0x4F1EF286 GT PUSH2 0x1F8 JUMPI DUP1 PUSH4 0x7035AB98 GT PUSH2 0x1B2 JUMPI DUP1 PUSH4 0x715018A6 GT PUSH2 0x19A JUMPI DUP1 PUSH4 0x715018A6 EQ PUSH2 0x52A JUMPI DUP1 PUSH4 0x72F702F3 EQ PUSH2 0x53F JUMPI DUP1 PUSH4 0x7BB7BED1 EQ PUSH2 0x560 JUMPI STOP JUMPDEST DUP1 PUSH4 0x7035AB98 EQ PUSH2 0x4C3 JUMPI DUP1 PUSH4 0x70A08231 EQ PUSH2 0x4FC JUMPI STOP JUMPDEST DUP1 PUSH4 0x5533DE90 GT PUSH2 0x1E0 JUMPI DUP1 PUSH4 0x5533DE90 EQ PUSH2 0x46B JUMPI DUP1 PUSH4 0x5C975ABB EQ PUSH2 0x480 JUMPI DUP1 PUSH4 0x638634EE EQ PUSH2 0x4A3 JUMPI STOP JUMPDEST DUP1 PUSH4 0x4F1EF286 EQ PUSH2 0x443 JUMPI DUP1 PUSH4 0x52D1902D EQ PUSH2 0x456 JUMPI STOP JUMPDEST DUP1 PUSH4 0x3659CFE6 GT PUSH2 0x249 JUMPI DUP1 PUSH4 0x3FC6DF6E GT PUSH2 0x231 JUMPI DUP1 PUSH4 0x3FC6DF6E EQ PUSH2 0x377 JUMPI DUP1 PUSH4 0x477C8FC1 EQ PUSH2 0x3B0 JUMPI DUP1 PUSH4 0x48E5D9F8 EQ PUSH2 0x3D0 JUMPI STOP JUMPDEST DUP1 PUSH4 0x3659CFE6 EQ PUSH2 0x342 JUMPI DUP1 PUSH4 0x3F4BA83A EQ PUSH2 0x362 JUMPI STOP JUMPDEST DUP1 PUSH4 0x1C9C4694 GT PUSH2 0x277 JUMPI DUP1 PUSH4 0x1C9C4694 EQ PUSH2 0x2E2 JUMPI DUP1 PUSH4 0x211DC32D EQ PUSH2 0x302 JUMPI DUP1 PUSH4 0x2E1A7D4D EQ PUSH2 0x322 JUMPI STOP JUMPDEST DUP1 PUSH4 0x18160DDD EQ PUSH2 0x298 JUMPI DUP1 PUSH4 0x19762143 EQ PUSH2 0x2C2 JUMPI STOP JUMPDEST CALLDATASIZE PUSH2 0x296 JUMPI STOP JUMPDEST STOP JUMPDEST CALLVALUE DUP1 ISZERO PUSH2 0x2A4 JUMPI PUSH1 0x0 DUP1 REVERT JUMPDEST POP PUSH2 0x2AF PUSH2 0x134 SLOAD DUP2 JUMP JUMPDEST PUSH1 0x40 MLOAD SWAP1 DUP2 MSTORE PUSH1 0x20 ADD JUMPDEST PUSH1 0x40 MLOAD DUP1 SWAP2 SUB SWAP1 RETURN JUMPDEST CALLVALUE DUP1 ISZERO PUSH2 0x2CE JUMPI PUSH1 0x0 DUP1 REVERT JUMPDEST POP PUSH2 0x296 PUSH2 0x2DD CALLDATASIZE PUSH1 0x4 PUSH2 0x341E JUMP JUMPDEST PUSH2 0x7F5 JUMP JUMPDEST CALLVALUE DUP1 ISZERO PUSH2 0x2EE JUMPI PUSH1 0x0 DUP1 REVERT JUMPDEST POP PUSH2 0x296 PUSH2 0x2FD CALLDATASIZE PUSH1 0x4 PUSH2 0x341E JUMP JUMPDEST PUSH2 0x820 JUMP JUMPDEST CALLVALUE DUP1 ISZERO PUSH2 0x30E JUMPI PUSH1 0x0 DUP1 REVERT JUMPDEST POP PUSH2 0x2AF PUSH2 0x31D CALLDATASIZE PUSH1 0x4 PUSH2 0x3439 JUMP JUMPDEST PUSH2 0x84B JUMP JUMPDEST CALLVALUE DUP1 ISZERO PUSH2 0x32E JUMPI PUSH1 0x0 DUP1 REVERT JUMPDEST POP PUSH2 0x296 PUSH2 0x33D CALLDATASIZE PUSH1 0x4 PUSH2 0x346C JUMP JUMPDEST PUSH2 0x8F6 JUMP JUMPDEST CALLVALUE DUP1 ISZERO PUSH2 0x34E JUMPI PUSH1 0x0 DUP1 REVERT JUMPDEST POP PUSH2 0x296 PUSH2 0x35D CALLDATASIZE PUSH1 0x4 PUSH2 0x341E JUMP JUMPDEST PUSH2 0xC5B JUMP JUMPDEST CALLVALUE DUP1 ISZERO PUSH2 0x36E JUMPI PUSH1 0x0 DUP1 REVERT JUMPDEST POP PUSH2 0x296 PUSH2 0xDD3 JUMP JUMPDEST CALLVALUE DUP1 ISZERO PUSH2 0x383 JUMPI PUSH1 0x0 DUP1 REVERT JUMPDEST POP PUSH2 0x131 SLOAD PUSH2 0x398 SWAP1 PUSH1 0x1 PUSH1 0x1 PUSH1 0xA0 SHL SUB AND DUP2 JUMP JUMPDEST PUSH1 0x40 MLOAD PUSH1 0x1 PUSH1 0x1 PUSH1 0xA0 SHL SUB SWAP1 SWAP2 AND DUP2 MSTORE PUSH1 0x20 ADD PUSH2 0x2B9 JUMP JUMPDEST CALLVALUE DUP1 ISZERO PUSH2 0x3BC JUMPI PUSH1 0x0 DUP1 REVERT JUMPDEST POP PUSH2 0x296 PUSH2 0x3CB CALLDATASIZE PUSH1 0x4 PUSH2 0x346C JUMP JUMPDEST PUSH2 0xDED JUMP JUMPDEST CALLVALUE DUP1 ISZERO PUSH2 0x3DC JUMPI PUSH1 0x0 DUP1 REVERT JUMPDEST POP PUSH2 0x41B PUSH2 0x3EB CALLDATASIZE PUSH1 0x4 PUSH2 0x341E JUMP JUMPDEST PUSH2 0x130 PUSH1 0x20 MSTORE PUSH1 0x0 SWAP1 DUP2 MSTORE PUSH1 0x40 SWAP1 KECCAK256 DUP1 SLOAD PUSH1 0x1 DUP3 ADD SLOAD PUSH1 0x2 DUP4 ADD SLOAD PUSH1 0x3 DUP5 ADD SLOAD PUSH1 0x4 SWAP1 SWAP5 ADD SLOAD SWAP3 SWAP4 SWAP2 SWAP3 SWAP1 SWAP2 SWAP1 DUP6 JUMP JUMPDEST PUSH1 0x40 DUP1 MLOAD SWAP6 DUP7 MSTORE PUSH1 0x20 DUP7 ADD SWAP5 SWAP1 SWAP5 MSTORE SWAP3 DUP5 ADD SWAP2 SWAP1 SWAP2 MSTORE PUSH1 0x60 DUP4 ADD MSTORE PUSH1 0x80 DUP3 ADD MSTORE PUSH1 0xA0 ADD PUSH2 0x2B9 JUMP JUMPDEST PUSH2 0x296 PUSH2 0x451 CALLDATASIZE PUSH1 0x4 PUSH2 0x34CC JUMP JUMPDEST PUSH2 0x113F JUMP JUMPDEST CALLVALUE DUP1 ISZERO PUSH2 0x462 JUMPI PUSH1 0x0 DUP1 REVERT JUMPDEST POP PUSH2 0x2AF PUSH2 0x12AB JUMP JUMPDEST CALLVALUE DUP1 ISZERO PUSH2 0x477 JUMPI PUSH1 0x0 DUP1 REVERT JUMPDEST POP PUSH2 0x2AF PUSH2 0x1370 JUMP JUMPDEST CALLVALUE DUP1 ISZERO PUSH2 0x48C JUMPI PUSH1 0x0 DUP1 REVERT JUMPDEST POP PUSH1 0xFB SLOAD PUSH1 0xFF AND PUSH1 0x40 MLOAD SWAP1 ISZERO ISZERO DUP2 MSTORE PUSH1 0x20 ADD PUSH2 0x2B9 JUMP JUMPDEST CALLVALUE DUP1 ISZERO PUSH2 0x4AF JUMPI PUSH1 0x0 DUP1 REVERT JUMPDEST POP PUSH2 0x2AF PUSH2 0x4BE CALLDATASIZE PUSH1 0x4 PUSH2 0x341E JUMP JUMPDEST PUSH2 0x1389 JUMP JUMPDEST CALLVALUE DUP1 ISZERO PUSH2 0x4CF JUMPI PUSH1 0x0 DUP1 REVERT JUMPDEST POP PUSH2 0x2AF PUSH2 0x4DE CALLDATASIZE PUSH1 0x4 PUSH2 0x3439 JUMP JUMPDEST PUSH2 0x132 PUSH1 0x20 SWAP1 DUP2 MSTORE PUSH1 0x0 SWAP3 DUP4 MSTORE PUSH1 0x40 DUP1 DUP5 KECCAK256 SWAP1 SWAP2 MSTORE SWAP1 DUP3 MSTORE SWAP1 KECCAK256 SLOAD DUP2 JUMP JUMPDEST CALLVALUE DUP1 ISZERO PUSH2 0x508 JUMPI PUSH1 0x0 DUP1 REVERT JUMPDEST POP PUSH2 0x2AF PUSH2 0x517 CALLDATASIZE PUSH1 0x4 PUSH2 0x341E JUMP JUMPDEST PUSH2 0x135 PUSH1 0x20 MSTORE PUSH1 0x0 SWAP1 DUP2 MSTORE PUSH1 0x40 SWAP1 KECCAK256 SLOAD DUP2 JUMP JUMPDEST CALLVALUE DUP1 ISZERO PUSH2 0x536 JUMPI PUSH1 0x0 DUP1 REVERT JUMPDEST POP PUSH2 0x296 PUSH2 0x13B9 JUMP JUMPDEST CALLVALUE DUP1 ISZERO PUSH2 0x54B JUMPI PUSH1 0x0 DUP1 REVERT JUMPDEST POP PUSH2 0x12D SLOAD PUSH2 0x398 SWAP1 PUSH1 0x1 PUSH1 0x1 PUSH1 0xA0 SHL SUB AND DUP2 JUMP JUMPDEST CALLVALUE DUP1 ISZERO PUSH2 0x56C JUMPI PUSH1 0x0 DUP1 REVERT JUMPDEST POP PUSH2 0x398 PUSH2 0x57B CALLDATASIZE PUSH1 0x4 PUSH2 0x346C JUMP JUMPDEST PUSH2 0x13CB JUMP JUMPDEST CALLVALUE DUP1 ISZERO PUSH2 0x58C JUMPI PUSH1 0x0 DUP1 REVERT JUMPDEST POP PUSH2 0x296 PUSH2 0x13EC JUMP JUMPDEST CALLVALUE DUP1 ISZERO PUSH2 0x5A1 JUMPI PUSH1 0x0 DUP1 REVERT JUMPDEST POP PUSH2 0x296 PUSH2 0x151C JUMP JUMPDEST CALLVALUE DUP1 ISZERO PUSH2 0x5B6 JUMPI PUSH1 0x0 DUP1 REVERT JUMPDEST POP PUSH1 0x97 SLOAD PUSH1 0x1 PUSH1 0x1 PUSH1 0xA0 SHL SUB AND PUSH2 0x398 JUMP JUMPDEST CALLVALUE DUP1 ISZERO PUSH2 0x5D4 JUMPI PUSH1 0x0 DUP1 REVERT JUMPDEST POP PUSH2 0x137 SLOAD PUSH2 0x398 SWAP1 PUSH1 0x1 PUSH1 0x1 PUSH1 0xA0 SHL SUB AND DUP2 JUMP JUMPDEST CALLVALUE DUP1 ISZERO PUSH2 0x5F5 JUMPI PUSH1 0x0 DUP1 REVERT JUMPDEST POP PUSH2 0x296 PUSH2 0x604 CALLDATASIZE PUSH1 0x4 PUSH2 0x346C JUMP JUMPDEST PUSH2 0x1534 JUMP JUMPDEST CALLVALUE DUP1 ISZERO PUSH2 0x615 JUMPI PUSH1 0x0 DUP1 REVERT JUMPDEST POP PUSH2 0x296 PUSH2 0x624 CALLDATASIZE PUSH1 0x4 PUSH2 0x3572 JUMP JUMPDEST PUSH2 0x181B JUMP JUMPDEST CALLVALUE DUP1 ISZERO PUSH2 0x635 JUMPI PUSH1 0x0 DUP1 REVERT JUMPDEST POP PUSH2 0x2AF PUSH2 0x644 CALLDATASIZE PUSH1 0x4 PUSH2 0x341E JUMP JUMPDEST PUSH2 0x13E PUSH1 0x20 MSTORE PUSH1 0x0 SWAP1 DUP2 MSTORE PUSH1 0x40 SWAP1 KECCAK256 SLOAD DUP2 JUMP JUMPDEST CALLVALUE DUP1 ISZERO PUSH2 0x663 JUMPI PUSH1 0x0 DUP1 REVERT JUMPDEST POP PUSH2 0x296 PUSH2 0x1879 JUMP JUMPDEST CALLVALUE DUP1 ISZERO PUSH2 0x678 JUMPI PUSH1 0x0 DUP1 REVERT JUMPDEST POP PUSH2 0x2AF PUSH2 0x687 CALLDATASIZE PUSH1 0x4 PUSH2 0x341E JUMP JUMPDEST PUSH2 0x1D57 JUMP JUMPDEST CALLVALUE DUP1 ISZERO PUSH2 0x698 JUMPI PUSH1 0x0 DUP1 REVERT JUMPDEST POP PUSH2 0x296 PUSH2 0x6A7 CALLDATASIZE PUSH1 0x4 PUSH2 0x346C JUMP JUMPDEST PUSH2 0x1D83 JUMP JUMPDEST CALLVALUE DUP1 ISZERO PUSH2 0x6B8 JUMPI PUSH1 0x0 DUP1 REVERT JUMPDEST POP PUSH2 0x2AF PUSH2 0x1E37 JUMP JUMPDEST CALLVALUE DUP1 ISZERO PUSH2 0x6CD JUMPI PUSH1 0x0 DUP1 REVERT JUMPDEST POP PUSH2 0x2AF PUSH2 0x6DC CALLDATASIZE PUSH1 0x4 PUSH2 0x341E JUMP JUMPDEST PUSH2 0x1E53 JUMP JUMPDEST CALLVALUE DUP1 ISZERO PUSH2 0x6ED JUMPI PUSH1 0x0 DUP1 REVERT JUMPDEST POP PUSH2 0x2AF PUSH2 0x6FC CALLDATASIZE PUSH1 0x4 PUSH2 0x3439 JUMP JUMPDEST PUSH2 0x133 PUSH1 0x20 SWAP1 DUP2 MSTORE PUSH1 0x0 SWAP3 DUP4 MSTORE PUSH1 0x40 DUP1 DUP5 KECCAK256 SWAP1 SWAP2 MSTORE SWAP1 DUP3 MSTORE SWAP1 KECCAK256 SLOAD DUP2 JUMP JUMPDEST CALLVALUE DUP1 ISZERO PUSH2 0x726 JUMPI PUSH1 0x0 DUP1 REVERT JUMPDEST POP PUSH2 0x2AF PUSH2 0x735 CALLDATASIZE PUSH1 0x4 PUSH2 0x341E JUMP JUMPDEST PUSH2 0x1ED5 JUMP JUMPDEST CALLVALUE DUP1 ISZERO PUSH2 0x746 JUMPI PUSH1 0x0 DUP1 REVERT JUMPDEST POP PUSH2 0x296 PUSH2 0x755 CALLDATASIZE PUSH1 0x4 PUSH2 0x341E JUMP JUMPDEST PUSH2 0x1FB0 JUMP JUMPDEST CALLVALUE DUP1 ISZERO PUSH2 0x766 JUMPI PUSH1 0x0 DUP1 REVERT JUMPDEST POP PUSH2 0x138 SLOAD PUSH2 0x139 SLOAD PUSH2 0x13A SLOAD PUSH2 0x13B SLOAD PUSH2 0x13C SLOAD PUSH2 0x41B SWAP5 SWAP4 SWAP3 SWAP2 SWAP1 DUP6 JUMP JUMPDEST CALLVALUE DUP1 ISZERO PUSH2 0x792 JUMPI PUSH1 0x0 DUP1 REVERT JUMPDEST POP PUSH2 0x2AF PUSH2 0x136 SLOAD DUP2 JUMP JUMPDEST CALLVALUE DUP1 ISZERO PUSH2 0x7A9 JUMPI PUSH1 0x0 DUP1 REVERT JUMPDEST POP PUSH2 0x2AF PUSH2 0x7B8 CALLDATASIZE PUSH1 0x4 PUSH2 0x341E JUMP JUMPDEST PUSH2 0x13D PUSH1 0x20 MSTORE PUSH1 0x0 SWAP1 DUP2 MSTORE PUSH1 0x40 SWAP1 KECCAK256 SLOAD DUP2 JUMP JUMPDEST CALLVALUE DUP1 ISZERO PUSH2 0x7D7 JUMPI PUSH1 0x0 DUP1 REVERT JUMPDEST POP PUSH2 0x296 PUSH2 0x203D JUMP JUMPDEST CALLVALUE DUP1 ISZERO PUSH2 0x7EC JUMPI PUSH1 0x0 DUP1 REVERT JUMPDEST POP PUSH2 0x2AF PUSH2 0x23CC JUMP JUMPDEST PUSH2 0x7FD PUSH2 0x2447 JUMP JUMPDEST PUSH2 0x131 DUP1 SLOAD PUSH1 0x1 PUSH1 0x1 PUSH1 0xA0 SHL SUB NOT AND PUSH1 0x1 PUSH1 0x1 PUSH1 0xA0 SHL SUB SWAP3 SWAP1 SWAP3 AND SWAP2 SWAP1 SWAP2 OR SWAP1 SSTORE JUMP JUMPDEST PUSH2 0x828 PUSH2 0x2447 JUMP JUMPDEST PUSH2 0x137 DUP1 SLOAD PUSH1 0x1 PUSH1 0x1 PUSH1 0xA0 SHL SUB NOT AND PUSH1 0x1 PUSH1 0x1 PUSH1 0xA0 SHL SUB SWAP3 SWAP1 SWAP3 AND SWAP2 SWAP1 SWAP2 OR SWAP1 SSTORE JUMP JUMPDEST PUSH1 0x1 PUSH1 0x1 PUSH1 0xA0 SHL SUB DUP1 DUP4 AND PUSH1 0x0 SWAP1 DUP2 MSTORE PUSH2 0x132 PUSH1 0x20 SWAP1 DUP2 MSTORE PUSH1 0x40 DUP1 DUP4 KECCAK256 SWAP4 DUP6 AND DUP4 MSTORE SWAP3 SWAP1 MSTORE SWAP1 DUP2 KECCAK256 SLOAD DUP2 SWAP1 PUSH2 0x87F DUP5 PUSH2 0x1ED5 JUMP JUMPDEST PUSH2 0x889 SWAP2 SWAP1 PUSH2 0x3636 JUMP JUMPDEST PUSH1 0x1 PUSH1 0x1 PUSH1 0xA0 SHL SUB DUP1 DUP7 AND PUSH1 0x0 DUP2 DUP2 MSTORE PUSH2 0x133 PUSH1 0x20 SWAP1 DUP2 MSTORE PUSH1 0x40 DUP1 DUP4 KECCAK256 SWAP5 DUP10 AND DUP4 MSTORE SWAP4 DUP2 MSTORE DUP4 DUP3 KECCAK256 SLOAD SWAP3 DUP3 MSTORE PUSH2 0x135 SWAP1 MSTORE SWAP2 SWAP1 SWAP2 KECCAK256 SLOAD SWAP2 SWAP3 POP SWAP1 PUSH8 0xDE0B6B3A7640000 SWAP1 PUSH2 0x8D8 SWAP1 DUP5 SWAP1 PUSH2 0x3649 JUMP JUMPDEST PUSH2 0x8E2 SWAP2 SWAP1 PUSH2 0x3660 JUMP JUMPDEST PUSH2 0x8EC SWAP2 SWAP1 PUSH2 0x3682 JUMP JUMPDEST SWAP2 POP POP JUMPDEST SWAP3 SWAP2 POP POP JUMP JUMPDEST PUSH2 0x8FE PUSH2 0x24A1 JUMP JUMPDEST PUSH2 0x906 PUSH2 0x24FA JUMP JUMPDEST CALLER PUSH1 0x0 JUMPDEST PUSH1 0x2 DUP2 LT ISZERO PUSH2 0xA3D JUMPI PUSH1 0x0 PUSH2 0x12E DUP3 PUSH1 0x2 DUP2 LT PUSH2 0x929 JUMPI PUSH2 0x929 PUSH2 0x3695 JUMP JUMPDEST ADD SLOAD PUSH1 0x1 PUSH1 0x1 PUSH1 0xA0 SHL SUB AND SWAP1 POP PUSH2 0x93F DUP2 PUSH2 0x1ED5 JUMP JUMPDEST PUSH1 0x1 PUSH1 0x1 PUSH1 0xA0 SHL SUB DUP3 AND PUSH1 0x0 SWAP1 DUP2 MSTORE PUSH2 0x130 PUSH1 0x20 MSTORE PUSH1 0x40 SWAP1 KECCAK256 PUSH1 0x3 ADD SSTORE PUSH2 0x965 DUP2 PUSH2 0x1389 JUMP JUMPDEST PUSH1 0x1 PUSH1 0x1 PUSH1 0xA0 SHL SUB DUP1 DUP4 AND PUSH1 0x0 SWAP1 DUP2 MSTORE PUSH2 0x130 PUSH1 0x20 MSTORE PUSH1 0x40 SWAP1 KECCAK256 PUSH1 0x2 ADD SWAP2 SWAP1 SWAP2 SSTORE DUP4 AND ISZERO PUSH2 0xA34 JUMPI PUSH2 0x997 DUP4 DUP3 PUSH2 0x84B JUMP JUMPDEST PUSH1 0x1 PUSH1 0x1 PUSH1 0xA0 SHL SUB DUP5 DUP2 AND PUSH1 0x0 DUP2 DUP2 MSTORE PUSH2 0x133 PUSH1 0x20 SWAP1 DUP2 MSTORE PUSH1 0x40 DUP1 DUP4 KECCAK256 SWAP5 DUP8 AND DUP1 DUP5 MSTORE SWAP5 DUP3 MSTORE DUP1 DUP4 KECCAK256 SWAP6 DUP7 SSTORE PUSH2 0x130 DUP3 MSTORE DUP1 DUP4 KECCAK256 PUSH1 0x3 ADD SLOAD DUP5 DUP5 MSTORE PUSH2 0x132 DUP4 MSTORE DUP2 DUP5 KECCAK256 DUP7 DUP6 MSTORE DUP4 MSTORE SWAP3 DUP2 SWAP1 KECCAK256 DUP4 SWAP1 SSTORE SWAP5 SLOAD DUP6 MLOAD SWAP5 DUP6 MSTORE SWAP1 DUP5 ADD DUP3 SWAP1 MSTORE DUP4 DUP6 ADD SWAP3 SWAP1 SWAP3 MSTORE PUSH1 0x60 DUP4 ADD SWAP2 SWAP1 SWAP2 MSTORE PUSH1 0x80 DUP3 ADD MSTORE SWAP1 MLOAD PUSH32 0xE18754A2D63E1E9C2A4F61712CCD2C8DF6DFB1EAE9F53B2158E316C62823CE2A SWAP2 DUP2 SWAP1 SUB PUSH1 0xA0 ADD SWAP1 LOG1 JUMPDEST POP PUSH1 0x1 ADD PUSH2 0x90A JUMP JUMPDEST POP PUSH2 0x137 SLOAD PUSH1 0x1 PUSH1 0x1 PUSH1 0xA0 SHL SUB AND ISZERO PUSH2 0xB05 JUMPI PUSH2 0xA58 PUSH2 0x23CC JUMP JUMPDEST PUSH2 0x13B SSTORE PUSH2 0xA64 PUSH2 0x1E37 JUMP JUMPDEST PUSH2 0x13A SSTORE PUSH1 0x1 PUSH1 0x1 PUSH1 0xA0 SHL SUB DUP2 AND ISZERO PUSH2 0xB05 JUMPI PUSH2 0xA80 DUP2 PUSH2 0x1E53 JUMP JUMPDEST PUSH1 0x1 PUSH1 0x1 PUSH1 0xA0 SHL SUB DUP3 DUP2 AND PUSH1 0x0 DUP2 DUP2 MSTORE PUSH2 0x13E PUSH1 0x20 SWAP1 DUP2 MSTORE PUSH1 0x40 DUP1 DUP4 KECCAK256 SWAP6 DUP7 SSTORE PUSH2 0x13B SLOAD PUSH2 0x13D DUP4 MSTORE SWAP3 DUP2 SWAP1 KECCAK256 DUP4 SWAP1 SSTORE PUSH2 0x137 SLOAD SWAP6 SLOAD DUP2 MLOAD SWAP7 SWAP1 SWAP6 AND DUP7 MSTORE SWAP1 DUP6 ADD DUP3 SWAP1 MSTORE DUP5 ADD SWAP2 SWAP1 SWAP2 MSTORE PUSH1 0x60 DUP4 ADD SWAP2 SWAP1 SWAP2 MSTORE PUSH1 0x80 DUP3 ADD MSTORE PUSH32 0xE18754A2D63E1E9C2A4F61712CCD2C8DF6DFB1EAE9F53B2158E316C62823CE2A SWAP1 PUSH1 0xA0 ADD PUSH1 0x40 MLOAD DUP1 SWAP2 SUB SWAP1 LOG1 JUMPDEST PUSH1 0x0 DUP3 GT PUSH2 0xB5A JUMPI PUSH1 0x40 MLOAD PUSH3 0x461BCD PUSH1 0xE5 SHL DUP2 MSTORE PUSH1 0x20 PUSH1 0x4 DUP3 ADD MSTORE PUSH1 0x11 PUSH1 0x24 DUP3 ADD MSTORE PUSH32 0x43616E6E6F742077697468647261772030000000000000000000000000000000 PUSH1 0x44 DUP3 ADD MSTORE PUSH1 0x64 ADD JUMPDEST PUSH1 0x40 MLOAD DUP1 SWAP2 SUB SWAP1 REVERT JUMPDEST CALLER PUSH1 0x0 SWAP1 DUP2 MSTORE PUSH2 0x135 PUSH1 0x20 MSTORE PUSH1 0x40 SWAP1 KECCAK256 SLOAD DUP3 GT ISZERO PUSH2 0xBBA JUMPI PUSH1 0x40 MLOAD PUSH3 0x461BCD PUSH1 0xE5 SHL DUP2 MSTORE PUSH1 0x20 PUSH1 0x4 DUP3 ADD MSTORE PUSH1 0x16 PUSH1 0x24 DUP3 ADD MSTORE PUSH32 0x42616C616E6365206973206E6F7420656E6F7567682E00000000000000000000 PUSH1 0x44 DUP3 ADD MSTORE PUSH1 0x64 ADD PUSH2 0xB51 JUMP JUMPDEST PUSH2 0xBC2 PUSH2 0x254D JUMP JUMPDEST DUP2 PUSH2 0x134 PUSH1 0x0 DUP3 DUP3 SLOAD PUSH2 0xBD5 SWAP2 SWAP1 PUSH2 0x3636 JUMP JUMPDEST SWAP1 SWAP2 SSTORE POP POP CALLER PUSH1 0x0 SWAP1 DUP2 MSTORE PUSH2 0x135 PUSH1 0x20 MSTORE PUSH1 0x40 DUP2 KECCAK256 DUP1 SLOAD DUP5 SWAP3 SWAP1 PUSH2 0xBFA SWAP1 DUP5 SWAP1 PUSH2 0x3636 JUMP JUMPDEST SWAP1 SWAP2 SSTORE POP POP PUSH2 0x12D SLOAD PUSH2 0xC17 SWAP1 PUSH1 0x1 PUSH1 0x1 PUSH1 0xA0 SHL SUB AND CALLER DUP5 PUSH2 0x281A JUMP JUMPDEST PUSH1 0x40 MLOAD DUP3 DUP2 MSTORE CALLER SWAP1 PUSH32 0x7084F5476618D8E60B11EF0D7D3F06914655ADB8793E28FF7F018D4C76D505D5 SWAP1 PUSH1 0x20 ADD JUMPDEST PUSH1 0x40 MLOAD DUP1 SWAP2 SUB SWAP1 LOG2 POP PUSH2 0xC58 PUSH1 0x1 PUSH1 0xC9 SSTORE JUMP JUMPDEST POP JUMP JUMPDEST PUSH1 0x1 PUSH1 0x1 PUSH1 0xA0 SHL SUB PUSH32 0x0 AND ADDRESS SUB PUSH2 0xCE8 JUMPI PUSH1 0x40 MLOAD PUSH3 0x461BCD PUSH1 0xE5 SHL DUP2 MSTORE PUSH1 0x20 PUSH1 0x4 DUP3 ADD MSTORE PUSH1 0x2C PUSH1 0x24 DUP3 ADD MSTORE PUSH32 0x46756E6374696F6E206D7573742062652063616C6C6564207468726F75676820 PUSH1 0x44 DUP3 ADD MSTORE PUSH12 0x19195B1959D85D1958D85B1B PUSH1 0xA2 SHL PUSH1 0x64 DUP3 ADD MSTORE PUSH1 0x84 ADD PUSH2 0xB51 JUMP JUMPDEST PUSH32 0x0 PUSH1 0x1 PUSH1 0x1 PUSH1 0xA0 SHL SUB AND PUSH2 0xD43 PUSH32 0x360894A13BA1A3210667C828492DB98DCA3E2076CC3735A920A3CA505D382BBC SLOAD PUSH1 0x1 PUSH1 0x1 PUSH1 0xA0 SHL SUB AND SWAP1 JUMP JUMPDEST PUSH1 0x1 PUSH1 0x1 PUSH1 0xA0 SHL SUB AND EQ PUSH2 0xDAE JUMPI PUSH1 0x40 MLOAD PUSH3 0x461BCD PUSH1 0xE5 SHL DUP2 MSTORE PUSH1 0x20 PUSH1 0x4 DUP3 ADD MSTORE PUSH1 0x2C PUSH1 0x24 DUP3 ADD MSTORE PUSH32 0x46756E6374696F6E206D7573742062652063616C6C6564207468726F75676820 PUSH1 0x44 DUP3 ADD MSTORE PUSH12 0x6163746976652070726F7879 PUSH1 0xA0 SHL PUSH1 0x64 DUP3 ADD MSTORE PUSH1 0x84 ADD PUSH2 0xB51 JUMP JUMPDEST PUSH2 0xDB7 DUP2 PUSH2 0x28CF JUMP JUMPDEST PUSH1 0x40 DUP1 MLOAD PUSH1 0x0 DUP1 DUP3 MSTORE PUSH1 0x20 DUP3 ADD SWAP1 SWAP3 MSTORE PUSH2 0xC58 SWAP2 DUP4 SWAP2 SWAP1 PUSH2 0x28D7 JUMP JUMPDEST PUSH2 0xDDB PUSH2 0x2447 JUMP JUMPDEST PUSH2 0xDE3 PUSH2 0x2A77 JUMP JUMPDEST PUSH2 0xDEB PUSH2 0x2AC9 JUMP JUMPDEST JUMP JUMPDEST PUSH2 0x131 SLOAD PUSH1 0x1 PUSH1 0x1 PUSH1 0xA0 SHL SUB AND CALLER EQ PUSH2 0xE5B JUMPI PUSH1 0x40 MLOAD PUSH3 0x461BCD PUSH1 0xE5 SHL DUP2 MSTORE PUSH1 0x20 PUSH1 0x4 DUP3 ADD MSTORE PUSH1 0x2A PUSH1 0x24 DUP3 ADD MSTORE PUSH32 0x43616C6C6572206973206E6F742052657761726473446973747269627574696F PUSH1 0x44 DUP3 ADD MSTORE PUSH10 0x1B8818DBDB9D1C9858DD PUSH1 0xB2 SHL PUSH1 0x64 DUP3 ADD MSTORE PUSH1 0x84 ADD PUSH2 0xB51 JUMP JUMPDEST PUSH1 0x0 DUP1 JUMPDEST PUSH1 0x2 DUP2 LT ISZERO PUSH2 0xF92 JUMPI PUSH1 0x0 PUSH2 0x12E DUP3 PUSH1 0x2 DUP2 LT PUSH2 0xE7E JUMPI PUSH2 0xE7E PUSH2 0x3695 JUMP JUMPDEST ADD SLOAD PUSH1 0x1 PUSH1 0x1 PUSH1 0xA0 SHL SUB AND SWAP1 POP PUSH2 0xE94 DUP2 PUSH2 0x1ED5 JUMP JUMPDEST PUSH1 0x1 PUSH1 0x1 PUSH1 0xA0 SHL SUB DUP3 AND PUSH1 0x0 SWAP1 DUP2 MSTORE PUSH2 0x130 PUSH1 0x20 MSTORE PUSH1 0x40 SWAP1 KECCAK256 PUSH1 0x3 ADD SSTORE PUSH2 0xEBA DUP2 PUSH2 0x1389 JUMP JUMPDEST PUSH1 0x1 PUSH1 0x1 PUSH1 0xA0 SHL SUB DUP1 DUP4 AND PUSH1 0x0 SWAP1 DUP2 MSTORE PUSH2 0x130 PUSH1 0x20 MSTORE PUSH1 0x40 SWAP1 KECCAK256 PUSH1 0x2 ADD SWAP2 SWAP1 SWAP2 SSTORE DUP4 AND ISZERO PUSH2 0xF89 JUMPI PUSH2 0xEEC DUP4 DUP3 PUSH2 0x84B JUMP JUMPDEST PUSH1 0x1 PUSH1 0x1 PUSH1 0xA0 SHL SUB DUP5 DUP2 AND PUSH1 0x0 DUP2 DUP2 MSTORE PUSH2 0x133 PUSH1 0x20 SWAP1 DUP2 MSTORE PUSH1 0x40 DUP1 DUP4 KECCAK256 SWAP5 DUP8 AND DUP1 DUP5 MSTORE SWAP5 DUP3 MSTORE DUP1 DUP4 KECCAK256 SWAP6 DUP7 SSTORE PUSH2 0x130 DUP3 MSTORE DUP1 DUP4 KECCAK256 PUSH1 0x3 ADD SLOAD DUP5 DUP5 MSTORE PUSH2 0x132 DUP4 MSTORE DUP2 DUP5 KECCAK256 DUP7 DUP6 MSTORE DUP4 MSTORE SWAP3 DUP2 SWAP1 KECCAK256 DUP4 SWAP1 SSTORE SWAP5 SLOAD DUP6 MLOAD SWAP5 DUP6 MSTORE SWAP1 DUP5 ADD DUP3 SWAP1 MSTORE DUP4 DUP6 ADD SWAP3 SWAP1 SWAP3 MSTORE PUSH1 0x60 DUP4 ADD SWAP2 SWAP1 SWAP2 MSTORE PUSH1 0x80 DUP3 ADD MSTORE SWAP1 MLOAD PUSH32 0xE18754A2D63E1E9C2A4F61712CCD2C8DF6DFB1EAE9F53B2158E316C62823CE2A SWAP2 DUP2 SWAP1 SUB PUSH1 0xA0 ADD SWAP1 LOG1 JUMPDEST POP PUSH1 0x1 ADD PUSH2 0xE5F JUMP JUMPDEST POP PUSH2 0x137 SLOAD PUSH1 0x1 PUSH1 0x1 PUSH1 0xA0 SHL SUB AND ISZERO PUSH2 0x105A JUMPI PUSH2 0xFAD PUSH2 0x23CC JUMP JUMPDEST PUSH2 0x13B SSTORE PUSH2 0xFB9 PUSH2 0x1E37 JUMP JUMPDEST PUSH2 0x13A SSTORE PUSH1 0x1 PUSH1 0x1 PUSH1 0xA0 SHL SUB DUP2 AND ISZERO PUSH2 0x105A JUMPI PUSH2 0xFD5 DUP2 PUSH2 0x1E53 JUMP JUMPDEST PUSH1 0x1 PUSH1 0x1 PUSH1 0xA0 SHL SUB DUP3 DUP2 AND PUSH1 0x0 DUP2 DUP2 MSTORE PUSH2 0x13E PUSH1 0x20 SWAP1 DUP2 MSTORE PUSH1 0x40 DUP1 DUP4 KECCAK256 SWAP6 DUP7 SSTORE PUSH2 0x13B SLOAD PUSH2 0x13D DUP4 MSTORE SWAP3 DUP2 SWAP1 KECCAK256 DUP4 SWAP1 SSTORE PUSH2 0x137 SLOAD SWAP6 SLOAD DUP2 MLOAD SWAP7 SWAP1 SWAP6 AND DUP7 MSTORE SWAP1 DUP6 ADD DUP3 SWAP1 MSTORE DUP5 ADD SWAP2 SWAP1 SWAP2 MSTORE PUSH1 0x60 DUP4 ADD SWAP2 SWAP1 SWAP2 MSTORE PUSH1 0x80 DUP3 ADD MSTORE PUSH32 0xE18754A2D63E1E9C2A4F61712CCD2C8DF6DFB1EAE9F53B2158E316C62823CE2A SWAP1 PUSH1 0xA0 ADD PUSH1 0x40 MLOAD DUP1 SWAP2 SUB SWAP1 LOG1 JUMPDEST PUSH1 0x0 DUP3 GT PUSH2 0x10D0 JUMPI PUSH1 0x40 MLOAD PUSH3 0x461BCD PUSH1 0xE5 SHL DUP2 MSTORE PUSH1 0x20 PUSH1 0x4 DUP3 ADD MSTORE PUSH1 0x2C PUSH1 0x24 DUP3 ADD MSTORE PUSH32 0x5570646174652052657761726420416D6F756E742073686F756C642062652062 PUSH1 0x44 DUP3 ADD MSTORE PUSH32 0x6967676572207468616E20300000000000000000000000000000000000000000 PUSH1 0x64 DUP3 ADD MSTORE PUSH1 0x84 ADD PUSH2 0xB51 JUMP JUMPDEST PUSH2 0x137 SLOAD PUSH2 0x138 SWAP1 PUSH2 0x10ED SWAP1 PUSH1 0x1 PUSH1 0x1 PUSH1 0xA0 SHL SUB AND CALLER ADDRESS DUP7 PUSH2 0x2B1B JUMP JUMPDEST PUSH2 0x10F7 DUP2 DUP5 PUSH2 0x2B72 JUMP JUMPDEST PUSH2 0x137 SLOAD PUSH1 0x40 MLOAD DUP5 DUP2 MSTORE PUSH1 0x1 PUSH1 0x1 PUSH1 0xA0 SHL SUB SWAP1 SWAP2 AND SWAP1 PUSH32 0xAC24935FD910BC682B5CCB1A07B718CADF8CF2F6D1404C4F3DDC3662DAE40E29 SWAP1 PUSH1 0x20 ADD PUSH1 0x40 MLOAD DUP1 SWAP2 SUB SWAP1 LOG2 POP POP POP JUMP JUMPDEST PUSH1 0x1 PUSH1 0x1 PUSH1 0xA0 SHL SUB PUSH32 0x0 AND ADDRESS SUB PUSH2 0x11CC JUMPI PUSH1 0x40 MLOAD PUSH3 0x461BCD PUSH1 0xE5 SHL DUP2 MSTORE PUSH1 0x20 PUSH1 0x4 DUP3 ADD MSTORE PUSH1 0x2C PUSH1 0x24 DUP3 ADD MSTORE PUSH32 0x46756E6374696F6E206D7573742062652063616C6C6564207468726F75676820 PUSH1 0x44 DUP3 ADD MSTORE PUSH12 0x19195B1959D85D1958D85B1B PUSH1 0xA2 SHL PUSH1 0x64 DUP3 ADD MSTORE PUSH1 0x84 ADD PUSH2 0xB51 JUMP JUMPDEST PUSH32 0x0 PUSH1 0x1 PUSH1 0x1 PUSH1 0xA0 SHL SUB AND PUSH2 0x1227 PUSH32 0x360894A13BA1A3210667C828492DB98DCA3E2076CC3735A920A3CA505D382BBC SLOAD PUSH1 0x1 PUSH1 0x1 PUSH1 0xA0 SHL SUB AND SWAP1 JUMP JUMPDEST PUSH1 0x1 PUSH1 0x1 PUSH1 0xA0 SHL SUB AND EQ PUSH2 0x1292 JUMPI PUSH1 0x40 MLOAD PUSH3 0x461BCD PUSH1 0xE5 SHL DUP2 MSTORE PUSH1 0x20 PUSH1 0x4 DUP3 ADD MSTORE PUSH1 0x2C PUSH1 0x24 DUP3 ADD MSTORE PUSH32 0x46756E6374696F6E206D7573742062652063616C6C6564207468726F75676820 PUSH1 0x44 DUP3 ADD MSTORE PUSH12 0x6163746976652070726F7879 PUSH1 0xA0 SHL PUSH1 0x64 DUP3 ADD MSTORE PUSH1 0x84 ADD PUSH2 0xB51 JUMP JUMPDEST PUSH2 0x129B DUP3 PUSH2 0x28CF JUMP JUMPDEST PUSH2 0x12A7 DUP3 DUP3 PUSH1 0x1 PUSH2 0x28D7 JUMP JUMPDEST POP POP JUMP JUMPDEST PUSH1 0x0 ADDRESS PUSH1 0x1 PUSH1 0x1 PUSH1 0xA0 SHL SUB PUSH32 0x0 AND EQ PUSH2 0x134B JUMPI PUSH1 0x40 MLOAD PUSH3 0x461BCD PUSH1 0xE5 SHL DUP2 MSTORE PUSH1 0x20 PUSH1 0x4 DUP3 ADD MSTORE PUSH1 0x38 PUSH1 0x24 DUP3 ADD MSTORE PUSH32 0x555550535570677261646561626C653A206D757374206E6F742062652063616C PUSH1 0x44 DUP3 ADD MSTORE PUSH32 0x6C6564207468726F7567682064656C656761746563616C6C0000000000000000 PUSH1 0x64 DUP3 ADD MSTORE PUSH1 0x84 ADD PUSH2 0xB51 JUMP JUMPDEST POP PUSH32 0x360894A13BA1A3210667C828492DB98DCA3E2076CC3735A920A3CA505D382BBC SWAP1 JUMP JUMPDEST PUSH2 0x136 SLOAD PUSH2 0x139 SLOAD PUSH1 0x0 SWAP2 PUSH2 0x1384 SWAP2 PUSH2 0x3649 JUMP JUMPDEST SWAP1 POP SWAP1 JUMP JUMPDEST PUSH1 0x1 PUSH1 0x1 PUSH1 0xA0 SHL SUB DUP2 AND PUSH1 0x0 SWAP1 DUP2 MSTORE PUSH2 0x130 PUSH1 0x20 MSTORE PUSH1 0x40 DUP2 KECCAK256 SLOAD TIMESTAMP DUP2 GT PUSH2 0x13B0 JUMPI DUP1 PUSH2 0x13B2 JUMP JUMPDEST TIMESTAMP JUMPDEST SWAP4 SWAP3 POP POP POP JUMP JUMPDEST PUSH2 0x13C1 PUSH2 0x2447 JUMP JUMPDEST PUSH2 0xDEB PUSH1 0x0 PUSH2 0x2C10 JUMP JUMPDEST PUSH2 0x12E DUP2 PUSH1 0x2 DUP2 LT PUSH2 0x13DC JUMPI PUSH1 0x0 DUP1 REVERT JUMPDEST ADD SLOAD PUSH1 0x1 PUSH1 0x1 PUSH1 0xA0 SHL SUB AND SWAP1 POP DUP2 JUMP JUMPDEST PUSH1 0x0 SLOAD PUSH2 0x100 SWAP1 DIV PUSH1 0xFF AND ISZERO DUP1 DUP1 ISZERO PUSH2 0x140C JUMPI POP PUSH1 0x0 SLOAD PUSH1 0x1 PUSH1 0xFF SWAP1 SWAP2 AND LT JUMPDEST DUP1 PUSH2 0x1426 JUMPI POP ADDRESS EXTCODESIZE ISZERO DUP1 ISZERO PUSH2 0x1426 JUMPI POP PUSH1 0x0 SLOAD PUSH1 0xFF AND PUSH1 0x1 EQ JUMPDEST PUSH2 0x1498 JUMPI PUSH1 0x40 MLOAD PUSH3 0x461BCD PUSH1 0xE5 SHL DUP2 MSTORE PUSH1 0x20 PUSH1 0x4 DUP3 ADD MSTORE PUSH1 0x2E PUSH1 0x24 DUP3 ADD MSTORE PUSH32 0x496E697469616C697A61626C653A20636F6E747261637420697320616C726561 PUSH1 0x44 DUP3 ADD MSTORE PUSH32 0x647920696E697469616C697A6564000000000000000000000000000000000000 PUSH1 0x64 DUP3 ADD MSTORE PUSH1 0x84 ADD PUSH2 0xB51 JUMP JUMPDEST PUSH1 0x0 DUP1 SLOAD PUSH1 0xFF NOT AND PUSH1 0x1 OR SWAP1 SSTORE DUP1 ISZERO PUSH2 0x14BB JUMPI PUSH1 0x0 DUP1 SLOAD PUSH2 0xFF00 NOT AND PUSH2 0x100 OR SWAP1 SSTORE JUMPDEST PUSH2 0x14C3 PUSH2 0x2C62 JUMP JUMPDEST PUSH2 0x14CB PUSH2 0x2CD5 JUMP JUMPDEST PUSH2 0x14D3 PUSH2 0x2D48 JUMP JUMPDEST DUP1 ISZERO PUSH2 0xC58 JUMPI PUSH1 0x0 DUP1 SLOAD PUSH2 0xFF00 NOT AND SWAP1 SSTORE PUSH1 0x40 MLOAD PUSH1 0x1 DUP2 MSTORE PUSH32 0x7F26B83FF96E1F2B6A682F133852F6798A09C465DA95921460CEFB3847402498 SWAP1 PUSH1 0x20 ADD JUMPDEST PUSH1 0x40 MLOAD DUP1 SWAP2 SUB SWAP1 LOG1 POP JUMP JUMPDEST PUSH2 0x1524 PUSH2 0x2447 JUMP JUMPDEST PUSH2 0x152C PUSH2 0x24FA JUMP JUMPDEST PUSH2 0xDEB PUSH2 0x2DBB JUMP JUMPDEST PUSH2 0x153C PUSH2 0x24A1 JUMP JUMPDEST PUSH2 0x1544 PUSH2 0x24FA JUMP JUMPDEST CALLER PUSH1 0x0 JUMPDEST PUSH1 0x2 DUP2 LT ISZERO PUSH2 0x167B JUMPI PUSH1 0x0 PUSH2 0x12E DUP3 PUSH1 0x2 DUP2 LT PUSH2 0x1567 JUMPI PUSH2 0x1567 PUSH2 0x3695 JUMP JUMPDEST ADD SLOAD PUSH1 0x1 PUSH1 0x1 PUSH1 0xA0 SHL SUB AND SWAP1 POP PUSH2 0x157D DUP2 PUSH2 0x1ED5 JUMP JUMPDEST PUSH1 0x1 PUSH1 0x1 PUSH1 0xA0 SHL SUB DUP3 AND PUSH1 0x0 SWAP1 DUP2 MSTORE PUSH2 0x130 PUSH1 0x20 MSTORE PUSH1 0x40 SWAP1 KECCAK256 PUSH1 0x3 ADD SSTORE PUSH2 0x15A3 DUP2 PUSH2 0x1389 JUMP JUMPDEST PUSH1 0x1 PUSH1 0x1 PUSH1 0xA0 SHL SUB DUP1 DUP4 AND PUSH1 0x0 SWAP1 DUP2 MSTORE PUSH2 0x130 PUSH1 0x20 MSTORE PUSH1 0x40 SWAP1 KECCAK256 PUSH1 0x2 ADD SWAP2 SWAP1 SWAP2 SSTORE DUP4 AND ISZERO PUSH2 0x1672 JUMPI PUSH2 0x15D5 DUP4 DUP3 PUSH2 0x84B JUMP JUMPDEST PUSH1 0x1 PUSH1 0x1 PUSH1 0xA0 SHL SUB DUP5 DUP2 AND PUSH1 0x0 DUP2 DUP2 MSTORE PUSH2 0x133 PUSH1 0x20 SWAP1 DUP2 MSTORE PUSH1 0x40 DUP1 DUP4 KECCAK256 SWAP5 DUP8 AND DUP1 DUP5 MSTORE SWAP5 DUP3 MSTORE DUP1 DUP4 KECCAK256 SWAP6 DUP7 SSTORE PUSH2 0x130 DUP3 MSTORE DUP1 DUP4 KECCAK256 PUSH1 0x3 ADD SLOAD DUP5 DUP5 MSTORE PUSH2 0x132 DUP4 MSTORE DUP2 DUP5 KECCAK256 DUP7 DUP6 MSTORE DUP4 MSTORE SWAP3 DUP2 SWAP1 KECCAK256 DUP4 SWAP1 SSTORE SWAP5 SLOAD DUP6 MLOAD SWAP5 DUP6 MSTORE SWAP1 DUP5 ADD DUP3 SWAP1 MSTORE DUP4 DUP6 ADD SWAP3 SWAP1 SWAP3 MSTORE PUSH1 0x60 DUP4 ADD SWAP2 SWAP1 SWAP2 MSTORE PUSH1 0x80 DUP3 ADD MSTORE SWAP1 MLOAD PUSH32 0xE18754A2D63E1E9C2A4F61712CCD2C8DF6DFB1EAE9F53B2158E316C62823CE2A SWAP2 DUP2 SWAP1 SUB PUSH1 0xA0 ADD SWAP1 LOG1 JUMPDEST POP PUSH1 0x1 ADD PUSH2 0x1548 JUMP JUMPDEST POP PUSH2 0x137 SLOAD PUSH1 0x1 PUSH1 0x1 PUSH1 0xA0 SHL SUB AND ISZERO PUSH2 0x1743 JUMPI PUSH2 0x1696 PUSH2 0x23CC JUMP JUMPDEST PUSH2 0x13B SSTORE PUSH2 0x16A2 PUSH2 0x1E37 JUMP JUMPDEST PUSH2 0x13A SSTORE PUSH1 0x1 PUSH1 0x1 PUSH1 0xA0 SHL SUB DUP2 AND ISZERO PUSH2 0x1743 JUMPI PUSH2 0x16BE DUP2 PUSH2 0x1E53 JUMP JUMPDEST PUSH1 0x1 PUSH1 0x1 PUSH1 0xA0 SHL SUB DUP3 DUP2 AND PUSH1 0x0 DUP2 DUP2 MSTORE PUSH2 0x13E PUSH1 0x20 SWAP1 DUP2 MSTORE PUSH1 0x40 DUP1 DUP4 KECCAK256 SWAP6 DUP7 SSTORE PUSH2 0x13B SLOAD PUSH2 0x13D DUP4 MSTORE SWAP3 DUP2 SWAP1 KECCAK256 DUP4 SWAP1 SSTORE PUSH2 0x137 SLOAD SWAP6 SLOAD DUP2 MLOAD SWAP7 SWAP1 SWAP6 AND DUP7 MSTORE SWAP1 DUP6 ADD DUP3 SWAP1 MSTORE DUP5 ADD SWAP2 SWAP1 SWAP2 MSTORE PUSH1 0x60 DUP4 ADD SWAP2 SWAP1 SWAP2 MSTORE PUSH1 0x80 DUP3 ADD MSTORE PUSH32 0xE18754A2D63E1E9C2A4F61712CCD2C8DF6DFB1EAE9F53B2158E316C62823CE2A SWAP1 PUSH1 0xA0 ADD PUSH1 0x40 MLOAD DUP1 SWAP2 SUB SWAP1 LOG1 JUMPDEST PUSH1 0x0 DUP3 GT PUSH2 0x1793 JUMPI PUSH1 0x40 MLOAD PUSH3 0x461BCD PUSH1 0xE5 SHL DUP2 MSTORE PUSH1 0x20 PUSH1 0x4 DUP3 ADD MSTORE PUSH1 0xE PUSH1 0x24 DUP3 ADD MSTORE PUSH32 0x43616E6E6F74207374616B652030000000000000000000000000000000000000 PUSH1 0x44 DUP3 ADD MSTORE PUSH1 0x64 ADD PUSH2 0xB51 JUMP JUMPDEST DUP2 PUSH2 0x134 PUSH1 0x0 DUP3 DUP3 SLOAD PUSH2 0x17A6 SWAP2 SWAP1 PUSH2 0x3682 JUMP JUMPDEST SWAP1 SWAP2 SSTORE POP POP CALLER PUSH1 0x0 SWAP1 DUP2 MSTORE PUSH2 0x135 PUSH1 0x20 MSTORE PUSH1 0x40 DUP2 KECCAK256 DUP1 SLOAD DUP5 SWAP3 SWAP1 PUSH2 0x17CB SWAP1 DUP5 SWAP1 PUSH2 0x3682 JUMP JUMPDEST SWAP1 SWAP2 SSTORE POP POP PUSH2 0x12D SLOAD PUSH2 0x17E9 SWAP1 PUSH1 0x1 PUSH1 0x1 PUSH1 0xA0 SHL SUB AND CALLER ADDRESS DUP6 PUSH2 0x2B1B JUMP JUMPDEST PUSH1 0x40 MLOAD DUP3 DUP2 MSTORE CALLER SWAP1 PUSH32 0x9E71BC8EEA02A63969F509818F2DAFB9254532904319F9DBDA79B67BD34A5F3D SWAP1 PUSH1 0x20 ADD PUSH2 0xC45 JUMP JUMPDEST PUSH2 0x1823 PUSH2 0x2447 JUMP JUMPDEST PUSH2 0x12D DUP1 SLOAD PUSH1 0x1 PUSH1 0x1 PUSH1 0xA0 SHL SUB NOT AND PUSH1 0x1 PUSH1 0x1 PUSH1 0xA0 SHL SUB DUP7 AND OR SWAP1 SSTORE PUSH2 0x184D PUSH2 0x12E DUP5 PUSH1 0x2 PUSH2 0x3395 JUMP JUMPDEST POP PUSH2 0x136 SWAP2 SWAP1 SWAP2 SSTORE PUSH2 0x131 DUP1 SLOAD PUSH1 0x1 PUSH1 0x1 PUSH1 0xA0 SHL SUB NOT AND PUSH1 0x1 PUSH1 0x1 PUSH1 0xA0 SHL SUB SWAP1 SWAP3 AND SWAP2 SWAP1 SWAP2 OR SWAP1 SSTORE POP POP JUMP JUMPDEST PUSH2 0x1881 PUSH2 0x24A1 JUMP JUMPDEST PUSH2 0x1889 PUSH2 0x24FA JUMP JUMPDEST CALLER PUSH1 0x0 JUMPDEST PUSH1 0x2 DUP2 LT ISZERO PUSH2 0x19C0 JUMPI PUSH1 0x0 PUSH2 0x12E DUP3 PUSH1 0x2 DUP2 LT PUSH2 0x18AC JUMPI PUSH2 0x18AC PUSH2 0x3695 JUMP JUMPDEST ADD SLOAD PUSH1 0x1 PUSH1 0x1 PUSH1 0xA0 SHL SUB AND SWAP1 POP PUSH2 0x18C2 DUP2 PUSH2 0x1ED5 JUMP JUMPDEST PUSH1 0x1 PUSH1 0x1 PUSH1 0xA0 SHL SUB DUP3 AND PUSH1 0x0 SWAP1 DUP2 MSTORE PUSH2 0x130 PUSH1 0x20 MSTORE PUSH1 0x40 SWAP1 KECCAK256 PUSH1 0x3 ADD SSTORE PUSH2 0x18E8 DUP2 PUSH2 0x1389 JUMP JUMPDEST PUSH1 0x1 PUSH1 0x1 PUSH1 0xA0 SHL SUB DUP1 DUP4 AND PUSH1 0x0 SWAP1 DUP2 MSTORE PUSH2 0x130 PUSH1 0x20 MSTORE PUSH1 0x40 SWAP1 KECCAK256 PUSH1 0x2 ADD SWAP2 SWAP1 SWAP2 SSTORE DUP4 AND ISZERO PUSH2 0x19B7 JUMPI PUSH2 0x191A DUP4 DUP3 PUSH2 0x84B JUMP JUMPDEST PUSH1 0x1 PUSH1 0x1 PUSH1 0xA0 SHL SUB DUP5 DUP2 AND PUSH1 0x0 DUP2 DUP2 MSTORE PUSH2 0x133 PUSH1 0x20 SWAP1 DUP2 MSTORE PUSH1 0x40 DUP1 DUP4 KECCAK256 SWAP5 DUP8 AND DUP1 DUP5 MSTORE SWAP5 DUP3 MSTORE DUP1 DUP4 KECCAK256 SWAP6 DUP7 SSTORE PUSH2 0x130 DUP3 MSTORE DUP1 DUP4 KECCAK256 PUSH1 0x3 ADD SLOAD DUP5 DUP5 MSTORE PUSH2 0x132 DUP4 MSTORE DUP2 DUP5 KECCAK256 DUP7 DUP6 MSTORE DUP4 MSTORE SWAP3 DUP2 SWAP1 KECCAK256 DUP4 SWAP1 SSTORE SWAP5 SLOAD DUP6 MLOAD SWAP5 DUP6 MSTORE SWAP1 DUP5 ADD DUP3 SWAP1 MSTORE DUP4 DUP6 ADD SWAP3 SWAP1 SWAP3 MSTORE PUSH1 0x60 DUP4 ADD SWAP2 SWAP1 SWAP2 MSTORE PUSH1 0x80 DUP3 ADD MSTORE SWAP1 MLOAD PUSH32 0xE18754A2D63E1E9C2A4F61712CCD2C8DF6DFB1EAE9F53B2158E316C62823CE2A SWAP2 DUP2 SWAP1 SUB PUSH1 0xA0 ADD SWAP1 LOG1 JUMPDEST POP PUSH1 0x1 ADD PUSH2 0x188D JUMP JUMPDEST POP PUSH2 0x137 SLOAD PUSH1 0x1 PUSH1 0x1 PUSH1 0xA0 SHL SUB AND ISZERO PUSH2 0x1A88 JUMPI PUSH2 0x19DB PUSH2 0x23CC JUMP JUMPDEST PUSH2 0x13B SSTORE PUSH2 0x19E7 PUSH2 0x1E37 JUMP JUMPDEST PUSH2 0x13A SSTORE PUSH1 0x1 PUSH1 0x1 PUSH1 0xA0 SHL SUB DUP2 AND ISZERO PUSH2 0x1A88 JUMPI PUSH2 0x1A03 DUP2 PUSH2 0x1E53 JUMP JUMPDEST PUSH1 0x1 PUSH1 0x1 PUSH1 0xA0 SHL SUB DUP3 DUP2 AND PUSH1 0x0 DUP2 DUP2 MSTORE PUSH2 0x13E PUSH1 0x20 SWAP1 DUP2 MSTORE PUSH1 0x40 DUP1 DUP4 KECCAK256 SWAP6 DUP7 SSTORE PUSH2 0x13B SLOAD PUSH2 0x13D DUP4 MSTORE SWAP3 DUP2 SWAP1 KECCAK256 DUP4 SWAP1 SSTORE PUSH2 0x137 SLOAD SWAP6 SLOAD DUP2 MLOAD SWAP7 SWAP1 SWAP6 AND DUP7 MSTORE SWAP1 DUP6 ADD DUP3 SWAP1 MSTORE DUP5 ADD SWAP2 SWAP1 SWAP2 MSTORE PUSH1 0x60 DUP4 ADD SWAP2 SWAP1 SWAP2 MSTORE PUSH1 0x80 DUP3 ADD MSTORE PUSH32 0xE18754A2D63E1E9C2A4F61712CCD2C8DF6DFB1EAE9F53B2158E316C62823CE2A SWAP1 PUSH1 0xA0 ADD PUSH1 0x40 MLOAD DUP1 SWAP2 SUB SWAP1 LOG1 JUMPDEST PUSH1 0x0 JUMPDEST PUSH1 0x2 DUP2 LT ISZERO PUSH2 0x1C91 JUMPI PUSH1 0x0 PUSH2 0x12E DUP3 PUSH1 0x2 DUP2 LT PUSH2 0x1AAA JUMPI PUSH2 0x1AAA PUSH2 0x3695 JUMP JUMPDEST ADD SLOAD PUSH1 0x1 PUSH1 0x1 PUSH1 0xA0 SHL SUB AND PUSH1 0x0 DUP2 DUP2 MSTORE PUSH2 0x130 PUSH1 0x20 MSTORE PUSH1 0x40 SWAP1 KECCAK256 SWAP1 SWAP2 POP DUP2 ISZERO PUSH2 0x1C87 JUMPI DUP1 SLOAD PUSH2 0x1ADB SWAP1 PUSH2 0xE10 PUSH2 0x3682 JUMP JUMPDEST PUSH2 0x136 SLOAD PUSH2 0x1AE9 SWAP1 TIMESTAMP PUSH2 0x3682 JUMP JUMPDEST GT ISZERO PUSH2 0x1BC4 JUMPI PUSH1 0x4 DUP2 DUP2 ADD SLOAD PUSH1 0x40 MLOAD PUSH4 0x70A08231 PUSH1 0xE0 SHL DUP2 MSTORE ADDRESS SWAP3 DUP2 ADD SWAP3 SWAP1 SWAP3 MSTORE PUSH1 0x0 SWAP2 PUSH1 0x1 PUSH1 0x1 PUSH1 0xA0 SHL SUB DUP6 AND SWAP1 PUSH4 0x70A08231 SWAP1 PUSH1 0x24 ADD PUSH1 0x20 PUSH1 0x40 MLOAD DUP1 DUP4 SUB DUP2 DUP7 GAS STATICCALL ISZERO DUP1 ISZERO PUSH2 0x1B3E JUMPI RETURNDATASIZE PUSH1 0x0 DUP1 RETURNDATACOPY RETURNDATASIZE PUSH1 0x0 REVERT JUMPDEST POP POP POP POP PUSH1 0x40 MLOAD RETURNDATASIZE PUSH1 0x1F NOT PUSH1 0x1F DUP3 ADD AND DUP3 ADD DUP1 PUSH1 0x40 MSTORE POP DUP2 ADD SWAP1 PUSH2 0x1B62 SWAP2 SWAP1 PUSH2 0x36AB JUMP JUMPDEST PUSH2 0x1B6C SWAP2 SWAP1 PUSH2 0x3636 JUMP JUMPDEST SWAP1 POP DUP1 ISZERO PUSH2 0x1BC2 JUMPI PUSH2 0x1B7E DUP3 DUP3 PUSH2 0x2B72 JUMP JUMPDEST DUP3 PUSH1 0x1 PUSH1 0x1 PUSH1 0xA0 SHL SUB AND PUSH32 0xAC24935FD910BC682B5CCB1A07B718CADF8CF2F6D1404C4F3DDC3662DAE40E29 DUP3 PUSH1 0x40 MLOAD PUSH2 0x1BB9 SWAP2 DUP2 MSTORE PUSH1 0x20 ADD SWAP1 JUMP JUMPDEST PUSH1 0x40 MLOAD DUP1 SWAP2 SUB SWAP1 LOG2 JUMPDEST POP JUMPDEST CALLER PUSH1 0x0 SWAP1 DUP2 MSTORE PUSH2 0x133 PUSH1 0x20 SWAP1 DUP2 MSTORE PUSH1 0x40 DUP1 DUP4 KECCAK256 PUSH1 0x1 PUSH1 0x1 PUSH1 0xA0 SHL SUB DUP7 AND DUP5 MSTORE SWAP1 SWAP2 MSTORE SWAP1 KECCAK256 SLOAD DUP1 ISZERO PUSH2 0x1C85 JUMPI CALLER PUSH1 0x0 SWAP1 DUP2 MSTORE PUSH2 0x133 PUSH1 0x20 SWAP1 DUP2 MSTORE PUSH1 0x40 DUP1 DUP4 KECCAK256 PUSH1 0x1 PUSH1 0x1 PUSH1 0xA0 SHL SUB DUP8 AND DUP5 MSTORE SWAP1 SWAP2 MSTORE DUP2 KECCAK256 DUP2 SWAP1 SSTORE PUSH1 0x4 DUP4 ADD DUP1 SLOAD DUP4 SWAP3 SWAP1 PUSH2 0x1C2A SWAP1 DUP5 SWAP1 PUSH2 0x3636 JUMP JUMPDEST SWAP1 SWAP2 SSTORE POP PUSH2 0x1C44 SWAP1 POP PUSH1 0x1 PUSH1 0x1 PUSH1 0xA0 SHL SUB DUP5 AND CALLER DUP4 PUSH2 0x281A JUMP JUMPDEST PUSH1 0x40 MLOAD DUP2 DUP2 MSTORE PUSH1 0x1 PUSH1 0x1 PUSH1 0xA0 SHL SUB DUP5 AND SWAP1 CALLER SWAP1 PUSH32 0x540798DF468D7B23D11F156FDB954CB19AD414D150722A7B6D55BA369DEA792E SWAP1 PUSH1 0x20 ADD PUSH1 0x40 MLOAD DUP1 SWAP2 SUB SWAP1 LOG3 JUMPDEST POP JUMPDEST POP POP PUSH1 0x1 ADD PUSH2 0x1A8B JUMP JUMPDEST POP PUSH2 0x137 SLOAD PUSH1 0x1 PUSH1 0x1 PUSH1 0xA0 SHL SUB AND ISZERO PUSH2 0x1D4C JUMPI CALLER PUSH1 0x0 SWAP1 DUP2 MSTORE PUSH2 0x13E PUSH1 0x20 MSTORE PUSH1 0x40 SWAP1 KECCAK256 SLOAD PUSH2 0x138 SWAP1 DUP1 ISZERO PUSH2 0x1D49 JUMPI CALLER PUSH1 0x0 SWAP1 DUP2 MSTORE PUSH2 0x13E PUSH1 0x20 MSTORE PUSH1 0x40 DUP2 KECCAK256 DUP2 SWAP1 SSTORE PUSH1 0x4 DUP4 ADD DUP1 SLOAD DUP4 SWAP3 SWAP1 PUSH2 0x1CE6 SWAP1 DUP5 SWAP1 PUSH2 0x3636 JUMP JUMPDEST SWAP1 SWAP2 SSTORE POP POP PUSH2 0x137 SLOAD PUSH2 0x1D03 SWAP1 PUSH1 0x1 PUSH1 0x1 PUSH1 0xA0 SHL SUB AND CALLER DUP4 PUSH2 0x281A JUMP JUMPDEST PUSH2 0x137 SLOAD PUSH1 0x40 MLOAD DUP3 DUP2 MSTORE PUSH1 0x1 PUSH1 0x1 PUSH1 0xA0 SHL SUB SWAP1 SWAP2 AND SWAP1 CALLER SWAP1 PUSH32 0x540798DF468D7B23D11F156FDB954CB19AD414D150722A7B6D55BA369DEA792E SWAP1 PUSH1 0x20 ADD PUSH1 0x40 MLOAD DUP1 SWAP2 SUB SWAP1 LOG3 JUMPDEST POP POP JUMPDEST POP PUSH2 0xDEB PUSH1 0x1 PUSH1 0xC9 SSTORE JUMP JUMPDEST PUSH2 0x136 SLOAD PUSH1 0x1 PUSH1 0x1 PUSH1 0xA0 SHL SUB DUP3 AND PUSH1 0x0 SWAP1 DUP2 MSTORE PUSH2 0x130 PUSH1 0x20 MSTORE PUSH1 0x40 DUP2 KECCAK256 PUSH1 0x1 ADD SLOAD SWAP1 SWAP2 PUSH2 0x8F0 SWAP2 PUSH2 0x3649 JUMP JUMPDEST PUSH2 0x1D8B PUSH2 0x2447 JUMP JUMPDEST PUSH1 0x0 DUP2 GT PUSH2 0x1E01 JUMPI PUSH1 0x40 MLOAD PUSH3 0x461BCD PUSH1 0xE5 SHL DUP2 MSTORE PUSH1 0x20 PUSH1 0x4 DUP3 ADD MSTORE PUSH1 0x28 PUSH1 0x24 DUP3 ADD MSTORE PUSH32 0x726577617264206475726174696F6E692073686F756C64206265206C6F6E6765 PUSH1 0x44 DUP3 ADD MSTORE PUSH32 0x72207468616E2030000000000000000000000000000000000000000000000000 PUSH1 0x64 DUP3 ADD MSTORE PUSH1 0x84 ADD PUSH2 0xB51 JUMP JUMPDEST PUSH2 0x136 DUP2 SWAP1 SSTORE PUSH1 0x40 MLOAD DUP2 DUP2 MSTORE PUSH32 0xFB46CA5A5E06D4540D6387B930A7C978BCE0DB5F449EC6B3F5D07C6E1D44F2D3 SWAP1 PUSH1 0x20 ADD PUSH2 0x1511 JUMP JUMPDEST PUSH2 0x138 SLOAD PUSH1 0x0 SWAP1 TIMESTAMP DUP2 GT PUSH2 0x1E4B JUMPI DUP1 PUSH2 0x1E4D JUMP JUMPDEST TIMESTAMP JUMPDEST SWAP2 POP POP SWAP1 JUMP JUMPDEST PUSH1 0x1 PUSH1 0x1 PUSH1 0xA0 SHL SUB DUP2 AND PUSH1 0x0 SWAP1 DUP2 MSTORE PUSH2 0x13D PUSH1 0x20 MSTORE PUSH1 0x40 DUP2 KECCAK256 SLOAD DUP2 SWAP1 PUSH2 0x1E77 PUSH2 0x23CC JUMP JUMPDEST PUSH2 0x1E81 SWAP2 SWAP1 PUSH2 0x3636 JUMP JUMPDEST PUSH1 0x1 PUSH1 0x1 PUSH1 0xA0 SHL SUB DUP5 AND PUSH1 0x0 SWAP1 DUP2 MSTORE PUSH2 0x13E PUSH1 0x20 SWAP1 DUP2 MSTORE PUSH1 0x40 DUP1 DUP4 KECCAK256 SLOAD PUSH2 0x135 SWAP1 SWAP3 MSTORE SWAP1 SWAP2 KECCAK256 SLOAD SWAP2 SWAP3 POP SWAP1 PUSH8 0xDE0B6B3A7640000 SWAP1 PUSH2 0x1EC1 SWAP1 DUP5 SWAP1 PUSH2 0x3649 JUMP JUMPDEST PUSH2 0x1ECB SWAP2 SWAP1 PUSH2 0x3660 JUMP JUMPDEST PUSH2 0x13B2 SWAP2 SWAP1 PUSH2 0x3682 JUMP JUMPDEST PUSH1 0x0 PUSH2 0x134 SLOAD PUSH1 0x0 SUB PUSH2 0x1F02 JUMPI POP PUSH1 0x1 PUSH1 0x1 PUSH1 0xA0 SHL SUB AND PUSH1 0x0 SWAP1 DUP2 MSTORE PUSH2 0x130 PUSH1 0x20 MSTORE PUSH1 0x40 SWAP1 KECCAK256 PUSH1 0x3 ADD SLOAD SWAP1 JUMP JUMPDEST PUSH1 0x1 PUSH1 0x1 PUSH1 0xA0 SHL SUB DUP3 AND PUSH1 0x0 SWAP1 DUP2 MSTORE PUSH2 0x130 PUSH1 0x20 MSTORE PUSH1 0x40 DUP2 KECCAK256 PUSH1 0x2 ADD SLOAD PUSH2 0x1F28 DUP5 PUSH2 0x1389 JUMP JUMPDEST PUSH2 0x1F32 SWAP2 SWAP1 PUSH2 0x3636 JUMP JUMPDEST PUSH2 0x134 SLOAD PUSH1 0x1 PUSH1 0x1 PUSH1 0xA0 SHL SUB DUP6 AND PUSH1 0x0 SWAP1 DUP2 MSTORE PUSH2 0x130 PUSH1 0x20 MSTORE PUSH1 0x40 DUP2 KECCAK256 PUSH1 0x1 ADD SLOAD SWAP3 SWAP4 POP SWAP2 PUSH2 0x1F61 SWAP1 DUP5 PUSH2 0x3649 JUMP JUMPDEST PUSH2 0x1F73 SWAP1 PUSH8 0xDE0B6B3A7640000 PUSH2 0x3649 JUMP JUMPDEST PUSH2 0x1F7D SWAP2 SWAP1 PUSH2 0x3660 JUMP JUMPDEST PUSH1 0x1 PUSH1 0x1 PUSH1 0xA0 SHL SUB DUP6 AND PUSH1 0x0 SWAP1 DUP2 MSTORE PUSH2 0x130 PUSH1 0x20 MSTORE PUSH1 0x40 SWAP1 KECCAK256 PUSH1 0x3 ADD SLOAD SWAP1 SWAP2 POP PUSH2 0x1FA8 SWAP1 DUP3 SWAP1 PUSH2 0x3682 JUMP JUMPDEST SWAP5 SWAP4 POP POP POP POP JUMP JUMPDEST PUSH2 0x1FB8 PUSH2 0x2447 JUMP JUMPDEST PUSH1 0x1 PUSH1 0x1 PUSH1 0xA0 SHL SUB DUP2 AND PUSH2 0x2034 JUMPI PUSH1 0x40 MLOAD PUSH3 0x461BCD PUSH1 0xE5 SHL DUP2 MSTORE PUSH1 0x20 PUSH1 0x4 DUP3 ADD MSTORE PUSH1 0x26 PUSH1 0x24 DUP3 ADD MSTORE PUSH32 0x4F776E61626C653A206E6577206F776E657220697320746865207A65726F2061 PUSH1 0x44 DUP3 ADD MSTORE PUSH32 0x6464726573730000000000000000000000000000000000000000000000000000 PUSH1 0x64 DUP3 ADD MSTORE PUSH1 0x84 ADD PUSH2 0xB51 JUMP JUMPDEST PUSH2 0xC58 DUP2 PUSH2 0x2C10 JUMP JUMPDEST PUSH2 0x131 SLOAD PUSH1 0x1 PUSH1 0x1 PUSH1 0xA0 SHL SUB AND CALLER EQ PUSH2 0x20AB JUMPI PUSH1 0x40 MLOAD PUSH3 0x461BCD PUSH1 0xE5 SHL DUP2 MSTORE PUSH1 0x20 PUSH1 0x4 DUP3 ADD MSTORE PUSH1 0x2A PUSH1 0x24 DUP3 ADD MSTORE PUSH32 0x43616C6C6572206973206E6F742052657761726473446973747269627574696F PUSH1 0x44 DUP3 ADD MSTORE PUSH10 0x1B8818DBDB9D1C9858DD PUSH1 0xB2 SHL PUSH1 0x64 DUP3 ADD MSTORE PUSH1 0x84 ADD PUSH2 0xB51 JUMP JUMPDEST PUSH1 0x0 DUP1 JUMPDEST PUSH1 0x2 DUP2 LT ISZERO PUSH2 0x21E2 JUMPI PUSH1 0x0 PUSH2 0x12E DUP3 PUSH1 0x2 DUP2 LT PUSH2 0x20CE JUMPI PUSH2 0x20CE PUSH2 0x3695 JUMP JUMPDEST ADD SLOAD PUSH1 0x1 PUSH1 0x1 PUSH1 0xA0 SHL SUB AND SWAP1 POP PUSH2 0x20E4 DUP2 PUSH2 0x1ED5 JUMP JUMPDEST PUSH1 0x1 PUSH1 0x1 PUSH1 0xA0 SHL SUB DUP3 AND PUSH1 0x0 SWAP1 DUP2 MSTORE PUSH2 0x130 PUSH1 0x20 MSTORE PUSH1 0x40 SWAP1 KECCAK256 PUSH1 0x3 ADD SSTORE PUSH2 0x210A DUP2 PUSH2 0x1389 JUMP JUMPDEST PUSH1 0x1 PUSH1 0x1 PUSH1 0xA0 SHL SUB DUP1 DUP4 AND PUSH1 0x0 SWAP1 DUP2 MSTORE PUSH2 0x130 PUSH1 0x20 MSTORE PUSH1 0x40 SWAP1 KECCAK256 PUSH1 0x2 ADD SWAP2 SWAP1 SWAP2 SSTORE DUP4 AND ISZERO PUSH2 0x21D9 JUMPI PUSH2 0x213C DUP4 DUP3 PUSH2 0x84B JUMP JUMPDEST PUSH1 0x1 PUSH1 0x1 PUSH1 0xA0 SHL SUB DUP5 DUP2 AND PUSH1 0x0 DUP2 DUP2 MSTORE PUSH2 0x133 PUSH1 0x20 SWAP1 DUP2 MSTORE PUSH1 0x40 DUP1 DUP4 KECCAK256 SWAP5 DUP8 AND DUP1 DUP5 MSTORE SWAP5 DUP3 MSTORE DUP1 DUP4 KECCAK256 SWAP6 DUP7 SSTORE PUSH2 0x130 DUP3 MSTORE DUP1 DUP4 KECCAK256 PUSH1 0x3 ADD SLOAD DUP5 DUP5 MSTORE PUSH2 0x132 DUP4 MSTORE DUP2 DUP5 KECCAK256 DUP7 DUP6 MSTORE DUP4 MSTORE SWAP3 DUP2 SWAP1 KECCAK256 DUP4 SWAP1 SSTORE SWAP5 SLOAD DUP6 MLOAD SWAP5 DUP6 MSTORE SWAP1 DUP5 ADD DUP3 SWAP1 MSTORE DUP4 DUP6 ADD SWAP3 SWAP1 SWAP3 MSTORE PUSH1 0x60 DUP4 ADD SWAP2 SWAP1 SWAP2 MSTORE PUSH1 0x80 DUP3 ADD MSTORE SWAP1 MLOAD PUSH32 0xE18754A2D63E1E9C2A4F61712CCD2C8DF6DFB1EAE9F53B2158E316C62823CE2A SWAP2 DUP2 SWAP1 SUB PUSH1 0xA0 ADD SWAP1 LOG1 JUMPDEST POP PUSH1 0x1 ADD PUSH2 0x20AF JUMP JUMPDEST POP PUSH2 0x137 SLOAD PUSH1 0x1 PUSH1 0x1 PUSH1 0xA0 SHL SUB AND ISZERO PUSH2 0x22AA JUMPI PUSH2 0x21FD PUSH2 0x23CC JUMP JUMPDEST PUSH2 0x13B SSTORE PUSH2 0x2209 PUSH2 0x1E37 JUMP JUMPDEST PUSH2 0x13A SSTORE PUSH1 0x1 PUSH1 0x1 PUSH1 0xA0 SHL SUB DUP2 AND ISZERO PUSH2 0x22AA JUMPI PUSH2 0x2225 DUP2 PUSH2 0x1E53 JUMP JUMPDEST PUSH1 0x1 PUSH1 0x1 PUSH1 0xA0 SHL SUB DUP3 DUP2 AND PUSH1 0x0 DUP2 DUP2 MSTORE PUSH2 0x13E PUSH1 0x20 SWAP1 DUP2 MSTORE PUSH1 0x40 DUP1 DUP4 KECCAK256 SWAP6 DUP7 SSTORE PUSH2 0x13B SLOAD PUSH2 0x13D DUP4 MSTORE SWAP3 DUP2 SWAP1 KECCAK256 DUP4 SWAP1 SSTORE PUSH2 0x137 SLOAD SWAP6 SLOAD DUP2 MLOAD SWAP7 SWAP1 SWAP6 AND DUP7 MSTORE SWAP1 DUP6 ADD DUP3 SWAP1 MSTORE DUP5 ADD SWAP2 SWAP1 SWAP2 MSTORE PUSH1 0x60 DUP4 ADD SWAP2 SWAP1 SWAP2 MSTORE PUSH1 0x80 DUP3 ADD MSTORE PUSH32 0xE18754A2D63E1E9C2A4F61712CCD2C8DF6DFB1EAE9F53B2158E316C62823CE2A SWAP1 PUSH1 0xA0 ADD PUSH1 0x40 MLOAD DUP1 SWAP2 SUB SWAP1 LOG1 JUMPDEST PUSH1 0x0 JUMPDEST PUSH1 0x2 DUP2 LT ISZERO PUSH2 0x12A7 JUMPI PUSH1 0x0 PUSH2 0x12E DUP3 PUSH1 0x2 DUP2 LT PUSH2 0x22CC JUMPI PUSH2 0x22CC PUSH2 0x3695 JUMP JUMPDEST ADD SLOAD PUSH1 0x1 PUSH1 0x1 PUSH1 0xA0 SHL SUB AND SWAP1 POP DUP1 ISZERO PUSH2 0x23C3 JUMPI PUSH1 0x1 PUSH1 0x1 PUSH1 0xA0 SHL SUB DUP2 AND PUSH1 0x0 DUP2 DUP2 MSTORE PUSH2 0x130 PUSH1 0x20 MSTORE PUSH1 0x40 DUP1 DUP3 KECCAK256 PUSH1 0x4 DUP1 DUP3 ADD SLOAD SWAP3 MLOAD PUSH4 0x70A08231 PUSH1 0xE0 SHL DUP2 MSTORE ADDRESS SWAP2 DUP2 ADD SWAP2 SWAP1 SWAP2 MSTORE SWAP1 SWAP4 SWAP1 PUSH4 0x70A08231 SWAP1 PUSH1 0x24 ADD PUSH1 0x20 PUSH1 0x40 MLOAD DUP1 DUP4 SUB DUP2 DUP7 GAS STATICCALL ISZERO DUP1 ISZERO PUSH2 0x233C JUMPI RETURNDATASIZE PUSH1 0x0 DUP1 RETURNDATACOPY RETURNDATASIZE PUSH1 0x0 REVERT JUMPDEST POP POP POP POP PUSH1 0x40 MLOAD RETURNDATASIZE PUSH1 0x1F NOT PUSH1 0x1F DUP3 ADD AND DUP3 ADD DUP1 PUSH1 0x40 MSTORE POP DUP2 ADD SWAP1 PUSH2 0x2360 SWAP2 SWAP1 PUSH2 0x36AB JUMP JUMPDEST PUSH2 0x236A SWAP2 SWAP1 PUSH2 0x3636 JUMP JUMPDEST SWAP1 POP DUP1 ISZERO PUSH2 0x23C0 JUMPI PUSH2 0x237C DUP3 DUP3 PUSH2 0x2B72 JUMP JUMPDEST DUP3 PUSH1 0x1 PUSH1 0x1 PUSH1 0xA0 SHL SUB AND PUSH32 0xAC24935FD910BC682B5CCB1A07B718CADF8CF2F6D1404C4F3DDC3662DAE40E29 DUP3 PUSH1 0x40 MLOAD PUSH2 0x23B7 SWAP2 DUP2 MSTORE PUSH1 0x20 ADD SWAP1 JUMP JUMPDEST PUSH1 0x40 MLOAD DUP1 SWAP2 SUB SWAP1 LOG2 JUMPDEST POP POP JUMPDEST POP PUSH1 0x1 ADD PUSH2 0x22AD JUMP JUMPDEST PUSH1 0x0 PUSH2 0x134 SLOAD PUSH1 0x0 SUB PUSH2 0x23E1 JUMPI POP PUSH2 0x13B SLOAD SWAP1 JUMP JUMPDEST PUSH2 0x13A SLOAD PUSH1 0x0 SWAP1 PUSH2 0x23F0 PUSH2 0x1E37 JUMP JUMPDEST PUSH2 0x23FA SWAP2 SWAP1 PUSH2 0x3636 JUMP JUMPDEST PUSH2 0x134 SLOAD PUSH2 0x139 SLOAD SWAP2 SWAP3 POP PUSH1 0x0 SWAP2 PUSH2 0x2412 SWAP1 DUP5 PUSH2 0x3649 JUMP JUMPDEST PUSH2 0x2424 SWAP1 PUSH8 0xDE0B6B3A7640000 PUSH2 0x3649 JUMP JUMPDEST PUSH2 0x242E SWAP2 SWAP1 PUSH2 0x3660 JUMP JUMPDEST PUSH2 0x13B SLOAD SWAP1 SWAP2 POP PUSH2 0x2440 SWAP1 DUP3 SWAP1 PUSH2 0x3682 JUMP JUMPDEST SWAP3 POP POP POP SWAP1 JUMP JUMPDEST PUSH1 0x97 SLOAD PUSH1 0x1 PUSH1 0x1 PUSH1 0xA0 SHL SUB AND CALLER EQ PUSH2 0xDEB JUMPI PUSH1 0x40 MLOAD PUSH3 0x461BCD PUSH1 0xE5 SHL DUP2 MSTORE PUSH1 0x20 PUSH1 0x4 DUP3 ADD DUP2 SWAP1 MSTORE PUSH1 0x24 DUP3 ADD MSTORE PUSH32 0x4F776E61626C653A2063616C6C6572206973206E6F7420746865206F776E6572 PUSH1 0x44 DUP3 ADD MSTORE PUSH1 0x64 ADD PUSH2 0xB51 JUMP JUMPDEST PUSH1 0x2 PUSH1 0xC9 SLOAD SUB PUSH2 0x24F3 JUMPI PUSH1 0x40 MLOAD PUSH3 0x461BCD PUSH1 0xE5 SHL DUP2 MSTORE PUSH1 0x20 PUSH1 0x4 DUP3 ADD MSTORE PUSH1 0x1F PUSH1 0x24 DUP3 ADD MSTORE PUSH32 0x5265656E7472616E637947756172643A207265656E7472616E742063616C6C00 PUSH1 0x44 DUP3 ADD MSTORE PUSH1 0x64 ADD PUSH2 0xB51 JUMP JUMPDEST PUSH1 0x2 PUSH1 0xC9 SSTORE JUMP JUMPDEST PUSH1 0xFB SLOAD PUSH1 0xFF AND ISZERO PUSH2 0xDEB JUMPI PUSH1 0x40 MLOAD PUSH3 0x461BCD PUSH1 0xE5 SHL DUP2 MSTORE PUSH1 0x20 PUSH1 0x4 DUP3 ADD MSTORE PUSH1 0x10 PUSH1 0x24 DUP3 ADD MSTORE PUSH32 0x5061757361626C653A2070617573656400000000000000000000000000000000 PUSH1 0x44 DUP3 ADD MSTORE PUSH1 0x64 ADD PUSH2 0xB51 JUMP JUMPDEST PUSH1 0x0 JUMPDEST PUSH1 0x2 DUP2 LT ISZERO PUSH2 0x275F JUMPI PUSH1 0x0 PUSH2 0x12E DUP3 PUSH1 0x2 DUP2 LT PUSH2 0x256F JUMPI PUSH2 0x256F PUSH2 0x3695 JUMP JUMPDEST ADD SLOAD PUSH1 0x1 PUSH1 0x1 PUSH1 0xA0 SHL SUB AND SWAP1 POP DUP1 ISZERO PUSH2 0x2756 JUMPI PUSH1 0x1 PUSH1 0x1 PUSH1 0xA0 SHL SUB DUP2 AND PUSH1 0x0 SWAP1 DUP2 MSTORE PUSH2 0x130 PUSH1 0x20 MSTORE PUSH1 0x40 SWAP1 KECCAK256 DUP1 SLOAD PUSH2 0x25A9 SWAP1 PUSH2 0xE10 PUSH2 0x3682 JUMP JUMPDEST PUSH2 0x136 SLOAD PUSH2 0x25B7 SWAP1 TIMESTAMP PUSH2 0x3682 JUMP JUMPDEST GT ISZERO PUSH2 0x2692 JUMPI PUSH1 0x4 DUP2 DUP2 ADD SLOAD PUSH1 0x40 MLOAD PUSH4 0x70A08231 PUSH1 0xE0 SHL DUP2 MSTORE ADDRESS SWAP3 DUP2 ADD SWAP3 SWAP1 SWAP3 MSTORE PUSH1 0x0 SWAP2 PUSH1 0x1 PUSH1 0x1 PUSH1 0xA0 SHL SUB DUP6 AND SWAP1 PUSH4 0x70A08231 SWAP1 PUSH1 0x24 ADD PUSH1 0x20 PUSH1 0x40 MLOAD DUP1 DUP4 SUB DUP2 DUP7 GAS STATICCALL ISZERO DUP1 ISZERO PUSH2 0x260C JUMPI RETURNDATASIZE PUSH1 0x0 DUP1 RETURNDATACOPY RETURNDATASIZE PUSH1 0x0 REVERT JUMPDEST POP POP POP POP PUSH1 0x40 MLOAD RETURNDATASIZE PUSH1 0x1F NOT PUSH1 0x1F DUP3 ADD AND DUP3 ADD DUP1 PUSH1 0x40 MSTORE POP DUP2 ADD SWAP1 PUSH2 0x2630 SWAP2 SWAP1 PUSH2 0x36AB JUMP JUMPDEST PUSH2 0x263A SWAP2 SWAP1 PUSH2 0x3636 JUMP JUMPDEST SWAP1 POP DUP1 ISZERO PUSH2 0x2690 JUMPI PUSH2 0x264C DUP3 DUP3 PUSH2 0x2B72 JUMP JUMPDEST DUP3 PUSH1 0x1 PUSH1 0x1 PUSH1 0xA0 SHL SUB AND PUSH32 0xAC24935FD910BC682B5CCB1A07B718CADF8CF2F6D1404C4F3DDC3662DAE40E29 DUP3 PUSH1 0x40 MLOAD PUSH2 0x2687 SWAP2 DUP2 MSTORE PUSH1 0x20 ADD SWAP1 JUMP JUMPDEST PUSH1 0x40 MLOAD DUP1 SWAP2 SUB SWAP1 LOG2 JUMPDEST POP JUMPDEST CALLER PUSH1 0x0 SWAP1 DUP2 MSTORE PUSH2 0x133 PUSH1 0x20 SWAP1 DUP2 MSTORE PUSH1 0x40 DUP1 DUP4 KECCAK256 PUSH1 0x1 PUSH1 0x1 PUSH1 0xA0 SHL SUB DUP7 AND DUP5 MSTORE SWAP1 SWAP2 MSTORE SWAP1 KECCAK256 SLOAD DUP1 ISZERO PUSH2 0x2753 JUMPI CALLER PUSH1 0x0 SWAP1 DUP2 MSTORE PUSH2 0x133 PUSH1 0x20 SWAP1 DUP2 MSTORE PUSH1 0x40 DUP1 DUP4 KECCAK256 PUSH1 0x1 PUSH1 0x1 PUSH1 0xA0 SHL SUB DUP8 AND DUP5 MSTORE SWAP1 SWAP2 MSTORE DUP2 KECCAK256 DUP2 SWAP1 SSTORE PUSH1 0x4 DUP4 ADD DUP1 SLOAD DUP4 SWAP3 SWAP1 PUSH2 0x26F8 SWAP1 DUP5 SWAP1 PUSH2 0x3636 JUMP JUMPDEST SWAP1 SWAP2 SSTORE POP PUSH2 0x2712 SWAP1 POP PUSH1 0x1 PUSH1 0x1 PUSH1 0xA0 SHL SUB DUP5 AND CALLER DUP4 PUSH2 0x281A JUMP JUMPDEST PUSH1 0x40 MLOAD DUP2 DUP2 MSTORE PUSH1 0x1 PUSH1 0x1 PUSH1 0xA0 SHL SUB DUP5 AND SWAP1 CALLER SWAP1 PUSH32 0x540798DF468D7B23D11F156FDB954CB19AD414D150722A7B6D55BA369DEA792E SWAP1 PUSH1 0x20 ADD PUSH1 0x40 MLOAD DUP1 SWAP2 SUB SWAP1 LOG3 JUMPDEST POP POP JUMPDEST POP PUSH1 0x1 ADD PUSH2 0x2550 JUMP JUMPDEST POP PUSH2 0x137 SLOAD PUSH1 0x1 PUSH1 0x1 PUSH1 0xA0 SHL SUB AND ISZERO PUSH2 0xDEB JUMPI CALLER PUSH1 0x0 SWAP1 DUP2 MSTORE PUSH2 0x13E PUSH1 0x20 MSTORE PUSH1 0x40 SWAP1 KECCAK256 SLOAD PUSH2 0x138 SWAP1 DUP1 ISZERO PUSH2 0x12A7 JUMPI CALLER PUSH1 0x0 SWAP1 DUP2 MSTORE PUSH2 0x13E PUSH1 0x20 MSTORE PUSH1 0x40 DUP2 KECCAK256 DUP2 SWAP1 SSTORE PUSH1 0x4 DUP4 ADD DUP1 SLOAD DUP4 SWAP3 SWAP1 PUSH2 0x27B4 SWAP1 DUP5 SWAP1 PUSH2 0x3636 JUMP JUMPDEST SWAP1 SWAP2 SSTORE POP POP PUSH2 0x137 SLOAD PUSH2 0x27D1 SWAP1 PUSH1 0x1 PUSH1 0x1 PUSH1 0xA0 SHL SUB AND CALLER DUP4 PUSH2 0x281A JUMP JUMPDEST PUSH2 0x137 SLOAD PUSH1 0x40 MLOAD DUP3 DUP2 MSTORE PUSH1 0x1 PUSH1 0x1 PUSH1 0xA0 SHL SUB SWAP1 SWAP2 AND SWAP1 CALLER SWAP1 PUSH32 0x540798DF468D7B23D11F156FDB954CB19AD414D150722A7B6D55BA369DEA792E SWAP1 PUSH1 0x20 ADD PUSH1 0x40 MLOAD DUP1 SWAP2 SUB SWAP1 LOG3 POP POP JUMP JUMPDEST PUSH1 0x40 MLOAD PUSH1 0x1 PUSH1 0x1 PUSH1 0xA0 SHL SUB DUP4 AND PUSH1 0x24 DUP3 ADD MSTORE PUSH1 0x44 DUP2 ADD DUP3 SWAP1 MSTORE PUSH2 0x28C3 SWAP1 DUP5 SWAP1 PUSH32 0xA9059CBB00000000000000000000000000000000000000000000000000000000 SWAP1 PUSH1 0x64 ADD JUMPDEST PUSH1 0x40 DUP1 MLOAD PUSH1 0x1F NOT DUP2 DUP5 SUB ADD DUP2 MSTORE SWAP2 SWAP1 MSTORE PUSH1 0x20 DUP2 ADD DUP1 MLOAD PUSH28 0xFFFFFFFFFFFFFFFFFFFFFFFFFFFFFFFFFFFFFFFFFFFFFFFFFFFFFFFF AND PUSH32 0xFFFFFFFF00000000000000000000000000000000000000000000000000000000 SWAP1 SWAP4 AND SWAP3 SWAP1 SWAP3 OR SWAP1 SWAP2 MSTORE PUSH2 0x2DF8 JUMP JUMPDEST POP POP POP JUMP JUMPDEST PUSH1 0x1 PUSH1 0xC9 SSTORE JUMP JUMPDEST PUSH2 0xC58 PUSH2 0x2447 JUMP JUMPDEST PUSH32 0x4910FDFA16FED3260ED0E7147F7CC6DA11A60208B5B9406D12A635614FFD9143 SLOAD PUSH1 0xFF AND ISZERO PUSH2 0x290A JUMPI PUSH2 0x28C3 DUP4 PUSH2 0x2EE0 JUMP JUMPDEST DUP3 PUSH1 0x1 PUSH1 0x1 PUSH1 0xA0 SHL SUB AND PUSH4 0x52D1902D PUSH1 0x40 MLOAD DUP2 PUSH4 0xFFFFFFFF AND PUSH1 0xE0 SHL DUP2 MSTORE PUSH1 0x4 ADD PUSH1 0x20 PUSH1 0x40 MLOAD DUP1 DUP4 SUB DUP2 DUP7 GAS STATICCALL SWAP3 POP POP POP DUP1 ISZERO PUSH2 0x2964 JUMPI POP PUSH1 0x40 DUP1 MLOAD PUSH1 0x1F RETURNDATASIZE SWAP1 DUP2 ADD PUSH1 0x1F NOT AND DUP3 ADD SWAP1 SWAP3 MSTORE PUSH2 0x2961 SWAP2 DUP2 ADD SWAP1 PUSH2 0x36AB JUMP JUMPDEST PUSH1 0x1 JUMPDEST PUSH2 0x29D6 JUMPI PUSH1 0x40 MLOAD PUSH3 0x461BCD PUSH1 0xE5 SHL DUP2 MSTORE PUSH1 0x20 PUSH1 0x4 DUP3 ADD MSTORE PUSH1 0x2E PUSH1 0x24 DUP3 ADD MSTORE PUSH32 0x45524331393637557067726164653A206E657720696D706C656D656E74617469 PUSH1 0x44 DUP3 ADD MSTORE PUSH32 0x6F6E206973206E6F742055555053000000000000000000000000000000000000 PUSH1 0x64 DUP3 ADD MSTORE PUSH1 0x84 ADD PUSH2 0xB51 JUMP JUMPDEST PUSH32 0x360894A13BA1A3210667C828492DB98DCA3E2076CC3735A920A3CA505D382BBC DUP2 EQ PUSH2 0x2A6B JUMPI PUSH1 0x40 MLOAD PUSH3 0x461BCD PUSH1 0xE5 SHL DUP2 MSTORE PUSH1 0x20 PUSH1 0x4 DUP3 ADD MSTORE PUSH1 0x29 PUSH1 0x24 DUP3 ADD MSTORE PUSH32 0x45524331393637557067726164653A20756E737570706F727465642070726F78 PUSH1 0x44 DUP3 ADD MSTORE PUSH32 0x6961626C65555549440000000000000000000000000000000000000000000000 PUSH1 0x64 DUP3 ADD MSTORE PUSH1 0x84 ADD PUSH2 0xB51 JUMP JUMPDEST POP PUSH2 0x28C3 DUP4 DUP4 DUP4 PUSH2 0x2F9E JUMP JUMPDEST PUSH1 0xFB SLOAD PUSH1 0xFF AND PUSH2 0xDEB JUMPI PUSH1 0x40 MLOAD PUSH3 0x461BCD PUSH1 0xE5 SHL DUP2 MSTORE PUSH1 0x20 PUSH1 0x4 DUP3 ADD MSTORE PUSH1 0x14 PUSH1 0x24 DUP3 ADD MSTORE PUSH32 0x5061757361626C653A206E6F7420706175736564000000000000000000000000 PUSH1 0x44 DUP3 ADD MSTORE PUSH1 0x64 ADD PUSH2 0xB51 JUMP JUMPDEST PUSH2 0x2AD1 PUSH2 0x2A77 JUMP JUMPDEST PUSH1 0xFB DUP1 SLOAD PUSH1 0xFF NOT AND SWAP1 SSTORE PUSH32 0x5DB9EE0A495BF2E6FF9C91A7834C1BA4FDD244A5E8AA4E537BD38AEAE4B073AA CALLER JUMPDEST PUSH1 0x40 MLOAD PUSH1 0x1 PUSH1 0x1 PUSH1 0xA0 SHL SUB SWAP1 SWAP2 AND DUP2 MSTORE PUSH1 0x20 ADD PUSH1 0x40 MLOAD DUP1 SWAP2 SUB SWAP1 LOG1 JUMP JUMPDEST PUSH1 0x40 MLOAD PUSH1 0x1 PUSH1 0x1 PUSH1 0xA0 SHL SUB DUP1 DUP6 AND PUSH1 0x24 DUP4 ADD MSTORE DUP4 AND PUSH1 0x44 DUP3 ADD MSTORE PUSH1 0x64 DUP2 ADD DUP3 SWAP1 MSTORE PUSH2 0x2B6C SWAP1 DUP6 SWAP1 PUSH32 0x23B872DD00000000000000000000000000000000000000000000000000000000 SWAP1 PUSH1 0x84 ADD PUSH2 0x285F JUMP JUMPDEST POP POP POP POP JUMP JUMPDEST DUP2 SLOAD TIMESTAMP LT PUSH2 0x2B92 JUMPI PUSH2 0x136 SLOAD PUSH2 0x2B88 SWAP1 DUP3 PUSH2 0x3660 JUMP JUMPDEST PUSH1 0x1 DUP4 ADD SSTORE PUSH2 0x2BD9 JUMP JUMPDEST DUP2 SLOAD PUSH1 0x0 SWAP1 PUSH2 0x2BA2 SWAP1 TIMESTAMP SWAP1 PUSH2 0x3636 JUMP JUMPDEST SWAP1 POP PUSH1 0x0 DUP4 PUSH1 0x1 ADD SLOAD DUP3 PUSH2 0x2BB6 SWAP2 SWAP1 PUSH2 0x3649 JUMP JUMPDEST PUSH2 0x136 SLOAD SWAP1 SWAP2 POP PUSH2 0x2BC7 DUP3 DUP6 PUSH2 0x3682 JUMP JUMPDEST PUSH2 0x2BD1 SWAP2 SWAP1 PUSH2 0x3660 JUMP JUMPDEST PUSH1 0x1 DUP6 ADD SSTORE POP POP JUMPDEST TIMESTAMP PUSH1 0x2 DUP4 ADD DUP2 SWAP1 SSTORE PUSH2 0x136 SLOAD PUSH2 0x2BEE SWAP2 PUSH2 0x3682 JUMP JUMPDEST DUP3 SSTORE PUSH1 0x4 DUP3 ADD DUP1 SLOAD DUP3 SWAP2 SWAP1 PUSH1 0x0 SWAP1 PUSH2 0x2C07 SWAP1 DUP5 SWAP1 PUSH2 0x3682 JUMP JUMPDEST SWAP1 SWAP2 SSTORE POP POP POP POP JUMP JUMPDEST PUSH1 0x97 DUP1 SLOAD PUSH1 0x1 PUSH1 0x1 PUSH1 0xA0 SHL SUB DUP4 DUP2 AND PUSH1 0x1 PUSH1 0x1 PUSH1 0xA0 SHL SUB NOT DUP4 AND DUP2 OR SWAP1 SWAP4 SSTORE PUSH1 0x40 MLOAD SWAP2 AND SWAP2 SWAP1 DUP3 SWAP1 PUSH32 0x8BE0079C531659141344CD1FD0A4F28419497F9722A3DAAFE3B4186F6B6457E0 SWAP1 PUSH1 0x0 SWAP1 LOG3 POP POP JUMP JUMPDEST PUSH1 0x0 SLOAD PUSH2 0x100 SWAP1 DIV PUSH1 0xFF AND PUSH2 0x2CCD JUMPI PUSH1 0x40 MLOAD PUSH3 0x461BCD PUSH1 0xE5 SHL DUP2 MSTORE PUSH1 0x20 PUSH1 0x4 DUP3 ADD MSTORE PUSH1 0x2B PUSH1 0x24 DUP3 ADD MSTORE PUSH32 0x496E697469616C697A61626C653A20636F6E7472616374206973206E6F742069 PUSH1 0x44 DUP3 ADD MSTORE PUSH11 0x6E697469616C697A696E67 PUSH1 0xA8 SHL PUSH1 0x64 DUP3 ADD MSTORE PUSH1 0x84 ADD PUSH2 0xB51 JUMP JUMPDEST PUSH2 0xDEB PUSH2 0x2FC3 JUMP JUMPDEST PUSH1 0x0 SLOAD PUSH2 0x100 SWAP1 DIV PUSH1 0xFF AND PUSH2 0x2D40 JUMPI PUSH1 0x40 MLOAD PUSH3 0x461BCD PUSH1 0xE5 SHL DUP2 MSTORE PUSH1 0x20 PUSH1 0x4 DUP3 ADD MSTORE PUSH1 0x2B PUSH1 0x24 DUP3 ADD MSTORE PUSH32 0x496E697469616C697A61626C653A20636F6E7472616374206973206E6F742069 PUSH1 0x44 DUP3 ADD MSTORE PUSH11 0x6E697469616C697A696E67 PUSH1 0xA8 SHL PUSH1 0x64 DUP3 ADD MSTORE PUSH1 0x84 ADD PUSH2 0xB51 JUMP JUMPDEST PUSH2 0xDEB PUSH2 0x3037 JUMP JUMPDEST PUSH1 0x0 SLOAD PUSH2 0x100 SWAP1 DIV PUSH1 0xFF AND PUSH2 0x2DB3 JUMPI PUSH1 0x40 MLOAD PUSH3 0x461BCD PUSH1 0xE5 SHL DUP2 MSTORE PUSH1 0x20 PUSH1 0x4 DUP3 ADD MSTORE PUSH1 0x2B PUSH1 0x24 DUP3 ADD MSTORE PUSH32 0x496E697469616C697A61626C653A20636F6E7472616374206973206E6F742069 PUSH1 0x44 DUP3 ADD MSTORE PUSH11 0x6E697469616C697A696E67 PUSH1 0xA8 SHL PUSH1 0x64 DUP3 ADD MSTORE PUSH1 0x84 ADD PUSH2 0xB51 JUMP JUMPDEST PUSH2 0xDEB PUSH2 0x30A2 JUMP JUMPDEST PUSH2 0x2DC3 PUSH2 0x24FA JUMP JUMPDEST PUSH1 0xFB DUP1 SLOAD PUSH1 0xFF NOT AND PUSH1 0x1 OR SWAP1 SSTORE PUSH32 0x62E78CEA01BEE320CD4E420270B5EA74000D11B0C9F74754EBDBFC544B05A258 PUSH2 0x2AFE CALLER SWAP1 JUMP JUMPDEST PUSH1 0x0 PUSH2 0x2E4D DUP3 PUSH1 0x40 MLOAD DUP1 PUSH1 0x40 ADD PUSH1 0x40 MSTORE DUP1 PUSH1 0x20 DUP2 MSTORE PUSH1 0x20 ADD PUSH32 0x5361666545524332303A206C6F772D6C6576656C2063616C6C206661696C6564 DUP2 MSTORE POP DUP6 PUSH1 0x1 PUSH1 0x1 PUSH1 0xA0 SHL SUB AND PUSH2 0x3119 SWAP1 SWAP3 SWAP2 SWAP1 PUSH4 0xFFFFFFFF AND JUMP JUMPDEST SWAP1 POP DUP1 MLOAD PUSH1 0x0 EQ DUP1 PUSH2 0x2E6E JUMPI POP DUP1 DUP1 PUSH1 0x20 ADD SWAP1 MLOAD DUP2 ADD SWAP1 PUSH2 0x2E6E SWAP2 SWAP1 PUSH2 0x36C4 JUMP JUMPDEST PUSH2 0x28C3 JUMPI PUSH1 0x40 MLOAD PUSH3 0x461BCD PUSH1 0xE5 SHL DUP2 MSTORE PUSH1 0x20 PUSH1 0x4 DUP3 ADD MSTORE PUSH1 0x2A PUSH1 0x24 DUP3 ADD MSTORE PUSH32 0x5361666545524332303A204552433230206F7065726174696F6E20646964206E PUSH1 0x44 DUP3 ADD MSTORE PUSH32 0x6F74207375636365656400000000000000000000000000000000000000000000 PUSH1 0x64 DUP3 ADD MSTORE PUSH1 0x84 ADD PUSH2 0xB51 JUMP JUMPDEST PUSH1 0x1 PUSH1 0x1 PUSH1 0xA0 SHL SUB DUP2 AND EXTCODESIZE PUSH2 0x2F5D JUMPI PUSH1 0x40 MLOAD PUSH3 0x461BCD PUSH1 0xE5 SHL DUP2 MSTORE PUSH1 0x20 PUSH1 0x4 DUP3 ADD MSTORE PUSH1 0x2D PUSH1 0x24 DUP3 ADD MSTORE PUSH32 0x455243313936373A206E657720696D706C656D656E746174696F6E206973206E PUSH1 0x44 DUP3 ADD MSTORE PUSH32 0x6F74206120636F6E747261637400000000000000000000000000000000000000 PUSH1 0x64 DUP3 ADD MSTORE PUSH1 0x84 ADD PUSH2 0xB51 JUMP JUMPDEST PUSH32 0x360894A13BA1A3210667C828492DB98DCA3E2076CC3735A920A3CA505D382BBC DUP1 SLOAD PUSH1 0x1 PUSH1 0x1 PUSH1 0xA0 SHL SUB NOT AND PUSH1 0x1 PUSH1 0x1 PUSH1 0xA0 SHL SUB SWAP3 SWAP1 SWAP3 AND SWAP2 SWAP1 SWAP2 OR SWAP1 SSTORE JUMP JUMPDEST PUSH2 0x2FA7 DUP4 PUSH2 0x3128 JUMP JUMPDEST PUSH1 0x0 DUP3 MLOAD GT DUP1 PUSH2 0x2FB4 JUMPI POP DUP1 JUMPDEST ISZERO PUSH2 0x28C3 JUMPI PUSH2 0x2B6C DUP4 DUP4 PUSH2 0x3168 JUMP JUMPDEST PUSH1 0x0 SLOAD PUSH2 0x100 SWAP1 DIV PUSH1 0xFF AND PUSH2 0x302E JUMPI PUSH1 0x40 MLOAD PUSH3 0x461BCD PUSH1 0xE5 SHL DUP2 MSTORE PUSH1 0x20 PUSH1 0x4 DUP3 ADD MSTORE PUSH1 0x2B PUSH1 0x24 DUP3 ADD MSTORE PUSH32 0x496E697469616C697A61626C653A20636F6E7472616374206973206E6F742069 PUSH1 0x44 DUP3 ADD MSTORE PUSH11 0x6E697469616C697A696E67 PUSH1 0xA8 SHL PUSH1 0x64 DUP3 ADD MSTORE PUSH1 0x84 ADD PUSH2 0xB51 JUMP JUMPDEST PUSH2 0xDEB CALLER PUSH2 0x2C10 JUMP JUMPDEST PUSH1 0x0 SLOAD PUSH2 0x100 SWAP1 DIV PUSH1 0xFF AND PUSH2 0x28C8 JUMPI PUSH1 0x40 MLOAD PUSH3 0x461BCD PUSH1 0xE5 SHL DUP2 MSTORE PUSH1 0x20 PUSH1 0x4 DUP3 ADD MSTORE PUSH1 0x2B PUSH1 0x24 DUP3 ADD MSTORE PUSH32 0x496E697469616C697A61626C653A20636F6E7472616374206973206E6F742069 PUSH1 0x44 DUP3 ADD MSTORE PUSH11 0x6E697469616C697A696E67 PUSH1 0xA8 SHL PUSH1 0x64 DUP3 ADD MSTORE PUSH1 0x84 ADD PUSH2 0xB51 JUMP JUMPDEST PUSH1 0x0 SLOAD PUSH2 0x100 SWAP1 DIV PUSH1 0xFF AND PUSH2 0x310D JUMPI PUSH1 0x40 MLOAD PUSH3 0x461BCD PUSH1 0xE5 SHL DUP2 MSTORE PUSH1 0x20 PUSH1 0x4 DUP3 ADD MSTORE PUSH1 0x2B PUSH1 0x24 DUP3 ADD MSTORE PUSH32 0x496E697469616C697A61626C653A20636F6E7472616374206973206E6F742069 PUSH1 0x44 DUP3 ADD MSTORE PUSH11 0x6E697469616C697A696E67 PUSH1 0xA8 SHL PUSH1 0x64 DUP3 ADD MSTORE PUSH1 0x84 ADD PUSH2 0xB51 JUMP JUMPDEST PUSH1 0xFB DUP1 SLOAD PUSH1 0xFF NOT AND SWAP1 SSTORE JUMP JUMPDEST PUSH1 0x60 PUSH2 0x1FA8 DUP5 DUP5 PUSH1 0x0 DUP6 PUSH2 0x318D JUMP JUMPDEST PUSH2 0x3131 DUP2 PUSH2 0x2EE0 JUMP JUMPDEST PUSH1 0x40 MLOAD PUSH1 0x1 PUSH1 0x1 PUSH1 0xA0 SHL SUB DUP3 AND SWAP1 PUSH32 0xBC7CD75A20EE27FD9ADEBAB32041F755214DBC6BFFA90CC0225B39DA2E5C2D3B SWAP1 PUSH1 0x0 SWAP1 LOG2 POP JUMP JUMPDEST PUSH1 0x60 PUSH2 0x13B2 DUP4 DUP4 PUSH1 0x40 MLOAD DUP1 PUSH1 0x60 ADD PUSH1 0x40 MSTORE DUP1 PUSH1 0x27 DUP2 MSTORE PUSH1 0x20 ADD PUSH2 0x375A PUSH1 0x27 SWAP2 CODECOPY PUSH2 0x327F JUMP JUMPDEST PUSH1 0x60 DUP3 SELFBALANCE LT ISZERO PUSH2 0x3205 JUMPI PUSH1 0x40 MLOAD PUSH3 0x461BCD PUSH1 0xE5 SHL DUP2 MSTORE PUSH1 0x20 PUSH1 0x4 DUP3 ADD MSTORE PUSH1 0x26 PUSH1 0x24 DUP3 ADD MSTORE PUSH32 0x416464726573733A20696E73756666696369656E742062616C616E636520666F PUSH1 0x44 DUP3 ADD MSTORE PUSH32 0x722063616C6C0000000000000000000000000000000000000000000000000000 PUSH1 0x64 DUP3 ADD MSTORE PUSH1 0x84 ADD PUSH2 0xB51 JUMP JUMPDEST PUSH1 0x0 DUP1 DUP7 PUSH1 0x1 PUSH1 0x1 PUSH1 0xA0 SHL SUB AND DUP6 DUP8 PUSH1 0x40 MLOAD PUSH2 0x3221 SWAP2 SWAP1 PUSH2 0x370A JUMP JUMPDEST PUSH1 0x0 PUSH1 0x40 MLOAD DUP1 DUP4 SUB DUP2 DUP6 DUP8 GAS CALL SWAP3 POP POP POP RETURNDATASIZE DUP1 PUSH1 0x0 DUP2 EQ PUSH2 0x325E JUMPI PUSH1 0x40 MLOAD SWAP2 POP PUSH1 0x1F NOT PUSH1 0x3F RETURNDATASIZE ADD AND DUP3 ADD PUSH1 0x40 MSTORE RETURNDATASIZE DUP3 MSTORE RETURNDATASIZE PUSH1 0x0 PUSH1 0x20 DUP5 ADD RETURNDATACOPY PUSH2 0x3263 JUMP JUMPDEST PUSH1 0x60 SWAP2 POP JUMPDEST POP SWAP2 POP SWAP2 POP PUSH2 0x3274 DUP8 DUP4 DUP4 DUP8 PUSH2 0x32F7 JUMP JUMPDEST SWAP8 SWAP7 POP POP POP POP POP POP POP JUMP JUMPDEST PUSH1 0x60 PUSH1 0x0 DUP1 DUP6 PUSH1 0x1 PUSH1 0x1 PUSH1 0xA0 SHL SUB AND DUP6 PUSH1 0x40 MLOAD PUSH2 0x329C SWAP2 SWAP1 PUSH2 0x370A JUMP JUMPDEST PUSH1 0x0 PUSH1 0x40 MLOAD DUP1 DUP4 SUB DUP2 DUP6 GAS DELEGATECALL SWAP2 POP POP RETURNDATASIZE DUP1 PUSH1 0x0 DUP2 EQ PUSH2 0x32D7 JUMPI PUSH1 0x40 MLOAD SWAP2 POP PUSH1 0x1F NOT PUSH1 0x3F RETURNDATASIZE ADD AND DUP3 ADD PUSH1 0x40 MSTORE RETURNDATASIZE DUP3 MSTORE RETURNDATASIZE PUSH1 0x0 PUSH1 0x20 DUP5 ADD RETURNDATACOPY PUSH2 0x32DC JUMP JUMPDEST PUSH1 0x60 SWAP2 POP JUMPDEST POP SWAP2 POP SWAP2 POP PUSH2 0x32ED DUP7 DUP4 DUP4 DUP8 PUSH2 0x32F7 JUMP JUMPDEST SWAP7 SWAP6 POP POP POP POP POP POP JUMP JUMPDEST PUSH1 0x60 DUP4 ISZERO PUSH2 0x3366 JUMPI DUP3 MLOAD PUSH1 0x0 SUB PUSH2 0x335F JUMPI PUSH1 0x1 PUSH1 0x1 PUSH1 0xA0 SHL SUB DUP6 AND EXTCODESIZE PUSH2 0x335F JUMPI PUSH1 0x40 MLOAD PUSH3 0x461BCD PUSH1 0xE5 SHL DUP2 MSTORE PUSH1 0x20 PUSH1 0x4 DUP3 ADD MSTORE PUSH1 0x1D PUSH1 0x24 DUP3 ADD MSTORE PUSH32 0x416464726573733A2063616C6C20746F206E6F6E2D636F6E7472616374000000 PUSH1 0x44 DUP3 ADD MSTORE PUSH1 0x64 ADD PUSH2 0xB51 JUMP JUMPDEST POP DUP2 PUSH2 0x1FA8 JUMP JUMPDEST PUSH2 0x1FA8 DUP4 DUP4 DUP2 MLOAD ISZERO PUSH2 0x337B JUMPI DUP2 MLOAD DUP1 DUP4 PUSH1 0x20 ADD REVERT JUMPDEST DUP1 PUSH1 0x40 MLOAD PUSH3 0x461BCD PUSH1 0xE5 SHL DUP2 MSTORE PUSH1 0x4 ADD PUSH2 0xB51 SWAP2 SWAP1 PUSH2 0x3726 JUMP JUMPDEST DUP3 PUSH1 0x2 DUP2 ADD SWAP3 DUP3 ISZERO PUSH2 0x33DD JUMPI SWAP2 PUSH1 0x20 MUL DUP3 ADD JUMPDEST DUP3 DUP2 GT ISZERO PUSH2 0x33DD JUMPI DUP3 MLOAD DUP3 SLOAD PUSH1 0x1 PUSH1 0x1 PUSH1 0xA0 SHL SUB NOT AND PUSH1 0x1 PUSH1 0x1 PUSH1 0xA0 SHL SUB SWAP1 SWAP2 AND OR DUP3 SSTORE PUSH1 0x20 SWAP1 SWAP3 ADD SWAP2 PUSH1 0x1 SWAP1 SWAP2 ADD SWAP1 PUSH2 0x33A8 JUMP JUMPDEST POP PUSH2 0x33E9 SWAP3 SWAP2 POP PUSH2 0x33ED JUMP JUMPDEST POP SWAP1 JUMP JUMPDEST JUMPDEST DUP1 DUP3 GT ISZERO PUSH2 0x33E9 JUMPI PUSH1 0x0 DUP2 SSTORE PUSH1 0x1 ADD PUSH2 0x33EE JUMP JUMPDEST DUP1 CALLDATALOAD PUSH1 0x1 PUSH1 0x1 PUSH1 0xA0 SHL SUB DUP2 AND DUP2 EQ PUSH2 0x3419 JUMPI PUSH1 0x0 DUP1 REVERT JUMPDEST SWAP2 SWAP1 POP JUMP JUMPDEST PUSH1 0x0 PUSH1 0x20 DUP3 DUP5 SUB SLT ISZERO PUSH2 0x3430 JUMPI PUSH1 0x0 DUP1 REVERT JUMPDEST PUSH2 0x13B2 DUP3 PUSH2 0x3402 JUMP JUMPDEST PUSH1 0x0 DUP1 PUSH1 0x40 DUP4 DUP6 SUB SLT ISZERO PUSH2 0x344C JUMPI PUSH1 0x0 DUP1 REVERT JUMPDEST PUSH2 0x3455 DUP4 PUSH2 0x3402 JUMP JUMPDEST SWAP2 POP PUSH2 0x3463 PUSH1 0x20 DUP5 ADD PUSH2 0x3402 JUMP JUMPDEST SWAP1 POP SWAP3 POP SWAP3 SWAP1 POP JUMP JUMPDEST PUSH1 0x0 PUSH1 0x20 DUP3 DUP5 SUB SLT ISZERO PUSH2 0x347E JUMPI PUSH1 0x0 DUP1 REVERT JUMPDEST POP CALLDATALOAD SWAP2 SWAP1 POP JUMP JUMPDEST PUSH4 0x4E487B71 PUSH1 0xE0 SHL PUSH1 0x0 MSTORE PUSH1 0x41 PUSH1 0x4 MSTORE PUSH1 0x24 PUSH1 0x0 REVERT JUMPDEST PUSH1 0x40 MLOAD PUSH1 0x1F DUP3 ADD PUSH1 0x1F NOT AND DUP2 ADD PUSH8 0xFFFFFFFFFFFFFFFF DUP2 GT DUP3 DUP3 LT OR ISZERO PUSH2 0x34C4 JUMPI PUSH2 0x34C4 PUSH2 0x3485 JUMP JUMPDEST PUSH1 0x40 MSTORE SWAP2 SWAP1 POP JUMP JUMPDEST PUSH1 0x0 DUP1 PUSH1 0x40 DUP4 DUP6 SUB SLT ISZERO PUSH2 0x34DF JUMPI PUSH1 0x0 DUP1 REVERT JUMPDEST PUSH2 0x34E8 DUP4 PUSH2 0x3402 JUMP JUMPDEST SWAP2 POP PUSH1 0x20 DUP1 DUP5 ADD CALLDATALOAD PUSH8 0xFFFFFFFFFFFFFFFF DUP1 DUP3 GT ISZERO PUSH2 0x3506 JUMPI PUSH1 0x0 DUP1 REVERT JUMPDEST DUP2 DUP7 ADD SWAP2 POP DUP7 PUSH1 0x1F DUP4 ADD SLT PUSH2 0x351A JUMPI PUSH1 0x0 DUP1 REVERT JUMPDEST DUP2 CALLDATALOAD DUP2 DUP2 GT ISZERO PUSH2 0x352C JUMPI PUSH2 0x352C PUSH2 0x3485 JUMP JUMPDEST PUSH2 0x353E PUSH1 0x1F DUP3 ADD PUSH1 0x1F NOT AND DUP6 ADD PUSH2 0x349B JUMP JUMPDEST SWAP2 POP DUP1 DUP3 MSTORE DUP8 DUP5 DUP3 DUP6 ADD ADD GT ISZERO PUSH2 0x3554 JUMPI PUSH1 0x0 DUP1 REVERT JUMPDEST DUP1 DUP5 DUP5 ADD DUP6 DUP5 ADD CALLDATACOPY PUSH1 0x0 DUP5 DUP3 DUP5 ADD ADD MSTORE POP DUP1 SWAP4 POP POP POP POP SWAP3 POP SWAP3 SWAP1 POP JUMP JUMPDEST PUSH1 0x0 DUP1 PUSH1 0x0 DUP1 PUSH1 0xA0 DUP6 DUP8 SUB SLT ISZERO PUSH2 0x3588 JUMPI PUSH1 0x0 DUP1 REVERT JUMPDEST PUSH2 0x3591 DUP6 PUSH2 0x3402 JUMP JUMPDEST SWAP4 POP PUSH1 0x20 DUP7 PUSH1 0x3F DUP8 ADD SLT PUSH2 0x35A4 JUMPI PUSH1 0x0 DUP1 REVERT JUMPDEST PUSH1 0x40 MLOAD PUSH1 0x40 DUP2 ADD DUP2 DUP2 LT PUSH8 0xFFFFFFFFFFFFFFFF DUP3 GT OR ISZERO PUSH2 0x35C7 JUMPI PUSH2 0x35C7 PUSH2 0x3485 JUMP JUMPDEST PUSH1 0x40 MSTORE DUP1 PUSH1 0x60 DUP9 ADD DUP10 DUP2 GT ISZERO PUSH2 0x35DC JUMPI PUSH1 0x0 DUP1 REVERT JUMPDEST PUSH1 0x20 DUP10 ADD JUMPDEST DUP2 DUP2 LT ISZERO PUSH2 0x35FF JUMPI PUSH2 0x35F2 DUP2 PUSH2 0x3402 JUMP JUMPDEST DUP4 MSTORE SWAP2 DUP5 ADD SWAP2 DUP5 ADD PUSH2 0x35E1 JUMP JUMPDEST POP SWAP2 SWAP6 POP POP CALLDATALOAD SWAP3 POP PUSH2 0x3615 SWAP1 POP PUSH1 0x80 DUP7 ADD PUSH2 0x3402 JUMP JUMPDEST SWAP1 POP SWAP3 SWAP6 SWAP2 SWAP5 POP SWAP3 POP JUMP JUMPDEST PUSH4 0x4E487B71 PUSH1 0xE0 SHL PUSH1 0x0 MSTORE PUSH1 0x11 PUSH1 0x4 MSTORE PUSH1 0x24 PUSH1 0x0 REVERT JUMPDEST DUP2 DUP2 SUB DUP2 DUP2 GT ISZERO PUSH2 0x8F0 JUMPI PUSH2 0x8F0 PUSH2 0x3620 JUMP JUMPDEST DUP1 DUP3 MUL DUP2 ISZERO DUP3 DUP3 DIV DUP5 EQ OR PUSH2 0x8F0 JUMPI PUSH2 0x8F0 PUSH2 0x3620 JUMP JUMPDEST PUSH1 0x0 DUP3 PUSH2 0x367D JUMPI PUSH4 0x4E487B71 PUSH1 0xE0 SHL PUSH1 0x0 MSTORE PUSH1 0x12 PUSH1 0x4 MSTORE PUSH1 0x24 PUSH1 0x0 REVERT JUMPDEST POP DIV SWAP1 JUMP JUMPDEST DUP1 DUP3 ADD DUP1 DUP3 GT ISZERO PUSH2 0x8F0 JUMPI PUSH2 0x8F0 PUSH2 0x3620 JUMP JUMPDEST PUSH4 0x4E487B71 PUSH1 0xE0 SHL PUSH1 0x0 MSTORE PUSH1 0x32 PUSH1 0x4 MSTORE PUSH1 0x24 PUSH1 0x0 REVERT JUMPDEST PUSH1 0x0 PUSH1 0x20 DUP3 DUP5 SUB SLT ISZERO PUSH2 0x36BD JUMPI PUSH1 0x0 DUP1 REVERT JUMPDEST POP MLOAD SWAP2 SWAP1 POP JUMP JUMPDEST PUSH1 0x0 PUSH1 0x20 DUP3 DUP5 SUB SLT ISZERO PUSH2 0x36D6 JUMPI PUSH1 0x0 DUP1 REVERT JUMPDEST DUP2 MLOAD DUP1 ISZERO ISZERO DUP2 EQ PUSH2 0x13B2 JUMPI PUSH1 0x0 DUP1 REVERT JUMPDEST PUSH1 0x0 JUMPDEST DUP4 DUP2 LT ISZERO PUSH2 0x3701 JUMPI DUP2 DUP2 ADD MLOAD DUP4 DUP3 ADD MSTORE PUSH1 0x20 ADD PUSH2 0x36E9 JUMP JUMPDEST POP POP PUSH1 0x0 SWAP2 ADD MSTORE JUMP JUMPDEST PUSH1 0x0 DUP3 MLOAD PUSH2 0x371C DUP2 DUP5 PUSH1 0x20 DUP8 ADD PUSH2 0x36E6 JUMP JUMPDEST SWAP2 SWAP1 SWAP2 ADD SWAP3 SWAP2 POP POP JUMP JUMPDEST PUSH1 0x20 DUP2 MSTORE PUSH1 0x0 DUP3 MLOAD DUP1 PUSH1 0x20 DUP5 ADD MSTORE PUSH2 0x3745 DUP2 PUSH1 0x40 DUP6 ADD PUSH1 0x20 DUP8 ADD PUSH2 0x36E6 JUMP JUMPDEST PUSH1 0x1F ADD PUSH1 0x1F NOT AND SWAP2 SWAP1 SWAP2 ADD PUSH1 0x40 ADD SWAP3 SWAP2 POP POP JUMP INVALID COINBASE PUSH5 0x6472657373 GASPRICE KECCAK256 PUSH13 0x6F772D6C6576656C2064656C65 PUSH8 0x6174652063616C6C KECCAK256 PUSH7 0x61696C6564A264 PUSH10 0x706673582212201B16F3 SWAP4 ISZERO SELFBALANCE CREATE2 PUSH18 0xB7ECA80EF3B7EE7921C88AE7BAE04DD29498 0x4B DUP8 SWAP11 0xCA GT 0x4B PUSH5 0x736F6C6343 STOP ADDMOD XOR STOP CALLER "},"methodIdentifiers":{"REWARDS_DURATION()":"f4542494","balanceOf(address)":"70a08231","claimReward()":"b88a802f","earned(address,address)":"211dc32d","getRewardForDuration(address)":"bcd11014","initialize()":"8129fc1c","lastTimeRewardApplicable(address)":"638634ee","owner()":"8da5cb5b","pause()":"8456cb59","paused()":"5c975abb","proxiableUUID()":"52d1902d","renounceOwnership()":"715018a6","rewardData(address)":"48e5d9f8","rewardPerToken(address)":"f1229777","rewardTokens(uint256)":"7bb7bed1","rewards(address,address)":"e70b9e27","rewardsDistribution()":"3fc6df6e","setInitialInfo(address,address[2],uint256,address)":"a89d8003","setRewardsDistribution(address)":"19762143","setRewardsDuration(uint256)":"cc1a378f","setWen(address)":"1c9c4694","stake(uint256)":"a694fc3a","stakingToken()":"72f702f3","totalSupply()":"18160ddd","transferOwnership(address)":"f2fde38b","unpause()":"3f4ba83a","updateRewardAmount()":"fa9465d5","upgradeTo(address)":"3659cfe6","upgradeToAndCall(address,bytes)":"4f1ef286","userRewardPerTokenPaid(address,address)":"7035ab98","wen_earned(address)":"d9167de7","wen_getRewardForDuration()":"5533de90","wen_lastTimeRewardApplicable()":"cc6059c6","wen_rewardData()":"f43c2bca","wen_rewardPerToken()":"fe7ed097","wen_rewardToken()":"90559094","wen_rewards(address)":"b32f8d9f","wen_updateRewardAmount(uint256)":"477c8fc1","wen_userRewardPerTokenPaid(address)":"f833027d","withdraw(uint256)":"2e1a7d4d"}}}}}