{
  "_format": "hh-sol-artifact-1",
  "contractName": "TestBlast",
  "sourceName": "contracts/WenTradePool/TestBlast.sol",
  "abi": [
    {
      "stateMutability": "payable",
      "type": "fallback"
    },
    {
      "inputs": [
        {
          "internalType": "address",
          "name": "contractAddress",
          "type": "address"
        },
        {
          "internalType": "address",
          "name": "recipientOfYield",
          "type": "address"
        }
      ],
      "name": "claimAllYield",
      "outputs": [
        {
          "internalType": "uint256",
          "name": "",
          "type": "uint256"
        }
      ],
      "stateMutability": "nonpayable",
      "type": "function"
    },
    {
      "inputs": [
        {
          "internalType": "address",
          "name": "contractAddress",
          "type": "address"
        },
        {
          "internalType": "address",
          "name": "recipientOfYield",
          "type": "address"
        },
        {
          "internalType": "uint256",
          "name": "amount",
          "type": "uint256"
        }
      ],
      "name": "claimYield",
      "outputs": [
        {
          "internalType": "uint256",
          "name": "",
          "type": "uint256"
        }
      ],
      "stateMutability": "nonpayable",
      "type": "function"
    },
    {
      "stateMutability": "payable",
      "type": "receive"
    }
  ],
  "bytecode": "0x608060405234801561001057600080fd5b50610263806100206000396000f3fe60806040526004361061002a5760003560e01c8063860043b614610033578063f97196621461006557005b3661003157005b005b34801561003f57600080fd5b5061005361004e3660046101be565b610085565b60405190815260200160405180910390f35b34801561007157600080fd5b506100536100803660046101f1565b6100de565b6000610095565b60405180910390fd5b60405173ffffffffffffffffffffffffffffffffffffffff8316904780156108fc02916000818181858888f193505050501580156100d7573d6000803e3d6000fd5b5092915050565b60008147101561014a576040517f08c379a000000000000000000000000000000000000000000000000000000000815260206004820152601460248201527f496e73756666696369656e742062616c616e6365000000000000000000000000604482015260640161008c565b60405173ffffffffffffffffffffffffffffffffffffffff85169083156108fc029084906000818181858888f1935050505015801561018d573d6000803e3d6000fd5b509392505050565b803573ffffffffffffffffffffffffffffffffffffffff811681146101b957600080fd5b919050565b600080604083850312156101d157600080fd5b6101da83610195565b91506101e860208401610195565b90509250929050565b60008060006060848603121561020657600080fd5b61020f84610195565b925061021d60208501610195565b915060408401359050925092509256fea2646970667358221220f53ee0993e309ac758fae7f43cce54bdfbaa480f454a719db01c2554ea674ea064736f6c63430008180033",
  "linkReferences": {},
  "deployedLinkReferences": {}
}