{
  "_format": "hh-sol-artifact-1",
  "contractName": "WenETHToken",
  "sourceName": "contracts/WenCore/WenETHToken.sol",
  "abi": [
    {
      "inputs": [
        {
          "internalType": "address",
          "name": "_blast",
          "type": "address"
        }
      ],
      "stateMutability": "nonpayable",
      "type": "constructor"
    },
    {
      "anonymous": false,
      "inputs": [
        {
          "indexed": true,
          "internalType": "address",
          "name": "owner",
          "type": "address"
        },
        {
          "indexed": true,
          "internalType": "address",
          "name": "spender",
          "type": "address"
        },
        {
          "indexed": false,
          "internalType": "uint256",
          "name": "value",
          "type": "uint256"
        }
      ],
      "name": "Approval",
      "type": "event"
    },
    {
      "anonymous": false,
      "inputs": [
        {
          "indexed": true,
          "internalType": "address",
          "name": "previousOwner",
          "type": "address"
        },
        {
          "indexed": true,
          "internalType": "address",
          "name": "newOwner",
          "type": "address"
        }
      ],
      "name": "OwnershipTransferred",
      "type": "event"
    },
    {
      "anonymous": false,
      "inputs": [
        {
          "indexed": true,
          "internalType": "address",
          "name": "from",
          "type": "address"
        },
        {
          "indexed": true,
          "internalType": "address",
          "name": "to",
          "type": "address"
        },
        {
          "indexed": false,
          "internalType": "uint256",
          "name": "value",
          "type": "uint256"
        }
      ],
      "name": "Transfer",
      "type": "event"
    },
    {
      "inputs": [
        {
          "internalType": "address",
          "name": "",
          "type": "address"
        },
        {
          "internalType": "address",
          "name": "",
          "type": "address"
        }
      ],
      "name": "allowance",
      "outputs": [
        {
          "internalType": "uint256",
          "name": "",
          "type": "uint256"
        }
      ],
      "stateMutability": "view",
      "type": "function"
    },
    {
      "inputs": [
        {
          "internalType": "address",
          "name": "_spender",
          "type": "address"
        },
        {
          "internalType": "uint256",
          "name": "_value",
          "type": "uint256"
        }
      ],
      "name": "approve",
      "outputs": [
        {
          "internalType": "bool",
          "name": "",
          "type": "bool"
        }
      ],
      "stateMutability": "nonpayable",
      "type": "function"
    },
    {
      "inputs": [
        {
          "internalType": "address",
          "name": "",
          "type": "address"
        }
      ],
      "name": "balanceOf",
      "outputs": [
        {
          "internalType": "uint256",
          "name": "",
          "type": "uint256"
        }
      ],
      "stateMutability": "view",
      "type": "function"
    },
    {
      "inputs": [],
      "name": "blast",
      "outputs": [
        {
          "internalType": "contract IBlast",
          "name": "",
          "type": "address"
        }
      ],
      "stateMutability": "view",
      "type": "function"
    },
    {
      "inputs": [
        {
          "internalType": "address",
          "name": "_from",
          "type": "address"
        },
        {
          "internalType": "uint256",
          "name": "_value",
          "type": "uint256"
        }
      ],
      "name": "burn",
      "outputs": [
        {
          "internalType": "bool",
          "name": "",
          "type": "bool"
        }
      ],
      "stateMutability": "nonpayable",
      "type": "function"
    },
    {
      "inputs": [],
      "name": "decimals",
      "outputs": [
        {
          "internalType": "uint8",
          "name": "",
          "type": "uint8"
        }
      ],
      "stateMutability": "view",
      "type": "function"
    },
    {
      "inputs": [
        {
          "internalType": "address",
          "name": "_to",
          "type": "address"
        },
        {
          "internalType": "uint256",
          "name": "_value",
          "type": "uint256"
        }
      ],
      "name": "mint",
      "outputs": [
        {
          "internalType": "bool",
          "name": "",
          "type": "bool"
        }
      ],
      "stateMutability": "nonpayable",
      "type": "function"
    },
    {
      "inputs": [],
      "name": "name",
      "outputs": [
        {
          "internalType": "string",
          "name": "",
          "type": "string"
        }
      ],
      "stateMutability": "view",
      "type": "function"
    },
    {
      "inputs": [
        {
          "internalType": "address",
          "name": "",
          "type": "address"
        }
      ],
      "name": "operators",
      "outputs": [
        {
          "internalType": "bool",
          "name": "",
          "type": "bool"
        }
      ],
      "stateMutability": "view",
      "type": "function"
    },
    {
      "inputs": [],
      "name": "owner",
      "outputs": [
        {
          "internalType": "address",
          "name": "",
          "type": "address"
        }
      ],
      "stateMutability": "view",
      "type": "function"
    },
    {
      "inputs": [],
      "name": "renounceOwnership",
      "outputs": [],
      "stateMutability": "nonpayable",
      "type": "function"
    },
    {
      "inputs": [
        {
          "internalType": "address",
          "name": "_operator",
          "type": "address"
        }
      ],
      "name": "revokeOperator",
      "outputs": [],
      "stateMutability": "nonpayable",
      "type": "function"
    },
    {
      "inputs": [
        {
          "internalType": "address",
          "name": "_governor",
          "type": "address"
        }
      ],
      "name": "setBlastGovernor",
      "outputs": [],
      "stateMutability": "nonpayable",
      "type": "function"
    },
    {
      "inputs": [
        {
          "internalType": "address[]",
          "name": "_operators",
          "type": "address[]"
        }
      ],
      "name": "setOperator",
      "outputs": [],
      "stateMutability": "nonpayable",
      "type": "function"
    },
    {
      "inputs": [],
      "name": "symbol",
      "outputs": [
        {
          "internalType": "string",
          "name": "",
          "type": "string"
        }
      ],
      "stateMutability": "view",
      "type": "function"
    },
    {
      "inputs": [],
      "name": "totalSupply",
      "outputs": [
        {
          "internalType": "uint256",
          "name": "",
          "type": "uint256"
        }
      ],
      "stateMutability": "view",
      "type": "function"
    },
    {
      "inputs": [
        {
          "internalType": "address",
          "name": "_to",
          "type": "address"
        },
        {
          "internalType": "uint256",
          "name": "_value",
          "type": "uint256"
        }
      ],
      "name": "transfer",
      "outputs": [
        {
          "internalType": "bool",
          "name": "",
          "type": "bool"
        }
      ],
      "stateMutability": "nonpayable",
      "type": "function"
    },
    {
      "inputs": [
        {
          "internalType": "address",
          "name": "_from",
          "type": "address"
        },
        {
          "internalType": "address",
          "name": "_to",
          "type": "address"
        },
        {
          "internalType": "uint256",
          "name": "_value",
          "type": "uint256"
        }
      ],
      "name": "transferFrom",
      "outputs": [
        {
          "internalType": "bool",
          "name": "",
          "type": "bool"
        }
      ],
      "stateMutability": "nonpayable",
      "type": "function"
    },
    {
      "inputs": [
        {
          "internalType": "address",
          "name": "newOwner",
          "type": "address"
        }
      ],
      "name": "transferOwnership",
      "outputs": [],
      "stateMutability": "nonpayable",
      "type": "function"
    }
  ],
  "bytecode": "0x608060405234801561001057600080fd5b50604051610e21380380610e2183398101604081905261002f916100fb565b610038336100ab565b600280546001600160a01b0319166001600160a01b03831690811790915560408051634e606c4760e01b81529051634e606c479160048082019260009290919082900301818387803b15801561008d57600080fd5b505af11580156100a1573d6000803e3d6000fd5b505050505061012b565b600080546001600160a01b038381166001600160a01b0319831681178455604051919092169283917f8be0079c531659141344cd1fd0a4f28419497f9722a3daafe3b4186f6b6457e09190a35050565b60006020828403121561010d57600080fd5b81516001600160a01b038116811461012457600080fd5b9392505050565b610ce78061013a6000396000f3fe608060405234801561001057600080fd5b50600436106101515760003560e01c80636266d324116100cd5780639dc29fac11610081578063dd62ed3e11610066578063dd62ed3e14610333578063f2fde38b1461035e578063fad8b32a1461037157600080fd5b80639dc29fac1461030d578063a9059cbb1461032057600080fd5b8063715018a6116100b2578063715018a6146102b85780638da5cb5b146102c057806395d89b41146102d157600080fd5b80636266d3241461028557806370a082311461029857600080fd5b806318160ddd11610124578063313ce56711610109578063313ce5671461024357806340c10f191461025d57806342082c1e1461027057600080fd5b806318160ddd1461021957806323b872dd1461023057600080fd5b806306fdde0314610156578063095ea7b3146101a857806313e7c9d8146101cb578063175e1a7d146101ee575b600080fd5b6101926040518060400160405280601981526020017f57656e2045544820436f6d706f756e64696e6720546f6b656e0000000000000081525081565b60405161019f9190610ac4565b60405180910390f35b6101bb6101b6366004610b2f565b610384565b604051901515815260200161019f565b6101bb6101d9366004610b59565b60056020526000908152604090205460ff1681565b600254610201906001600160a01b031681565b6040516001600160a01b03909116815260200161019f565b61022260015481565b60405190815260200161019f565b6101bb61023e366004610b7b565b6103f1565b61024b601281565b60405160ff909116815260200161019f565b6101bb61026b366004610b2f565b6104e3565b61028361027e366004610bb7565b6105c6565b005b610283610293366004610b59565b61063b565b6102226102a6366004610b59565b60036020526000908152604090205481565b6102836106be565b6000546001600160a01b0316610201565b6101926040518060400160405280600681526020017f77656e455448000000000000000000000000000000000000000000000000000081525081565b6101bb61031b366004610b2f565b6106d2565b6101bb61032e366004610b2f565b6107b5565b610222610341366004610c2c565b600460209081526000928352604080842090915290825290205481565b61028361036c366004610b59565b6107cb565b61028361037f366004610b59565b61085b565b3360008181526004602090815260408083206001600160a01b038716808552925280832085905551919290917f8c5be1e5ebec7d5bd14f71427d1e84f3dd0314c0f7b2291e5b200ac8c7c3b925906103df9086815260200190565b60405180910390a35060015b92915050565b6001600160a01b03831660009081526004602090815260408083203384529091528120548211156104695760405162461bcd60e51b815260206004820152601660248201527f496e73756666696369656e7420616c6c6f77616e63650000000000000000000060448201526064015b60405180910390fd5b6001600160a01b0384166000908152600460209081526040808320338452909152902054600019146104ce576001600160a01b0384166000908152600460209081526040808320338452909152812080548492906104c8908490610c75565b90915550505b6104d98484846108ec565b5060019392505050565b3360009081526005602052604081205460ff166105425760405162461bcd60e51b815260206004820152600f60248201527f4e6f742061206f70657261746f727300000000000000000000000000000000006044820152606401610460565b6001600160a01b0383166000908152600360205260408120805484929061056a908490610c88565b9250508190555081600160008282546105839190610c88565b90915550506040518281526001600160a01b038416906000907fddf252ad1be2c89b69c2b068fc378daa952ba7f163c4a11628f55a4df523b3ef906020016103df565b6105ce610a02565b60005b81811015610636576001600560008585858181106105f1576105f1610c9b565b90506020020160208101906106069190610b59565b6001600160a01b031681526020810191909152604001600020805460ff19169115159190911790556001016105d1565b505050565b610643610a02565b6002546040517feb8646980000000000000000000000000000000000000000000000000000000081526001600160a01b0383811660048301529091169063eb86469890602401600060405180830381600087803b1580156106a357600080fd5b505af11580156106b7573d6000803e3d6000fd5b5050505050565b6106c6610a02565b6106d06000610a5c565b565b3360009081526005602052604081205460ff166107315760405162461bcd60e51b815260206004820152600f60248201527f4e6f742061206f70657261746f727300000000000000000000000000000000006044820152606401610460565b6001600160a01b03831660009081526003602052604081208054849290610759908490610c75565b9250508190555081600160008282546107729190610c75565b90915550506040518281526000906001600160a01b038516907fddf252ad1be2c89b69c2b068fc378daa952ba7f163c4a11628f55a4df523b3ef906020016103df565b60006107c23384846108ec565b50600192915050565b6107d3610a02565b6001600160a01b03811661084f5760405162461bcd60e51b815260206004820152602660248201527f4f776e61626c653a206e6577206f776e657220697320746865207a65726f206160448201527f64647265737300000000000000000000000000000000000000000000000000006064820152608401610460565b61085881610a5c565b50565b610863610a02565b6001600160a01b03811660009081526005602052604090205460ff166108cb5760405162461bcd60e51b815260206004820152601f60248201527f546869732061646472657373206973206e6f7420616e206f70657261746f72006044820152606401610460565b6001600160a01b03166000908152600560205260409020805460ff19169055565b6001600160a01b0383166000908152600360205260409020548111156109545760405162461bcd60e51b815260206004820152601460248201527f496e73756666696369656e742062616c616e63650000000000000000000000006044820152606401610460565b6001600160a01b0383166000908152600360205260408120805483929061097c908490610c75565b90915550506001600160a01b038216600090815260036020526040812080548392906109a9908490610c88565b92505081905550816001600160a01b0316836001600160a01b03167fddf252ad1be2c89b69c2b068fc378daa952ba7f163c4a11628f55a4df523b3ef836040516109f591815260200190565b60405180910390a3505050565b6000546001600160a01b031633146106d05760405162461bcd60e51b815260206004820181905260248201527f4f776e61626c653a2063616c6c6572206973206e6f7420746865206f776e65726044820152606401610460565b600080546001600160a01b038381167fffffffffffffffffffffffff0000000000000000000000000000000000000000831681178455604051919092169283917f8be0079c531659141344cd1fd0a4f28419497f9722a3daafe3b4186f6b6457e09190a35050565b60006020808352835180602085015260005b81811015610af257858101830151858201604001528201610ad6565b506000604082860101526040601f19601f8301168501019250505092915050565b80356001600160a01b0381168114610b2a57600080fd5b919050565b60008060408385031215610b4257600080fd5b610b4b83610b13565b946020939093013593505050565b600060208284031215610b6b57600080fd5b610b7482610b13565b9392505050565b600080600060608486031215610b9057600080fd5b610b9984610b13565b9250610ba760208501610b13565b9150604084013590509250925092565b60008060208385031215610bca57600080fd5b823567ffffffffffffffff80821115610be257600080fd5b818501915085601f830112610bf657600080fd5b813581811115610c0557600080fd5b8660208260051b8501011115610c1a57600080fd5b60209290920196919550909350505050565b60008060408385031215610c3f57600080fd5b610c4883610b13565b9150610c5660208401610b13565b90509250929050565b634e487b7160e01b600052601160045260246000fd5b818103818111156103eb576103eb610c5f565b808201808211156103eb576103eb610c5f565b634e487b7160e01b600052603260045260246000fdfea2646970667358221220c778862144972f83221981e3b57e74c3ae220f9772b75ba6053afdd81a3cc17164736f6c63430008180033",
  "linkReferences": {},
  "deployedLinkReferences": {}
}