{
  "_format": "hh-sol-artifact-1",
  "contractName": "ERC721TestCollection",
  "sourceName": "contracts/mocks/ERC721TestCollection.sol",
  "abi": [
    {
      "inputs": [
        {
          "internalType": "string",
          "name": "_name",
          "type": "string"
        },
        {
          "internalType": "string",
          "name": "_symbol",
          "type": "string"
        }
      ],
      "stateMutability": "nonpayable",
      "type": "constructor"
    },
    {
      "anonymous": false,
      "inputs": [
        {
          "indexed": true,
          "internalType": "address",
          "name": "owner",
          "type": "address"
        },
        {
          "indexed": true,
          "internalType": "address",
          "name": "approved",
          "type": "address"
        },
        {
          "indexed": true,
          "internalType": "uint256",
          "name": "tokenId",
          "type": "uint256"
        }
      ],
      "name": "Approval",
      "type": "event"
    },
    {
      "anonymous": false,
      "inputs": [
        {
          "indexed": true,
          "internalType": "address",
          "name": "owner",
          "type": "address"
        },
        {
          "indexed": true,
          "internalType": "address",
          "name": "operator",
          "type": "address"
        },
        {
          "indexed": false,
          "internalType": "bool",
          "name": "approved",
          "type": "bool"
        }
      ],
      "name": "ApprovalForAll",
      "type": "event"
    },
    {
      "anonymous": false,
      "inputs": [
        {
          "indexed": true,
          "internalType": "address",
          "name": "from",
          "type": "address"
        },
        {
          "indexed": true,
          "internalType": "address",
          "name": "to",
          "type": "address"
        },
        {
          "indexed": true,
          "internalType": "uint256",
          "name": "tokenId",
          "type": "uint256"
        }
      ],
      "name": "Transfer",
      "type": "event"
    },
    {
      "inputs": [
        {
          "internalType": "address",
          "name": "to",
          "type": "address"
        },
        {
          "internalType": "uint256",
          "name": "tokenId",
          "type": "uint256"
        }
      ],
      "name": "approve",
      "outputs": [],
      "stateMutability": "nonpayable",
      "type": "function"
    },
    {
      "inputs": [
        {
          "internalType": "address",
          "name": "owner",
          "type": "address"
        }
      ],
      "name": "balanceOf",
      "outputs": [
        {
          "internalType": "uint256",
          "name": "",
          "type": "uint256"
        }
      ],
      "stateMutability": "view",
      "type": "function"
    },
    {
      "inputs": [],
      "name": "beneficiary",
      "outputs": [
        {
          "internalType": "address",
          "name": "",
          "type": "address"
        }
      ],
      "stateMutability": "view",
      "type": "function"
    },
    {
      "inputs": [
        {
          "internalType": "uint256",
          "name": "_tokenId",
          "type": "uint256"
        }
      ],
      "name": "burn",
      "outputs": [],
      "stateMutability": "nonpayable",
      "type": "function"
    },
    {
      "inputs": [],
      "name": "creator",
      "outputs": [
        {
          "internalType": "address",
          "name": "",
          "type": "address"
        }
      ],
      "stateMutability": "view",
      "type": "function"
    },
    {
      "inputs": [
        {
          "internalType": "uint256",
          "name": "_tokenId",
          "type": "uint256"
        }
      ],
      "name": "decodeTokenId",
      "outputs": [
        {
          "internalType": "uint256",
          "name": "",
          "type": "uint256"
        },
        {
          "internalType": "uint256",
          "name": "",
          "type": "uint256"
        }
      ],
      "stateMutability": "pure",
      "type": "function"
    },
    {
      "inputs": [
        {
          "internalType": "uint256",
          "name": "tokenId",
          "type": "uint256"
        }
      ],
      "name": "getApproved",
      "outputs": [
        {
          "internalType": "address",
          "name": "",
          "type": "address"
        }
      ],
      "stateMutability": "view",
      "type": "function"
    },
    {
      "inputs": [
        {
          "internalType": "address",
          "name": "owner",
          "type": "address"
        },
        {
          "internalType": "address",
          "name": "operator",
          "type": "address"
        }
      ],
      "name": "isApprovedForAll",
      "outputs": [
        {
          "internalType": "bool",
          "name": "",
          "type": "bool"
        }
      ],
      "stateMutability": "view",
      "type": "function"
    },
    {
      "inputs": [
        {
          "internalType": "uint256",
          "name": "_itemId",
          "type": "uint256"
        }
      ],
      "name": "items",
      "outputs": [
        {
          "internalType": "string",
          "name": "",
          "type": "string"
        },
        {
          "internalType": "uint256",
          "name": "",
          "type": "uint256"
        },
        {
          "internalType": "uint256",
          "name": "",
          "type": "uint256"
        },
        {
          "internalType": "uint256",
          "name": "",
          "type": "uint256"
        },
        {
          "internalType": "address",
          "name": "",
          "type": "address"
        },
        {
          "internalType": "string",
          "name": "",
          "type": "string"
        },
        {
          "internalType": "string",
          "name": "",
          "type": "string"
        }
      ],
      "stateMutability": "view",
      "type": "function"
    },
    {
      "inputs": [
        {
          "internalType": "address",
          "name": "_to",
          "type": "address"
        },
        {
          "internalType": "uint256",
          "name": "_tokenId",
          "type": "uint256"
        }
      ],
      "name": "mint",
      "outputs": [],
      "stateMutability": "nonpayable",
      "type": "function"
    },
    {
      "inputs": [],
      "name": "name",
      "outputs": [
        {
          "internalType": "string",
          "name": "",
          "type": "string"
        }
      ],
      "stateMutability": "view",
      "type": "function"
    },
    {
      "inputs": [
        {
          "internalType": "uint256",
          "name": "tokenId",
          "type": "uint256"
        }
      ],
      "name": "ownerOf",
      "outputs": [
        {
          "internalType": "address",
          "name": "",
          "type": "address"
        }
      ],
      "stateMutability": "view",
      "type": "function"
    },
    {
      "inputs": [
        {
          "internalType": "address",
          "name": "from",
          "type": "address"
        },
        {
          "internalType": "address",
          "name": "to",
          "type": "address"
        },
        {
          "internalType": "uint256",
          "name": "tokenId",
          "type": "uint256"
        }
      ],
      "name": "safeTransferFrom",
      "outputs": [],
      "stateMutability": "nonpayable",
      "type": "function"
    },
    {
      "inputs": [
        {
          "internalType": "address",
          "name": "from",
          "type": "address"
        },
        {
          "internalType": "address",
          "name": "to",
          "type": "address"
        },
        {
          "internalType": "uint256",
          "name": "tokenId",
          "type": "uint256"
        },
        {
          "internalType": "bytes",
          "name": "data",
          "type": "bytes"
        }
      ],
      "name": "safeTransferFrom",
      "outputs": [],
      "stateMutability": "nonpayable",
      "type": "function"
    },
    {
      "inputs": [
        {
          "internalType": "address",
          "name": "operator",
          "type": "address"
        },
        {
          "internalType": "bool",
          "name": "approved",
          "type": "bool"
        }
      ],
      "name": "setApprovalForAll",
      "outputs": [],
      "stateMutability": "nonpayable",
      "type": "function"
    },
    {
      "inputs": [
        {
          "internalType": "address",
          "name": "_beneficiary",
          "type": "address"
        }
      ],
      "name": "setBeneficiary",
      "outputs": [],
      "stateMutability": "nonpayable",
      "type": "function"
    },
    {
      "inputs": [
        {
          "internalType": "address",
          "name": "_creator",
          "type": "address"
        }
      ],
      "name": "setCreator",
      "outputs": [],
      "stateMutability": "nonpayable",
      "type": "function"
    },
    {
      "inputs": [
        {
          "internalType": "bytes4",
          "name": "interfaceId",
          "type": "bytes4"
        }
      ],
      "name": "supportsInterface",
      "outputs": [
        {
          "internalType": "bool",
          "name": "",
          "type": "bool"
        }
      ],
      "stateMutability": "view",
      "type": "function"
    },
    {
      "inputs": [],
      "name": "symbol",
      "outputs": [
        {
          "internalType": "string",
          "name": "",
          "type": "string"
        }
      ],
      "stateMutability": "view",
      "type": "function"
    },
    {
      "inputs": [
        {
          "internalType": "uint256",
          "name": "tokenId",
          "type": "uint256"
        }
      ],
      "name": "tokenURI",
      "outputs": [
        {
          "internalType": "string",
          "name": "",
          "type": "string"
        }
      ],
      "stateMutability": "view",
      "type": "function"
    },
    {
      "inputs": [
        {
          "internalType": "address",
          "name": "from",
          "type": "address"
        },
        {
          "internalType": "address",
          "name": "to",
          "type": "address"
        },
        {
          "internalType": "uint256",
          "name": "tokenId",
          "type": "uint256"
        }
      ],
      "name": "transferFrom",
      "outputs": [],
      "stateMutability": "nonpayable",
      "type": "function"
    }
  ],
  "bytecode": "0x60806040523480156200001157600080fd5b5060405162001a0a38038062001a0a833981016040819052620000349162000126565b8181600062000044838262000221565b50600162000053828262000221565b5050505050620002ed565b634e487b7160e01b600052604160045260246000fd5b600082601f8301126200008657600080fd5b81516001600160401b0380821115620000a357620000a36200005e565b604051601f8301601f19908116603f01168101908282118183101715620000ce57620000ce6200005e565b8160405283815260209250866020858801011115620000ec57600080fd5b600091505b83821015620001105785820183015181830184015290820190620000f1565b6000602085830101528094505050505092915050565b600080604083850312156200013a57600080fd5b82516001600160401b03808211156200015257600080fd5b620001608683870162000074565b935060208501519150808211156200017757600080fd5b50620001868582860162000074565b9150509250929050565b600181811c90821680620001a557607f821691505b602082108103620001c657634e487b7160e01b600052602260045260246000fd5b50919050565b601f8211156200021c576000816000526020600020601f850160051c81016020861015620001f75750805b601f850160051c820191505b81811015620002185782815560010162000203565b5050505b505050565b81516001600160401b038111156200023d576200023d6200005e565b62000255816200024e845462000190565b84620001cc565b602080601f8311600181146200028d5760008415620002745750858301515b600019600386901b1c1916600185901b17855562000218565b600085815260208120601f198616915b82811015620002be578886015182559484019460019091019084016200029d565b5085821015620002dd5787850151600019600388901b60f8161c191681555b5050505050600190811b01905550565b61170d80620002fd6000396000f3fe608060405234801561001057600080fd5b50600436106101775760003560e01c806342842e0e116100d857806395d89b411161008c578063bfb231d211610066578063bfb231d214610355578063c87b56dd1461037b578063e985e9c51461038e57600080fd5b806395d89b4114610327578063a22cb4651461032f578063b88d4fde1461034257600080fd5b80636352211e116100bd5780636352211e146102cb57806370a08231146102de5780637efd9112146102ff57600080fd5b806342842e0e146102a557806342966c68146102b857600080fd5b80631c31f7101161012f57806338af3eed1161011457806338af3eed1461024f5780633f5160181461026257806340c10f191461029257600080fd5b80631c31f7101461020c57806323b872dd1461023c57600080fd5b806306fdde031161016057806306fdde03146101cf578063081812fc146101e4578063095ea7b3146101f757600080fd5b806301ffc9a71461017c57806302d05d3f146101a4575b600080fd5b61018f61018a366004611316565b6103ca565b60405190151581526020015b60405180910390f35b6006546101b7906001600160a01b031681565b6040516001600160a01b03909116815260200161019b565b6101d7610467565b60405161019b9190611383565b6101b76101f2366004611396565b6104f9565b61020a6102053660046113cb565b610520565b005b61020a61021a3660046113f5565b600780546001600160a01b0319166001600160a01b0392909216919091179055565b61020a61024a366004611410565b610656565b6007546101b7906001600160a01b031681565b61020a6102703660046113f5565b600680546001600160a01b0319166001600160a01b0392909216919091179055565b61020a6102a03660046113cb565b6106cd565b61020a6102b3366004611410565b6106db565b61020a6102c6366004611396565b6106f6565b6101b76102d9366004611396565b610702565b6102f16102ec3660046113f5565b610767565b60405190815260200161019b565b61031261030d366004611396565b908190565b6040805192835260208301919091520161019b565b6101d7610801565b61020a61033d36600461144c565b610810565b61020a61035036600461149e565b61081b565b610368610363366004611396565b610899565b60405161019b979695949392919061157a565b6101d7610389366004611396565b6108f2565b61018f61039c3660046115e2565b6001600160a01b03918216600090815260056020908152604080832093909416825291909152205460ff1690565b60006001600160e01b031982167f80ac58cd00000000000000000000000000000000000000000000000000000000148061042d57506001600160e01b031982167f5b5e139f00000000000000000000000000000000000000000000000000000000145b8061046157507f01ffc9a7000000000000000000000000000000000000000000000000000000006001600160e01b03198316145b92915050565b60606000805461047690611615565b80601f01602080910402602001604051908101604052809291908181526020018280546104a290611615565b80156104ef5780601f106104c4576101008083540402835291602001916104ef565b820191906000526020600020905b8154815290600101906020018083116104d257829003601f168201915b5050505050905090565b600061050482610966565b506000908152600460205260409020546001600160a01b031690565b600061052b82610702565b9050806001600160a01b0316836001600160a01b0316036105b95760405162461bcd60e51b815260206004820152602160248201527f4552433732313a20617070726f76616c20746f2063757272656e74206f776e6560448201527f720000000000000000000000000000000000000000000000000000000000000060648201526084015b60405180910390fd5b336001600160a01b03821614806105d557506105d5813361039c565b6106475760405162461bcd60e51b815260206004820152603d60248201527f4552433732313a20617070726f76652063616c6c6572206973206e6f7420746f60448201527f6b656e206f776e6572206f7220617070726f76656420666f7220616c6c00000060648201526084016105b0565b61065183836109ca565b505050565b6106603382610a38565b6106c25760405162461bcd60e51b815260206004820152602d60248201527f4552433732313a2063616c6c6572206973206e6f7420746f6b656e206f776e6560448201526c1c881bdc88185c1c1c9bdd9959609a1b60648201526084016105b0565b610651838383610ab7565b6106d78282610cb0565b5050565b6106518383836040518060200160405280600081525061081b565b6106ff81610e3b565b50565b6000818152600260205260408120546001600160a01b0316806104615760405162461bcd60e51b815260206004820152601860248201527f4552433732313a20696e76616c696420746f6b656e204944000000000000000060448201526064016105b0565b60006001600160a01b0382166107e55760405162461bcd60e51b815260206004820152602960248201527f4552433732313a2061646472657373207a65726f206973206e6f74206120766160448201527f6c6964206f776e6572000000000000000000000000000000000000000000000060648201526084016105b0565b506001600160a01b031660009081526003602052604090205490565b60606001805461047690611615565b6106d7338383610ed0565b6108253383610a38565b6108875760405162461bcd60e51b815260206004820152602d60248201527f4552433732313a2063616c6c6572206973206e6f7420746f6b656e206f776e6560448201526c1c881bdc88185c1c1c9bdd9959609a1b60648201526084016105b0565b61089384848484610f9e565b50505050565b606060008080808480871561017757505060075460408051602080820183526000808352835180830185528181528451928301909452808252919a9199508998508897506001600160a01b039093169550909350909150565b60606108fd82610966565b600061091460408051602081019091526000815290565b90506000815111610934576040518060200160405280600081525061095f565b8061093e84611027565b60405160200161094f92919061164f565b6040516020818303038152906040525b9392505050565b6000818152600260205260409020546001600160a01b03166106ff5760405162461bcd60e51b815260206004820152601860248201527f4552433732313a20696e76616c696420746f6b656e204944000000000000000060448201526064016105b0565b600081815260046020526040902080546001600160a01b0319166001600160a01b03841690811790915581906109ff82610702565b6001600160a01b03167f8c5be1e5ebec7d5bd14f71427d1e84f3dd0314c0f7b2291e5b200ac8c7c3b92560405160405180910390a45050565b600080610a4483610702565b9050806001600160a01b0316846001600160a01b03161480610a8b57506001600160a01b0380821660009081526005602090815260408083209388168352929052205460ff165b80610aaf5750836001600160a01b0316610aa4846104f9565b6001600160a01b0316145b949350505050565b826001600160a01b0316610aca82610702565b6001600160a01b031614610b2e5760405162461bcd60e51b815260206004820152602560248201527f4552433732313a207472616e736665722066726f6d20696e636f72726563742060448201526437bbb732b960d91b60648201526084016105b0565b6001600160a01b038216610ba95760405162461bcd60e51b8152602060048201526024808201527f4552433732313a207472616e7366657220746f20746865207a65726f2061646460448201527f726573730000000000000000000000000000000000000000000000000000000060648201526084016105b0565b826001600160a01b0316610bbc82610702565b6001600160a01b031614610c205760405162461bcd60e51b815260206004820152602560248201527f4552433732313a207472616e736665722066726f6d20696e636f72726563742060448201526437bbb732b960d91b60648201526084016105b0565b600081815260046020908152604080832080546001600160a01b03199081169091556001600160a01b0387811680865260038552838620805460001901905590871680865283862080546001019055868652600290945282852080549092168417909155905184937fddf252ad1be2c89b69c2b068fc378daa952ba7f163c4a11628f55a4df523b3ef91a4505050565b6001600160a01b038216610d065760405162461bcd60e51b815260206004820181905260248201527f4552433732313a206d696e7420746f20746865207a65726f206164647265737360448201526064016105b0565b6000818152600260205260409020546001600160a01b031615610d6b5760405162461bcd60e51b815260206004820152601c60248201527f4552433732313a20746f6b656e20616c7265616479206d696e7465640000000060448201526064016105b0565b6000818152600260205260409020546001600160a01b031615610dd05760405162461bcd60e51b815260206004820152601c60248201527f4552433732313a20746f6b656e20616c7265616479206d696e7465640000000060448201526064016105b0565b6001600160a01b038216600081815260036020908152604080832080546001019055848352600290915280822080546001600160a01b0319168417905551839291907fddf252ad1be2c89b69c2b068fc378daa952ba7f163c4a11628f55a4df523b3ef908290a45050565b6000610e4682610702565b9050610e5182610702565b600083815260046020908152604080832080546001600160a01b03199081169091556001600160a01b0385168085526003845282852080546000190190558785526002909352818420805490911690555192935084927fddf252ad1be2c89b69c2b068fc378daa952ba7f163c4a11628f55a4df523b3ef908390a45050565b816001600160a01b0316836001600160a01b031603610f315760405162461bcd60e51b815260206004820152601960248201527f4552433732313a20617070726f766520746f2063616c6c65720000000000000060448201526064016105b0565b6001600160a01b03838116600081815260056020908152604080832094871680845294825291829020805460ff191686151590811790915591519182527f17307eab39ab6107e8899845ad3d59bd9653f200f220920489ca2b5937696c31910160405180910390a3505050565b610fa9848484610ab7565b610fb5848484846110c7565b6108935760405162461bcd60e51b815260206004820152603260248201527f4552433732313a207472616e7366657220746f206e6f6e20455243373231526560448201527f63656976657220696d706c656d656e746572000000000000000000000000000060648201526084016105b0565b606060006110348361121e565b600101905060008167ffffffffffffffff81111561105457611054611488565b6040519080825280601f01601f19166020018201604052801561107e576020820181803683370190505b5090508181016020015b600019017f3031323334353637383961626364656600000000000000000000000000000000600a86061a8153600a850494508461108857509392505050565b60006001600160a01b0384163b1561121357604051630a85bd0160e11b81526001600160a01b0385169063150b7a029061110b90339089908890889060040161167e565b6020604051808303816000875af1925050508015611146575060408051601f3d908101601f19168201909252611143918101906116ba565b60015b6111f9573d808015611174576040519150601f19603f3d011682016040523d82523d6000602084013e611179565b606091505b5080516000036111f15760405162461bcd60e51b815260206004820152603260248201527f4552433732313a207472616e7366657220746f206e6f6e20455243373231526560448201527f63656976657220696d706c656d656e746572000000000000000000000000000060648201526084016105b0565b805181602001fd5b6001600160e01b031916630a85bd0160e11b149050610aaf565b506001949350505050565b6000807a184f03e93ff9f4daa797ed6e38ed64bf6a1f0100000000000000008310611267577a184f03e93ff9f4daa797ed6e38ed64bf6a1f010000000000000000830492506040015b6d04ee2d6d415b85acef81000000008310611293576d04ee2d6d415b85acef8100000000830492506020015b662386f26fc1000083106112b157662386f26fc10000830492506010015b6305f5e10083106112c9576305f5e100830492506008015b61271083106112dd57612710830492506004015b606483106112ef576064830492506002015b600a83106104615760010192915050565b6001600160e01b0319811681146106ff57600080fd5b60006020828403121561132857600080fd5b813561095f81611300565b60005b8381101561134e578181015183820152602001611336565b50506000910152565b6000815180845261136f816020860160208601611333565b601f01601f19169290920160200192915050565b60208152600061095f6020830184611357565b6000602082840312156113a857600080fd5b5035919050565b80356001600160a01b03811681146113c657600080fd5b919050565b600080604083850312156113de57600080fd5b6113e7836113af565b946020939093013593505050565b60006020828403121561140757600080fd5b61095f826113af565b60008060006060848603121561142557600080fd5b61142e846113af565b925061143c602085016113af565b9150604084013590509250925092565b6000806040838503121561145f57600080fd5b611468836113af565b91506020830135801515811461147d57600080fd5b809150509250929050565b634e487b7160e01b600052604160045260246000fd5b600080600080608085870312156114b457600080fd5b6114bd856113af565b93506114cb602086016113af565b925060408501359150606085013567ffffffffffffffff808211156114ef57600080fd5b818701915087601f83011261150357600080fd5b81358181111561151557611515611488565b604051601f8201601f19908116603f0116810190838211818310171561153d5761153d611488565b816040528281528a602084870101111561155657600080fd5b82602086016020830137600060208483010152809550505050505092959194509250565b60e08152600061158d60e083018a611357565b8860208401528760408401528660608401526001600160a01b038616608084015282810360a08401526115c08186611357565b905082810360c08401526115d48185611357565b9a9950505050505050505050565b600080604083850312156115f557600080fd5b6115fe836113af565b915061160c602084016113af565b90509250929050565b600181811c9082168061162957607f821691505b60208210810361164957634e487b7160e01b600052602260045260246000fd5b50919050565b60008351611661818460208801611333565b835190830190611675818360208801611333565b01949350505050565b60006001600160a01b038087168352808616602084015250836040830152608060608301526116b06080830184611357565b9695505050505050565b6000602082840312156116cc57600080fd5b815161095f8161130056fea264697066735822122038ba26bff3abad42541606aa3543408f712c028c2018413d3cfb3bec71a3b65d64736f6c63430008180033",
  "linkReferences": {},
  "deployedLinkReferences": {}
}