{
  "_format": "hh-sol-artifact-1",
  "contractName": "WenGasStationV1",
  "sourceName": "contracts/WenCore/WenGasStationV1.sol",
  "abi": [
    {
      "anonymous": false,
      "inputs": [
        {
          "indexed": false,
          "internalType": "address",
          "name": "previousAdmin",
          "type": "address"
        },
        {
          "indexed": false,
          "internalType": "address",
          "name": "newAdmin",
          "type": "address"
        }
      ],
      "name": "AdminChanged",
      "type": "event"
    },
    {
      "anonymous": false,
      "inputs": [
        {
          "indexed": true,
          "internalType": "address",
          "name": "beacon",
          "type": "address"
        }
      ],
      "name": "BeaconUpgraded",
      "type": "event"
    },
    {
      "anonymous": false,
      "inputs": [
        {
          "indexed": false,
          "internalType": "address",
          "name": "contractAddress",
          "type": "address"
        },
        {
          "indexed": false,
          "internalType": "uint256",
          "name": "amount",
          "type": "uint256"
        }
      ],
      "name": "FeesCollected",
      "type": "event"
    },
    {
      "anonymous": false,
      "inputs": [
        {
          "indexed": false,
          "internalType": "address",
          "name": "contractAddress",
          "type": "address"
        },
        {
          "indexed": false,
          "internalType": "uint256",
          "name": "amount",
          "type": "uint256"
        }
      ],
      "name": "FeesDistributed",
      "type": "event"
    },
    {
      "anonymous": false,
      "inputs": [
        {
          "indexed": false,
          "internalType": "uint256",
          "name": "amount",
          "type": "uint256"
        }
      ],
      "name": "FeesReceived",
      "type": "event"
    },
    {
      "anonymous": false,
      "inputs": [
        {
          "indexed": false,
          "internalType": "uint8",
          "name": "version",
          "type": "uint8"
        }
      ],
      "name": "Initialized",
      "type": "event"
    },
    {
      "anonymous": false,
      "inputs": [
        {
          "indexed": true,
          "internalType": "address",
          "name": "previousOwner",
          "type": "address"
        },
        {
          "indexed": true,
          "internalType": "address",
          "name": "newOwner",
          "type": "address"
        }
      ],
      "name": "OwnershipTransferred",
      "type": "event"
    },
    {
      "anonymous": false,
      "inputs": [
        {
          "indexed": false,
          "internalType": "address",
          "name": "account",
          "type": "address"
        }
      ],
      "name": "Paused",
      "type": "event"
    },
    {
      "anonymous": false,
      "inputs": [
        {
          "indexed": false,
          "internalType": "address",
          "name": "account",
          "type": "address"
        }
      ],
      "name": "Unpaused",
      "type": "event"
    },
    {
      "anonymous": false,
      "inputs": [
        {
          "indexed": true,
          "internalType": "address",
          "name": "implementation",
          "type": "address"
        }
      ],
      "name": "Upgraded",
      "type": "event"
    },
    {
      "stateMutability": "payable",
      "type": "fallback"
    },
    {
      "inputs": [
        {
          "internalType": "address",
          "name": "_giver",
          "type": "address"
        }
      ],
      "name": "addFeeGiver",
      "outputs": [],
      "stateMutability": "nonpayable",
      "type": "function"
    },
    {
      "inputs": [
        {
          "internalType": "address",
          "name": "_receiver",
          "type": "address"
        },
        {
          "internalType": "uint256",
          "name": "_percent",
          "type": "uint256"
        }
      ],
      "name": "addFeeReceiver",
      "outputs": [],
      "stateMutability": "nonpayable",
      "type": "function"
    },
    {
      "inputs": [],
      "name": "blast",
      "outputs": [
        {
          "internalType": "contract IBlast",
          "name": "",
          "type": "address"
        }
      ],
      "stateMutability": "view",
      "type": "function"
    },
    {
      "inputs": [
        {
          "internalType": "address",
          "name": "contractAddr",
          "type": "address"
        },
        {
          "internalType": "uint256",
          "name": "newPercentage",
          "type": "uint256"
        }
      ],
      "name": "changePercentage",
      "outputs": [],
      "stateMutability": "nonpayable",
      "type": "function"
    },
    {
      "inputs": [],
      "name": "claimAll",
      "outputs": [],
      "stateMutability": "nonpayable",
      "type": "function"
    },
    {
      "inputs": [
        {
          "internalType": "address",
          "name": "addr",
          "type": "address"
        }
      ],
      "name": "claimAllByContract",
      "outputs": [],
      "stateMutability": "nonpayable",
      "type": "function"
    },
    {
      "inputs": [
        {
          "internalType": "address",
          "name": "recipient",
          "type": "address"
        }
      ],
      "name": "claimAllYield",
      "outputs": [],
      "stateMutability": "nonpayable",
      "type": "function"
    },
    {
      "inputs": [
        {
          "internalType": "uint256",
          "name": "minClaimRateBips",
          "type": "uint256"
        }
      ],
      "name": "claimGasAtMinClaimRate",
      "outputs": [],
      "stateMutability": "nonpayable",
      "type": "function"
    },
    {
      "inputs": [
        {
          "internalType": "address",
          "name": "addr",
          "type": "address"
        },
        {
          "internalType": "uint256",
          "name": "minClaimRateBips",
          "type": "uint256"
        }
      ],
      "name": "claimGasAtMinClaimRateByContract",
      "outputs": [],
      "stateMutability": "nonpayable",
      "type": "function"
    },
    {
      "inputs": [],
      "name": "claimMax",
      "outputs": [],
      "stateMutability": "nonpayable",
      "type": "function"
    },
    {
      "inputs": [
        {
          "internalType": "address",
          "name": "addr",
          "type": "address"
        }
      ],
      "name": "claimMaxByContract",
      "outputs": [],
      "stateMutability": "nonpayable",
      "type": "function"
    },
    {
      "inputs": [
        {
          "internalType": "address",
          "name": "recipient",
          "type": "address"
        },
        {
          "internalType": "uint256",
          "name": "amount",
          "type": "uint256"
        }
      ],
      "name": "claimYield",
      "outputs": [],
      "stateMutability": "nonpayable",
      "type": "function"
    },
    {
      "inputs": [],
      "name": "distributeFees",
      "outputs": [],
      "stateMutability": "nonpayable",
      "type": "function"
    },
    {
      "inputs": [
        {
          "internalType": "uint256",
          "name": "",
          "type": "uint256"
        }
      ],
      "name": "feeGivers",
      "outputs": [
        {
          "internalType": "address",
          "name": "giver",
          "type": "address"
        }
      ],
      "stateMutability": "view",
      "type": "function"
    },
    {
      "inputs": [
        {
          "internalType": "uint256",
          "name": "",
          "type": "uint256"
        }
      ],
      "name": "feeReceivers",
      "outputs": [
        {
          "internalType": "address",
          "name": "receiver",
          "type": "address"
        },
        {
          "internalType": "uint256",
          "name": "percent",
          "type": "uint256"
        }
      ],
      "stateMutability": "view",
      "type": "function"
    },
    {
      "inputs": [],
      "name": "initialize",
      "outputs": [],
      "stateMutability": "nonpayable",
      "type": "function"
    },
    {
      "inputs": [
        {
          "internalType": "address",
          "name": "",
          "type": "address"
        }
      ],
      "name": "operators",
      "outputs": [
        {
          "internalType": "bool",
          "name": "",
          "type": "bool"
        }
      ],
      "stateMutability": "view",
      "type": "function"
    },
    {
      "inputs": [],
      "name": "owner",
      "outputs": [
        {
          "internalType": "address",
          "name": "",
          "type": "address"
        }
      ],
      "stateMutability": "view",
      "type": "function"
    },
    {
      "inputs": [],
      "name": "pause",
      "outputs": [],
      "stateMutability": "nonpayable",
      "type": "function"
    },
    {
      "inputs": [],
      "name": "paused",
      "outputs": [
        {
          "internalType": "bool",
          "name": "",
          "type": "bool"
        }
      ],
      "stateMutability": "view",
      "type": "function"
    },
    {
      "inputs": [],
      "name": "proxiableUUID",
      "outputs": [
        {
          "internalType": "bytes32",
          "name": "",
          "type": "bytes32"
        }
      ],
      "stateMutability": "view",
      "type": "function"
    },
    {
      "inputs": [
        {
          "internalType": "address",
          "name": "_giver",
          "type": "address"
        }
      ],
      "name": "removeFeeGiver",
      "outputs": [],
      "stateMutability": "nonpayable",
      "type": "function"
    },
    {
      "inputs": [
        {
          "internalType": "address",
          "name": "_receiver",
          "type": "address"
        }
      ],
      "name": "removeFeeReceiver",
      "outputs": [],
      "stateMutability": "nonpayable",
      "type": "function"
    },
    {
      "inputs": [],
      "name": "renounceOwnership",
      "outputs": [],
      "stateMutability": "nonpayable",
      "type": "function"
    },
    {
      "inputs": [
        {
          "internalType": "address",
          "name": "_operator",
          "type": "address"
        }
      ],
      "name": "revokeOperator",
      "outputs": [],
      "stateMutability": "nonpayable",
      "type": "function"
    },
    {
      "inputs": [
        {
          "internalType": "address",
          "name": "_blast",
          "type": "address"
        }
      ],
      "name": "setBlast",
      "outputs": [],
      "stateMutability": "nonpayable",
      "type": "function"
    },
    {
      "inputs": [
        {
          "internalType": "address",
          "name": "_governor",
          "type": "address"
        }
      ],
      "name": "setBlastGovernor",
      "outputs": [],
      "stateMutability": "nonpayable",
      "type": "function"
    },
    {
      "inputs": [
        {
          "internalType": "address",
          "name": "_blast",
          "type": "address"
        }
      ],
      "name": "setInitialInfo",
      "outputs": [],
      "stateMutability": "nonpayable",
      "type": "function"
    },
    {
      "inputs": [
        {
          "internalType": "address[]",
          "name": "_operators",
          "type": "address[]"
        }
      ],
      "name": "setOperator",
      "outputs": [],
      "stateMutability": "nonpayable",
      "type": "function"
    },
    {
      "inputs": [
        {
          "internalType": "address",
          "name": "newOwner",
          "type": "address"
        }
      ],
      "name": "transferOwnership",
      "outputs": [],
      "stateMutability": "nonpayable",
      "type": "function"
    },
    {
      "inputs": [],
      "name": "unpause",
      "outputs": [],
      "stateMutability": "nonpayable",
      "type": "function"
    },
    {
      "inputs": [
        {
          "internalType": "address",
          "name": "newImplementation",
          "type": "address"
        }
      ],
      "name": "upgradeTo",
      "outputs": [],
      "stateMutability": "nonpayable",
      "type": "function"
    },
    {
      "inputs": [
        {
          "internalType": "address",
          "name": "newImplementation",
          "type": "address"
        },
        {
          "internalType": "bytes",
          "name": "data",
          "type": "bytes"
        }
      ],
      "name": "upgradeToAndCall",
      "outputs": [],
      "stateMutability": "payable",
      "type": "function"
    },
    {
      "stateMutability": "payable",
      "type": "receive"
    }
  ],
  "bytecode": "0x60a06040523060805234801561001457600080fd5b50608051612c4861004c6000396000818161091b015281816109a001528181610d9901528181610e1e0152610f080152612c486000f3fe6080604052600436106101e75760003560e01c80636266d3241161010e578063b24c7302116100a7578063d1058e5911610079578063e647a43011610061578063e647a430146105ad578063f2fde38b146105cd578063fad8b32a146105ed57005b8063d1058e5914610578578063d616ca9f1461058d57005b8063b24c730214610503578063bb57ad2014610523578063c2d94aec14610538578063cf85c2fb1461055857005b80638456cb59116100e05780638456cb59146104905780638da5cb5b146104a5578063ad107a40146104c3578063ae1feb95146104e357005b80636266d32414610426578063715018a6146104465780638129fc1c1461045b57806383f19e761461047057005b80633f4ba83a116101805780635744ee88116101525780635744ee881461038f5780635b381760146103af5780635c975abb146103ee57806360ac43b71461040657005b80633f4ba83a1461032457806342082c1e146103395780634f1ef2861461035957806352d1902d1461036c57005b80632c7019bd116101b95780632c7019bd146102af5780633659cfe6146102cf57806337c349dc146102ef5780633e99fcfd1461030457005b806313e7c9d8146101f0578063175e1a7d146102365780631869ebda1461026f578063232bc8041461028f57005b366101ee57005b005b3480156101fc57600080fd5b5061022161020b366004612913565b6101306020526000908152604090205460ff1681565b60405190151581526020015b60405180910390f35b34801561024257600080fd5b5061012d54610257906001600160a01b031681565b6040516001600160a01b03909116815260200161022d565b34801561027b57600080fd5b506101ee61028a36600461292e565b61060d565b34801561029b57600080fd5b506101ee6102aa36600461292e565b61073c565b3480156102bb57600080fd5b506101ee6102ca366004612913565b61084f565b3480156102db57600080fd5b506101ee6102ea366004612913565b610911565b3480156102fb57600080fd5b506101ee610a8c565b34801561031057600080fd5b506101ee61031f366004612913565b610bea565b34801561033057600080fd5b506101ee610cff565b34801561034557600080fd5b506101ee610354366004612958565b610d19565b6101ee6103673660046129e3565b610d8f565b34801561037857600080fd5b50610381610efb565b60405190815260200161022d565b34801561039b57600080fd5b506101ee6103aa366004612913565b610fc0565b3480156103bb57600080fd5b506103cf6103ca366004612aa5565b6110bb565b604080516001600160a01b03909316835260208301919091520161022d565b3480156103fa57600080fd5b5060fb5460ff16610221565b34801561041257600080fd5b506101ee610421366004612913565b6110f4565b34801561043257600080fd5b506101ee610441366004612913565b6111fc565b34801561045257600080fd5b506101ee611265565b34801561046757600080fd5b506101ee611277565b34801561047c57600080fd5b506101ee61048b36600461292e565b6113a6565b34801561049c57600080fd5b506101ee6114b1565b3480156104b157600080fd5b506097546001600160a01b0316610257565b3480156104cf57600080fd5b506101ee6104de366004612913565b6114c9565b3480156104ef57600080fd5b506101ee6104fe366004612913565b6115e9565b34801561050f57600080fd5b506101ee61051e36600461292e565b611675565b34801561052f57600080fd5b506101ee611769565b34801561054457600080fd5b506101ee610553366004612913565b6119e5565b34801561056457600080fd5b506101ee610573366004612913565b611b4d565b34801561058457600080fd5b506101ee611b78565b34801561059957600080fd5b506101ee6105a8366004612aa5565b611cd6565b3480156105b957600080fd5b506102576105c8366004612aa5565b611e3b565b3480156105d957600080fd5b506101ee6105e8366004612913565b611e66565b3480156105f957600080fd5b506101ee610608366004612913565b611ef3565b336000908152610130602052604090205460ff166106645760405162461bcd60e51b815260206004820152600f60248201526e4e6f742061206f70657261746f727360881b60448201526064015b60405180910390fd5b61012d546040517ff97196620000000000000000000000000000000000000000000000000000000081523060048201526001600160a01b03848116602483015260448201849052600092169063f9719662906064016020604051808303816000875af11580156106d8573d6000803e3d6000fd5b505050506040513d601f19601f820116820180604052508101906106fc9190612abe565b90507f91b044947b8ab661360de0aedacf8d16ad45adfb1f3bafb2ac8c4633e297b9718160405161072f91815260200190565b60405180910390a1505050565b336000908152610130602052604090205460ff1661078e5760405162461bcd60e51b815260206004820152600f60248201526e4e6f742061206f70657261746f727360881b604482015260640161065b565b61012d54604051630951888f60e01b81526001600160a01b038481166004830152306024830152604482018490526000921690630951888f906064016020604051808303816000875af11580156107e9573d6000803e3d6000fd5b505050506040513d601f19601f8201168201806040525081019061080d9190612abe565b604080516001600160a01b0386168152602081018390529192507f9dc46f23cfb5ddcad0ae7ea2be38d47fec07bb9382ec7e564efc69e036dd66ce910161072f565b610857611f86565b6001600160a01b0381166108ad5760405162461bcd60e51b815260206004820152601560248201527f496e76616c696420676976657220616464726573730000000000000000000000604482015260640161065b565b60408051602081019091526001600160a01b03918216815261012f805460018101825560009190915290517f232da9e50dad2971456a78fb5cd6ff6b75019984d6e918139ce990999420f97990910180546001600160a01b03191691909216179055565b6001600160a01b037f000000000000000000000000000000000000000000000000000000000000000016300361099e5760405162461bcd60e51b815260206004820152602c60248201527f46756e6374696f6e206d7573742062652063616c6c6564207468726f7567682060448201526b19195b1959d85d1958d85b1b60a21b606482015260840161065b565b7f00000000000000000000000000000000000000000000000000000000000000006001600160a01b03166109f97f360894a13ba1a3210667c828492db98dca3e2076cc3735a920a3ca505d382bbc546001600160a01b031690565b6001600160a01b031614610a645760405162461bcd60e51b815260206004820152602c60248201527f46756e6374696f6e206d7573742062652063616c6c6564207468726f7567682060448201526b6163746976652070726f787960a01b606482015260840161065b565b610a6d81611fe0565b60408051600080825260208201909252610a8991839190611fe8565b50565b336000908152610130602052604090205460ff16610ade5760405162461bcd60e51b815260206004820152600f60248201526e4e6f742061206f70657261746f727360881b604482015260640161065b565b60005b61012f54811015610a8957600061012f8281548110610b0257610b02612ad7565b600091825260208083206040805192830181529201546001600160a01b0390811680835261012d54935163662aa11d60e01b81526004810191909152306024820152919450919091169063662aa11d906044016020604051808303816000875af1158015610b74573d6000803e3d6000fd5b505050506040513d601f19601f82011682018060405250810190610b989190612abe565b8251604080516001600160a01b039092168252602082018390529192507f9dc46f23cfb5ddcad0ae7ea2be38d47fec07bb9382ec7e564efc69e036dd66ce910160405180910390a15050600101610ae1565b336000908152610130602052604090205460ff16610c3c5760405162461bcd60e51b815260206004820152600f60248201526e4e6f742061206f70657261746f727360881b604482015260640161065b565b61012d5460405163662aa11d60e01b81526001600160a01b038381166004830152306024830152600092169063662aa11d906044015b6020604051808303816000875af1158015610c91573d6000803e3d6000fd5b505050506040513d601f19601f82011682018060405250810190610cb59190612abe565b604080516001600160a01b0385168152602081018390529192507f9dc46f23cfb5ddcad0ae7ea2be38d47fec07bb9382ec7e564efc69e036dd66ce91015b60405180910390a15050565b610d07611f86565b610d0f612188565b610d176121da565b565b610d21611f86565b60005b81811015610d8a5760016101306000858585818110610d4557610d45612ad7565b9050602002016020810190610d5a9190612913565b6001600160a01b031681526020810191909152604001600020805460ff1916911515919091179055600101610d24565b505050565b6001600160a01b037f0000000000000000000000000000000000000000000000000000000000000000163003610e1c5760405162461bcd60e51b815260206004820152602c60248201527f46756e6374696f6e206d7573742062652063616c6c6564207468726f7567682060448201526b19195b1959d85d1958d85b1b60a21b606482015260840161065b565b7f00000000000000000000000000000000000000000000000000000000000000006001600160a01b0316610e777f360894a13ba1a3210667c828492db98dca3e2076cc3735a920a3ca505d382bbc546001600160a01b031690565b6001600160a01b031614610ee25760405162461bcd60e51b815260206004820152602c60248201527f46756e6374696f6e206d7573742062652063616c6c6564207468726f7567682060448201526b6163746976652070726f787960a01b606482015260840161065b565b610eeb82611fe0565b610ef782826001611fe8565b5050565b6000306001600160a01b037f00000000000000000000000000000000000000000000000000000000000000001614610f9b5760405162461bcd60e51b815260206004820152603860248201527f555550535570677261646561626c653a206d757374206e6f742062652063616c60448201527f6c6564207468726f7567682064656c656761746563616c6c0000000000000000606482015260840161065b565b507f360894a13ba1a3210667c828492db98dca3e2076cc3735a920a3ca505d382bbc90565b610fc8611f86565b61012d80546001600160a01b0319166001600160a01b038316908117909155604080517ff098767a000000000000000000000000000000000000000000000000000000008152905163f098767a9160048082019260009290919082900301818387803b15801561103757600080fd5b505af115801561104b573d6000803e3d6000fd5b5050505061012d60009054906101000a90046001600160a01b03166001600160a01b0316634e606c476040518163ffffffff1660e01b8152600401600060405180830381600087803b1580156110a057600080fd5b505af11580156110b4573d6000803e3d6000fd5b5050505050565b61012e81815481106110cc57600080fd5b6000918252602090912060029091020180546001909101546001600160a01b03909116915082565b6110fc611f86565b60006111078261222c565b9050600019810361115a5760405162461bcd60e51b815260206004820152600f60248201527f4769766572206e6f7420666f756e640000000000000000000000000000000000604482015260640161065b565b61012f805461116b90600190612b03565b8154811061117b5761117b612ad7565b9060005260206000200161012f828154811061119957611199612ad7565b600091825260209091209154910180546001600160a01b0319166001600160a01b0390921691909117905561012f8054806111d6576111d6612b16565b600082815260209020810160001990810180546001600160a01b03191690550190555050565b611204611f86565b61012d546040517feb8646980000000000000000000000000000000000000000000000000000000081526001600160a01b0383811660048301529091169063eb86469890602401600060405180830381600087803b1580156110a057600080fd5b61126d611f86565b610d17600061228b565b600054610100900460ff16158080156112975750600054600160ff909116105b806112b15750303b1580156112b1575060005460ff166001145b6113235760405162461bcd60e51b815260206004820152602e60248201527f496e697469616c697a61626c653a20636f6e747261637420697320616c72656160448201527f647920696e697469616c697a6564000000000000000000000000000000000000606482015260840161065b565b6000805460ff191660011790558015611346576000805461ff0019166101001790555b61134e6122dd565b611356612350565b61135e6123c3565b8015610a89576000805461ff0019169055604051600181527f7f26b83ff96e1f2b6a682f133852f6798a09c465da95921460cefb38474024989060200160405180910390a150565b6113ae611f86565b60006113b983612436565b9050600019810361140c5760405162461bcd60e51b815260206004820152601260248201527f5265636569766572206e6f7420666f756e640000000000000000000000000000604482015260640161065b565b600082116114825760405162461bcd60e51b815260206004820152602660248201527f4e65772050657263656e746167652073686f756c64206265206269676765722060448201527f7468616e20300000000000000000000000000000000000000000000000000000606482015260840161065b565b8161012e828154811061149757611497612ad7565b906000526020600020906002020160010181905550505050565b6114b9611f86565b6114c1612490565b610d176124e3565b6114d1611f86565b60006114dc82612436565b9050600019810361152f5760405162461bcd60e51b815260206004820152601260248201527f5265636569766572206e6f7420666f756e640000000000000000000000000000604482015260640161065b565b61012e805461154090600190612b03565b8154811061155057611550612ad7565b906000526020600020906002020161012e828154811061157257611572612ad7565b60009182526020909120825460029092020180546001600160a01b0319166001600160a01b0390921691909117815560019182015491015561012e8054806115bc576115bc612b16565b60008281526020812060026000199093019283020180546001600160a01b03191681556001015590555050565b336000908152610130602052604090205460ff1661163b5760405162461bcd60e51b815260206004820152600f60248201526e4e6f742061206f70657261746f727360881b604482015260640161065b565b61012d54604051634aa7d2f760e11b81526001600160a01b038381166004830152306024830152600092169063954fa5ee90604401610c72565b61167d611f86565b6001600160a01b0382166116d35760405162461bcd60e51b815260206004820152601860248201527f496e76616c696420726563656976657220616464726573730000000000000000604482015260640161065b565b604080518082019091526001600160a01b0392831681526020810191825261012e805460018101825560009190915290517fbdaadd9f750d0166045bf387a364eadd28ba243e04512a47282aa5147a68e37f600290920291820180546001600160a01b0319169190941617909255517fbdaadd9f750d0166045bf387a364eadd28ba243e04512a47282aa5147a68e38090910155565b336000908152610130602052604090205460ff166117bb5760405162461bcd60e51b815260206004820152600f60248201526e4e6f742061206f70657261746f727360881b604482015260640161065b565b6000471161180b5760405162461bcd60e51b815260206004820152601560248201527f4e6f2045746820746f20646973747269627574652e0000000000000000000000604482015260640161065b565b476000805b61012e548110156118565761012e818154811061182f5761182f612ad7565b9060005260206000209060020201600101548261184c9190612b2c565b9150600101611810565b50600081116118cd5760405162461bcd60e51b815260206004820152602360248201527f546f74616c2070657263656e742073686f756c64206265206d6f72652074686160448201527f6e20300000000000000000000000000000000000000000000000000000000000606482015260840161065b565b60005b61012e54811015610d8a57600061012e82815481106118f1576118f1612ad7565b600091825260208083206040805180820190915260029093020180546001600160a01b03168352600101549082018190529092506402540be4009085906119389088612b3f565b611947906402540be400612b3f565b6119519190612b56565b61195b9190612b56565b82516040519192506001600160a01b03169082156108fc029083906000818181858888f19350505050158015611995573d6000803e3d6000fd5b508151604080516001600160a01b039092168252602082018390527f63be20cc905d5ba0cf65db405c4999f99f2575e521875f13a8009d6eed7a09d9910160405180910390a150506001016118d0565b336000908152610130602052604090205460ff16611a375760405162461bcd60e51b815260206004820152600f60248201526e4e6f742061206f70657261746f727360881b604482015260640161065b565b336000908152610130602052604090205460ff16611a895760405162461bcd60e51b815260206004820152600f60248201526e4e6f742061206f70657261746f727360881b604482015260640161065b565b61012d546040517f860043b60000000000000000000000000000000000000000000000000000000081523060048201526001600160a01b038381166024830152600092169063860043b6906044016020604051808303816000875af1158015611af6573d6000803e3d6000fd5b505050506040513d601f19601f82011682018060405250810190611b1a9190612abe565b90507f91b044947b8ab661360de0aedacf8d16ad45adfb1f3bafb2ac8c4633e297b97181604051610cf391815260200190565b611b55611f86565b61012d80546001600160a01b0319166001600160a01b0392909216919091179055565b336000908152610130602052604090205460ff16611bca5760405162461bcd60e51b815260206004820152600f60248201526e4e6f742061206f70657261746f727360881b604482015260640161065b565b60005b61012f54811015610a8957600061012f8281548110611bee57611bee612ad7565b600091825260208083206040805192830181529201546001600160a01b0390811680835261012d549351634aa7d2f760e11b81526004810191909152306024820152919450919091169063954fa5ee906044016020604051808303816000875af1158015611c60573d6000803e3d6000fd5b505050506040513d601f19601f82011682018060405250810190611c849190612abe565b8251604080516001600160a01b039092168252602082018390529192507f9dc46f23cfb5ddcad0ae7ea2be38d47fec07bb9382ec7e564efc69e036dd66ce910160405180910390a15050600101611bcd565b336000908152610130602052604090205460ff16611d285760405162461bcd60e51b815260206004820152600f60248201526e4e6f742061206f70657261746f727360881b604482015260640161065b565b60005b61012f54811015610ef757600061012f8281548110611d4c57611d4c612ad7565b600091825260208083206040805192830181529201546001600160a01b0390811680835261012d549351630951888f60e01b81526004810191909152306024820152604481018890529194509190911690630951888f906064016020604051808303816000875af1158015611dc5573d6000803e3d6000fd5b505050506040513d601f19601f82011682018060405250810190611de99190612abe565b8251604080516001600160a01b039092168252602082018390529192507f9dc46f23cfb5ddcad0ae7ea2be38d47fec07bb9382ec7e564efc69e036dd66ce910160405180910390a15050600101611d2b565b61012f8181548110611e4c57600080fd5b6000918252602090912001546001600160a01b0316905081565b611e6e611f86565b6001600160a01b038116611eea5760405162461bcd60e51b815260206004820152602660248201527f4f776e61626c653a206e6577206f776e657220697320746865207a65726f206160448201527f6464726573730000000000000000000000000000000000000000000000000000606482015260840161065b565b610a898161228b565b611efb611f86565b6001600160a01b0381166000908152610130602052604090205460ff16611f645760405162461bcd60e51b815260206004820152601f60248201527f546869732061646472657373206973206e6f7420616e206f70657261746f7200604482015260640161065b565b6001600160a01b0316600090815261013060205260409020805460ff19169055565b6097546001600160a01b03163314610d175760405162461bcd60e51b815260206004820181905260248201527f4f776e61626c653a2063616c6c6572206973206e6f7420746865206f776e6572604482015260640161065b565b610a89611f86565b7f4910fdfa16fed3260ed0e7147f7cc6da11a60208b5b9406d12a635614ffd91435460ff161561201b57610d8a83612520565b826001600160a01b03166352d1902d6040518163ffffffff1660e01b8152600401602060405180830381865afa925050508015612075575060408051601f3d908101601f1916820190925261207291810190612abe565b60015b6120e75760405162461bcd60e51b815260206004820152602e60248201527f45524331393637557067726164653a206e657720696d706c656d656e7461746960448201527f6f6e206973206e6f742055555053000000000000000000000000000000000000606482015260840161065b565b7f360894a13ba1a3210667c828492db98dca3e2076cc3735a920a3ca505d382bbc811461217c5760405162461bcd60e51b815260206004820152602960248201527f45524331393637557067726164653a20756e737570706f727465642070726f7860448201527f6961626c65555549440000000000000000000000000000000000000000000000606482015260840161065b565b50610d8a8383836125de565b60fb5460ff16610d175760405162461bcd60e51b815260206004820152601460248201527f5061757361626c653a206e6f7420706175736564000000000000000000000000604482015260640161065b565b6121e2612188565b60fb805460ff191690557f5db9ee0a495bf2e6ff9c91a7834c1ba4fdd244a5e8aa4e537bd38aeae4b073aa335b6040516001600160a01b03909116815260200160405180910390a1565b6000805b61012f5481101561228157826001600160a01b031661012f828154811061225957612259612ad7565b6000918252602090912001546001600160a01b0316036122795792915050565b600101612230565b5060001992915050565b609780546001600160a01b038381166001600160a01b0319831681179093556040519116919082907f8be0079c531659141344cd1fd0a4f28419497f9722a3daafe3b4186f6b6457e090600090a35050565b600054610100900460ff166123485760405162461bcd60e51b815260206004820152602b60248201527f496e697469616c697a61626c653a20636f6e7472616374206973206e6f74206960448201526a6e697469616c697a696e6760a81b606482015260840161065b565b610d17612609565b600054610100900460ff166123bb5760405162461bcd60e51b815260206004820152602b60248201527f496e697469616c697a61626c653a20636f6e7472616374206973206e6f74206960448201526a6e697469616c697a696e6760a81b606482015260840161065b565b610d1761267d565b600054610100900460ff1661242e5760405162461bcd60e51b815260206004820152602b60248201527f496e697469616c697a61626c653a20636f6e7472616374206973206e6f74206960448201526a6e697469616c697a696e6760a81b606482015260840161065b565b610d176126ef565b6000805b61012e5481101561228157826001600160a01b031661012e828154811061246357612463612ad7565b60009182526020909120600290910201546001600160a01b0316036124885792915050565b60010161243a565b60fb5460ff1615610d175760405162461bcd60e51b815260206004820152601060248201527f5061757361626c653a2070617573656400000000000000000000000000000000604482015260640161065b565b6124eb612490565b60fb805460ff191660011790557f62e78cea01bee320cd4e420270b5ea74000d11b0c9f74754ebdbfc544b05a25861220f3390565b6001600160a01b0381163b61259d5760405162461bcd60e51b815260206004820152602d60248201527f455243313936373a206e657720696d706c656d656e746174696f6e206973206e60448201527f6f74206120636f6e747261637400000000000000000000000000000000000000606482015260840161065b565b7f360894a13ba1a3210667c828492db98dca3e2076cc3735a920a3ca505d382bbc80546001600160a01b0319166001600160a01b0392909216919091179055565b6125e783612766565b6000825111806125f45750805b15610d8a5761260383836127a6565b50505050565b600054610100900460ff166126745760405162461bcd60e51b815260206004820152602b60248201527f496e697469616c697a61626c653a20636f6e7472616374206973206e6f74206960448201526a6e697469616c697a696e6760a81b606482015260840161065b565b610d173361228b565b600054610100900460ff166126e85760405162461bcd60e51b815260206004820152602b60248201527f496e697469616c697a61626c653a20636f6e7472616374206973206e6f74206960448201526a6e697469616c697a696e6760a81b606482015260840161065b565b600160c955565b600054610100900460ff1661275a5760405162461bcd60e51b815260206004820152602b60248201527f496e697469616c697a61626c653a20636f6e7472616374206973206e6f74206960448201526a6e697469616c697a696e6760a81b606482015260840161065b565b60fb805460ff19169055565b61276f81612520565b6040516001600160a01b038216907fbc7cd75a20ee27fd9adebab32041f755214dbc6bffa90cc0225b39da2e5c2d3b90600090a250565b60606127cb8383604051806060016040528060278152602001612bec602791396127d4565b90505b92915050565b6060600080856001600160a01b0316856040516127f19190612b9c565b600060405180830381855af49150503d806000811461282c576040519150601f19603f3d011682016040523d82523d6000602084013e612831565b606091505b50915091506128428683838761284c565b9695505050505050565b606083156128bb5782516000036128b4576001600160a01b0385163b6128b45760405162461bcd60e51b815260206004820152601d60248201527f416464726573733a2063616c6c20746f206e6f6e2d636f6e7472616374000000604482015260640161065b565b50816128c5565b6128c583836128cd565b949350505050565b8151156128dd5781518083602001fd5b8060405162461bcd60e51b815260040161065b9190612bb8565b80356001600160a01b038116811461290e57600080fd5b919050565b60006020828403121561292557600080fd5b6127cb826128f7565b6000806040838503121561294157600080fd5b61294a836128f7565b946020939093013593505050565b6000806020838503121561296b57600080fd5b823567ffffffffffffffff8082111561298357600080fd5b818501915085601f83011261299757600080fd5b8135818111156129a657600080fd5b8660208260051b85010111156129bb57600080fd5b60209290920196919550909350505050565b634e487b7160e01b600052604160045260246000fd5b600080604083850312156129f657600080fd5b6129ff836128f7565b9150602083013567ffffffffffffffff80821115612a1c57600080fd5b818501915085601f830112612a3057600080fd5b813581811115612a4257612a426129cd565b604051601f8201601f19908116603f01168101908382118183101715612a6a57612a6a6129cd565b81604052828152886020848701011115612a8357600080fd5b8260208601602083013760006020848301015280955050505050509250929050565b600060208284031215612ab757600080fd5b5035919050565b600060208284031215612ad057600080fd5b5051919050565b634e487b7160e01b600052603260045260246000fd5b634e487b7160e01b600052601160045260246000fd5b818103818111156127ce576127ce612aed565b634e487b7160e01b600052603160045260246000fd5b808201808211156127ce576127ce612aed565b80820281158282048414176127ce576127ce612aed565b600082612b7357634e487b7160e01b600052601260045260246000fd5b500490565b60005b83811015612b93578181015183820152602001612b7b565b50506000910152565b60008251612bae818460208701612b78565b9190910192915050565b6020815260008251806020840152612bd7816040850160208701612b78565b601f01601f1916919091016040019291505056fe416464726573733a206c6f772d6c6576656c2064656c65676174652063616c6c206661696c6564a26469706673582212202e36576ed4ba1ba4df392ff77cf8067a6124e76c28f8f27e76c9be5da9a11c7c64736f6c63430008180033",
  "linkReferences": {},
  "deployedLinkReferences": {}
}