{
  "_format": "hh-sol-artifact-1",
  "contractName": "WenTreasuryV1",
  "sourceName": "contracts/WenTreasuryV1.sol",
  "abi": [
    {
      "anonymous": false,
      "inputs": [
        {
          "indexed": false,
          "internalType": "address",
          "name": "previousAdmin",
          "type": "address"
        },
        {
          "indexed": false,
          "internalType": "address",
          "name": "newAdmin",
          "type": "address"
        }
      ],
      "name": "AdminChanged",
      "type": "event"
    },
    {
      "anonymous": false,
      "inputs": [
        {
          "indexed": true,
          "internalType": "address",
          "name": "beacon",
          "type": "address"
        }
      ],
      "name": "BeaconUpgraded",
      "type": "event"
    },
    {
      "anonymous": false,
      "inputs": [
        {
          "indexed": false,
          "internalType": "uint8",
          "name": "version",
          "type": "uint8"
        }
      ],
      "name": "Initialized",
      "type": "event"
    },
    {
      "anonymous": false,
      "inputs": [
        {
          "indexed": true,
          "internalType": "address",
          "name": "previousOwner",
          "type": "address"
        },
        {
          "indexed": true,
          "internalType": "address",
          "name": "newOwner",
          "type": "address"
        }
      ],
      "name": "OwnershipTransferred",
      "type": "event"
    },
    {
      "anonymous": false,
      "inputs": [
        {
          "indexed": true,
          "internalType": "address",
          "name": "token",
          "type": "address"
        },
        {
          "indexed": true,
          "internalType": "address",
          "name": "to",
          "type": "address"
        },
        {
          "indexed": false,
          "internalType": "uint256",
          "name": "amount",
          "type": "uint256"
        }
      ],
      "name": "TransferERC20",
      "type": "event"
    },
    {
      "anonymous": false,
      "inputs": [
        {
          "indexed": true,
          "internalType": "address",
          "name": "to",
          "type": "address"
        },
        {
          "indexed": false,
          "internalType": "uint256",
          "name": "amount",
          "type": "uint256"
        }
      ],
      "name": "TransferETH",
      "type": "event"
    },
    {
      "anonymous": false,
      "inputs": [
        {
          "indexed": true,
          "internalType": "address",
          "name": "implementation",
          "type": "address"
        }
      ],
      "name": "Upgraded",
      "type": "event"
    },
    {
      "inputs": [
        {
          "internalType": "address",
          "name": "_token",
          "type": "address"
        },
        {
          "internalType": "address",
          "name": "_to",
          "type": "address"
        }
      ],
      "name": "approveToken",
      "outputs": [],
      "stateMutability": "nonpayable",
      "type": "function"
    },
    {
      "inputs": [],
      "name": "initialize",
      "outputs": [],
      "stateMutability": "nonpayable",
      "type": "function"
    },
    {
      "inputs": [],
      "name": "owner",
      "outputs": [
        {
          "internalType": "address",
          "name": "",
          "type": "address"
        }
      ],
      "stateMutability": "view",
      "type": "function"
    },
    {
      "inputs": [],
      "name": "proxiableUUID",
      "outputs": [
        {
          "internalType": "bytes32",
          "name": "",
          "type": "bytes32"
        }
      ],
      "stateMutability": "view",
      "type": "function"
    },
    {
      "inputs": [],
      "name": "renounceOwnership",
      "outputs": [],
      "stateMutability": "nonpayable",
      "type": "function"
    },
    {
      "inputs": [],
      "name": "setInitialInfo",
      "outputs": [],
      "stateMutability": "nonpayable",
      "type": "function"
    },
    {
      "inputs": [
        {
          "internalType": "contract IERC20Upgradeable",
          "name": "_token",
          "type": "address"
        },
        {
          "internalType": "address",
          "name": "_to",
          "type": "address"
        },
        {
          "internalType": "uint256",
          "name": "_amount",
          "type": "uint256"
        }
      ],
      "name": "transferERC20",
      "outputs": [],
      "stateMutability": "nonpayable",
      "type": "function"
    },
    {
      "inputs": [
        {
          "internalType": "address",
          "name": "_to",
          "type": "address"
        },
        {
          "internalType": "uint256",
          "name": "_amount",
          "type": "uint256"
        }
      ],
      "name": "transferETH",
      "outputs": [],
      "stateMutability": "nonpayable",
      "type": "function"
    },
    {
      "inputs": [
        {
          "internalType": "address",
          "name": "newOwner",
          "type": "address"
        }
      ],
      "name": "transferOwnership",
      "outputs": [],
      "stateMutability": "nonpayable",
      "type": "function"
    },
    {
      "inputs": [
        {
          "internalType": "address",
          "name": "newImplementation",
          "type": "address"
        }
      ],
      "name": "upgradeTo",
      "outputs": [],
      "stateMutability": "nonpayable",
      "type": "function"
    },
    {
      "inputs": [
        {
          "internalType": "address",
          "name": "newImplementation",
          "type": "address"
        },
        {
          "internalType": "bytes",
          "name": "data",
          "type": "bytes"
        }
      ],
      "name": "upgradeToAndCall",
      "outputs": [],
      "stateMutability": "payable",
      "type": "function"
    },
    {
      "stateMutability": "payable",
      "type": "receive"
    }
  ],
  "bytecode": "0x60a06040523060805234801561001457600080fd5b5060805161149661004c600039600081816102b40152818161033e01528181610434015281816104b901526105a301526114966000f3fe6080604052600436106100c05760003560e01c80637b1a4909116100745780639db5dbe41161004e5780639db5dbe4146101bb578063e9d04054146101db578063f2fde38b146101f057600080fd5b80637b1a49091461015e5780638129fc1c1461017e5780638da5cb5b1461019357600080fd5b80634f1ef286116100a55780634f1ef2861461010e57806352d1902d14610121578063715018a61461014957600080fd5b806303105b04146100cc5780633659cfe6146100ee57600080fd5b366100c757005b600080fd5b3480156100d857600080fd5b506100ec6100e73660046111d5565b610210565b005b3480156100fa57600080fd5b506100ec61010936600461120e565b6102aa565b6100ec61011c36600461125a565b61042a565b34801561012d57600080fd5b50610136610596565b6040519081526020015b60405180910390f35b34801561015557600080fd5b506100ec61065b565b34801561016a57600080fd5b506100ec61017936600461131e565b61066f565b34801561018a57600080fd5b506100ec61076d565b34801561019f57600080fd5b506033546040516001600160a01b039091168152602001610140565b3480156101c757600080fd5b506100ec6101d636600461134a565b61088c565b3480156101e757600080fd5b506100ec6108fa565b3480156101fc57600080fd5b506100ec61020b36600461120e565b610902565b61021861098f565b6040517f095ea7b30000000000000000000000000000000000000000000000000000000081526001600160a01b038281166004830152600019602483015283169063095ea7b3906044016020604051808303816000875af1158015610281573d6000803e3d6000fd5b505050506040513d601f19601f820116820180604052508101906102a5919061138b565b505050565b6001600160a01b037f000000000000000000000000000000000000000000000000000000000000000016300361033c5760405162461bcd60e51b815260206004820152602c60248201527f46756e6374696f6e206d7573742062652063616c6c6564207468726f7567682060448201526b19195b1959d85d1958d85b1b60a21b60648201526084015b60405180910390fd5b7f00000000000000000000000000000000000000000000000000000000000000006001600160a01b03166103977f360894a13ba1a3210667c828492db98dca3e2076cc3735a920a3ca505d382bbc546001600160a01b031690565b6001600160a01b0316146104025760405162461bcd60e51b815260206004820152602c60248201527f46756e6374696f6e206d7573742062652063616c6c6564207468726f7567682060448201526b6163746976652070726f787960a01b6064820152608401610333565b61040b816109e9565b60408051600080825260208201909252610427918391906109f1565b50565b6001600160a01b037f00000000000000000000000000000000000000000000000000000000000000001630036104b75760405162461bcd60e51b815260206004820152602c60248201527f46756e6374696f6e206d7573742062652063616c6c6564207468726f7567682060448201526b19195b1959d85d1958d85b1b60a21b6064820152608401610333565b7f00000000000000000000000000000000000000000000000000000000000000006001600160a01b03166105127f360894a13ba1a3210667c828492db98dca3e2076cc3735a920a3ca505d382bbc546001600160a01b031690565b6001600160a01b03161461057d5760405162461bcd60e51b815260206004820152602c60248201527f46756e6374696f6e206d7573742062652063616c6c6564207468726f7567682060448201526b6163746976652070726f787960a01b6064820152608401610333565b610586826109e9565b610592828260016109f1565b5050565b6000306001600160a01b037f000000000000000000000000000000000000000000000000000000000000000016146106365760405162461bcd60e51b815260206004820152603860248201527f555550535570677261646561626c653a206d757374206e6f742062652063616c60448201527f6c6564207468726f7567682064656c656761746563616c6c00000000000000006064820152608401610333565b507f360894a13ba1a3210667c828492db98dca3e2076cc3735a920a3ca505d382bbc90565b61066361098f565b61066d6000610b91565b565b61067761098f565b47818110156106ee5760405162461bcd60e51b815260206004820152602660248201527f5468657265206973206e6f20776974686472617761626c6520616d6f756e742060448201527f6f662045544800000000000000000000000000000000000000000000000000006064820152608401610333565b6040516001600160a01b0384169083156108fc029084906000818181858888f19350505050158015610724573d6000803e3d6000fd5b50826001600160a01b03167ffd69c215b8b91dab5e96ff0bcbaf5dc372919948eea2003ae16481c036f816f88360405161076091815260200190565b60405180910390a2505050565b600054610100900460ff161580801561078d5750600054600160ff909116105b806107a75750303b1580156107a7575060005460ff166001145b6108195760405162461bcd60e51b815260206004820152602e60248201527f496e697469616c697a61626c653a20636f6e747261637420697320616c72656160448201527f647920696e697469616c697a65640000000000000000000000000000000000006064820152608401610333565b6000805460ff19166001179055801561083c576000805461ff0019166101001790555b610844610bf0565b8015610427576000805461ff0019169055604051600181527f7f26b83ff96e1f2b6a682f133852f6798a09c465da95921460cefb38474024989060200160405180910390a150565b61089461098f565b6108a86001600160a01b0384168383610c63565b816001600160a01b0316836001600160a01b03167f9b035625e569d1d2bf54830a290aefba7ab11610ba8490871dc62b86b63a8956836040516108ed91815260200190565b60405180910390a3505050565b61066d61098f565b61090a61098f565b6001600160a01b0381166109865760405162461bcd60e51b815260206004820152602660248201527f4f776e61626c653a206e6577206f776e657220697320746865207a65726f206160448201527f64647265737300000000000000000000000000000000000000000000000000006064820152608401610333565b61042781610b91565b6033546001600160a01b0316331461066d5760405162461bcd60e51b815260206004820181905260248201527f4f776e61626c653a2063616c6c6572206973206e6f7420746865206f776e65726044820152606401610333565b61042761098f565b7f4910fdfa16fed3260ed0e7147f7cc6da11a60208b5b9406d12a635614ffd91435460ff1615610a24576102a583610ce3565b826001600160a01b03166352d1902d6040518163ffffffff1660e01b8152600401602060405180830381865afa925050508015610a7e575060408051601f3d908101601f19168201909252610a7b918101906113ad565b60015b610af05760405162461bcd60e51b815260206004820152602e60248201527f45524331393637557067726164653a206e657720696d706c656d656e7461746960448201527f6f6e206973206e6f7420555550530000000000000000000000000000000000006064820152608401610333565b7f360894a13ba1a3210667c828492db98dca3e2076cc3735a920a3ca505d382bbc8114610b855760405162461bcd60e51b815260206004820152602960248201527f45524331393637557067726164653a20756e737570706f727465642070726f7860448201527f6961626c655555494400000000000000000000000000000000000000000000006064820152608401610333565b506102a5838383610dae565b603380546001600160a01b0383811673ffffffffffffffffffffffffffffffffffffffff19831681179093556040519116919082907f8be0079c531659141344cd1fd0a4f28419497f9722a3daafe3b4186f6b6457e090600090a35050565b600054610100900460ff16610c5b5760405162461bcd60e51b815260206004820152602b60248201527f496e697469616c697a61626c653a20636f6e7472616374206973206e6f74206960448201526a6e697469616c697a696e6760a81b6064820152608401610333565b61066d610dd9565b604080516001600160a01b038416602482015260448082018490528251808303909101815260649091019091526020810180517bffffffffffffffffffffffffffffffffffffffffffffffffffffffff167fa9059cbb000000000000000000000000000000000000000000000000000000001790526102a5908490610e4d565b6001600160a01b0381163b610d605760405162461bcd60e51b815260206004820152602d60248201527f455243313936373a206e657720696d706c656d656e746174696f6e206973206e60448201527f6f74206120636f6e7472616374000000000000000000000000000000000000006064820152608401610333565b7f360894a13ba1a3210667c828492db98dca3e2076cc3735a920a3ca505d382bbc805473ffffffffffffffffffffffffffffffffffffffff19166001600160a01b0392909216919091179055565b610db783610f35565b600082511180610dc45750805b156102a557610dd38383610f75565b50505050565b600054610100900460ff16610e445760405162461bcd60e51b815260206004820152602b60248201527f496e697469616c697a61626c653a20636f6e7472616374206973206e6f74206960448201526a6e697469616c697a696e6760a81b6064820152608401610333565b61066d33610b91565b6000610ea2826040518060400160405280602081526020017f5361666545524332303a206c6f772d6c6576656c2063616c6c206661696c6564815250856001600160a01b0316610fa19092919063ffffffff16565b9050805160001480610ec3575080806020019051810190610ec3919061138b565b6102a55760405162461bcd60e51b815260206004820152602a60248201527f5361666545524332303a204552433230206f7065726174696f6e20646964206e60448201527f6f742073756363656564000000000000000000000000000000000000000000006064820152608401610333565b610f3e81610ce3565b6040516001600160a01b038216907fbc7cd75a20ee27fd9adebab32041f755214dbc6bffa90cc0225b39da2e5c2d3b90600090a250565b6060610f9a838360405180606001604052806027815260200161143a60279139610fb8565b9392505050565b6060610fb08484600085611030565b949350505050565b6060600080856001600160a01b031685604051610fd591906113ea565b600060405180830381855af49150503d8060008114611010576040519150601f19603f3d011682016040523d82523d6000602084013e611015565b606091505b509150915061102686838387611122565b9695505050505050565b6060824710156110a85760405162461bcd60e51b815260206004820152602660248201527f416464726573733a20696e73756666696369656e742062616c616e636520666f60448201527f722063616c6c00000000000000000000000000000000000000000000000000006064820152608401610333565b600080866001600160a01b031685876040516110c491906113ea565b60006040518083038185875af1925050503d8060008114611101576040519150601f19603f3d011682016040523d82523d6000602084013e611106565b606091505b509150915061111787838387611122565b979650505050505050565b6060831561119157825160000361118a576001600160a01b0385163b61118a5760405162461bcd60e51b815260206004820152601d60248201527f416464726573733a2063616c6c20746f206e6f6e2d636f6e74726163740000006044820152606401610333565b5081610fb0565b610fb083838151156111a65781518083602001fd5b8060405162461bcd60e51b81526004016103339190611406565b6001600160a01b038116811461042757600080fd5b600080604083850312156111e857600080fd5b82356111f3816111c0565b91506020830135611203816111c0565b809150509250929050565b60006020828403121561122057600080fd5b8135610f9a816111c0565b7f4e487b7100000000000000000000000000000000000000000000000000000000600052604160045260246000fd5b6000806040838503121561126d57600080fd5b8235611278816111c0565b9150602083013567ffffffffffffffff8082111561129557600080fd5b818501915085601f8301126112a957600080fd5b8135818111156112bb576112bb61122b565b604051601f8201601f19908116603f011681019083821181831017156112e3576112e361122b565b816040528281528860208487010111156112fc57600080fd5b8260208601602083013760006020848301015280955050505050509250929050565b6000806040838503121561133157600080fd5b823561133c816111c0565b946020939093013593505050565b60008060006060848603121561135f57600080fd5b833561136a816111c0565b9250602084013561137a816111c0565b929592945050506040919091013590565b60006020828403121561139d57600080fd5b81518015158114610f9a57600080fd5b6000602082840312156113bf57600080fd5b5051919050565b60005b838110156113e15781810151838201526020016113c9565b50506000910152565b600082516113fc8184602087016113c6565b9190910192915050565b60208152600082518060208401526114258160408501602087016113c6565b601f01601f1916919091016040019291505056fe416464726573733a206c6f772d6c6576656c2064656c65676174652063616c6c206661696c6564a26469706673582212209f12d900578fce3c45420879a3f629722c6f4c308214e14e35ae4b7b44cf672a64736f6c63430008180033",
  "linkReferences": {},
  "deployedLinkReferences": {}
}