{
  "_format": "hh-sol-artifact-1",
  "contractName": "WenExchangeV1",
  "sourceName": "contracts/marketplace/WenExchangeV1.sol",
  "abi": [
    {
      "inputs": [
        {
          "internalType": "address",
          "name": "_owner",
          "type": "address"
        },
        {
          "internalType": "address",
          "name": "_feesCollector",
          "type": "address"
        },
        {
          "internalType": "address",
          "name": "_acceptedToken",
          "type": "address"
        },
        {
          "internalType": "contract IRoyaltiesManager",
          "name": "_royaltiesManager",
          "type": "address"
        },
        {
          "internalType": "uint256",
          "name": "_feesCollectorCutPerMillion",
          "type": "uint256"
        },
        {
          "internalType": "uint256",
          "name": "_royaltiesCutPerMillion",
          "type": "uint256"
        },
        {
          "internalType": "contract IWenTradePool",
          "name": "_wenTradePool",
          "type": "address"
        },
        {
          "internalType": "contract IBlast",
          "name": "_blast",
          "type": "address"
        }
      ],
      "stateMutability": "nonpayable",
      "type": "constructor"
    },
    {
      "anonymous": false,
      "inputs": [
        {
          "indexed": false,
          "internalType": "uint256",
          "name": "feesCollectorCutPerMillion",
          "type": "uint256"
        }
      ],
      "name": "ChangedFeesCollectorCutPerMillion",
      "type": "event"
    },
    {
      "anonymous": false,
      "inputs": [
        {
          "indexed": false,
          "internalType": "uint256",
          "name": "publicationFee",
          "type": "uint256"
        }
      ],
      "name": "ChangedPublicationFee",
      "type": "event"
    },
    {
      "anonymous": false,
      "inputs": [
        {
          "indexed": false,
          "internalType": "uint256",
          "name": "royaltiesCutPerMillion",
          "type": "uint256"
        }
      ],
      "name": "ChangedRoyaltiesCutPerMillion",
      "type": "event"
    },
    {
      "anonymous": false,
      "inputs": [
        {
          "indexed": true,
          "internalType": "address",
          "name": "oldFeesCollector",
          "type": "address"
        },
        {
          "indexed": true,
          "internalType": "address",
          "name": "newFeesCollector",
          "type": "address"
        }
      ],
      "name": "FeesCollectorSet",
      "type": "event"
    },
    {
      "anonymous": false,
      "inputs": [
        {
          "indexed": false,
          "internalType": "address",
          "name": "userAddress",
          "type": "address"
        },
        {
          "indexed": false,
          "internalType": "address",
          "name": "relayerAddress",
          "type": "address"
        },
        {
          "indexed": false,
          "internalType": "bytes",
          "name": "functionSignature",
          "type": "bytes"
        }
      ],
      "name": "MetaTransactionExecuted",
      "type": "event"
    },
    {
      "anonymous": false,
      "inputs": [
        {
          "indexed": false,
          "internalType": "bytes32",
          "name": "id",
          "type": "bytes32"
        },
        {
          "indexed": true,
          "internalType": "uint256",
          "name": "assetId",
          "type": "uint256"
        },
        {
          "indexed": true,
          "internalType": "address",
          "name": "seller",
          "type": "address"
        },
        {
          "indexed": false,
          "internalType": "address",
          "name": "nftAddress",
          "type": "address"
        }
      ],
      "name": "OrderCancelled",
      "type": "event"
    },
    {
      "anonymous": false,
      "inputs": [
        {
          "indexed": false,
          "internalType": "bytes32",
          "name": "id",
          "type": "bytes32"
        },
        {
          "indexed": true,
          "internalType": "uint256",
          "name": "assetId",
          "type": "uint256"
        },
        {
          "indexed": true,
          "internalType": "address",
          "name": "seller",
          "type": "address"
        },
        {
          "indexed": false,
          "internalType": "address",
          "name": "nftAddress",
          "type": "address"
        },
        {
          "indexed": false,
          "internalType": "uint256",
          "name": "priceInWei",
          "type": "uint256"
        },
        {
          "indexed": false,
          "internalType": "uint256",
          "name": "expiresAt",
          "type": "uint256"
        }
      ],
      "name": "OrderCreated",
      "type": "event"
    },
    {
      "anonymous": false,
      "inputs": [
        {
          "indexed": false,
          "internalType": "bytes32",
          "name": "id",
          "type": "bytes32"
        },
        {
          "indexed": true,
          "internalType": "uint256",
          "name": "assetId",
          "type": "uint256"
        },
        {
          "indexed": true,
          "internalType": "address",
          "name": "seller",
          "type": "address"
        },
        {
          "indexed": false,
          "internalType": "address",
          "name": "nftAddress",
          "type": "address"
        },
        {
          "indexed": false,
          "internalType": "uint256",
          "name": "priceInEth",
          "type": "uint256"
        },
        {
          "indexed": false,
          "internalType": "uint256",
          "name": "priceInWenETH",
          "type": "uint256"
        },
        {
          "indexed": true,
          "internalType": "address",
          "name": "buyer",
          "type": "address"
        }
      ],
      "name": "OrderSuccessful",
      "type": "event"
    },
    {
      "anonymous": false,
      "inputs": [
        {
          "indexed": true,
          "internalType": "address",
          "name": "previousOwner",
          "type": "address"
        },
        {
          "indexed": true,
          "internalType": "address",
          "name": "newOwner",
          "type": "address"
        }
      ],
      "name": "OwnershipTransferred",
      "type": "event"
    },
    {
      "anonymous": false,
      "inputs": [
        {
          "indexed": false,
          "internalType": "address",
          "name": "account",
          "type": "address"
        }
      ],
      "name": "Paused",
      "type": "event"
    },
    {
      "anonymous": false,
      "inputs": [
        {
          "indexed": true,
          "internalType": "contract IRoyaltiesManager",
          "name": "oldRoyaltiesManager",
          "type": "address"
        },
        {
          "indexed": true,
          "internalType": "contract IRoyaltiesManager",
          "name": "newRoyaltiesManager",
          "type": "address"
        }
      ],
      "name": "RoyaltiesManagerSet",
      "type": "event"
    },
    {
      "anonymous": false,
      "inputs": [
        {
          "indexed": false,
          "internalType": "address",
          "name": "account",
          "type": "address"
        }
      ],
      "name": "Unpaused",
      "type": "event"
    },
    {
      "inputs": [],
      "name": "ERC721_Interface",
      "outputs": [
        {
          "internalType": "bytes4",
          "name": "",
          "type": "bytes4"
        }
      ],
      "stateMutability": "view",
      "type": "function"
    },
    {
      "inputs": [],
      "name": "InterfaceId_ValidateFingerprint",
      "outputs": [
        {
          "internalType": "bytes4",
          "name": "",
          "type": "bytes4"
        }
      ],
      "stateMutability": "view",
      "type": "function"
    },
    {
      "inputs": [],
      "name": "acceptedToken",
      "outputs": [
        {
          "internalType": "contract IERC20",
          "name": "",
          "type": "address"
        }
      ],
      "stateMutability": "view",
      "type": "function"
    },
    {
      "inputs": [],
      "name": "blast",
      "outputs": [
        {
          "internalType": "contract IBlast",
          "name": "",
          "type": "address"
        }
      ],
      "stateMutability": "view",
      "type": "function"
    },
    {
      "inputs": [
        {
          "internalType": "address",
          "name": "nftAddress",
          "type": "address"
        },
        {
          "internalType": "uint256",
          "name": "assetId",
          "type": "uint256"
        }
      ],
      "name": "cancelOrder",
      "outputs": [],
      "stateMutability": "nonpayable",
      "type": "function"
    },
    {
      "inputs": [
        {
          "internalType": "address",
          "name": "nftAddress",
          "type": "address"
        },
        {
          "internalType": "uint256",
          "name": "assetId",
          "type": "uint256"
        },
        {
          "internalType": "uint256",
          "name": "priceInWei",
          "type": "uint256"
        },
        {
          "internalType": "uint256",
          "name": "expiresAt",
          "type": "uint256"
        }
      ],
      "name": "createOrder",
      "outputs": [],
      "stateMutability": "nonpayable",
      "type": "function"
    },
    {
      "inputs": [],
      "name": "domainSeparator",
      "outputs": [
        {
          "internalType": "bytes32",
          "name": "",
          "type": "bytes32"
        }
      ],
      "stateMutability": "view",
      "type": "function"
    },
    {
      "inputs": [
        {
          "internalType": "address",
          "name": "userAddress",
          "type": "address"
        },
        {
          "internalType": "bytes",
          "name": "functionSignature",
          "type": "bytes"
        },
        {
          "internalType": "bytes32",
          "name": "sigR",
          "type": "bytes32"
        },
        {
          "internalType": "bytes32",
          "name": "sigS",
          "type": "bytes32"
        },
        {
          "internalType": "uint8",
          "name": "sigV",
          "type": "uint8"
        }
      ],
      "name": "executeMetaTransaction",
      "outputs": [
        {
          "internalType": "bytes",
          "name": "",
          "type": "bytes"
        }
      ],
      "stateMutability": "payable",
      "type": "function"
    },
    {
      "inputs": [
        {
          "internalType": "address",
          "name": "nftAddress",
          "type": "address"
        },
        {
          "internalType": "uint256",
          "name": "assetId",
          "type": "uint256"
        },
        {
          "internalType": "uint256",
          "name": "price",
          "type": "uint256"
        }
      ],
      "name": "executeOrder",
      "outputs": [],
      "stateMutability": "nonpayable",
      "type": "function"
    },
    {
      "inputs": [],
      "name": "feesCollector",
      "outputs": [
        {
          "internalType": "address",
          "name": "",
          "type": "address"
        }
      ],
      "stateMutability": "view",
      "type": "function"
    },
    {
      "inputs": [],
      "name": "feesCollectorCutPerMillion",
      "outputs": [
        {
          "internalType": "uint256",
          "name": "",
          "type": "uint256"
        }
      ],
      "stateMutability": "view",
      "type": "function"
    },
    {
      "inputs": [],
      "name": "getChainId",
      "outputs": [
        {
          "internalType": "uint256",
          "name": "",
          "type": "uint256"
        }
      ],
      "stateMutability": "view",
      "type": "function"
    },
    {
      "inputs": [
        {
          "internalType": "address",
          "name": "user",
          "type": "address"
        }
      ],
      "name": "getNonce",
      "outputs": [
        {
          "internalType": "uint256",
          "name": "nonce",
          "type": "uint256"
        }
      ],
      "stateMutability": "view",
      "type": "function"
    },
    {
      "inputs": [
        {
          "internalType": "address",
          "name": "nftAddress",
          "type": "address"
        }
      ],
      "name": "getOrdersByCollection",
      "outputs": [
        {
          "internalType": "uint256[]",
          "name": "",
          "type": "uint256[]"
        },
        {
          "internalType": "uint256[]",
          "name": "",
          "type": "uint256[]"
        }
      ],
      "stateMutability": "view",
      "type": "function"
    },
    {
      "inputs": [
        {
          "internalType": "address",
          "name": "",
          "type": "address"
        },
        {
          "internalType": "uint256",
          "name": "",
          "type": "uint256"
        }
      ],
      "name": "orderByAssetId",
      "outputs": [
        {
          "internalType": "bytes32",
          "name": "id",
          "type": "bytes32"
        },
        {
          "internalType": "address",
          "name": "seller",
          "type": "address"
        },
        {
          "internalType": "address",
          "name": "nftAddress",
          "type": "address"
        },
        {
          "internalType": "uint256",
          "name": "price",
          "type": "uint256"
        },
        {
          "internalType": "uint256",
          "name": "expiresAt",
          "type": "uint256"
        }
      ],
      "stateMutability": "view",
      "type": "function"
    },
    {
      "inputs": [
        {
          "internalType": "address",
          "name": "",
          "type": "address"
        },
        {
          "internalType": "uint256",
          "name": "",
          "type": "uint256"
        }
      ],
      "name": "ordersByCollection",
      "outputs": [
        {
          "internalType": "uint256",
          "name": "tokenId",
          "type": "uint256"
        },
        {
          "internalType": "uint256",
          "name": "price",
          "type": "uint256"
        }
      ],
      "stateMutability": "view",
      "type": "function"
    },
    {
      "inputs": [],
      "name": "owner",
      "outputs": [
        {
          "internalType": "address",
          "name": "",
          "type": "address"
        }
      ],
      "stateMutability": "view",
      "type": "function"
    },
    {
      "inputs": [],
      "name": "paused",
      "outputs": [
        {
          "internalType": "bool",
          "name": "",
          "type": "bool"
        }
      ],
      "stateMutability": "view",
      "type": "function"
    },
    {
      "inputs": [],
      "name": "publicationFeeInWei",
      "outputs": [
        {
          "internalType": "uint256",
          "name": "",
          "type": "uint256"
        }
      ],
      "stateMutability": "view",
      "type": "function"
    },
    {
      "inputs": [],
      "name": "renounceOwnership",
      "outputs": [],
      "stateMutability": "nonpayable",
      "type": "function"
    },
    {
      "inputs": [],
      "name": "royaltiesCutPerMillion",
      "outputs": [
        {
          "internalType": "uint256",
          "name": "",
          "type": "uint256"
        }
      ],
      "stateMutability": "view",
      "type": "function"
    },
    {
      "inputs": [],
      "name": "royaltiesManager",
      "outputs": [
        {
          "internalType": "contract IRoyaltiesManager",
          "name": "",
          "type": "address"
        }
      ],
      "stateMutability": "view",
      "type": "function"
    },
    {
      "inputs": [
        {
          "internalType": "address",
          "name": "nftAddress",
          "type": "address"
        },
        {
          "internalType": "uint256",
          "name": "assetId",
          "type": "uint256"
        },
        {
          "internalType": "uint256",
          "name": "price",
          "type": "uint256"
        },
        {
          "internalType": "bytes",
          "name": "fingerprint",
          "type": "bytes"
        }
      ],
      "name": "safeExecuteOrder",
      "outputs": [],
      "stateMutability": "nonpayable",
      "type": "function"
    },
    {
      "inputs": [
        {
          "internalType": "address",
          "name": "_governor",
          "type": "address"
        }
      ],
      "name": "setBlastGovernor",
      "outputs": [],
      "stateMutability": "nonpayable",
      "type": "function"
    },
    {
      "inputs": [
        {
          "internalType": "address",
          "name": "_newFeesCollector",
          "type": "address"
        }
      ],
      "name": "setFeesCollector",
      "outputs": [],
      "stateMutability": "nonpayable",
      "type": "function"
    },
    {
      "inputs": [
        {
          "internalType": "uint256",
          "name": "_feesCollectorCutPerMillion",
          "type": "uint256"
        }
      ],
      "name": "setFeesCollectorCutPerMillion",
      "outputs": [],
      "stateMutability": "nonpayable",
      "type": "function"
    },
    {
      "inputs": [
        {
          "internalType": "uint256",
          "name": "_publicationFee",
          "type": "uint256"
        }
      ],
      "name": "setPublicationFee",
      "outputs": [],
      "stateMutability": "nonpayable",
      "type": "function"
    },
    {
      "inputs": [
        {
          "internalType": "uint256",
          "name": "_royaltiesCutPerMillion",
          "type": "uint256"
        }
      ],
      "name": "setRoyaltiesCutPerMillion",
      "outputs": [],
      "stateMutability": "nonpayable",
      "type": "function"
    },
    {
      "inputs": [
        {
          "internalType": "contract IRoyaltiesManager",
          "name": "_newRoyaltiesManager",
          "type": "address"
        }
      ],
      "name": "setRoyaltiesManager",
      "outputs": [],
      "stateMutability": "nonpayable",
      "type": "function"
    },
    {
      "inputs": [
        {
          "internalType": "address",
          "name": "newOwner",
          "type": "address"
        }
      ],
      "name": "transferOwnership",
      "outputs": [],
      "stateMutability": "nonpayable",
      "type": "function"
    },
    {
      "inputs": [],
      "name": "wenTradePool",
      "outputs": [
        {
          "internalType": "contract IWenTradePool",
          "name": "",
          "type": "address"
        }
      ],
      "stateMutability": "view",
      "type": "function"
    }
  ],
  "bytecode": "0x60806040523480156200001157600080fd5b5060405162003fea38038062003fea8339810160408190526200003491620009cc565b6000620000406200026a565b600080546001600160a01b0319166001600160a01b03831690811782556040519293509160008051602062003fca833981519152908290a3506000805460ff60a01b19169055604080518082018252601881527f446563656e7472616c616e64204d61726b6574706c6163650000000000000000602080830191909152825180840190935260018352601960f91b90830152620000dd91620002c8565b620000e88762000359565b620000f385620004a0565b620000fe84620005e8565b620001098362000748565b6001600160a01b038816620001655760405162461bcd60e51b8152602060048201526028602482015260008051602062003f3b83398151915260448201526724a22fa7aba722a960c11b60648201526084015b60405180910390fd5b620001708862000891565b6001600160a01b0386163b620001d25760405162461bcd60e51b8152602060048201526031602482015260008051602062003f3b83398151915260448201527024a22fa0a1a1a2a82a22a22faa27a5a2a760791b60648201526084016200015c565b600380546001600160a01b038089166001600160a01b031992831617909255600480548584169083161781556005805493851693909216831790915560408051634e606c4760e01b81529051634e606c479282810192600092919082900301818387803b1580156200024357600080fd5b505af115801562000258573d6000803e3d6000fd5b50505050505050505050505062000a9e565b6000303303620002c257600080368080601f0160208091040260200160405190810160405280939291908181526020018383808284376000920191909152505050503601516001600160a01b03169150620002c59050565b50335b90565b6040518060800160405280604f815260200162003f5b604f91398051906020012082805190602001208280519060200120306200030a620009af60201b60201c565b60408051602081019690965285019390935260608401919091526001600160a01b0316608083015260a082015260c00160408051601f1981840301815291905280516020909101206001555050565b620003636200026a565b6001600160a01b03166200037f6000546001600160a01b031690565b6001600160a01b031614620003c65760405162461bcd60e51b8152602060048201819052602482015260008051602062003faa83398151915260448201526064016200015c565b6001600160a01b038116620004445760405162461bcd60e51b815260206004820152603660248201527f4d61726b6574706c61636556322373657446656573436f6c6c6563746f723a2060448201527f494e56414c49445f464545535f434f4c4c4543544f520000000000000000000060648201526084016200015c565b6007546040516001600160a01b038084169216907f58283f7e46512bbcb30558fa508283f23fac7be18fb20bfdf6d4bbf83c529d5390600090a3600780546001600160a01b0319166001600160a01b0392909216919091179055565b620004aa6200026a565b6001600160a01b0316620004c66000546001600160a01b031690565b6001600160a01b0316146200050d5760405162461bcd60e51b8152602060048201819052602482015260008051602062003faa83398151915260448201526064016200015c565b6001600160a01b0381163b6200058c5760405162461bcd60e51b815260206004820152603c60248201527f4d61726b6574706c616365563223736574526f79616c746965734d616e61676560448201527f723a20494e56414c49445f524f59414c544945535f4d414e414745520000000060648201526084016200015c565b6008546040516001600160a01b038084169216907f7af757e60ce7c97cfab72d633ae4d05ffe9be9afbba020aa2f484a600db8df6d90600090a3600880546001600160a01b0319166001600160a01b0392909216919091179055565b620005f26200026a565b6001600160a01b03166200060e6000546001600160a01b031690565b6001600160a01b031614620006555760405162461bcd60e51b8152602060048201819052602482015260008051602062003faa83398151915260448201526064016200015c565b6009819055600a54620f4240906200066e908362000a76565b10620007095760405162461bcd60e51b815260206004820152605460248201527f4d61726b6574706c61636556322373657446656573436f6c6c6563746f72437560448201527f745065724d696c6c696f6e3a20544f54414c5f464545535f4d5553545f42455f60648201527f4245545745454e5f305f414e445f393939393939000000000000000000000000608482015260a4016200015c565b7fd33ed052f0041ea5512df480eb51801acb8fec4a7e89c6086fdd5caaa650981e6009546040516200073d91815260200190565b60405180910390a150565b620007526200026a565b6001600160a01b03166200076e6000546001600160a01b031690565b6001600160a01b031614620007b55760405162461bcd60e51b8152602060048201819052602482015260008051602062003faa83398151915260448201526064016200015c565b600a819055600954620f424090620007cf90839062000a76565b106200085d5760405162461bcd60e51b815260206004820152605060248201527f4d61726b6574706c616365563223736574526f79616c7469657343757450657260448201527f4d696c6c696f6e3a20544f54414c5f464545535f4d5553545f42455f4245545760648201526f45454e5f305f414e445f39393939393960801b608482015260a4016200015c565b7fba54fecf3e91476de2d7bd3248ee80a9060cddc82a6ac0933b232e051eafdaf3600a546040516200073d91815260200190565b6200089b6200026a565b6001600160a01b0316620008b76000546001600160a01b031690565b6001600160a01b031614620008fe5760405162461bcd60e51b8152602060048201819052602482015260008051602062003faa83398151915260448201526064016200015c565b6001600160a01b038116620009655760405162461bcd60e51b815260206004820152602660248201527f4f776e61626c653a206e6577206f776e657220697320746865207a65726f206160448201526564647265737360d01b60648201526084016200015c565b600080546040516001600160a01b038085169392169160008051602062003fca83398151915291a3600080546001600160a01b0319166001600160a01b0392909216919091179055565b4690565b6001600160a01b0381168114620009c957600080fd5b50565b600080600080600080600080610100898b031215620009ea57600080fd5b8851620009f781620009b3565b60208a015190985062000a0a81620009b3565b60408a015190975062000a1d81620009b3565b60608a015190965062000a3081620009b3565b809550506080890151935060a0890151925060c089015162000a5281620009b3565b60e08a015190925062000a6581620009b3565b809150509295985092959890939650565b8082018082111562000a9857634e487b7160e01b600052601160045260246000fd5b92915050565b61348d8062000aae6000396000f3fe6080604052600436106101d85760003560e01c8063715018a611610102578063ae4f119811610095578063d5fa992d11610064578063d5fa992d146105ab578063e61f3851146105d9578063f2fde38b1461066e578063f698da251461068e57600080fd5b8063ae4f11981461053f578063ae7b033314610555578063af8996f114610575578063ce2243b41461059557600080fd5b806393dc06e1116100d157806393dc06e1146104bf578063967b0049146104df5780639b214f77146104ff5780639cf160f61461051f57600080fd5b8063715018a6146104375780638780dfcf1461044c5780638b7849db1461046c5780638da5cb5b146104a157600080fd5b80633fd2acfe1161017a5780636266d324116101495780636266d324146103b7578063688f09da146103d75780636a206137146103f75780636f652e1a1461041757600080fd5b80633fd2acfe14610337578063451c3d801461035757806348f4e32b146103775780635c975abb1461038d57600080fd5b80632d0335ab116101b65780632d0335ab1461028a5780633408e470146102ce578063373071f2146102e157806337f82f371461030357600080fd5b80630c53c51c146101dd578063175e1a7d146102065780632b4c32be1461023e575b600080fd5b6101f06101eb366004612ff4565b6106a4565b6040516101fd91906130c2565b60405180910390f35b34801561021257600080fd5b50600554610226906001600160a01b031681565b6040516001600160a01b0390911681526020016101fd565b34801561024a57600080fd5b506102596380ac58cd60e01b81565b6040517fffffffff0000000000000000000000000000000000000000000000000000000090911681526020016101fd565b34801561029657600080fd5b506102c06102a53660046130dc565b6001600160a01b031660009081526002602052604090205490565b6040519081526020016101fd565b3480156102da57600080fd5b50466102c0565b3480156102ed57600080fd5b506103016102fc3660046130dc565b6108bf565b005b34801561030f57600080fd5b506102597f8f9f4b63fb27ea36c52c6e650320201c8f2c6d7c1dfa95f40f5d5da52392016881565b34801561034357600080fd5b50600454610226906001600160a01b031681565b34801561036357600080fd5b50600354610226906001600160a01b031681565b34801561038357600080fd5b506102c060095481565b34801561039957600080fd5b50600054600160a01b900460ff1660405190151581526020016101fd565b3480156103c357600080fd5b506103016103d23660046130dc565b610a10565b3480156103e357600080fd5b506103016103f23660046130dc565b610b04565b34801561040357600080fd5b506103016104123660046130f9565b610c56565b34801561042357600080fd5b50610301610432366004613125565b610cb2565b34801561044357600080fd5b50610301610d11565b34801561045857600080fd5b50610301610467366004613160565b610dd4565b34801561047857600080fd5b5061048c6104873660046130f9565b610f3b565b604080519283526020830191909152016101fd565b3480156104ad57600080fd5b506000546001600160a01b0316610226565b3480156104cb57600080fd5b506103016104da366004613160565b610f77565b3480156104eb57600080fd5b50600854610226906001600160a01b031681565b34801561050b57600080fd5b5061030161051a366004613179565b6110d4565b34801561052b57600080fd5b50600754610226906001600160a01b031681565b34801561054b57600080fd5b506102c0600b5481565b34801561056157600080fd5b506103016105703660046131dc565b61112d565b34801561058157600080fd5b50610301610590366004613160565b611195565b3480156105a157600080fd5b506102c0600a5481565b3480156105b757600080fd5b506105cb6105c63660046130dc565b611243565b6040516101fd92919061324d565b3480156105e557600080fd5b5061063a6105f43660046130f9565b60066020908152600092835260408084209091529082529020805460018201546002830154600384015460049094015492936001600160a01b0392831693929091169185565b604080519586526001600160a01b03948516602087015292909316918401919091526060830152608082015260a0016101fd565b34801561067a57600080fd5b506103016106893660046130dc565b611400565b34801561069a57600080fd5b506102c060015481565b60408051606081810183526001600160a01b038816600081815260026020908152908590205484528301529181018690526106e28782878787611550565b6107595760405162461bcd60e51b815260206004820152603d60248201527f4e4d5423657865637574654d6574615472616e73616374696f6e3a205349474e60448201527f45525f414e445f5349474e41545552455f444f5f4e4f545f4d4154434800000060648201526084015b60405180910390fd5b6001600160a01b03871660009081526002602052604090205461077d906001613291565b6001600160a01b0388166000908152600260205260409081902091909155517f5845892132946850460bff5a0083f71031bc5bf9aadcd40f1de79423eac9b10b906107cd90899033908a906132a4565b60405180910390a1600080306001600160a01b0316888a6040516020016107f59291906132d0565b60408051601f198184030181529082905261080f91613307565b6000604051808303816000865af19150503d806000811461084c576040519150601f19603f3d011682016040523d82523d6000602084013e610851565b606091505b5091509150816108b35760405162461bcd60e51b815260206004820152602760248201527f4e4d5423657865637574654d6574615472616e73616374696f6e3a2043414c4c60448201526617d1905253115160ca1b6064820152608401610750565b98975050505050505050565b6108c7611632565b6001600160a01b03166108e26000546001600160a01b031690565b6001600160a01b0316146109385760405162461bcd60e51b815260206004820181905260248201527f4f776e61626c653a2063616c6c6572206973206e6f7420746865206f776e65726044820152606401610750565b6001600160a01b0381166109b45760405162461bcd60e51b815260206004820152603660248201527f4d61726b6574706c61636556322373657446656573436f6c6c6563746f723a2060448201527f494e56414c49445f464545535f434f4c4c4543544f52000000000000000000006064820152608401610750565b6007546040516001600160a01b038084169216907f58283f7e46512bbcb30558fa508283f23fac7be18fb20bfdf6d4bbf83c529d5390600090a3600780546001600160a01b0319166001600160a01b0392909216919091179055565b610a18611632565b6001600160a01b0316610a336000546001600160a01b031690565b6001600160a01b031614610a895760405162461bcd60e51b815260206004820181905260248201527f4f776e61626c653a2063616c6c6572206973206e6f7420746865206f776e65726044820152606401610750565b6005546040517feb8646980000000000000000000000000000000000000000000000000000000081526001600160a01b0383811660048301529091169063eb86469890602401600060405180830381600087803b158015610ae957600080fd5b505af1158015610afd573d6000803e3d6000fd5b5050505050565b610b0c611632565b6001600160a01b0316610b276000546001600160a01b031690565b6001600160a01b031614610b7d5760405162461bcd60e51b815260206004820181905260248201527f4f776e61626c653a2063616c6c6572206973206e6f7420746865206f776e65726044820152606401610750565b6001600160a01b0381163b610bfa5760405162461bcd60e51b815260206004820152603c60248201527f4d61726b6574706c616365563223736574526f79616c746965734d616e61676560448201527f723a20494e56414c49445f524f59414c544945535f4d414e41474552000000006064820152608401610750565b6008546040516001600160a01b038084169216907f7af757e60ce7c97cfab72d633ae4d05ffe9be9afbba020aa2f484a600db8df6d90600090a3600880546001600160a01b0319166001600160a01b0392909216919091179055565b600054600160a01b900460ff1615610ca35760405162461bcd60e51b815260206004820152601060248201526f14185d5cd8589b194e881c185d5cd95960821b6044820152606401610750565b610cad828261168e565b505050565b600054600160a01b900460ff1615610cff5760405162461bcd60e51b815260206004820152601060248201526f14185d5cd8589b194e881c185d5cd95960821b6044820152606401610750565b610d0b84848484611a41565b50505050565b610d19611632565b6001600160a01b0316610d346000546001600160a01b031690565b6001600160a01b031614610d8a5760405162461bcd60e51b815260206004820181905260248201527f4f776e61626c653a2063616c6c6572206973206e6f7420746865206f776e65726044820152606401610750565b600080546040516001600160a01b03909116907f8be0079c531659141344cd1fd0a4f28419497f9722a3daafe3b4186f6b6457e0908390a3600080546001600160a01b0319169055565b610ddc611632565b6001600160a01b0316610df76000546001600160a01b031690565b6001600160a01b031614610e4d5760405162461bcd60e51b815260206004820181905260248201527f4f776e61626c653a2063616c6c6572206973206e6f7420746865206f776e65726044820152606401610750565b6009819055600a54620f424090610e649083613291565b10610efd5760405162461bcd60e51b815260206004820152605460248201527f4d61726b6574706c61636556322373657446656573436f6c6c6563746f72437560448201527f745065724d696c6c696f6e3a20544f54414c5f464545535f4d5553545f42455f60648201527f4245545745454e5f305f414e445f393939393939000000000000000000000000608482015260a401610750565b7fd33ed052f0041ea5512df480eb51801acb8fec4a7e89c6086fdd5caaa650981e600954604051610f3091815260200190565b60405180910390a150565b600c6020528160005260406000208181548110610f5757600080fd5b600091825260209091206002909102018054600190910154909250905082565b610f7f611632565b6001600160a01b0316610f9a6000546001600160a01b031690565b6001600160a01b031614610ff05760405162461bcd60e51b815260206004820181905260248201527f4f776e61626c653a2063616c6c6572206973206e6f7420746865206f776e65726044820152606401610750565b600a819055600954620f424090611008908390613291565b106110a15760405162461bcd60e51b815260206004820152605060248201527f4d61726b6574706c616365563223736574526f79616c7469657343757450657260448201527f4d696c6c696f6e3a20544f54414c5f464545535f4d5553545f42455f4245545760648201527f45454e5f305f414e445f39393939393900000000000000000000000000000000608482015260a401610750565b7fba54fecf3e91476de2d7bd3248ee80a9060cddc82a6ac0933b232e051eafdaf3600a54604051610f3091815260200190565b600054600160a01b900460ff16156111215760405162461bcd60e51b815260206004820152601060248201526f14185d5cd8589b194e881c185d5cd95960821b6044820152606401610750565b610afd848484846120d6565b600054600160a01b900460ff161561117a5760405162461bcd60e51b815260206004820152601060248201526f14185d5cd8589b194e881c185d5cd95960821b6044820152606401610750565b610d0b838383604051806020016040528060008152506120d6565b61119d611632565b6001600160a01b03166111b86000546001600160a01b031690565b6001600160a01b03161461120e5760405162461bcd60e51b815260206004820181905260248201527f4f776e61626c653a2063616c6c6572206973206e6f7420746865206f776e65726044820152606401610750565b600b8190556040518181527fe7fa8737293f41b5dfa0d5c3e552860a06275bed7015581b083c7be7003308ba90602001610f30565b6060806000600c6000856001600160a01b03166001600160a01b03168152602001908152602001600020805480602002602001604051908101604052809291908181526020016000905b828210156112d35783829060005260206000209060020201604051806040016040529081600082015481526020016001820154815250508152602001906001019061128d565b5050505090506000815167ffffffffffffffff8111156112f5576112f5612f51565b60405190808252806020026020018201604052801561131e578160200160208202803683370190505b5090506000825167ffffffffffffffff81111561133d5761133d612f51565b604051908082528060200260200182016040528015611366578160200160208202803683370190505b50905060005b83518110156113f45783818151811061138757611387613323565b6020026020010151600001518382815181106113a5576113a5613323565b6020026020010181815250508381815181106113c3576113c3613323565b6020026020010151602001518282815181106113e1576113e1613323565b602090810291909101015260010161136c565b50909590945092505050565b611408611632565b6001600160a01b03166114236000546001600160a01b031690565b6001600160a01b0316146114795760405162461bcd60e51b815260206004820181905260248201527f4f776e61626c653a2063616c6c6572206973206e6f7420746865206f776e65726044820152606401610750565b6001600160a01b0381166114f55760405162461bcd60e51b815260206004820152602660248201527f4f776e61626c653a206e6577206f776e657220697320746865207a65726f206160448201527f64647265737300000000000000000000000000000000000000000000000000006064820152608401610750565b600080546040516001600160a01b03808516939216917f8be0079c531659141344cd1fd0a4f28419497f9722a3daafe3b4186f6b6457e091a3600080546001600160a01b0319166001600160a01b0392909216919091179055565b60006001600160a01b0386166115a85760405162461bcd60e51b815260206004820152601a60248201527f4e4d54237665726966793a20494e56414c49445f5349474e45520000000000006044820152606401610750565b60016115bb6115b687612c90565b612d0d565b6040805160008152602081018083529290925260ff851690820152606081018690526080810185905260a0016020604051602081039080840390855afa158015611609573d6000803e3d6000fd5b505050602060405103516001600160a01b0316866001600160a01b031614905095945050505050565b600030330361168857600080368080601f0160208091040260200160405190810160405280939291908181526020018383808284376000920191909152505050503601516001600160a01b0316915061168b9050565b50335b90565b6040805160a0810182526000808252602082018190529181018290526060810182905260808101829052906116c1611632565b6001600160a01b0380861660009081526006602090815260408083208884528252808320815160a08101835281548082526001830154871694820194909452600282015490951691850191909152600381015460608501526004015460808401529293509091900361179b5760405162461bcd60e51b815260206004820152602960248201527f4d61726b6574706c6163655632235f63616e63656c4f726465723a20494e564160448201527f4c49445f4f5244455200000000000000000000000000000000000000000000006064820152608401610750565b816001600160a01b031681602001516001600160a01b031614806117cc57506000546001600160a01b038381169116145b61183e5760405162461bcd60e51b815260206004820152602d60248201527f4d61726b6574706c6163655632235f63616e63656c4f726465723a20554e415560448201527f54484f52495a45445f55534552000000000000000000000000000000000000006064820152608401610750565b80516020808301516040808501516001600160a01b038a166000908152600685528281208a82529094529083208381556001810180546001600160a01b031990811690915560028201805490911690556003810184905560040183905590916118a78989612d53565b905060001981036118fa5760405162461bcd60e51b815260206004820152601460248201527f4f7264657220646f6573206e6f742065786973740000000000000000000000006044820152606401610750565b6001600160a01b0389166000908152600c60205260409020805461192090600190613339565b8154811061193057611930613323565b9060005260206000209060020201600c60008b6001600160a01b03166001600160a01b03168152602001908152602001600020828154811061197457611974613323565b60009182526020808320845460029093020191825560019384015493909101929092556001600160a01b038b168152600c909152604090208054806119bb576119bb61334c565b6000828152602081206002600019909301928302018181556001015590556040516001600160a01b0384169089907f0325426328de5b91ae4ad8462ad4076de4bcaf4551e81556185cacde5a425c6b90611a2a90889087909182526001600160a01b0316602082015260400190565b60405180910390a350929450505050505b92915050565b611a4a84612dd5565b6000611a54611632565b6040516331a9108f60e11b81526004810186905290915085906000906001600160a01b03831690636352211e90602401602060405180830381865afa158015611aa1573d6000803e3d6000fd5b505050506040513d601f19601f82011682018060405250810190611ac59190613362565b9050806001600160a01b0316836001600160a01b031614611b4e5760405162461bcd60e51b815260206004820152602b60248201527f4d61726b6574706c6163655632235f6372656174654f726465723a204e4f545f60448201527f41535345545f4f574e45520000000000000000000000000000000000000000006064820152608401610750565b6040517f081812fc0000000000000000000000000000000000000000000000000000000081526004810187905230906001600160a01b0384169063081812fc90602401602060405180830381865afa158015611bae573d6000803e3d6000fd5b505050506040513d601f19601f82011682018060405250810190611bd29190613362565b6001600160a01b03161480611c6b57506040517fe985e9c50000000000000000000000000000000000000000000000000000000081526001600160a01b03828116600483015230602483015283169063e985e9c590604401602060405180830381865afa158015611c47573d6000803e3d6000fd5b505050506040513d601f19601f82011682018060405250810190611c6b919061337f565b611cdd5760405162461bcd60e51b815260206004820152603260248201527f54686520636f6e7472616374206973206e6f7420617574686f72697a6564207460448201527f6f206d616e6167652074686520617373657400000000000000000000000000006064820152608401610750565b60008511611d2d5760405162461bcd60e51b815260206004820152601d60248201527f50726963652073686f756c6420626520626967676572207468616e20300000006044820152606401610750565b611d3842603c613291565b8411611dac5760405162461bcd60e51b815260206004820152602e60248201527f4d61726b6574706c6163655632235f6372656174654f726465723a20494e564160448201527f4c49445f455850495245535f41540000000000000000000000000000000000006064820152608401610750565b604080514260208201526bffffffffffffffffffffffff19606084811b821693830193909352605482018990529189901b90911660748201526088810186905260009060a80160405160208183030381529060405280519060200120905060006040518060400160405280898152602001888152509050600c60008a6001600160a01b03166001600160a01b03168152602001908152602001600020819080600181540180825580915050600190039060005260206000209060020201600090919091909150600082015181600001556020820151816001015550506040518060a00160405280838152602001846001600160a01b031681526020018a6001600160a01b0316815260200188815260200187815250600660008b6001600160a01b03166001600160a01b0316815260200190815260200160002060008a81526020019081526020016000206000820151816000015560208201518160010160006101000a8154816001600160a01b0302191690836001600160a01b0316021790555060408201518160020160006101000a8154816001600160a01b0302191690836001600160a01b0316021790555060608201518160030155608082015181600401559050506000600b54111561207457600354600754600b546040516323b872dd60e01b81526001600160a01b038981166004830152928316602482015260448101919091529116906323b872dd906064016020604051808303816000875af1158015611fde573d6000803e3d6000fd5b505050506040513d601f19601f82011682018060405250810190612002919061337f565b6120745760405162461bcd60e51b815260206004820152602b60248201527f4d61726b6574706c6163655632235f6372656174654f726465723a205452414e60448201527f534645525f4641494c45440000000000000000000000000000000000000000006064820152608401610750565b604080518381526001600160a01b038b81166020830152918101899052606081018890529084169089907f84c66c3f7ba4b390e20e8e8233e2a516f3ce34a72749e4f12bd010dfba2380399060800160405180910390a3505050505050505050565b6040805160a08101825260008082526020820181905291810182905260608101829052608081019190915261210a85612dd5565b6000612114611632565b6040516301ffc9a760e01b8152638f9f4b6360e01b600482015290915086906001600160a01b038216906301ffc9a790602401602060405180830381865afa158015612164573d6000803e3d6000fd5b505050506040513d601f19601f82011682018060405250810190612188919061337f565b1561226e57604051638f9f4b6360e01b81526001600160a01b03821690638f9f4b63906121bb90899088906004016133a1565b602060405180830381865afa1580156121d8573d6000803e3d6000fd5b505050506040513d601f19601f820116820180604052508101906121fc919061337f565b61226e5760405162461bcd60e51b815260206004820152603060248201527f4d61726b6574706c6163655632235f657865637574654f726465723a20494e5660448201527f414c49445f46494e4745525052494e54000000000000000000000000000000006064820152608401610750565b6001600160a01b0380881660009081526006602090815260408083208a84528252808320815160a081018352815480825260018301548716948201949094526002820154909516918501919091526003810154606085015260040154608084015290036123435760405162461bcd60e51b815260206004820152602f60248201527f4d61726b6574706c6163655632235f657865637574654f726465723a2041535360448201527f45545f4e4f545f464f525f53414c4500000000000000000000000000000000006064820152608401610750565b60208101516001600160a01b03166123c35760405162461bcd60e51b815260206004820152602b60248201527f4d61726b6574706c6163655632235f657865637574654f726465723a20494e5660448201527f414c49445f53454c4c45520000000000000000000000000000000000000000006064820152608401610750565b826001600160a01b031681602001516001600160a01b03160361244e5760405162461bcd60e51b815260206004820152602d60248201527f4d61726b6574706c6163655632235f657865637574654f726465723a2053454e60448201527f4445525f49535f53454c4c4552000000000000000000000000000000000000006064820152608401610750565b858160600151146124c75760405162461bcd60e51b815260206004820152602b60248201527f4d61726b6574706c6163655632235f657865637574654f726465723a2050524960448201527f43455f4d49534d415443480000000000000000000000000000000000000000006064820152608401610750565b806080015142106125405760405162461bcd60e51b815260206004820152602a60248201527f4d61726b6574706c6163655632235f657865637574654f726465723a204f524460448201527f45525f45585049524544000000000000000000000000000000000000000000006064820152608401610750565b6040516331a9108f60e11b8152600481018890526001600160a01b03831690636352211e90602401602060405180830381865afa158015612585573d6000803e3d6000fd5b505050506040513d601f19601f820116820180604052508101906125a99190613362565b6001600160a01b031681602001516001600160a01b0316146126335760405162461bcd60e51b815260206004820152602d60248201527f4d61726b6574706c6163655632235f657865637574654f726465723a2053454c60448201527f4c45525f4e4f545f4f574e4552000000000000000000000000000000000000006064820152608401610750565b6001600160a01b0388811660009081526006602090815260408083208b84529091528082208281556001810180546001600160a01b03199081169091556002820180549091169055600381018390556004908101839055805491517f3b52c8100000000000000000000000000000000000000000000000000000000081529081018a905291928392839283921690633b52c81090602401602060405180830381865afa1580156126e7573d6000803e3d6000fd5b505050506040513d601f19601f8201168201806040525081019061270b91906133c2565b600a549091501561295d57620f4240600a548261272891906133db565b61273291906133f2565b6008546040516001600160a01b038981166024830152604482018f9052929550600092839216907fcca1d0b7000000000000000000000000000000000000000000000000000000009060640160408051601f198184030181529181526020820180517bffffffffffffffffffffffffffffffffffffffffffffffffffffffff167fffffffff000000000000000000000000000000000000000000000000000000009094169390931790925290516127e99190613307565b600060405180830381855afa9150503d8060008114612824576040519150601f19603f3d011682016040523d82523d6000602084013e612829565b606091505b5091509150811561295a57808060200190518101906128489190613362565b93506001600160a01b0384161561295a576003546040516323b872dd60e01b81526001600160a01b038b81166004830152868116602483015260448201889052909116906323b872dd906064016020604051808303816000875af11580156128b4573d6000803e3d6000fd5b505050506040513d601f19601f820116820180604052508101906128d8919061337f565b61295a5760405162461bcd60e51b815260206004820152604760248201527f4d61726b6574706c6163655632235f657865637574654f726465723a2054524160448201527f4e534645525f464545535f544f5f524f59414c544945535f524543454956455260648201526617d1905253115160ca1b608482015260a401610750565b50505b620f42406009548261296f91906133db565b61297991906133f2565b935083831580159061299257506001600160a01b038316155b156129a4576129a18482613291565b90505b8015612ac3576003546007546040516323b872dd60e01b81526001600160a01b038b811660048301529182166024820152604481018490529116906323b872dd906064016020604051808303816000875af1158015612a07573d6000803e3d6000fd5b505050506040513d601f19601f82011682018060405250810190612a2b919061337f565b612ac35760405162461bcd60e51b815260206004820152604360248201527f4d61726b6574706c6163655632235f657865637574654f726465723a2054524160448201527f4e534645525f464545535f544f5f464545535f434f4c4c4543544f525f46414960648201527f4c45440000000000000000000000000000000000000000000000000000000000608482015260a401610750565b5060035460208601516001600160a01b03909116906323b872dd90899087612aeb8887613339565b612af59190613339565b6040517fffffffff0000000000000000000000000000000000000000000000000000000060e086901b1681526001600160a01b03938416600482015292909116602483015260448201526064016020604051808303816000875af1158015612b61573d6000803e3d6000fd5b505050506040513d601f19601f82011682018060405250810190612b85919061337f565b612bf75760405162461bcd60e51b815260206004820152603d60248201527f4d61726b6574706c6163655632235f657865637574654f726465723a2054524160448201527f4e534645525f414d4f554e545f544f5f53454c4c45525f4641494c45440000006064820152608401610750565b60208501516040517f42842e0e0000000000000000000000000000000000000000000000000000000081526001600160a01b0391821660048201528882166024820152604481018d9052908716906342842e0e90606401600060405180830381600087803b158015612c6857600080fd5b505af1158015612c7c573d6000803e3d6000fd5b50969e9d5050505050505050505050505050565b60006040518060800160405280604381526020016134156043913980516020918201208351848301516040808701518051908601209051612cf0950193845260208401929092526001600160a01b03166040830152606082015260800190565b604051602081830303815290604052805190602001209050919050565b6001546040517f19010000000000000000000000000000000000000000000000000000000000006020820152602281019190915260428101829052600090606201612cf0565b6000805b6001600160a01b0384166000908152600c6020526040902054811015612dca576001600160a01b0384166000908152600c60205260409020805484919083908110612da457612da4613323565b90600052602060002090600202016000015403612dc2579050611a3b565b600101612d57565b506000199392505050565b6001600160a01b0381163b612e525760405162461bcd60e51b815260206004820152603160248201527f4d61726b6574706c6163655632235f726571756972654552433732313a20494e60448201527f56414c49445f4e46545f414444524553530000000000000000000000000000006064820152608401610750565b6040516301ffc9a760e01b81526380ac58cd60e01b600482015281906001600160a01b038216906301ffc9a790602401602060405180830381865afa158015612e9f573d6000803e3d6000fd5b505050506040513d601f19601f82011682018060405250810190612ec3919061337f565b612f355760405162461bcd60e51b815260206004820152603b60248201527f4d61726b6574706c6163655632235f726571756972654552433732313a20494e60448201527f56414c49445f4552433732315f494d504c454d454e544154494f4e00000000006064820152608401610750565b5050565b6001600160a01b0381168114612f4e57600080fd5b50565b634e487b7160e01b600052604160045260246000fd5b600082601f830112612f7857600080fd5b813567ffffffffffffffff80821115612f9357612f93612f51565b604051601f8301601f19908116603f01168101908282118183101715612fbb57612fbb612f51565b81604052838152866020858801011115612fd457600080fd5b836020870160208301376000602085830101528094505050505092915050565b600080600080600060a0868803121561300c57600080fd5b853561301781612f39565b9450602086013567ffffffffffffffff81111561303357600080fd5b61303f88828901612f67565b9450506040860135925060608601359150608086013560ff8116811461306457600080fd5b809150509295509295909350565b60005b8381101561308d578181015183820152602001613075565b50506000910152565b600081518084526130ae816020860160208601613072565b601f01601f19169290920160200192915050565b6020815260006130d56020830184613096565b9392505050565b6000602082840312156130ee57600080fd5b81356130d581612f39565b6000806040838503121561310c57600080fd5b823561311781612f39565b946020939093013593505050565b6000806000806080858703121561313b57600080fd5b843561314681612f39565b966020860135965060408601359560600135945092505050565b60006020828403121561317257600080fd5b5035919050565b6000806000806080858703121561318f57600080fd5b843561319a81612f39565b93506020850135925060408501359150606085013567ffffffffffffffff8111156131c457600080fd5b6131d087828801612f67565b91505092959194509250565b6000806000606084860312156131f157600080fd5b83356131fc81612f39565b95602085013595506040909401359392505050565b60008151808452602080850194506020840160005b8381101561324257815187529582019590820190600101613226565b509495945050505050565b6040815260006132606040830185613211565b82810360208401526132728185613211565b95945050505050565b634e487b7160e01b600052601160045260246000fd5b80820180821115611a3b57611a3b61327b565b60006001600160a01b038086168352808516602084015250606060408301526132726060830184613096565b600083516132e2818460208801613072565b60609390931b6bffffffffffffffffffffffff19169190920190815260140192915050565b60008251613319818460208701613072565b9190910192915050565b634e487b7160e01b600052603260045260246000fd5b81810381811115611a3b57611a3b61327b565b634e487b7160e01b600052603160045260246000fd5b60006020828403121561337457600080fd5b81516130d581612f39565b60006020828403121561339157600080fd5b815180151581146130d557600080fd5b8281526040602082015260006133ba6040830184613096565b949350505050565b6000602082840312156133d457600080fd5b5051919050565b8082028115828204841417611a3b57611a3b61327b565b60008261340f57634e487b7160e01b600052601260045260246000fd5b50049056fe4d6574615472616e73616374696f6e2875696e74323536206e6f6e63652c616464726573732066726f6d2c62797465732066756e6374696f6e5369676e617475726529a264697066735822122022cab2871bb2ed4a797c6163ad020b1040d41d87e0f948b55a187691efec7ad864736f6c634300081800334d61726b6574706c616365563223636f6e7374727563746f723a20494e56414c454950373132446f6d61696e28737472696e67206e616d652c737472696e672076657273696f6e2c6164647265737320766572696679696e67436f6e74726163742c627974657333322073616c74294f776e61626c653a2063616c6c6572206973206e6f7420746865206f776e65728be0079c531659141344cd1fd0a4f28419497f9722a3daafe3b4186f6b6457e0",
  "linkReferences": {},
  "deployedLinkReferences": {}
}