{
  "_format": "hh-sol-artifact-1",
  "contractName": "WenExchangeV1",
  "sourceName": "contracts/marketplace/WenExchangeV1.sol",
  "abi": [
    {
      "inputs": [
        {
          "internalType": "address",
          "name": "_owner",
          "type": "address"
        },
        {
          "internalType": "address",
          "name": "_feesCollector",
          "type": "address"
        },
        {
          "internalType": "address",
          "name": "_acceptedToken",
          "type": "address"
        },
        {
          "internalType": "contract IRoyaltiesManager",
          "name": "_royaltiesManager",
          "type": "address"
        },
        {
          "internalType": "uint256",
          "name": "_feesCollectorCutPerMillion",
          "type": "uint256"
        },
        {
          "internalType": "uint256",
          "name": "_royaltiesCutPerMillion",
          "type": "uint256"
        },
        {
          "internalType": "contract IWenTradePool",
          "name": "_wenTradePool",
          "type": "address"
        },
        {
          "internalType": "contract IBlast",
          "name": "_blast",
          "type": "address"
        }
      ],
      "stateMutability": "nonpayable",
      "type": "constructor"
    },
    {
      "anonymous": false,
      "inputs": [
        {
          "indexed": false,
          "internalType": "uint256",
          "name": "feesCollectorCutPerMillion",
          "type": "uint256"
        }
      ],
      "name": "ChangedFeesCollectorCutPerMillion",
      "type": "event"
    },
    {
      "anonymous": false,
      "inputs": [
        {
          "indexed": false,
          "internalType": "uint256",
          "name": "publicationFee",
          "type": "uint256"
        }
      ],
      "name": "ChangedPublicationFee",
      "type": "event"
    },
    {
      "anonymous": false,
      "inputs": [
        {
          "indexed": false,
          "internalType": "uint256",
          "name": "royaltiesCutPerMillion",
          "type": "uint256"
        }
      ],
      "name": "ChangedRoyaltiesCutPerMillion",
      "type": "event"
    },
    {
      "anonymous": false,
      "inputs": [
        {
          "indexed": true,
          "internalType": "address",
          "name": "oldFeesCollector",
          "type": "address"
        },
        {
          "indexed": true,
          "internalType": "address",
          "name": "newFeesCollector",
          "type": "address"
        }
      ],
      "name": "FeesCollectorSet",
      "type": "event"
    },
    {
      "anonymous": false,
      "inputs": [
        {
          "indexed": false,
          "internalType": "address",
          "name": "userAddress",
          "type": "address"
        },
        {
          "indexed": false,
          "internalType": "address",
          "name": "relayerAddress",
          "type": "address"
        },
        {
          "indexed": false,
          "internalType": "bytes",
          "name": "functionSignature",
          "type": "bytes"
        }
      ],
      "name": "MetaTransactionExecuted",
      "type": "event"
    },
    {
      "anonymous": false,
      "inputs": [
        {
          "indexed": false,
          "internalType": "bytes32",
          "name": "id",
          "type": "bytes32"
        },
        {
          "indexed": true,
          "internalType": "uint256",
          "name": "assetId",
          "type": "uint256"
        },
        {
          "indexed": true,
          "internalType": "address",
          "name": "seller",
          "type": "address"
        },
        {
          "indexed": false,
          "internalType": "address",
          "name": "nftAddress",
          "type": "address"
        }
      ],
      "name": "OrderCancelled",
      "type": "event"
    },
    {
      "anonymous": false,
      "inputs": [
        {
          "indexed": false,
          "internalType": "bytes32",
          "name": "id",
          "type": "bytes32"
        },
        {
          "indexed": true,
          "internalType": "uint256",
          "name": "assetId",
          "type": "uint256"
        },
        {
          "indexed": true,
          "internalType": "address",
          "name": "seller",
          "type": "address"
        },
        {
          "indexed": false,
          "internalType": "address",
          "name": "nftAddress",
          "type": "address"
        },
        {
          "indexed": false,
          "internalType": "uint256",
          "name": "priceInWei",
          "type": "uint256"
        },
        {
          "indexed": false,
          "internalType": "uint256",
          "name": "expiresAt",
          "type": "uint256"
        }
      ],
      "name": "OrderCreated",
      "type": "event"
    },
    {
      "anonymous": false,
      "inputs": [
        {
          "indexed": false,
          "internalType": "bytes32",
          "name": "id",
          "type": "bytes32"
        },
        {
          "indexed": true,
          "internalType": "uint256",
          "name": "assetId",
          "type": "uint256"
        },
        {
          "indexed": true,
          "internalType": "address",
          "name": "seller",
          "type": "address"
        },
        {
          "indexed": false,
          "internalType": "address",
          "name": "nftAddress",
          "type": "address"
        },
        {
          "indexed": false,
          "internalType": "uint256",
          "name": "priceInEth",
          "type": "uint256"
        },
        {
          "indexed": false,
          "internalType": "uint256",
          "name": "priceInWenETH",
          "type": "uint256"
        },
        {
          "indexed": true,
          "internalType": "address",
          "name": "buyer",
          "type": "address"
        }
      ],
      "name": "OrderSuccessful",
      "type": "event"
    },
    {
      "anonymous": false,
      "inputs": [
        {
          "indexed": true,
          "internalType": "address",
          "name": "previousOwner",
          "type": "address"
        },
        {
          "indexed": true,
          "internalType": "address",
          "name": "newOwner",
          "type": "address"
        }
      ],
      "name": "OwnershipTransferred",
      "type": "event"
    },
    {
      "anonymous": false,
      "inputs": [
        {
          "indexed": false,
          "internalType": "address",
          "name": "account",
          "type": "address"
        }
      ],
      "name": "Paused",
      "type": "event"
    },
    {
      "anonymous": false,
      "inputs": [
        {
          "indexed": true,
          "internalType": "contract IRoyaltiesManager",
          "name": "oldRoyaltiesManager",
          "type": "address"
        },
        {
          "indexed": true,
          "internalType": "contract IRoyaltiesManager",
          "name": "newRoyaltiesManager",
          "type": "address"
        }
      ],
      "name": "RoyaltiesManagerSet",
      "type": "event"
    },
    {
      "anonymous": false,
      "inputs": [
        {
          "indexed": false,
          "internalType": "address",
          "name": "account",
          "type": "address"
        }
      ],
      "name": "Unpaused",
      "type": "event"
    },
    {
      "inputs": [],
      "name": "ERC721_Interface",
      "outputs": [
        {
          "internalType": "bytes4",
          "name": "",
          "type": "bytes4"
        }
      ],
      "stateMutability": "view",
      "type": "function"
    },
    {
      "inputs": [],
      "name": "InterfaceId_ValidateFingerprint",
      "outputs": [
        {
          "internalType": "bytes4",
          "name": "",
          "type": "bytes4"
        }
      ],
      "stateMutability": "view",
      "type": "function"
    },
    {
      "inputs": [],
      "name": "acceptedToken",
      "outputs": [
        {
          "internalType": "contract IERC20",
          "name": "",
          "type": "address"
        }
      ],
      "stateMutability": "view",
      "type": "function"
    },
    {
      "inputs": [],
      "name": "blast",
      "outputs": [
        {
          "internalType": "contract IBlast",
          "name": "",
          "type": "address"
        }
      ],
      "stateMutability": "view",
      "type": "function"
    },
    {
      "inputs": [
        {
          "internalType": "address",
          "name": "nftAddress",
          "type": "address"
        },
        {
          "internalType": "uint256",
          "name": "assetId",
          "type": "uint256"
        }
      ],
      "name": "cancelOrder",
      "outputs": [],
      "stateMutability": "nonpayable",
      "type": "function"
    },
    {
      "inputs": [
        {
          "internalType": "address",
          "name": "nftAddress",
          "type": "address"
        },
        {
          "internalType": "uint256",
          "name": "assetId",
          "type": "uint256"
        },
        {
          "internalType": "uint256",
          "name": "priceInWei",
          "type": "uint256"
        },
        {
          "internalType": "uint256",
          "name": "expiresAt",
          "type": "uint256"
        }
      ],
      "name": "createOrder",
      "outputs": [],
      "stateMutability": "nonpayable",
      "type": "function"
    },
    {
      "inputs": [],
      "name": "domainSeparator",
      "outputs": [
        {
          "internalType": "bytes32",
          "name": "",
          "type": "bytes32"
        }
      ],
      "stateMutability": "view",
      "type": "function"
    },
    {
      "inputs": [
        {
          "internalType": "address",
          "name": "userAddress",
          "type": "address"
        },
        {
          "internalType": "bytes",
          "name": "functionSignature",
          "type": "bytes"
        },
        {
          "internalType": "bytes32",
          "name": "sigR",
          "type": "bytes32"
        },
        {
          "internalType": "bytes32",
          "name": "sigS",
          "type": "bytes32"
        },
        {
          "internalType": "uint8",
          "name": "sigV",
          "type": "uint8"
        }
      ],
      "name": "executeMetaTransaction",
      "outputs": [
        {
          "internalType": "bytes",
          "name": "",
          "type": "bytes"
        }
      ],
      "stateMutability": "payable",
      "type": "function"
    },
    {
      "inputs": [
        {
          "internalType": "address",
          "name": "nftAddress",
          "type": "address"
        },
        {
          "internalType": "uint256",
          "name": "assetId",
          "type": "uint256"
        },
        {
          "internalType": "uint256",
          "name": "price",
          "type": "uint256"
        }
      ],
      "name": "executeOrder",
      "outputs": [],
      "stateMutability": "nonpayable",
      "type": "function"
    },
    {
      "inputs": [],
      "name": "feesCollector",
      "outputs": [
        {
          "internalType": "address",
          "name": "",
          "type": "address"
        }
      ],
      "stateMutability": "view",
      "type": "function"
    },
    {
      "inputs": [],
      "name": "feesCollectorCutPerMillion",
      "outputs": [
        {
          "internalType": "uint256",
          "name": "",
          "type": "uint256"
        }
      ],
      "stateMutability": "view",
      "type": "function"
    },
    {
      "inputs": [],
      "name": "getChainId",
      "outputs": [
        {
          "internalType": "uint256",
          "name": "",
          "type": "uint256"
        }
      ],
      "stateMutability": "view",
      "type": "function"
    },
    {
      "inputs": [
        {
          "internalType": "address",
          "name": "user",
          "type": "address"
        }
      ],
      "name": "getNonce",
      "outputs": [
        {
          "internalType": "uint256",
          "name": "nonce",
          "type": "uint256"
        }
      ],
      "stateMutability": "view",
      "type": "function"
    },
    {
      "inputs": [
        {
          "internalType": "address",
          "name": "",
          "type": "address"
        },
        {
          "internalType": "uint256",
          "name": "",
          "type": "uint256"
        }
      ],
      "name": "orderByAssetId",
      "outputs": [
        {
          "internalType": "bytes32",
          "name": "id",
          "type": "bytes32"
        },
        {
          "internalType": "address",
          "name": "seller",
          "type": "address"
        },
        {
          "internalType": "address",
          "name": "nftAddress",
          "type": "address"
        },
        {
          "internalType": "uint256",
          "name": "price",
          "type": "uint256"
        },
        {
          "internalType": "uint256",
          "name": "expiresAt",
          "type": "uint256"
        }
      ],
      "stateMutability": "view",
      "type": "function"
    },
    {
      "inputs": [],
      "name": "owner",
      "outputs": [
        {
          "internalType": "address",
          "name": "",
          "type": "address"
        }
      ],
      "stateMutability": "view",
      "type": "function"
    },
    {
      "inputs": [],
      "name": "paused",
      "outputs": [
        {
          "internalType": "bool",
          "name": "",
          "type": "bool"
        }
      ],
      "stateMutability": "view",
      "type": "function"
    },
    {
      "inputs": [],
      "name": "publicationFeeInWei",
      "outputs": [
        {
          "internalType": "uint256",
          "name": "",
          "type": "uint256"
        }
      ],
      "stateMutability": "view",
      "type": "function"
    },
    {
      "inputs": [],
      "name": "renounceOwnership",
      "outputs": [],
      "stateMutability": "nonpayable",
      "type": "function"
    },
    {
      "inputs": [],
      "name": "royaltiesCutPerMillion",
      "outputs": [
        {
          "internalType": "uint256",
          "name": "",
          "type": "uint256"
        }
      ],
      "stateMutability": "view",
      "type": "function"
    },
    {
      "inputs": [],
      "name": "royaltiesManager",
      "outputs": [
        {
          "internalType": "contract IRoyaltiesManager",
          "name": "",
          "type": "address"
        }
      ],
      "stateMutability": "view",
      "type": "function"
    },
    {
      "inputs": [
        {
          "internalType": "address",
          "name": "nftAddress",
          "type": "address"
        },
        {
          "internalType": "uint256",
          "name": "assetId",
          "type": "uint256"
        },
        {
          "internalType": "uint256",
          "name": "price",
          "type": "uint256"
        },
        {
          "internalType": "bytes",
          "name": "fingerprint",
          "type": "bytes"
        }
      ],
      "name": "safeExecuteOrder",
      "outputs": [],
      "stateMutability": "nonpayable",
      "type": "function"
    },
    {
      "inputs": [
        {
          "internalType": "address",
          "name": "_governor",
          "type": "address"
        }
      ],
      "name": "setBlastGovernor",
      "outputs": [],
      "stateMutability": "nonpayable",
      "type": "function"
    },
    {
      "inputs": [
        {
          "internalType": "address",
          "name": "_newFeesCollector",
          "type": "address"
        }
      ],
      "name": "setFeesCollector",
      "outputs": [],
      "stateMutability": "nonpayable",
      "type": "function"
    },
    {
      "inputs": [
        {
          "internalType": "uint256",
          "name": "_feesCollectorCutPerMillion",
          "type": "uint256"
        }
      ],
      "name": "setFeesCollectorCutPerMillion",
      "outputs": [],
      "stateMutability": "nonpayable",
      "type": "function"
    },
    {
      "inputs": [
        {
          "internalType": "uint256",
          "name": "_publicationFee",
          "type": "uint256"
        }
      ],
      "name": "setPublicationFee",
      "outputs": [],
      "stateMutability": "nonpayable",
      "type": "function"
    },
    {
      "inputs": [
        {
          "internalType": "uint256",
          "name": "_royaltiesCutPerMillion",
          "type": "uint256"
        }
      ],
      "name": "setRoyaltiesCutPerMillion",
      "outputs": [],
      "stateMutability": "nonpayable",
      "type": "function"
    },
    {
      "inputs": [
        {
          "internalType": "contract IRoyaltiesManager",
          "name": "_newRoyaltiesManager",
          "type": "address"
        }
      ],
      "name": "setRoyaltiesManager",
      "outputs": [],
      "stateMutability": "nonpayable",
      "type": "function"
    },
    {
      "inputs": [
        {
          "internalType": "address",
          "name": "newOwner",
          "type": "address"
        }
      ],
      "name": "transferOwnership",
      "outputs": [],
      "stateMutability": "nonpayable",
      "type": "function"
    },
    {
      "inputs": [],
      "name": "wenTradePool",
      "outputs": [
        {
          "internalType": "contract IWenTradePool",
          "name": "",
          "type": "address"
        }
      ],
      "stateMutability": "view",
      "type": "function"
    }
  ],
  "bytecode": "0x60806040523480156200001157600080fd5b5060405162003a9338038062003a938339810160408190526200003491620009cc565b6000620000406200026a565b600080546001600160a01b0319166001600160a01b03831690811782556040519293509160008051602062003a73833981519152908290a3506000805460ff60a01b19169055604080518082018252601881527f446563656e7472616c616e64204d61726b6574706c6163650000000000000000602080830191909152825180840190935260018352601960f91b90830152620000dd91620002c8565b620000e88762000359565b620000f385620004a0565b620000fe84620005e8565b620001098362000748565b6001600160a01b038816620001655760405162461bcd60e51b81526020600482015260286024820152600080516020620039e483398151915260448201526724a22fa7aba722a960c11b60648201526084015b60405180910390fd5b620001708862000891565b6001600160a01b0386163b620001d25760405162461bcd60e51b81526020600482015260316024820152600080516020620039e483398151915260448201527024a22fa0a1a1a2a82a22a22faa27a5a2a760791b60648201526084016200015c565b600380546001600160a01b038089166001600160a01b031992831617909255600480548584169083161781556005805493851693909216831790915560408051634e606c4760e01b81529051634e606c479282810192600092919082900301818387803b1580156200024357600080fd5b505af115801562000258573d6000803e3d6000fd5b50505050505050505050505062000a9e565b6000303303620002c257600080368080601f0160208091040260200160405190810160405280939291908181526020018383808284376000920191909152505050503601516001600160a01b03169150620002c59050565b50335b90565b6040518060800160405280604f815260200162003a04604f91398051906020012082805190602001208280519060200120306200030a620009af60201b60201c565b60408051602081019690965285019390935260608401919091526001600160a01b0316608083015260a082015260c00160408051601f1981840301815291905280516020909101206001555050565b620003636200026a565b6001600160a01b03166200037f6000546001600160a01b031690565b6001600160a01b031614620003c65760405162461bcd60e51b8152602060048201819052602482015260008051602062003a5383398151915260448201526064016200015c565b6001600160a01b038116620004445760405162461bcd60e51b815260206004820152603660248201527f4d61726b6574706c61636556322373657446656573436f6c6c6563746f723a2060448201527f494e56414c49445f464545535f434f4c4c4543544f520000000000000000000060648201526084016200015c565b6007546040516001600160a01b038084169216907f58283f7e46512bbcb30558fa508283f23fac7be18fb20bfdf6d4bbf83c529d5390600090a3600780546001600160a01b0319166001600160a01b0392909216919091179055565b620004aa6200026a565b6001600160a01b0316620004c66000546001600160a01b031690565b6001600160a01b0316146200050d5760405162461bcd60e51b8152602060048201819052602482015260008051602062003a5383398151915260448201526064016200015c565b6001600160a01b0381163b6200058c5760405162461bcd60e51b815260206004820152603c60248201527f4d61726b6574706c616365563223736574526f79616c746965734d616e61676560448201527f723a20494e56414c49445f524f59414c544945535f4d414e414745520000000060648201526084016200015c565b6008546040516001600160a01b038084169216907f7af757e60ce7c97cfab72d633ae4d05ffe9be9afbba020aa2f484a600db8df6d90600090a3600880546001600160a01b0319166001600160a01b0392909216919091179055565b620005f26200026a565b6001600160a01b03166200060e6000546001600160a01b031690565b6001600160a01b031614620006555760405162461bcd60e51b8152602060048201819052602482015260008051602062003a5383398151915260448201526064016200015c565b6009819055600a54620f4240906200066e908362000a76565b10620007095760405162461bcd60e51b815260206004820152605460248201527f4d61726b6574706c61636556322373657446656573436f6c6c6563746f72437560448201527f745065724d696c6c696f6e3a20544f54414c5f464545535f4d5553545f42455f60648201527f4245545745454e5f305f414e445f393939393939000000000000000000000000608482015260a4016200015c565b7fd33ed052f0041ea5512df480eb51801acb8fec4a7e89c6086fdd5caaa650981e6009546040516200073d91815260200190565b60405180910390a150565b620007526200026a565b6001600160a01b03166200076e6000546001600160a01b031690565b6001600160a01b031614620007b55760405162461bcd60e51b8152602060048201819052602482015260008051602062003a5383398151915260448201526064016200015c565b600a819055600954620f424090620007cf90839062000a76565b106200085d5760405162461bcd60e51b815260206004820152605060248201527f4d61726b6574706c616365563223736574526f79616c7469657343757450657260448201527f4d696c6c696f6e3a20544f54414c5f464545535f4d5553545f42455f4245545760648201526f45454e5f305f414e445f39393939393960801b608482015260a4016200015c565b7fba54fecf3e91476de2d7bd3248ee80a9060cddc82a6ac0933b232e051eafdaf3600a546040516200073d91815260200190565b6200089b6200026a565b6001600160a01b0316620008b76000546001600160a01b031690565b6001600160a01b031614620008fe5760405162461bcd60e51b8152602060048201819052602482015260008051602062003a5383398151915260448201526064016200015c565b6001600160a01b038116620009655760405162461bcd60e51b815260206004820152602660248201527f4f776e61626c653a206e6577206f776e657220697320746865207a65726f206160448201526564647265737360d01b60648201526084016200015c565b600080546040516001600160a01b038085169392169160008051602062003a7383398151915291a3600080546001600160a01b0319166001600160a01b0392909216919091179055565b4690565b6001600160a01b0381168114620009c957600080fd5b50565b600080600080600080600080610100898b031215620009ea57600080fd5b8851620009f781620009b3565b60208a015190985062000a0a81620009b3565b60408a015190975062000a1d81620009b3565b60608a015190965062000a3081620009b3565b809550506080890151935060a0890151925060c089015162000a5281620009b3565b60e08a015190925062000a6581620009b3565b809150509295985092959890939650565b8082018082111562000a9857634e487b7160e01b600052601160045260246000fd5b92915050565b612f368062000aae6000396000f3fe6080604052600436106101c25760003560e01c80636f652e1a116100f75780639cf160f611610095578063ce2243b411610064578063ce2243b41461054a578063e61f385114610560578063f2fde38b146105f5578063f698da251461061557600080fd5b80639cf160f6146104d4578063ae4f1198146104f4578063ae7b03331461050a578063af8996f11461052a57600080fd5b80638da5cb5b116100d15780638da5cb5b1461045657806393dc06e114610474578063967b0049146104945780639b214f77146104b457600080fd5b80636f652e1a14610401578063715018a6146104215780638780dfcf1461043657600080fd5b80633fd2acfe116101645780635c975abb1161013e5780635c975abb146103775780636266d324146103a1578063688f09da146103c15780636a206137146103e157600080fd5b80633fd2acfe14610321578063451c3d801461034157806348f4e32b1461036157600080fd5b80632d0335ab116101a05780632d0335ab146102745780633408e470146102b8578063373071f2146102cb57806337f82f37146102ed57600080fd5b80630c53c51c146101c7578063175e1a7d146101f05780632b4c32be14610228575b600080fd5b6101da6101d5366004612b2a565b61062b565b6040516101e79190612bf8565b60405180910390f35b3480156101fc57600080fd5b50600554610210906001600160a01b031681565b6040516001600160a01b0390911681526020016101e7565b34801561023457600080fd5b506102436380ac58cd60e01b81565b6040517fffffffff0000000000000000000000000000000000000000000000000000000090911681526020016101e7565b34801561028057600080fd5b506102aa61028f366004612c12565b6001600160a01b031660009081526002602052604090205490565b6040519081526020016101e7565b3480156102c457600080fd5b50466102aa565b3480156102d757600080fd5b506102eb6102e6366004612c12565b610846565b005b3480156102f957600080fd5b506102437f8f9f4b63fb27ea36c52c6e650320201c8f2c6d7c1dfa95f40f5d5da52392016881565b34801561032d57600080fd5b50600454610210906001600160a01b031681565b34801561034d57600080fd5b50600354610210906001600160a01b031681565b34801561036d57600080fd5b506102aa60095481565b34801561038357600080fd5b50600054600160a01b900460ff1660405190151581526020016101e7565b3480156103ad57600080fd5b506102eb6103bc366004612c12565b610997565b3480156103cd57600080fd5b506102eb6103dc366004612c12565b610a8b565b3480156103ed57600080fd5b506102eb6103fc366004612c2f565b610bdd565b34801561040d57600080fd5b506102eb61041c366004612c5b565b610c39565b34801561042d57600080fd5b506102eb610c98565b34801561044257600080fd5b506102eb610451366004612c96565b610d5b565b34801561046257600080fd5b506000546001600160a01b0316610210565b34801561048057600080fd5b506102eb61048f366004612c96565b610ec2565b3480156104a057600080fd5b50600854610210906001600160a01b031681565b3480156104c057600080fd5b506102eb6104cf366004612caf565b61101f565b3480156104e057600080fd5b50600754610210906001600160a01b031681565b34801561050057600080fd5b506102aa600b5481565b34801561051657600080fd5b506102eb610525366004612d12565b611078565b34801561053657600080fd5b506102eb610545366004612c96565b6110e0565b34801561055657600080fd5b506102aa600a5481565b34801561056c57600080fd5b506105c161057b366004612c2f565b60066020908152600092835260408084209091529082529020805460018201546002830154600384015460049094015492936001600160a01b0392831693929091169185565b604080519586526001600160a01b03948516602087015292909316918401919091526060830152608082015260a0016101e7565b34801561060157600080fd5b506102eb610610366004612c12565b61118e565b34801561062157600080fd5b506102aa60015481565b60408051606081810183526001600160a01b0388166000818152600260209081529085902054845283015291810186905261066987828787876112de565b6106e05760405162461bcd60e51b815260206004820152603d60248201527f4e4d5423657865637574654d6574615472616e73616374696f6e3a205349474e60448201527f45525f414e445f5349474e41545552455f444f5f4e4f545f4d4154434800000060648201526084015b60405180910390fd5b6001600160a01b038716600090815260026020526040902054610704906001612d5d565b6001600160a01b0388166000908152600260205260409081902091909155517f5845892132946850460bff5a0083f71031bc5bf9aadcd40f1de79423eac9b10b9061075490899033908a90612d70565b60405180910390a1600080306001600160a01b0316888a60405160200161077c929190612da5565b60408051601f198184030181529082905261079691612ddc565b6000604051808303816000865af19150503d80600081146107d3576040519150601f19603f3d011682016040523d82523d6000602084013e6107d8565b606091505b50915091508161083a5760405162461bcd60e51b815260206004820152602760248201527f4e4d5423657865637574654d6574615472616e73616374696f6e3a2043414c4c60448201526617d1905253115160ca1b60648201526084016106d7565b98975050505050505050565b61084e6113c0565b6001600160a01b03166108696000546001600160a01b031690565b6001600160a01b0316146108bf5760405162461bcd60e51b815260206004820181905260248201527f4f776e61626c653a2063616c6c6572206973206e6f7420746865206f776e657260448201526064016106d7565b6001600160a01b03811661093b5760405162461bcd60e51b815260206004820152603660248201527f4d61726b6574706c61636556322373657446656573436f6c6c6563746f723a2060448201527f494e56414c49445f464545535f434f4c4c4543544f520000000000000000000060648201526084016106d7565b6007546040516001600160a01b038084169216907f58283f7e46512bbcb30558fa508283f23fac7be18fb20bfdf6d4bbf83c529d5390600090a3600780546001600160a01b0319166001600160a01b0392909216919091179055565b61099f6113c0565b6001600160a01b03166109ba6000546001600160a01b031690565b6001600160a01b031614610a105760405162461bcd60e51b815260206004820181905260248201527f4f776e61626c653a2063616c6c6572206973206e6f7420746865206f776e657260448201526064016106d7565b6005546040517feb8646980000000000000000000000000000000000000000000000000000000081526001600160a01b0383811660048301529091169063eb86469890602401600060405180830381600087803b158015610a7057600080fd5b505af1158015610a84573d6000803e3d6000fd5b5050505050565b610a936113c0565b6001600160a01b0316610aae6000546001600160a01b031690565b6001600160a01b031614610b045760405162461bcd60e51b815260206004820181905260248201527f4f776e61626c653a2063616c6c6572206973206e6f7420746865206f776e657260448201526064016106d7565b6001600160a01b0381163b610b815760405162461bcd60e51b815260206004820152603c60248201527f4d61726b6574706c616365563223736574526f79616c746965734d616e61676560448201527f723a20494e56414c49445f524f59414c544945535f4d414e414745520000000060648201526084016106d7565b6008546040516001600160a01b038084169216907f7af757e60ce7c97cfab72d633ae4d05ffe9be9afbba020aa2f484a600db8df6d90600090a3600880546001600160a01b0319166001600160a01b0392909216919091179055565b600054600160a01b900460ff1615610c2a5760405162461bcd60e51b815260206004820152601060248201526f14185d5cd8589b194e881c185d5cd95960821b60448201526064016106d7565b610c34828261141c565b505050565b600054600160a01b900460ff1615610c865760405162461bcd60e51b815260206004820152601060248201526f14185d5cd8589b194e881c185d5cd95960821b60448201526064016106d7565b610c9284848484611678565b50505050565b610ca06113c0565b6001600160a01b0316610cbb6000546001600160a01b031690565b6001600160a01b031614610d115760405162461bcd60e51b815260206004820181905260248201527f4f776e61626c653a2063616c6c6572206973206e6f7420746865206f776e657260448201526064016106d7565b600080546040516001600160a01b03909116907f8be0079c531659141344cd1fd0a4f28419497f9722a3daafe3b4186f6b6457e0908390a3600080546001600160a01b0319169055565b610d636113c0565b6001600160a01b0316610d7e6000546001600160a01b031690565b6001600160a01b031614610dd45760405162461bcd60e51b815260206004820181905260248201527f4f776e61626c653a2063616c6c6572206973206e6f7420746865206f776e657260448201526064016106d7565b6009819055600a54620f424090610deb9083612d5d565b10610e845760405162461bcd60e51b815260206004820152605460248201527f4d61726b6574706c61636556322373657446656573436f6c6c6563746f72437560448201527f745065724d696c6c696f6e3a20544f54414c5f464545535f4d5553545f42455f60648201527f4245545745454e5f305f414e445f393939393939000000000000000000000000608482015260a4016106d7565b7fd33ed052f0041ea5512df480eb51801acb8fec4a7e89c6086fdd5caaa650981e600954604051610eb791815260200190565b60405180910390a150565b610eca6113c0565b6001600160a01b0316610ee56000546001600160a01b031690565b6001600160a01b031614610f3b5760405162461bcd60e51b815260206004820181905260248201527f4f776e61626c653a2063616c6c6572206973206e6f7420746865206f776e657260448201526064016106d7565b600a819055600954620f424090610f53908390612d5d565b10610fec5760405162461bcd60e51b815260206004820152605060248201527f4d61726b6574706c616365563223736574526f79616c7469657343757450657260448201527f4d696c6c696f6e3a20544f54414c5f464545535f4d5553545f42455f4245545760648201527f45454e5f305f414e445f39393939393900000000000000000000000000000000608482015260a4016106d7565b7fba54fecf3e91476de2d7bd3248ee80a9060cddc82a6ac0933b232e051eafdaf3600a54604051610eb791815260200190565b600054600160a01b900460ff161561106c5760405162461bcd60e51b815260206004820152601060248201526f14185d5cd8589b194e881c185d5cd95960821b60448201526064016106d7565b610a8484848484611c8e565b600054600160a01b900460ff16156110c55760405162461bcd60e51b815260206004820152601060248201526f14185d5cd8589b194e881c185d5cd95960821b60448201526064016106d7565b610c9283838360405180602001604052806000815250611c8e565b6110e86113c0565b6001600160a01b03166111036000546001600160a01b031690565b6001600160a01b0316146111595760405162461bcd60e51b815260206004820181905260248201527f4f776e61626c653a2063616c6c6572206973206e6f7420746865206f776e657260448201526064016106d7565b600b8190556040518181527fe7fa8737293f41b5dfa0d5c3e552860a06275bed7015581b083c7be7003308ba90602001610eb7565b6111966113c0565b6001600160a01b03166111b16000546001600160a01b031690565b6001600160a01b0316146112075760405162461bcd60e51b815260206004820181905260248201527f4f776e61626c653a2063616c6c6572206973206e6f7420746865206f776e657260448201526064016106d7565b6001600160a01b0381166112835760405162461bcd60e51b815260206004820152602660248201527f4f776e61626c653a206e6577206f776e657220697320746865207a65726f206160448201527f646472657373000000000000000000000000000000000000000000000000000060648201526084016106d7565b600080546040516001600160a01b03808516939216917f8be0079c531659141344cd1fd0a4f28419497f9722a3daafe3b4186f6b6457e091a3600080546001600160a01b0319166001600160a01b0392909216919091179055565b60006001600160a01b0386166113365760405162461bcd60e51b815260206004820152601a60248201527f4e4d54237665726966793a20494e56414c49445f5349474e455200000000000060448201526064016106d7565b600161134961134487612848565b6128c5565b6040805160008152602081018083529290925260ff851690820152606081018690526080810185905260a0016020604051602081039080840390855afa158015611397573d6000803e3d6000fd5b505050602060405103516001600160a01b0316866001600160a01b031614905095945050505050565b600030330361141657600080368080601f0160208091040260200160405190810160405280939291908181526020018383808284376000920191909152505050503601516001600160a01b031691506114199050565b50335b90565b6040805160a08101825260008082526020820181905291810182905260608101829052608081018290529061144f6113c0565b6001600160a01b0380861660009081526006602090815260408083208884528252808320815160a0810183528154808252600183015487169482019490945260028201549095169185019190915260038101546060850152600401546080840152929350909190036115295760405162461bcd60e51b815260206004820152602960248201527f4d61726b6574706c6163655632235f63616e63656c4f726465723a20494e564160448201527f4c49445f4f52444552000000000000000000000000000000000000000000000060648201526084016106d7565b816001600160a01b031681602001516001600160a01b0316148061155a57506000546001600160a01b038381169116145b6115cc5760405162461bcd60e51b815260206004820152602d60248201527f4d61726b6574706c6163655632235f63616e63656c4f726465723a20554e415560448201527f54484f52495a45445f555345520000000000000000000000000000000000000060648201526084016106d7565b80516020808301516040808501516001600160a01b038a81166000908152600686528381208b825286528381208181556001810180546001600160a01b0319908116909155600282018054909116905560038101829055600401558251868152818316958101959095529293909284169189917f0325426328de5b91ae4ad8462ad4076de4bcaf4551e81556185cacde5a425c6b910160405180910390a3509193505050505b92915050565b6116818461290b565b600061168b6113c0565b6040516331a9108f60e11b81526004810186905290915085906000906001600160a01b03831690636352211e90602401602060405180830381865afa1580156116d8573d6000803e3d6000fd5b505050506040513d601f19601f820116820180604052508101906116fc9190612df8565b9050806001600160a01b0316836001600160a01b0316146117855760405162461bcd60e51b815260206004820152602b60248201527f4d61726b6574706c6163655632235f6372656174654f726465723a204e4f545f60448201527f41535345545f4f574e455200000000000000000000000000000000000000000060648201526084016106d7565b6040517f081812fc0000000000000000000000000000000000000000000000000000000081526004810187905230906001600160a01b0384169063081812fc90602401602060405180830381865afa1580156117e5573d6000803e3d6000fd5b505050506040513d601f19601f820116820180604052508101906118099190612df8565b6001600160a01b031614806118a257506040517fe985e9c50000000000000000000000000000000000000000000000000000000081526001600160a01b03828116600483015230602483015283169063e985e9c590604401602060405180830381865afa15801561187e573d6000803e3d6000fd5b505050506040513d601f19601f820116820180604052508101906118a29190612e15565b6119145760405162461bcd60e51b815260206004820152603260248201527f54686520636f6e7472616374206973206e6f7420617574686f72697a6564207460448201527f6f206d616e61676520746865206173736574000000000000000000000000000060648201526084016106d7565b600085116119645760405162461bcd60e51b815260206004820152601d60248201527f50726963652073686f756c6420626520626967676572207468616e203000000060448201526064016106d7565b61196f42603c612d5d565b84116119e35760405162461bcd60e51b815260206004820152602e60248201527f4d61726b6574706c6163655632235f6372656174654f726465723a20494e564160448201527f4c49445f455850495245535f415400000000000000000000000000000000000060648201526084016106d7565b604080514260208201526bffffffffffffffffffffffff19606084811b821693830193909352605482018990529189901b90911660748201526088810186905260009060a8016040516020818303038152906040528051906020012090506040518060a00160405280828152602001836001600160a01b03168152602001896001600160a01b0316815260200187815260200186815250600660008a6001600160a01b03166001600160a01b0316815260200190815260200160002060008981526020019081526020016000206000820151816000015560208201518160010160006101000a8154816001600160a01b0302191690836001600160a01b0316021790555060408201518160020160006101000a8154816001600160a01b0302191690836001600160a01b0316021790555060608201518160030155608082015181600401559050506000600b541115611c2d57600354600754600b546040516323b872dd60e01b81526001600160a01b038881166004830152928316602482015260448101919091529116906323b872dd906064016020604051808303816000875af1158015611b97573d6000803e3d6000fd5b505050506040513d601f19601f82011682018060405250810190611bbb9190612e15565b611c2d5760405162461bcd60e51b815260206004820152602b60248201527f4d61726b6574706c6163655632235f6372656174654f726465723a205452414e60448201527f534645525f4641494c454400000000000000000000000000000000000000000060648201526084016106d7565b604080518281526001600160a01b038a81166020830152918101889052606081018790529083169088907f84c66c3f7ba4b390e20e8e8233e2a516f3ce34a72749e4f12bd010dfba2380399060800160405180910390a35050505050505050565b6040805160a081018252600080825260208201819052918101829052606081018290526080810191909152611cc28561290b565b6000611ccc6113c0565b6040516301ffc9a760e01b8152638f9f4b6360e01b600482015290915086906001600160a01b038216906301ffc9a790602401602060405180830381865afa158015611d1c573d6000803e3d6000fd5b505050506040513d601f19601f82011682018060405250810190611d409190612e15565b15611e2657604051638f9f4b6360e01b81526001600160a01b03821690638f9f4b6390611d739089908890600401612e37565b602060405180830381865afa158015611d90573d6000803e3d6000fd5b505050506040513d601f19601f82011682018060405250810190611db49190612e15565b611e265760405162461bcd60e51b815260206004820152603060248201527f4d61726b6574706c6163655632235f657865637574654f726465723a20494e5660448201527f414c49445f46494e4745525052494e540000000000000000000000000000000060648201526084016106d7565b6001600160a01b0380881660009081526006602090815260408083208a84528252808320815160a08101835281548082526001830154871694820194909452600282015490951691850191909152600381015460608501526004015460808401529003611efb5760405162461bcd60e51b815260206004820152602f60248201527f4d61726b6574706c6163655632235f657865637574654f726465723a2041535360448201527f45545f4e4f545f464f525f53414c45000000000000000000000000000000000060648201526084016106d7565b60208101516001600160a01b0316611f7b5760405162461bcd60e51b815260206004820152602b60248201527f4d61726b6574706c6163655632235f657865637574654f726465723a20494e5660448201527f414c49445f53454c4c455200000000000000000000000000000000000000000060648201526084016106d7565b826001600160a01b031681602001516001600160a01b0316036120065760405162461bcd60e51b815260206004820152602d60248201527f4d61726b6574706c6163655632235f657865637574654f726465723a2053454e60448201527f4445525f49535f53454c4c45520000000000000000000000000000000000000060648201526084016106d7565b8581606001511461207f5760405162461bcd60e51b815260206004820152602b60248201527f4d61726b6574706c6163655632235f657865637574654f726465723a2050524960448201527f43455f4d49534d4154434800000000000000000000000000000000000000000060648201526084016106d7565b806080015142106120f85760405162461bcd60e51b815260206004820152602a60248201527f4d61726b6574706c6163655632235f657865637574654f726465723a204f524460448201527f45525f455850495245440000000000000000000000000000000000000000000060648201526084016106d7565b6040516331a9108f60e11b8152600481018890526001600160a01b03831690636352211e90602401602060405180830381865afa15801561213d573d6000803e3d6000fd5b505050506040513d601f19601f820116820180604052508101906121619190612df8565b6001600160a01b031681602001516001600160a01b0316146121eb5760405162461bcd60e51b815260206004820152602d60248201527f4d61726b6574706c6163655632235f657865637574654f726465723a2053454c60448201527f4c45525f4e4f545f4f574e45520000000000000000000000000000000000000060648201526084016106d7565b6001600160a01b0388811660009081526006602090815260408083208b84529091528082208281556001810180546001600160a01b03199081169091556002820180549091169055600381018390556004908101839055805491517f3b52c8100000000000000000000000000000000000000000000000000000000081529081018a905291928392839283921690633b52c81090602401602060405180830381865afa15801561229f573d6000803e3d6000fd5b505050506040513d601f19601f820116820180604052508101906122c39190612e58565b600a549091501561251557620f4240600a54826122e09190612e71565b6122ea9190612e88565b6008546040516001600160a01b038981166024830152604482018f9052929550600092839216907fcca1d0b7000000000000000000000000000000000000000000000000000000009060640160408051601f198184030181529181526020820180517bffffffffffffffffffffffffffffffffffffffffffffffffffffffff167fffffffff000000000000000000000000000000000000000000000000000000009094169390931790925290516123a19190612ddc565b600060405180830381855afa9150503d80600081146123dc576040519150601f19603f3d011682016040523d82523d6000602084013e6123e1565b606091505b5091509150811561251257808060200190518101906124009190612df8565b93506001600160a01b03841615612512576003546040516323b872dd60e01b81526001600160a01b038b81166004830152868116602483015260448201889052909116906323b872dd906064016020604051808303816000875af115801561246c573d6000803e3d6000fd5b505050506040513d601f19601f820116820180604052508101906124909190612e15565b6125125760405162461bcd60e51b815260206004820152604760248201527f4d61726b6574706c6163655632235f657865637574654f726465723a2054524160448201527f4e534645525f464545535f544f5f524f59414c544945535f524543454956455260648201526617d1905253115160ca1b608482015260a4016106d7565b50505b620f4240600954826125279190612e71565b6125319190612e88565b935083831580159061254a57506001600160a01b038316155b1561255c576125598482612d5d565b90505b801561267b576003546007546040516323b872dd60e01b81526001600160a01b038b811660048301529182166024820152604481018490529116906323b872dd906064016020604051808303816000875af11580156125bf573d6000803e3d6000fd5b505050506040513d601f19601f820116820180604052508101906125e39190612e15565b61267b5760405162461bcd60e51b815260206004820152604360248201527f4d61726b6574706c6163655632235f657865637574654f726465723a2054524160448201527f4e534645525f464545535f544f5f464545535f434f4c4c4543544f525f46414960648201527f4c45440000000000000000000000000000000000000000000000000000000000608482015260a4016106d7565b5060035460208601516001600160a01b03909116906323b872dd908990876126a38887612eaa565b6126ad9190612eaa565b6040517fffffffff0000000000000000000000000000000000000000000000000000000060e086901b1681526001600160a01b03938416600482015292909116602483015260448201526064016020604051808303816000875af1158015612719573d6000803e3d6000fd5b505050506040513d601f19601f8201168201806040525081019061273d9190612e15565b6127af5760405162461bcd60e51b815260206004820152603d60248201527f4d61726b6574706c6163655632235f657865637574654f726465723a2054524160448201527f4e534645525f414d4f554e545f544f5f53454c4c45525f4641494c454400000060648201526084016106d7565b60208501516040517f42842e0e0000000000000000000000000000000000000000000000000000000081526001600160a01b0391821660048201528882166024820152604481018d9052908716906342842e0e90606401600060405180830381600087803b15801561282057600080fd5b505af1158015612834573d6000803e3d6000fd5b50969e9d5050505050505050505050505050565b6000604051806080016040528060438152602001612ebe60439139805160209182012083518483015160408087015180519086012090516128a8950193845260208401929092526001600160a01b03166040830152606082015260800190565b604051602081830303815290604052805190602001209050919050565b6001546040517f190100000000000000000000000000000000000000000000000000000000000060208201526022810191909152604281018290526000906062016128a8565b6001600160a01b0381163b6129885760405162461bcd60e51b815260206004820152603160248201527f4d61726b6574706c6163655632235f726571756972654552433732313a20494e60448201527f56414c49445f4e46545f4144445245535300000000000000000000000000000060648201526084016106d7565b6040516301ffc9a760e01b81526380ac58cd60e01b600482015281906001600160a01b038216906301ffc9a790602401602060405180830381865afa1580156129d5573d6000803e3d6000fd5b505050506040513d601f19601f820116820180604052508101906129f99190612e15565b612a6b5760405162461bcd60e51b815260206004820152603b60248201527f4d61726b6574706c6163655632235f726571756972654552433732313a20494e60448201527f56414c49445f4552433732315f494d504c454d454e544154494f4e000000000060648201526084016106d7565b5050565b6001600160a01b0381168114612a8457600080fd5b50565b634e487b7160e01b600052604160045260246000fd5b600082601f830112612aae57600080fd5b813567ffffffffffffffff80821115612ac957612ac9612a87565b604051601f8301601f19908116603f01168101908282118183101715612af157612af1612a87565b81604052838152866020858801011115612b0a57600080fd5b836020870160208301376000602085830101528094505050505092915050565b600080600080600060a08688031215612b4257600080fd5b8535612b4d81612a6f565b9450602086013567ffffffffffffffff811115612b6957600080fd5b612b7588828901612a9d565b9450506040860135925060608601359150608086013560ff81168114612b9a57600080fd5b809150509295509295909350565b60005b83811015612bc3578181015183820152602001612bab565b50506000910152565b60008151808452612be4816020860160208601612ba8565b601f01601f19169290920160200192915050565b602081526000612c0b6020830184612bcc565b9392505050565b600060208284031215612c2457600080fd5b8135612c0b81612a6f565b60008060408385031215612c4257600080fd5b8235612c4d81612a6f565b946020939093013593505050565b60008060008060808587031215612c7157600080fd5b8435612c7c81612a6f565b966020860135965060408601359560600135945092505050565b600060208284031215612ca857600080fd5b5035919050565b60008060008060808587031215612cc557600080fd5b8435612cd081612a6f565b93506020850135925060408501359150606085013567ffffffffffffffff811115612cfa57600080fd5b612d0687828801612a9d565b91505092959194509250565b600080600060608486031215612d2757600080fd5b8335612d3281612a6f565b95602085013595506040909401359392505050565b634e487b7160e01b600052601160045260246000fd5b8082018082111561167257611672612d47565b60006001600160a01b03808616835280851660208401525060606040830152612d9c6060830184612bcc565b95945050505050565b60008351612db7818460208801612ba8565b60609390931b6bffffffffffffffffffffffff19169190920190815260140192915050565b60008251612dee818460208701612ba8565b9190910192915050565b600060208284031215612e0a57600080fd5b8151612c0b81612a6f565b600060208284031215612e2757600080fd5b81518015158114612c0b57600080fd5b828152604060208201526000612e506040830184612bcc565b949350505050565b600060208284031215612e6a57600080fd5b5051919050565b808202811582820484141761167257611672612d47565b600082612ea557634e487b7160e01b600052601260045260246000fd5b500490565b8181038181111561167257611672612d4756fe4d6574615472616e73616374696f6e2875696e74323536206e6f6e63652c616464726573732066726f6d2c62797465732066756e6374696f6e5369676e617475726529a2646970667358221220c04253e03972560586f0cd2ac89eb615c2fe33acf4daca3b5b90723c9ec3cee864736f6c634300081800334d61726b6574706c616365563223636f6e7374727563746f723a20494e56414c454950373132446f6d61696e28737472696e67206e616d652c737472696e672076657273696f6e2c6164647265737320766572696679696e67436f6e74726163742c627974657333322073616c74294f776e61626c653a2063616c6c6572206973206e6f7420746865206f776e65728be0079c531659141344cd1fd0a4f28419497f9722a3daafe3b4186f6b6457e0",
  "linkReferences": {},
  "deployedLinkReferences": {}
}