{
  "_format": "hh-sol-artifact-1",
  "contractName": "VerifiableERC721Test",
  "sourceName": "contracts/mocks/VerifiableERC721Test.sol",
  "abi": [
    {
      "inputs": [
        {
          "internalType": "string",
          "name": "name",
          "type": "string"
        },
        {
          "internalType": "string",
          "name": "symbol",
          "type": "string"
        }
      ],
      "stateMutability": "nonpayable",
      "type": "constructor"
    },
    {
      "anonymous": false,
      "inputs": [
        {
          "indexed": true,
          "internalType": "address",
          "name": "owner",
          "type": "address"
        },
        {
          "indexed": true,
          "internalType": "address",
          "name": "approved",
          "type": "address"
        },
        {
          "indexed": true,
          "internalType": "uint256",
          "name": "tokenId",
          "type": "uint256"
        }
      ],
      "name": "Approval",
      "type": "event"
    },
    {
      "anonymous": false,
      "inputs": [
        {
          "indexed": true,
          "internalType": "address",
          "name": "owner",
          "type": "address"
        },
        {
          "indexed": true,
          "internalType": "address",
          "name": "operator",
          "type": "address"
        },
        {
          "indexed": false,
          "internalType": "bool",
          "name": "approved",
          "type": "bool"
        }
      ],
      "name": "ApprovalForAll",
      "type": "event"
    },
    {
      "anonymous": false,
      "inputs": [
        {
          "indexed": true,
          "internalType": "address",
          "name": "from",
          "type": "address"
        },
        {
          "indexed": true,
          "internalType": "address",
          "name": "to",
          "type": "address"
        },
        {
          "indexed": true,
          "internalType": "uint256",
          "name": "tokenId",
          "type": "uint256"
        }
      ],
      "name": "Transfer",
      "type": "event"
    },
    {
      "inputs": [
        {
          "internalType": "address",
          "name": "to",
          "type": "address"
        },
        {
          "internalType": "uint256",
          "name": "tokenId",
          "type": "uint256"
        }
      ],
      "name": "approve",
      "outputs": [],
      "stateMutability": "nonpayable",
      "type": "function"
    },
    {
      "inputs": [
        {
          "internalType": "address",
          "name": "owner",
          "type": "address"
        }
      ],
      "name": "balanceOf",
      "outputs": [
        {
          "internalType": "uint256",
          "name": "",
          "type": "uint256"
        }
      ],
      "stateMutability": "view",
      "type": "function"
    },
    {
      "inputs": [
        {
          "internalType": "uint256",
          "name": "_tokenId",
          "type": "uint256"
        }
      ],
      "name": "burn",
      "outputs": [],
      "stateMutability": "nonpayable",
      "type": "function"
    },
    {
      "inputs": [
        {
          "internalType": "uint256",
          "name": "tokenId",
          "type": "uint256"
        }
      ],
      "name": "getApproved",
      "outputs": [
        {
          "internalType": "address",
          "name": "",
          "type": "address"
        }
      ],
      "stateMutability": "view",
      "type": "function"
    },
    {
      "inputs": [
        {
          "internalType": "uint256",
          "name": "",
          "type": "uint256"
        }
      ],
      "name": "getFingerprint",
      "outputs": [
        {
          "internalType": "bytes32",
          "name": "",
          "type": "bytes32"
        }
      ],
      "stateMutability": "pure",
      "type": "function"
    },
    {
      "inputs": [
        {
          "internalType": "address",
          "name": "owner",
          "type": "address"
        },
        {
          "internalType": "address",
          "name": "operator",
          "type": "address"
        }
      ],
      "name": "isApprovedForAll",
      "outputs": [
        {
          "internalType": "bool",
          "name": "",
          "type": "bool"
        }
      ],
      "stateMutability": "view",
      "type": "function"
    },
    {
      "inputs": [
        {
          "internalType": "address",
          "name": "_to",
          "type": "address"
        },
        {
          "internalType": "uint256",
          "name": "_tokenId",
          "type": "uint256"
        }
      ],
      "name": "mint",
      "outputs": [],
      "stateMutability": "nonpayable",
      "type": "function"
    },
    {
      "inputs": [],
      "name": "name",
      "outputs": [
        {
          "internalType": "string",
          "name": "",
          "type": "string"
        }
      ],
      "stateMutability": "view",
      "type": "function"
    },
    {
      "inputs": [
        {
          "internalType": "uint256",
          "name": "tokenId",
          "type": "uint256"
        }
      ],
      "name": "ownerOf",
      "outputs": [
        {
          "internalType": "address",
          "name": "",
          "type": "address"
        }
      ],
      "stateMutability": "view",
      "type": "function"
    },
    {
      "inputs": [
        {
          "internalType": "address",
          "name": "from",
          "type": "address"
        },
        {
          "internalType": "address",
          "name": "to",
          "type": "address"
        },
        {
          "internalType": "uint256",
          "name": "tokenId",
          "type": "uint256"
        }
      ],
      "name": "safeTransferFrom",
      "outputs": [],
      "stateMutability": "nonpayable",
      "type": "function"
    },
    {
      "inputs": [
        {
          "internalType": "address",
          "name": "from",
          "type": "address"
        },
        {
          "internalType": "address",
          "name": "to",
          "type": "address"
        },
        {
          "internalType": "uint256",
          "name": "tokenId",
          "type": "uint256"
        },
        {
          "internalType": "bytes",
          "name": "data",
          "type": "bytes"
        }
      ],
      "name": "safeTransferFrom",
      "outputs": [],
      "stateMutability": "nonpayable",
      "type": "function"
    },
    {
      "inputs": [
        {
          "internalType": "address",
          "name": "operator",
          "type": "address"
        },
        {
          "internalType": "bool",
          "name": "approved",
          "type": "bool"
        }
      ],
      "name": "setApprovalForAll",
      "outputs": [],
      "stateMutability": "nonpayable",
      "type": "function"
    },
    {
      "inputs": [
        {
          "internalType": "bytes4",
          "name": "_interfaceId",
          "type": "bytes4"
        }
      ],
      "name": "supportsInterface",
      "outputs": [
        {
          "internalType": "bool",
          "name": "",
          "type": "bool"
        }
      ],
      "stateMutability": "view",
      "type": "function"
    },
    {
      "inputs": [],
      "name": "symbol",
      "outputs": [
        {
          "internalType": "string",
          "name": "",
          "type": "string"
        }
      ],
      "stateMutability": "view",
      "type": "function"
    },
    {
      "inputs": [
        {
          "internalType": "uint256",
          "name": "tokenId",
          "type": "uint256"
        }
      ],
      "name": "tokenURI",
      "outputs": [
        {
          "internalType": "string",
          "name": "",
          "type": "string"
        }
      ],
      "stateMutability": "view",
      "type": "function"
    },
    {
      "inputs": [
        {
          "internalType": "address",
          "name": "from",
          "type": "address"
        },
        {
          "internalType": "address",
          "name": "to",
          "type": "address"
        },
        {
          "internalType": "uint256",
          "name": "tokenId",
          "type": "uint256"
        }
      ],
      "name": "transferFrom",
      "outputs": [],
      "stateMutability": "nonpayable",
      "type": "function"
    },
    {
      "inputs": [
        {
          "internalType": "uint256",
          "name": "assetId",
          "type": "uint256"
        },
        {
          "internalType": "bytes",
          "name": "fingerprint",
          "type": "bytes"
        }
      ],
      "name": "verifyFingerprint",
      "outputs": [
        {
          "internalType": "bool",
          "name": "",
          "type": "bool"
        }
      ],
      "stateMutability": "pure",
      "type": "function"
    }
  ],
  "bytecode": "0x60806040523480156200001157600080fd5b50604051620019d6380380620019d683398101604081905262000034916200012a565b81818181600062000046838262000225565b50600162000055828262000225565b50505050505050620002f1565b634e487b7160e01b600052604160045260246000fd5b600082601f8301126200008a57600080fd5b81516001600160401b0380821115620000a757620000a762000062565b604051601f8301601f19908116603f01168101908282118183101715620000d257620000d262000062565b8160405283815260209250866020858801011115620000f057600080fd5b600091505b83821015620001145785820183015181830184015290820190620000f5565b6000602085830101528094505050505092915050565b600080604083850312156200013e57600080fd5b82516001600160401b03808211156200015657600080fd5b620001648683870162000078565b935060208501519150808211156200017b57600080fd5b506200018a8582860162000078565b9150509250929050565b600181811c90821680620001a957607f821691505b602082108103620001ca57634e487b7160e01b600052602260045260246000fd5b50919050565b601f82111562000220576000816000526020600020601f850160051c81016020861015620001fb5750805b601f850160051c820191505b818110156200021c5782815560010162000207565b5050505b505050565b81516001600160401b0381111562000241576200024162000062565b620002598162000252845462000194565b84620001d0565b602080601f831160018114620002915760008415620002785750858301515b600019600386901b1c1916600185901b1785556200021c565b600085815260208120601f198616915b82811015620002c257888601518255948401946001909101908401620002a1565b5085821015620002e15787850151600019600388901b60f8161c191681555b5050505050600190811b01905550565b6116d580620003016000396000f3fe608060405234801561001057600080fd5b506004361061011b5760003560e01c806342966c68116100b257806395d89b4111610081578063b88d4fde11610066578063b88d4fde14610260578063c87b56dd14610273578063e985e9c51461028657600080fd5b806395d89b4114610245578063a22cb4651461024d57600080fd5b806342966c68146101f95780636352211e1461020c57806370a082311461021f5780638f9f4b631461023257600080fd5b8063159a6475116100ee578063159a64751461019d57806323b872dd146101c057806340c10f19146101d357806342842e0e146101e657600080fd5b806301ffc9a71461012057806306fdde0314610148578063081812fc1461015d578063095ea7b314610188575b600080fd5b61013361012e3660046112ab565b6102c2565b60405190151581526020015b60405180910390f35b610150610307565b60405161013f9190611318565b61017061016b36600461132b565b610399565b6040516001600160a01b03909116815260200161013f565b61019b610196366004611360565b6103c0565b005b6101b26101ab36600461132b565b5061123490565b60405190815260200161013f565b61019b6101ce36600461138a565b6104f6565b61019b6101e1366004611360565b61056d565b61019b6101f436600461138a565b61057b565b61019b61020736600461132b565b610596565b61017061021a36600461132b565b6105a2565b6101b261022d3660046113c6565b610607565b610133610240366004611484565b6106a1565b6101506106b7565b61019b61025b3660046114cb565b6106c6565b61019b61026e366004611507565b6106d1565b61015061028136600461132b565b61074f565b61013361029436600461156f565b6001600160a01b03918216600090815260056020908152604080832093909416825291909152205460ff1690565b60006102cd826107c3565b8061030157506001600160e01b031982167f8f9f4b6300000000000000000000000000000000000000000000000000000000145b92915050565b606060008054610316906115a2565b80601f0160208091040260200160405190810160405280929190818152602001828054610342906115a2565b801561038f5780601f106103645761010080835404028352916020019161038f565b820191906000526020600020905b81548152906001019060200180831161037257829003601f168201915b5050505050905090565b60006103a48261085e565b506000908152600460205260409020546001600160a01b031690565b60006103cb826105a2565b9050806001600160a01b0316836001600160a01b0316036104595760405162461bcd60e51b815260206004820152602160248201527f4552433732313a20617070726f76616c20746f2063757272656e74206f776e6560448201527f720000000000000000000000000000000000000000000000000000000000000060648201526084015b60405180910390fd5b336001600160a01b038216148061047557506104758133610294565b6104e75760405162461bcd60e51b815260206004820152603d60248201527f4552433732313a20617070726f76652063616c6c6572206973206e6f7420746f60448201527f6b656e206f776e6572206f7220617070726f76656420666f7220616c6c0000006064820152608401610450565b6104f183836108c2565b505050565b610500338261093d565b6105625760405162461bcd60e51b815260206004820152602d60248201527f4552433732313a2063616c6c6572206973206e6f7420746f6b656e206f776e6560448201526c1c881bdc88185c1c1c9bdd9959609a1b6064820152608401610450565b6104f18383836109bc565b6105778282610bc2565b5050565b6104f1838383604051806020016040528060008152506106d1565b61059f81610d5a565b50565b6000818152600260205260408120546001600160a01b0316806103015760405162461bcd60e51b815260206004820152601860248201527f4552433732313a20696e76616c696420746f6b656e20494400000000000000006044820152606401610450565b60006001600160a01b0382166106855760405162461bcd60e51b815260206004820152602960248201527f4552433732313a2061646472657373207a65726f206973206e6f74206120766160448201527f6c6964206f776e657200000000000000000000000000000000000000000000006064820152608401610450565b506001600160a01b031660009081526003602052604090205490565b60006106ac82610dfc565b611234149392505050565b606060018054610316906115a2565b610577338383610e65565b6106db338361093d565b61073d5760405162461bcd60e51b815260206004820152602d60248201527f4552433732313a2063616c6c6572206973206e6f7420746f6b656e206f776e6560448201526c1c881bdc88185c1c1c9bdd9959609a1b6064820152608401610450565b61074984848484610f33565b50505050565b606061075a8261085e565b600061077160408051602081019091526000815290565b9050600081511161079157604051806020016040528060008152506107bc565b8061079b84610fbc565b6040516020016107ac9291906115dc565b6040516020818303038152906040525b9392505050565b60006001600160e01b031982167f80ac58cd00000000000000000000000000000000000000000000000000000000148061082657506001600160e01b031982167f5b5e139f00000000000000000000000000000000000000000000000000000000145b8061030157507f01ffc9a7000000000000000000000000000000000000000000000000000000006001600160e01b0319831614610301565b6000818152600260205260409020546001600160a01b031661059f5760405162461bcd60e51b815260206004820152601860248201527f4552433732313a20696e76616c696420746f6b656e20494400000000000000006044820152606401610450565b6000818152600460205260409020805473ffffffffffffffffffffffffffffffffffffffff19166001600160a01b0384169081179091558190610904826105a2565b6001600160a01b03167f8c5be1e5ebec7d5bd14f71427d1e84f3dd0314c0f7b2291e5b200ac8c7c3b92560405160405180910390a45050565b600080610949836105a2565b9050806001600160a01b0316846001600160a01b0316148061099057506001600160a01b0380821660009081526005602090815260408083209388168352929052205460ff165b806109b45750836001600160a01b03166109a984610399565b6001600160a01b0316145b949350505050565b826001600160a01b03166109cf826105a2565b6001600160a01b031614610a335760405162461bcd60e51b815260206004820152602560248201527f4552433732313a207472616e736665722066726f6d20696e636f72726563742060448201526437bbb732b960d91b6064820152608401610450565b6001600160a01b038216610aae5760405162461bcd60e51b8152602060048201526024808201527f4552433732313a207472616e7366657220746f20746865207a65726f2061646460448201527f72657373000000000000000000000000000000000000000000000000000000006064820152608401610450565b826001600160a01b0316610ac1826105a2565b6001600160a01b031614610b255760405162461bcd60e51b815260206004820152602560248201527f4552433732313a207472616e736665722066726f6d20696e636f72726563742060448201526437bbb732b960d91b6064820152608401610450565b6000818152600460209081526040808320805473ffffffffffffffffffffffffffffffffffffffff199081169091556001600160a01b0387811680865260038552838620805460001901905590871680865283862080546001019055868652600290945282852080549092168417909155905184937fddf252ad1be2c89b69c2b068fc378daa952ba7f163c4a11628f55a4df523b3ef91a4505050565b6001600160a01b038216610c185760405162461bcd60e51b815260206004820181905260248201527f4552433732313a206d696e7420746f20746865207a65726f20616464726573736044820152606401610450565b6000818152600260205260409020546001600160a01b031615610c7d5760405162461bcd60e51b815260206004820152601c60248201527f4552433732313a20746f6b656e20616c7265616479206d696e746564000000006044820152606401610450565b6000818152600260205260409020546001600160a01b031615610ce25760405162461bcd60e51b815260206004820152601c60248201527f4552433732313a20746f6b656e20616c7265616479206d696e746564000000006044820152606401610450565b6001600160a01b0382166000818152600360209081526040808320805460010190558483526002909152808220805473ffffffffffffffffffffffffffffffffffffffff19168417905551839291907fddf252ad1be2c89b69c2b068fc378daa952ba7f163c4a11628f55a4df523b3ef908290a45050565b6000610d65826105a2565b9050610d70826105a2565b6000838152600460209081526040808320805473ffffffffffffffffffffffffffffffffffffffff199081169091556001600160a01b0385168085526003845282852080546000190190558785526002909352818420805490911690555192935084927fddf252ad1be2c89b69c2b068fc378daa952ba7f163c4a11628f55a4df523b3ef908390a45050565b60008060005b8351811015610e5e57610e1681600861160b565b848281518110610e2857610e28611630565b01602001517fff0000000000000000000000000000000000000000000000000000000000000016901c9190911790600101610e02565b5092915050565b816001600160a01b0316836001600160a01b031603610ec65760405162461bcd60e51b815260206004820152601960248201527f4552433732313a20617070726f766520746f2063616c6c6572000000000000006044820152606401610450565b6001600160a01b03838116600081815260056020908152604080832094871680845294825291829020805460ff191686151590811790915591519182527f17307eab39ab6107e8899845ad3d59bd9653f200f220920489ca2b5937696c31910160405180910390a3505050565b610f3e8484846109bc565b610f4a8484848461105c565b6107495760405162461bcd60e51b815260206004820152603260248201527f4552433732313a207472616e7366657220746f206e6f6e20455243373231526560448201527f63656976657220696d706c656d656e74657200000000000000000000000000006064820152608401610450565b60606000610fc9836111b3565b600101905060008167ffffffffffffffff811115610fe957610fe96113e1565b6040519080825280601f01601f191660200182016040528015611013576020820181803683370190505b5090508181016020015b600019017f3031323334353637383961626364656600000000000000000000000000000000600a86061a8153600a850494508461101d57509392505050565b60006001600160a01b0384163b156111a857604051630a85bd0160e11b81526001600160a01b0385169063150b7a02906110a0903390899088908890600401611646565b6020604051808303816000875af19250505080156110db575060408051601f3d908101601f191682019092526110d891810190611682565b60015b61118e573d808015611109576040519150601f19603f3d011682016040523d82523d6000602084013e61110e565b606091505b5080516000036111865760405162461bcd60e51b815260206004820152603260248201527f4552433732313a207472616e7366657220746f206e6f6e20455243373231526560448201527f63656976657220696d706c656d656e74657200000000000000000000000000006064820152608401610450565b805181602001fd5b6001600160e01b031916630a85bd0160e11b1490506109b4565b506001949350505050565b6000807a184f03e93ff9f4daa797ed6e38ed64bf6a1f01000000000000000083106111fc577a184f03e93ff9f4daa797ed6e38ed64bf6a1f010000000000000000830492506040015b6d04ee2d6d415b85acef81000000008310611228576d04ee2d6d415b85acef8100000000830492506020015b662386f26fc10000831061124657662386f26fc10000830492506010015b6305f5e100831061125e576305f5e100830492506008015b612710831061127257612710830492506004015b60648310611284576064830492506002015b600a83106103015760010192915050565b6001600160e01b03198116811461059f57600080fd5b6000602082840312156112bd57600080fd5b81356107bc81611295565b60005b838110156112e35781810151838201526020016112cb565b50506000910152565b600081518084526113048160208601602086016112c8565b601f01601f19169290920160200192915050565b6020815260006107bc60208301846112ec565b60006020828403121561133d57600080fd5b5035919050565b80356001600160a01b038116811461135b57600080fd5b919050565b6000806040838503121561137357600080fd5b61137c83611344565b946020939093013593505050565b60008060006060848603121561139f57600080fd5b6113a884611344565b92506113b660208501611344565b9150604084013590509250925092565b6000602082840312156113d857600080fd5b6107bc82611344565b634e487b7160e01b600052604160045260246000fd5b600082601f83011261140857600080fd5b813567ffffffffffffffff80821115611423576114236113e1565b604051601f8301601f19908116603f0116810190828211818310171561144b5761144b6113e1565b8160405283815286602085880101111561146457600080fd5b836020870160208301376000602085830101528094505050505092915050565b6000806040838503121561149757600080fd5b82359150602083013567ffffffffffffffff8111156114b557600080fd5b6114c1858286016113f7565b9150509250929050565b600080604083850312156114de57600080fd5b6114e783611344565b9150602083013580151581146114fc57600080fd5b809150509250929050565b6000806000806080858703121561151d57600080fd5b61152685611344565b935061153460208601611344565b925060408501359150606085013567ffffffffffffffff81111561155757600080fd5b611563878288016113f7565b91505092959194509250565b6000806040838503121561158257600080fd5b61158b83611344565b915061159960208401611344565b90509250929050565b600181811c908216806115b657607f821691505b6020821081036115d657634e487b7160e01b600052602260045260246000fd5b50919050565b600083516115ee8184602088016112c8565b8351908301906116028183602088016112c8565b01949350505050565b808202811582820484141761030157634e487b7160e01b600052601160045260246000fd5b634e487b7160e01b600052603260045260246000fd5b60006001600160a01b0380871683528086166020840152508360408301526080606083015261167860808301846112ec565b9695505050505050565b60006020828403121561169457600080fd5b81516107bc8161129556fea26469706673582212202f853cb6fcbf914890885cf54fbd068998305cb8abac736f222050335cbc362464736f6c63430008180033",
  "linkReferences": {},
  "deployedLinkReferences": {}
}