{
  "_format": "hh-sol-artifact-1",
  "contractName": "WenUserSafeV1",
  "sourceName": "contracts/WenCore/WenUserSafeV1.sol",
  "abi": [
    {
      "anonymous": false,
      "inputs": [
        {
          "indexed": false,
          "internalType": "address",
          "name": "previousAdmin",
          "type": "address"
        },
        {
          "indexed": false,
          "internalType": "address",
          "name": "newAdmin",
          "type": "address"
        }
      ],
      "name": "AdminChanged",
      "type": "event"
    },
    {
      "anonymous": false,
      "inputs": [
        {
          "indexed": true,
          "internalType": "address",
          "name": "beacon",
          "type": "address"
        }
      ],
      "name": "BeaconUpgraded",
      "type": "event"
    },
    {
      "anonymous": false,
      "inputs": [
        {
          "indexed": false,
          "internalType": "uint8",
          "name": "version",
          "type": "uint8"
        }
      ],
      "name": "Initialized",
      "type": "event"
    },
    {
      "anonymous": false,
      "inputs": [
        {
          "indexed": true,
          "internalType": "address",
          "name": "previousOwner",
          "type": "address"
        },
        {
          "indexed": true,
          "internalType": "address",
          "name": "newOwner",
          "type": "address"
        }
      ],
      "name": "OwnershipTransferred",
      "type": "event"
    },
    {
      "anonymous": false,
      "inputs": [
        {
          "indexed": true,
          "internalType": "address",
          "name": "token",
          "type": "address"
        },
        {
          "indexed": true,
          "internalType": "address",
          "name": "to",
          "type": "address"
        },
        {
          "indexed": false,
          "internalType": "uint256",
          "name": "amount",
          "type": "uint256"
        }
      ],
      "name": "TransferERC20",
      "type": "event"
    },
    {
      "anonymous": false,
      "inputs": [
        {
          "indexed": true,
          "internalType": "address",
          "name": "to",
          "type": "address"
        },
        {
          "indexed": false,
          "internalType": "uint256",
          "name": "amount",
          "type": "uint256"
        }
      ],
      "name": "TransferETH",
      "type": "event"
    },
    {
      "anonymous": false,
      "inputs": [
        {
          "indexed": true,
          "internalType": "address",
          "name": "implementation",
          "type": "address"
        }
      ],
      "name": "Upgraded",
      "type": "event"
    },
    {
      "stateMutability": "payable",
      "type": "fallback"
    },
    {
      "inputs": [
        {
          "internalType": "address",
          "name": "_token",
          "type": "address"
        },
        {
          "internalType": "address",
          "name": "_to",
          "type": "address"
        }
      ],
      "name": "approveToken",
      "outputs": [],
      "stateMutability": "nonpayable",
      "type": "function"
    },
    {
      "inputs": [],
      "name": "initialize",
      "outputs": [],
      "stateMutability": "nonpayable",
      "type": "function"
    },
    {
      "inputs": [],
      "name": "owner",
      "outputs": [
        {
          "internalType": "address",
          "name": "",
          "type": "address"
        }
      ],
      "stateMutability": "view",
      "type": "function"
    },
    {
      "inputs": [],
      "name": "proxiableUUID",
      "outputs": [
        {
          "internalType": "bytes32",
          "name": "",
          "type": "bytes32"
        }
      ],
      "stateMutability": "view",
      "type": "function"
    },
    {
      "inputs": [],
      "name": "renounceOwnership",
      "outputs": [],
      "stateMutability": "nonpayable",
      "type": "function"
    },
    {
      "inputs": [],
      "name": "setInitialInfo",
      "outputs": [],
      "stateMutability": "nonpayable",
      "type": "function"
    },
    {
      "inputs": [
        {
          "internalType": "contract IERC20Upgradeable",
          "name": "_token",
          "type": "address"
        },
        {
          "internalType": "address",
          "name": "_to",
          "type": "address"
        },
        {
          "internalType": "uint256",
          "name": "_amount",
          "type": "uint256"
        }
      ],
      "name": "transferERC20",
      "outputs": [],
      "stateMutability": "nonpayable",
      "type": "function"
    },
    {
      "inputs": [
        {
          "internalType": "address",
          "name": "_to",
          "type": "address"
        },
        {
          "internalType": "uint256",
          "name": "_amount",
          "type": "uint256"
        }
      ],
      "name": "transferETH",
      "outputs": [],
      "stateMutability": "nonpayable",
      "type": "function"
    },
    {
      "inputs": [
        {
          "internalType": "address",
          "name": "newOwner",
          "type": "address"
        }
      ],
      "name": "transferOwnership",
      "outputs": [],
      "stateMutability": "nonpayable",
      "type": "function"
    },
    {
      "inputs": [
        {
          "internalType": "address",
          "name": "newImplementation",
          "type": "address"
        }
      ],
      "name": "upgradeTo",
      "outputs": [],
      "stateMutability": "nonpayable",
      "type": "function"
    },
    {
      "inputs": [
        {
          "internalType": "address",
          "name": "newImplementation",
          "type": "address"
        },
        {
          "internalType": "bytes",
          "name": "data",
          "type": "bytes"
        }
      ],
      "name": "upgradeToAndCall",
      "outputs": [],
      "stateMutability": "payable",
      "type": "function"
    },
    {
      "stateMutability": "payable",
      "type": "receive"
    }
  ],
  "bytecode": "0x60a06040523060805234801561001457600080fd5b5060805161148561004c600039600081816102a30152818161032d01528181610423015281816104a8015261059201526114856000f3fe6080604052600436106100b45760003560e01c80637b1a49091161006e5780639db5dbe41161004b5780639db5dbe4146101aa578063e9d04054146101ca578063f2fde38b146101df57005b80637b1a49091461014d5780638129fc1c1461016d5780638da5cb5b1461018257005b80634f1ef2861161009c5780634f1ef286146100fd57806352d1902d14610110578063715018a61461013857005b806303105b04146100bd5780633659cfe6146100dd57005b366100bb57005b005b3480156100c957600080fd5b506100bb6100d83660046111c4565b6101ff565b3480156100e957600080fd5b506100bb6100f83660046111fd565b610299565b6100bb61010b366004611249565b610419565b34801561011c57600080fd5b50610125610585565b6040519081526020015b60405180910390f35b34801561014457600080fd5b506100bb61064a565b34801561015957600080fd5b506100bb61016836600461130d565b61065e565b34801561017957600080fd5b506100bb61075c565b34801561018e57600080fd5b506033546040516001600160a01b03909116815260200161012f565b3480156101b657600080fd5b506100bb6101c5366004611339565b61087b565b3480156101d657600080fd5b506100bb6108e9565b3480156101eb57600080fd5b506100bb6101fa3660046111fd565b6108f1565b61020761097e565b6040517f095ea7b30000000000000000000000000000000000000000000000000000000081526001600160a01b038281166004830152600019602483015283169063095ea7b3906044016020604051808303816000875af1158015610270573d6000803e3d6000fd5b505050506040513d601f19601f82011682018060405250810190610294919061137a565b505050565b6001600160a01b037f000000000000000000000000000000000000000000000000000000000000000016300361032b5760405162461bcd60e51b815260206004820152602c60248201527f46756e6374696f6e206d7573742062652063616c6c6564207468726f7567682060448201526b19195b1959d85d1958d85b1b60a21b60648201526084015b60405180910390fd5b7f00000000000000000000000000000000000000000000000000000000000000006001600160a01b03166103867f360894a13ba1a3210667c828492db98dca3e2076cc3735a920a3ca505d382bbc546001600160a01b031690565b6001600160a01b0316146103f15760405162461bcd60e51b815260206004820152602c60248201527f46756e6374696f6e206d7573742062652063616c6c6564207468726f7567682060448201526b6163746976652070726f787960a01b6064820152608401610322565b6103fa816109d8565b60408051600080825260208201909252610416918391906109e0565b50565b6001600160a01b037f00000000000000000000000000000000000000000000000000000000000000001630036104a65760405162461bcd60e51b815260206004820152602c60248201527f46756e6374696f6e206d7573742062652063616c6c6564207468726f7567682060448201526b19195b1959d85d1958d85b1b60a21b6064820152608401610322565b7f00000000000000000000000000000000000000000000000000000000000000006001600160a01b03166105017f360894a13ba1a3210667c828492db98dca3e2076cc3735a920a3ca505d382bbc546001600160a01b031690565b6001600160a01b03161461056c5760405162461bcd60e51b815260206004820152602c60248201527f46756e6374696f6e206d7573742062652063616c6c6564207468726f7567682060448201526b6163746976652070726f787960a01b6064820152608401610322565b610575826109d8565b610581828260016109e0565b5050565b6000306001600160a01b037f000000000000000000000000000000000000000000000000000000000000000016146106255760405162461bcd60e51b815260206004820152603860248201527f555550535570677261646561626c653a206d757374206e6f742062652063616c60448201527f6c6564207468726f7567682064656c656761746563616c6c00000000000000006064820152608401610322565b507f360894a13ba1a3210667c828492db98dca3e2076cc3735a920a3ca505d382bbc90565b61065261097e565b61065c6000610b80565b565b61066661097e565b47818110156106dd5760405162461bcd60e51b815260206004820152602660248201527f5468657265206973206e6f20776974686472617761626c6520616d6f756e742060448201527f6f662045544800000000000000000000000000000000000000000000000000006064820152608401610322565b6040516001600160a01b0384169083156108fc029084906000818181858888f19350505050158015610713573d6000803e3d6000fd5b50826001600160a01b03167ffd69c215b8b91dab5e96ff0bcbaf5dc372919948eea2003ae16481c036f816f88360405161074f91815260200190565b60405180910390a2505050565b600054610100900460ff161580801561077c5750600054600160ff909116105b806107965750303b158015610796575060005460ff166001145b6108085760405162461bcd60e51b815260206004820152602e60248201527f496e697469616c697a61626c653a20636f6e747261637420697320616c72656160448201527f647920696e697469616c697a65640000000000000000000000000000000000006064820152608401610322565b6000805460ff19166001179055801561082b576000805461ff0019166101001790555b610833610bdf565b8015610416576000805461ff0019169055604051600181527f7f26b83ff96e1f2b6a682f133852f6798a09c465da95921460cefb38474024989060200160405180910390a150565b61088361097e565b6108976001600160a01b0384168383610c52565b816001600160a01b0316836001600160a01b03167f9b035625e569d1d2bf54830a290aefba7ab11610ba8490871dc62b86b63a8956836040516108dc91815260200190565b60405180910390a3505050565b61065c61097e565b6108f961097e565b6001600160a01b0381166109755760405162461bcd60e51b815260206004820152602660248201527f4f776e61626c653a206e6577206f776e657220697320746865207a65726f206160448201527f64647265737300000000000000000000000000000000000000000000000000006064820152608401610322565b61041681610b80565b6033546001600160a01b0316331461065c5760405162461bcd60e51b815260206004820181905260248201527f4f776e61626c653a2063616c6c6572206973206e6f7420746865206f776e65726044820152606401610322565b61041661097e565b7f4910fdfa16fed3260ed0e7147f7cc6da11a60208b5b9406d12a635614ffd91435460ff1615610a135761029483610cd2565b826001600160a01b03166352d1902d6040518163ffffffff1660e01b8152600401602060405180830381865afa925050508015610a6d575060408051601f3d908101601f19168201909252610a6a9181019061139c565b60015b610adf5760405162461bcd60e51b815260206004820152602e60248201527f45524331393637557067726164653a206e657720696d706c656d656e7461746960448201527f6f6e206973206e6f7420555550530000000000000000000000000000000000006064820152608401610322565b7f360894a13ba1a3210667c828492db98dca3e2076cc3735a920a3ca505d382bbc8114610b745760405162461bcd60e51b815260206004820152602960248201527f45524331393637557067726164653a20756e737570706f727465642070726f7860448201527f6961626c655555494400000000000000000000000000000000000000000000006064820152608401610322565b50610294838383610d9d565b603380546001600160a01b0383811673ffffffffffffffffffffffffffffffffffffffff19831681179093556040519116919082907f8be0079c531659141344cd1fd0a4f28419497f9722a3daafe3b4186f6b6457e090600090a35050565b600054610100900460ff16610c4a5760405162461bcd60e51b815260206004820152602b60248201527f496e697469616c697a61626c653a20636f6e7472616374206973206e6f74206960448201526a6e697469616c697a696e6760a81b6064820152608401610322565b61065c610dc8565b604080516001600160a01b038416602482015260448082018490528251808303909101815260649091019091526020810180517bffffffffffffffffffffffffffffffffffffffffffffffffffffffff167fa9059cbb00000000000000000000000000000000000000000000000000000000179052610294908490610e3c565b6001600160a01b0381163b610d4f5760405162461bcd60e51b815260206004820152602d60248201527f455243313936373a206e657720696d706c656d656e746174696f6e206973206e60448201527f6f74206120636f6e7472616374000000000000000000000000000000000000006064820152608401610322565b7f360894a13ba1a3210667c828492db98dca3e2076cc3735a920a3ca505d382bbc805473ffffffffffffffffffffffffffffffffffffffff19166001600160a01b0392909216919091179055565b610da683610f24565b600082511180610db35750805b1561029457610dc28383610f64565b50505050565b600054610100900460ff16610e335760405162461bcd60e51b815260206004820152602b60248201527f496e697469616c697a61626c653a20636f6e7472616374206973206e6f74206960448201526a6e697469616c697a696e6760a81b6064820152608401610322565b61065c33610b80565b6000610e91826040518060400160405280602081526020017f5361666545524332303a206c6f772d6c6576656c2063616c6c206661696c6564815250856001600160a01b0316610f909092919063ffffffff16565b9050805160001480610eb2575080806020019051810190610eb2919061137a565b6102945760405162461bcd60e51b815260206004820152602a60248201527f5361666545524332303a204552433230206f7065726174696f6e20646964206e60448201527f6f742073756363656564000000000000000000000000000000000000000000006064820152608401610322565b610f2d81610cd2565b6040516001600160a01b038216907fbc7cd75a20ee27fd9adebab32041f755214dbc6bffa90cc0225b39da2e5c2d3b90600090a250565b6060610f89838360405180606001604052806027815260200161142960279139610fa7565b9392505050565b6060610f9f848460008561101f565b949350505050565b6060600080856001600160a01b031685604051610fc491906113d9565b600060405180830381855af49150503d8060008114610fff576040519150601f19603f3d011682016040523d82523d6000602084013e611004565b606091505b509150915061101586838387611111565b9695505050505050565b6060824710156110975760405162461bcd60e51b815260206004820152602660248201527f416464726573733a20696e73756666696369656e742062616c616e636520666f60448201527f722063616c6c00000000000000000000000000000000000000000000000000006064820152608401610322565b600080866001600160a01b031685876040516110b391906113d9565b60006040518083038185875af1925050503d80600081146110f0576040519150601f19603f3d011682016040523d82523d6000602084013e6110f5565b606091505b509150915061110687838387611111565b979650505050505050565b60608315611180578251600003611179576001600160a01b0385163b6111795760405162461bcd60e51b815260206004820152601d60248201527f416464726573733a2063616c6c20746f206e6f6e2d636f6e74726163740000006044820152606401610322565b5081610f9f565b610f9f83838151156111955781518083602001fd5b8060405162461bcd60e51b815260040161032291906113f5565b6001600160a01b038116811461041657600080fd5b600080604083850312156111d757600080fd5b82356111e2816111af565b915060208301356111f2816111af565b809150509250929050565b60006020828403121561120f57600080fd5b8135610f89816111af565b7f4e487b7100000000000000000000000000000000000000000000000000000000600052604160045260246000fd5b6000806040838503121561125c57600080fd5b8235611267816111af565b9150602083013567ffffffffffffffff8082111561128457600080fd5b818501915085601f83011261129857600080fd5b8135818111156112aa576112aa61121a565b604051601f8201601f19908116603f011681019083821181831017156112d2576112d261121a565b816040528281528860208487010111156112eb57600080fd5b8260208601602083013760006020848301015280955050505050509250929050565b6000806040838503121561132057600080fd5b823561132b816111af565b946020939093013593505050565b60008060006060848603121561134e57600080fd5b8335611359816111af565b92506020840135611369816111af565b929592945050506040919091013590565b60006020828403121561138c57600080fd5b81518015158114610f8957600080fd5b6000602082840312156113ae57600080fd5b5051919050565b60005b838110156113d05781810151838201526020016113b8565b50506000910152565b600082516113eb8184602087016113b5565b9190910192915050565b60208152600082518060208401526114148160408501602087016113b5565b601f01601f1916919091016040019291505056fe416464726573733a206c6f772d6c6576656c2064656c65676174652063616c6c206661696c6564a2646970667358221220ad811d2aa29d885559bed42e24fd66a2ca6cbf085383e546526a26483455370c64736f6c63430008180033",
  "linkReferences": {},
  "deployedLinkReferences": {}
}