{
  "_format": "hh-sol-artifact-1",
  "contractName": "NativeMetaTransaction",
  "sourceName": "contracts/commons/NativeMetaTransaction.sol",
  "abi": [
    {
      "anonymous": false,
      "inputs": [
        {
          "indexed": false,
          "internalType": "address",
          "name": "userAddress",
          "type": "address"
        },
        {
          "indexed": false,
          "internalType": "address",
          "name": "relayerAddress",
          "type": "address"
        },
        {
          "indexed": false,
          "internalType": "bytes",
          "name": "functionSignature",
          "type": "bytes"
        }
      ],
      "name": "MetaTransactionExecuted",
      "type": "event"
    },
    {
      "inputs": [],
      "name": "domainSeparator",
      "outputs": [
        {
          "internalType": "bytes32",
          "name": "",
          "type": "bytes32"
        }
      ],
      "stateMutability": "view",
      "type": "function"
    },
    {
      "inputs": [
        {
          "internalType": "address",
          "name": "userAddress",
          "type": "address"
        },
        {
          "internalType": "bytes",
          "name": "functionSignature",
          "type": "bytes"
        },
        {
          "internalType": "bytes32",
          "name": "sigR",
          "type": "bytes32"
        },
        {
          "internalType": "bytes32",
          "name": "sigS",
          "type": "bytes32"
        },
        {
          "internalType": "uint8",
          "name": "sigV",
          "type": "uint8"
        }
      ],
      "name": "executeMetaTransaction",
      "outputs": [
        {
          "internalType": "bytes",
          "name": "",
          "type": "bytes"
        }
      ],
      "stateMutability": "payable",
      "type": "function"
    },
    {
      "inputs": [],
      "name": "getChainId",
      "outputs": [
        {
          "internalType": "uint256",
          "name": "",
          "type": "uint256"
        }
      ],
      "stateMutability": "view",
      "type": "function"
    },
    {
      "inputs": [
        {
          "internalType": "address",
          "name": "user",
          "type": "address"
        }
      ],
      "name": "getNonce",
      "outputs": [
        {
          "internalType": "uint256",
          "name": "nonce",
          "type": "uint256"
        }
      ],
      "stateMutability": "view",
      "type": "function"
    }
  ],
  "bytecode": "0x608060405234801561001057600080fd5b50610785806100206000396000f3fe60806040526004361061003f5760003560e01c80630c53c51c146100445780632d0335ab1461006d5780633408e470146100b1578063f698da25146100c4575b600080fd5b6100576100523660046104f2565b6100da565b6040516100649190610628565b60405180910390f35b34801561007957600080fd5b506100a3610088366004610642565b6001600160a01b031660009081526001602052604090205490565b604051908152602001610064565b3480156100bd57600080fd5b50466100a3565b3480156100d057600080fd5b506100a360005481565b60408051606081810183526001600160a01b03881660008181526001602090815290859020548452830152918101869052610118878287878761030c565b61018f5760405162461bcd60e51b815260206004820152603d60248201527f4e4d5423657865637574654d6574615472616e73616374696f6e3a205349474e60448201527f45525f414e445f5349474e41545552455f444f5f4e4f545f4d4154434800000060648201526084015b60405180910390fd5b6001600160a01b0387166000908152600160208190526040909120546101b49161065d565b6001600160a01b0388166000908152600160205260409081902091909155517f5845892132946850460bff5a0083f71031bc5bf9aadcd40f1de79423eac9b10b9061020490899033908a90610684565b60405180910390a1600080306001600160a01b0316888a60405160200161022c9291906106b9565b60408051601f1981840301815290829052610246916106f0565b6000604051808303816000865af19150503d8060008114610283576040519150601f19603f3d011682016040523d82523d6000602084013e610288565b606091505b5091509150816103005760405162461bcd60e51b815260206004820152602760248201527f4e4d5423657865637574654d6574615472616e73616374696f6e3a2043414c4c60448201527f5f4641494c4544000000000000000000000000000000000000000000000000006064820152608401610186565b98975050505050505050565b60006001600160a01b0386166103645760405162461bcd60e51b815260206004820152601a60248201527f4e4d54237665726966793a20494e56414c49445f5349474e45520000000000006044820152606401610186565b6001610377610372876103ee565b61046b565b6040805160008152602081018083529290925260ff851690820152606081018690526080810185905260a0016020604051602081039080840390855afa1580156103c5573d6000803e3d6000fd5b505050602060405103516001600160a01b0316866001600160a01b031614905095945050505050565b600060405180608001604052806043815260200161070d604391398051602091820120835184830151604080870151805190860120905161044e950193845260208401929092526001600160a01b03166040830152606082015260800190565b604051602081830303815290604052805190602001209050919050565b600080546040517f1901000000000000000000000000000000000000000000000000000000000000602082015260228101919091526042810183905260620161044e565b80356001600160a01b03811681146104c657600080fd5b919050565b634e487b7160e01b600052604160045260246000fd5b803560ff811681146104c657600080fd5b600080600080600060a0868803121561050a57600080fd5b610513866104af565b9450602086013567ffffffffffffffff8082111561053057600080fd5b818801915088601f83011261054457600080fd5b813581811115610556576105566104cb565b604051601f8201601f19908116603f0116810190838211818310171561057e5761057e6104cb565b816040528281528b602084870101111561059757600080fd5b82602086016020830137600060208483010152809850505050505060408601359250606086013591506105cc608087016104e1565b90509295509295909350565b60005b838110156105f35781810151838201526020016105db565b50506000910152565b600081518084526106148160208601602086016105d8565b601f01601f19169290920160200192915050565b60208152600061063b60208301846105fc565b9392505050565b60006020828403121561065457600080fd5b61063b826104af565b8082018082111561067e57634e487b7160e01b600052601160045260246000fd5b92915050565b60006001600160a01b038086168352808516602084015250606060408301526106b060608301846105fc565b95945050505050565b600083516106cb8184602088016105d8565b60609390931b6bffffffffffffffffffffffff19169190920190815260140192915050565b600082516107028184602087016105d8565b919091019291505056fe4d6574615472616e73616374696f6e2875696e74323536206e6f6e63652c616464726573732066726f6d2c62797465732066756e6374696f6e5369676e617475726529a26469706673582212202f5dfce91695027e307e1a29503041182498635e02cb36d5c8f9733a43280cdb64736f6c63430008180033",
  "linkReferences": {},
  "deployedLinkReferences": {}
}