{
  "_format": "hh-sol-artifact-1",
  "contractName": "WenStakingV1",
  "sourceName": "contracts/WenStakingV1.sol",
  "abi": [
    {
      "anonymous": false,
      "inputs": [
        {
          "indexed": false,
          "internalType": "address",
          "name": "previousAdmin",
          "type": "address"
        },
        {
          "indexed": false,
          "internalType": "address",
          "name": "newAdmin",
          "type": "address"
        }
      ],
      "name": "AdminChanged",
      "type": "event"
    },
    {
      "anonymous": false,
      "inputs": [
        {
          "indexed": true,
          "internalType": "address",
          "name": "beacon",
          "type": "address"
        }
      ],
      "name": "BeaconUpgraded",
      "type": "event"
    },
    {
      "anonymous": false,
      "inputs": [
        {
          "indexed": false,
          "internalType": "uint8",
          "name": "version",
          "type": "uint8"
        }
      ],
      "name": "Initialized",
      "type": "event"
    },
    {
      "anonymous": false,
      "inputs": [
        {
          "indexed": true,
          "internalType": "address",
          "name": "previousOwner",
          "type": "address"
        },
        {
          "indexed": true,
          "internalType": "address",
          "name": "newOwner",
          "type": "address"
        }
      ],
      "name": "OwnershipTransferred",
      "type": "event"
    },
    {
      "anonymous": false,
      "inputs": [
        {
          "indexed": false,
          "internalType": "address",
          "name": "account",
          "type": "address"
        }
      ],
      "name": "Paused",
      "type": "event"
    },
    {
      "anonymous": false,
      "inputs": [
        {
          "indexed": true,
          "internalType": "address",
          "name": "rewardsToken",
          "type": "address"
        },
        {
          "indexed": false,
          "internalType": "uint256",
          "name": "reward",
          "type": "uint256"
        }
      ],
      "name": "RewardAdded",
      "type": "event"
    },
    {
      "anonymous": false,
      "inputs": [
        {
          "indexed": true,
          "internalType": "address",
          "name": "user",
          "type": "address"
        },
        {
          "indexed": true,
          "internalType": "address",
          "name": "rewardsToken",
          "type": "address"
        },
        {
          "indexed": false,
          "internalType": "uint256",
          "name": "reward",
          "type": "uint256"
        }
      ],
      "name": "RewardPaid",
      "type": "event"
    },
    {
      "anonymous": false,
      "inputs": [
        {
          "indexed": false,
          "internalType": "uint256",
          "name": "newDuration",
          "type": "uint256"
        }
      ],
      "name": "RewardsDurationUpdated",
      "type": "event"
    },
    {
      "anonymous": false,
      "inputs": [
        {
          "indexed": true,
          "internalType": "address",
          "name": "user",
          "type": "address"
        },
        {
          "indexed": false,
          "internalType": "uint256",
          "name": "amount",
          "type": "uint256"
        }
      ],
      "name": "Staked",
      "type": "event"
    },
    {
      "anonymous": false,
      "inputs": [
        {
          "indexed": false,
          "internalType": "address",
          "name": "account",
          "type": "address"
        }
      ],
      "name": "Unpaused",
      "type": "event"
    },
    {
      "anonymous": false,
      "inputs": [
        {
          "indexed": false,
          "internalType": "address",
          "name": "rewardToken",
          "type": "address"
        },
        {
          "indexed": false,
          "internalType": "uint256",
          "name": "rewardPerTokenStored",
          "type": "uint256"
        },
        {
          "indexed": false,
          "internalType": "address",
          "name": "user",
          "type": "address"
        },
        {
          "indexed": false,
          "internalType": "uint256",
          "name": "earned",
          "type": "uint256"
        },
        {
          "indexed": false,
          "internalType": "uint256",
          "name": "userRewardPerTokenPaid",
          "type": "uint256"
        }
      ],
      "name": "UpdateReward",
      "type": "event"
    },
    {
      "anonymous": false,
      "inputs": [
        {
          "indexed": true,
          "internalType": "address",
          "name": "implementation",
          "type": "address"
        }
      ],
      "name": "Upgraded",
      "type": "event"
    },
    {
      "anonymous": false,
      "inputs": [
        {
          "indexed": true,
          "internalType": "address",
          "name": "user",
          "type": "address"
        },
        {
          "indexed": false,
          "internalType": "uint256",
          "name": "amount",
          "type": "uint256"
        }
      ],
      "name": "Withdrawn",
      "type": "event"
    },
    {
      "inputs": [],
      "name": "REWARDS_DURATION",
      "outputs": [
        {
          "internalType": "uint256",
          "name": "",
          "type": "uint256"
        }
      ],
      "stateMutability": "view",
      "type": "function"
    },
    {
      "inputs": [
        {
          "internalType": "address",
          "name": "",
          "type": "address"
        }
      ],
      "name": "balanceOf",
      "outputs": [
        {
          "internalType": "uint256",
          "name": "",
          "type": "uint256"
        }
      ],
      "stateMutability": "view",
      "type": "function"
    },
    {
      "inputs": [],
      "name": "claimReward",
      "outputs": [],
      "stateMutability": "nonpayable",
      "type": "function"
    },
    {
      "inputs": [
        {
          "internalType": "address",
          "name": "account",
          "type": "address"
        },
        {
          "internalType": "address",
          "name": "_rewardsToken",
          "type": "address"
        }
      ],
      "name": "earned",
      "outputs": [
        {
          "internalType": "uint256",
          "name": "",
          "type": "uint256"
        }
      ],
      "stateMutability": "view",
      "type": "function"
    },
    {
      "inputs": [
        {
          "internalType": "address",
          "name": "_rewardsToken",
          "type": "address"
        }
      ],
      "name": "getRewardForDuration",
      "outputs": [
        {
          "internalType": "uint256",
          "name": "",
          "type": "uint256"
        }
      ],
      "stateMutability": "view",
      "type": "function"
    },
    {
      "inputs": [],
      "name": "initialize",
      "outputs": [],
      "stateMutability": "nonpayable",
      "type": "function"
    },
    {
      "inputs": [
        {
          "internalType": "address",
          "name": "_rewardsToken",
          "type": "address"
        }
      ],
      "name": "lastTimeRewardApplicable",
      "outputs": [
        {
          "internalType": "uint256",
          "name": "",
          "type": "uint256"
        }
      ],
      "stateMutability": "view",
      "type": "function"
    },
    {
      "inputs": [],
      "name": "owner",
      "outputs": [
        {
          "internalType": "address",
          "name": "",
          "type": "address"
        }
      ],
      "stateMutability": "view",
      "type": "function"
    },
    {
      "inputs": [],
      "name": "pause",
      "outputs": [],
      "stateMutability": "nonpayable",
      "type": "function"
    },
    {
      "inputs": [],
      "name": "paused",
      "outputs": [
        {
          "internalType": "bool",
          "name": "",
          "type": "bool"
        }
      ],
      "stateMutability": "view",
      "type": "function"
    },
    {
      "inputs": [],
      "name": "proxiableUUID",
      "outputs": [
        {
          "internalType": "bytes32",
          "name": "",
          "type": "bytes32"
        }
      ],
      "stateMutability": "view",
      "type": "function"
    },
    {
      "inputs": [],
      "name": "renounceOwnership",
      "outputs": [],
      "stateMutability": "nonpayable",
      "type": "function"
    },
    {
      "inputs": [
        {
          "internalType": "address",
          "name": "",
          "type": "address"
        }
      ],
      "name": "rewardData",
      "outputs": [
        {
          "internalType": "uint256",
          "name": "periodFinish",
          "type": "uint256"
        },
        {
          "internalType": "uint256",
          "name": "rewardRate",
          "type": "uint256"
        },
        {
          "internalType": "uint256",
          "name": "lastUpdateTime",
          "type": "uint256"
        },
        {
          "internalType": "uint256",
          "name": "rewardPerTokenStored",
          "type": "uint256"
        },
        {
          "internalType": "uint256",
          "name": "balance",
          "type": "uint256"
        }
      ],
      "stateMutability": "view",
      "type": "function"
    },
    {
      "inputs": [
        {
          "internalType": "address",
          "name": "_rewardsToken",
          "type": "address"
        }
      ],
      "name": "rewardPerToken",
      "outputs": [
        {
          "internalType": "uint256",
          "name": "",
          "type": "uint256"
        }
      ],
      "stateMutability": "view",
      "type": "function"
    },
    {
      "inputs": [
        {
          "internalType": "uint256",
          "name": "",
          "type": "uint256"
        }
      ],
      "name": "rewardTokens",
      "outputs": [
        {
          "internalType": "address",
          "name": "",
          "type": "address"
        }
      ],
      "stateMutability": "view",
      "type": "function"
    },
    {
      "inputs": [
        {
          "internalType": "address",
          "name": "",
          "type": "address"
        },
        {
          "internalType": "address",
          "name": "",
          "type": "address"
        }
      ],
      "name": "rewards",
      "outputs": [
        {
          "internalType": "uint256",
          "name": "",
          "type": "uint256"
        }
      ],
      "stateMutability": "view",
      "type": "function"
    },
    {
      "inputs": [],
      "name": "rewardsDistribution",
      "outputs": [
        {
          "internalType": "address",
          "name": "",
          "type": "address"
        }
      ],
      "stateMutability": "view",
      "type": "function"
    },
    {
      "inputs": [
        {
          "internalType": "address",
          "name": "_stakingToken",
          "type": "address"
        },
        {
          "internalType": "address[2]",
          "name": "_rewardTokens",
          "type": "address[2]"
        },
        {
          "internalType": "uint256",
          "name": "_rewardDuration",
          "type": "uint256"
        },
        {
          "internalType": "address",
          "name": "_rewardsDistribution",
          "type": "address"
        }
      ],
      "name": "setInitialInfo",
      "outputs": [],
      "stateMutability": "nonpayable",
      "type": "function"
    },
    {
      "inputs": [
        {
          "internalType": "address",
          "name": "_rewardsDistribution",
          "type": "address"
        }
      ],
      "name": "setRewardsDistribution",
      "outputs": [],
      "stateMutability": "nonpayable",
      "type": "function"
    },
    {
      "inputs": [
        {
          "internalType": "uint256",
          "name": "_rewardsDuration",
          "type": "uint256"
        }
      ],
      "name": "setRewardsDuration",
      "outputs": [],
      "stateMutability": "nonpayable",
      "type": "function"
    },
    {
      "inputs": [
        {
          "internalType": "address",
          "name": "_WenAddr",
          "type": "address"
        }
      ],
      "name": "setWen",
      "outputs": [],
      "stateMutability": "nonpayable",
      "type": "function"
    },
    {
      "inputs": [
        {
          "internalType": "uint256",
          "name": "amount",
          "type": "uint256"
        }
      ],
      "name": "stake",
      "outputs": [],
      "stateMutability": "nonpayable",
      "type": "function"
    },
    {
      "inputs": [],
      "name": "stakingToken",
      "outputs": [
        {
          "internalType": "contract IERC20Upgradeable",
          "name": "",
          "type": "address"
        }
      ],
      "stateMutability": "view",
      "type": "function"
    },
    {
      "inputs": [],
      "name": "totalSupply",
      "outputs": [
        {
          "internalType": "uint256",
          "name": "",
          "type": "uint256"
        }
      ],
      "stateMutability": "view",
      "type": "function"
    },
    {
      "inputs": [
        {
          "internalType": "address",
          "name": "newOwner",
          "type": "address"
        }
      ],
      "name": "transferOwnership",
      "outputs": [],
      "stateMutability": "nonpayable",
      "type": "function"
    },
    {
      "inputs": [],
      "name": "unpause",
      "outputs": [],
      "stateMutability": "nonpayable",
      "type": "function"
    },
    {
      "inputs": [],
      "name": "updateRewardAmount",
      "outputs": [],
      "stateMutability": "nonpayable",
      "type": "function"
    },
    {
      "inputs": [
        {
          "internalType": "address",
          "name": "newImplementation",
          "type": "address"
        }
      ],
      "name": "upgradeTo",
      "outputs": [],
      "stateMutability": "nonpayable",
      "type": "function"
    },
    {
      "inputs": [
        {
          "internalType": "address",
          "name": "newImplementation",
          "type": "address"
        },
        {
          "internalType": "bytes",
          "name": "data",
          "type": "bytes"
        }
      ],
      "name": "upgradeToAndCall",
      "outputs": [],
      "stateMutability": "payable",
      "type": "function"
    },
    {
      "inputs": [
        {
          "internalType": "address",
          "name": "",
          "type": "address"
        },
        {
          "internalType": "address",
          "name": "",
          "type": "address"
        }
      ],
      "name": "userRewardPerTokenPaid",
      "outputs": [
        {
          "internalType": "uint256",
          "name": "",
          "type": "uint256"
        }
      ],
      "stateMutability": "view",
      "type": "function"
    },
    {
      "inputs": [
        {
          "internalType": "address",
          "name": "account",
          "type": "address"
        }
      ],
      "name": "wen_earned",
      "outputs": [
        {
          "internalType": "uint256",
          "name": "",
          "type": "uint256"
        }
      ],
      "stateMutability": "view",
      "type": "function"
    },
    {
      "inputs": [],
      "name": "wen_getRewardForDuration",
      "outputs": [
        {
          "internalType": "uint256",
          "name": "",
          "type": "uint256"
        }
      ],
      "stateMutability": "view",
      "type": "function"
    },
    {
      "inputs": [],
      "name": "wen_lastTimeRewardApplicable",
      "outputs": [
        {
          "internalType": "uint256",
          "name": "",
          "type": "uint256"
        }
      ],
      "stateMutability": "view",
      "type": "function"
    },
    {
      "inputs": [],
      "name": "wen_rewardData",
      "outputs": [
        {
          "internalType": "uint256",
          "name": "periodFinish",
          "type": "uint256"
        },
        {
          "internalType": "uint256",
          "name": "rewardRate",
          "type": "uint256"
        },
        {
          "internalType": "uint256",
          "name": "lastUpdateTime",
          "type": "uint256"
        },
        {
          "internalType": "uint256",
          "name": "rewardPerTokenStored",
          "type": "uint256"
        },
        {
          "internalType": "uint256",
          "name": "balance",
          "type": "uint256"
        }
      ],
      "stateMutability": "view",
      "type": "function"
    },
    {
      "inputs": [],
      "name": "wen_rewardPerToken",
      "outputs": [
        {
          "internalType": "uint256",
          "name": "",
          "type": "uint256"
        }
      ],
      "stateMutability": "view",
      "type": "function"
    },
    {
      "inputs": [],
      "name": "wen_rewardToken",
      "outputs": [
        {
          "internalType": "address",
          "name": "",
          "type": "address"
        }
      ],
      "stateMutability": "view",
      "type": "function"
    },
    {
      "inputs": [
        {
          "internalType": "address",
          "name": "",
          "type": "address"
        }
      ],
      "name": "wen_rewards",
      "outputs": [
        {
          "internalType": "uint256",
          "name": "",
          "type": "uint256"
        }
      ],
      "stateMutability": "view",
      "type": "function"
    },
    {
      "inputs": [
        {
          "internalType": "uint256",
          "name": "_amount",
          "type": "uint256"
        }
      ],
      "name": "wen_updateRewardAmount",
      "outputs": [],
      "stateMutability": "nonpayable",
      "type": "function"
    },
    {
      "inputs": [
        {
          "internalType": "address",
          "name": "",
          "type": "address"
        }
      ],
      "name": "wen_userRewardPerTokenPaid",
      "outputs": [
        {
          "internalType": "uint256",
          "name": "",
          "type": "uint256"
        }
      ],
      "stateMutability": "view",
      "type": "function"
    },
    {
      "inputs": [
        {
          "internalType": "uint256",
          "name": "amount",
          "type": "uint256"
        }
      ],
      "name": "withdraw",
      "outputs": [],
      "stateMutability": "nonpayable",
      "type": "function"
    }
  ],
  "bytecode": "0x60a06040523060805234801561001457600080fd5b506080516137e061004c60003960008181610c8f01528181610d1401528181611173015281816111f801526112e201526137e06000f3fe6080604052600436106102bb5760003560e01c80638129fc1c1161016e578063cc6059c6116100cb578063f43c2bca1161007f578063f833027d11610064578063f833027d146107c7578063fa9465d5146107f5578063fe7ed0971461080a57600080fd5b8063f43c2bca14610784578063f4542494146107b057600080fd5b8063e70b9e27116100b0578063e70b9e271461070b578063f122977714610744578063f2fde38b1461076457600080fd5b8063cc6059c6146106d6578063d9167de7146106eb57600080fd5b8063a89d800311610122578063b88a802f11610107578063b88a802f14610681578063bcd1101414610696578063cc1a378f146106b657600080fd5b8063a89d800314610633578063b32f8d9f1461065357600080fd5b80638da5cb5b116101535780638da5cb5b146105d457806390559094146105f2578063a694fc3a1461061357600080fd5b80638129fc1c146105aa5780638456cb59146105bf57600080fd5b80634f1ef2861161021c5780637035ab98116101d0578063715018a6116101b5578063715018a61461055457806372f702f3146105695780637bb7bed11461058a57600080fd5b80637035ab98146104ed57806370a082311461052657600080fd5b80635533de90116102015780635533de90146104955780635c975abb146104aa578063638634ee146104cd57600080fd5b80634f1ef2861461046d57806352d1902d1461048057600080fd5b80633659cfe6116102735780633fc6df6e116102585780633fc6df6e146103a1578063477c8fc1146103da57806348e5d9f8146103fa57600080fd5b80633659cfe61461036c5780633f4ba83a1461038c57600080fd5b80631c9c4694116102a45780631c9c46941461030c578063211dc32d1461032c5780632e1a7d4d1461034c57600080fd5b806318160ddd146102c057806319762143146102ea575b600080fd5b3480156102cc57600080fd5b506102d76101345481565b6040519081526020015b60405180910390f35b3480156102f657600080fd5b5061030a610305366004613448565b61081f565b005b34801561031857600080fd5b5061030a610327366004613448565b61084a565b34801561033857600080fd5b506102d7610347366004613463565b610875565b34801561035857600080fd5b5061030a610367366004613496565b610920565b34801561037857600080fd5b5061030a610387366004613448565b610c85565b34801561039857600080fd5b5061030a610dfd565b3480156103ad57600080fd5b50610131546103c2906001600160a01b031681565b6040516001600160a01b0390911681526020016102e1565b3480156103e657600080fd5b5061030a6103f5366004613496565b610e17565b34801561040657600080fd5b50610445610415366004613448565b61013060205260009081526040902080546001820154600283015460038401546004909401549293919290919085565b604080519586526020860194909452928401919091526060830152608082015260a0016102e1565b61030a61047b3660046134f6565b611169565b34801561048c57600080fd5b506102d76112d5565b3480156104a157600080fd5b506102d761139a565b3480156104b657600080fd5b5060fb5460ff1660405190151581526020016102e1565b3480156104d957600080fd5b506102d76104e8366004613448565b6113b3565b3480156104f957600080fd5b506102d7610508366004613463565b61013260209081526000928352604080842090915290825290205481565b34801561053257600080fd5b506102d7610541366004613448565b6101356020526000908152604090205481565b34801561056057600080fd5b5061030a6113e3565b34801561057557600080fd5b5061012d546103c2906001600160a01b031681565b34801561059657600080fd5b506103c26105a5366004613496565b6113f5565b3480156105b657600080fd5b5061030a611416565b3480156105cb57600080fd5b5061030a611546565b3480156105e057600080fd5b506097546001600160a01b03166103c2565b3480156105fe57600080fd5b50610137546103c2906001600160a01b031681565b34801561061f57600080fd5b5061030a61062e366004613496565b61155e565b34801561063f57600080fd5b5061030a61064e36600461359c565b611845565b34801561065f57600080fd5b506102d761066e366004613448565b61013e6020526000908152604090205481565b34801561068d57600080fd5b5061030a6118a3565b3480156106a257600080fd5b506102d76106b1366004613448565b611d81565b3480156106c257600080fd5b5061030a6106d1366004613496565b611dad565b3480156106e257600080fd5b506102d7611e61565b3480156106f757600080fd5b506102d7610706366004613448565b611e7d565b34801561071757600080fd5b506102d7610726366004613463565b61013360209081526000928352604080842090915290825290205481565b34801561075057600080fd5b506102d761075f366004613448565b611eff565b34801561077057600080fd5b5061030a61077f366004613448565b611fda565b34801561079057600080fd5b50610138546101395461013a5461013b5461013c54610445949392919085565b3480156107bc57600080fd5b506102d76101365481565b3480156107d357600080fd5b506102d76107e2366004613448565b61013d6020526000908152604090205481565b34801561080157600080fd5b5061030a612067565b34801561081657600080fd5b506102d76123f6565b610827612471565b61013180546001600160a01b0319166001600160a01b0392909216919091179055565b610852612471565b61013780546001600160a01b0319166001600160a01b0392909216919091179055565b6001600160a01b0380831660009081526101326020908152604080832093851683529290529081205481906108a984611eff565b6108b39190613660565b6001600160a01b038086166000818152610133602090815260408083209489168352938152838220549282526101359052919091205491925090670de0b6b3a764000090610902908490613673565b61090c919061368a565b61091691906136ac565b9150505b92915050565b6109286124cb565b610930612524565b3360005b6002811015610a6757600061012e8260028110610953576109536136bf565b01546001600160a01b0316905061096981611eff565b6001600160a01b0382166000908152610130602052604090206003015561098f816113b3565b6001600160a01b0380831660009081526101306020526040902060020191909155831615610a5e576109c18382610875565b6001600160a01b03848116600081815261013360209081526040808320948716808452948252808320958655610130825280832060030154848452610132835281842086855283529281902083905594548551948552908401829052838501929092526060830191909152608082015290517fe18754a2d63e1e9c2a4f61712ccd2c8df6dfb1eae9f53b2158e316c62823ce2a9181900360a00190a15b50600101610934565b50610137546001600160a01b031615610b2f57610a826123f6565b61013b55610a8e611e61565b61013a556001600160a01b03811615610b2f57610aaa81611e7d565b6001600160a01b03828116600081815261013e6020908152604080832095865561013b5461013d8352928190208390556101375495548151969095168652908501829052840191909152606083019190915260808201527fe18754a2d63e1e9c2a4f61712ccd2c8df6dfb1eae9f53b2158e316c62823ce2a9060a00160405180910390a15b60008211610b845760405162461bcd60e51b815260206004820152601160248201527f43616e6e6f74207769746864726177203000000000000000000000000000000060448201526064015b60405180910390fd5b3360009081526101356020526040902054821115610be45760405162461bcd60e51b815260206004820152601660248201527f42616c616e6365206973206e6f7420656e6f7567682e000000000000000000006044820152606401610b7b565b610bec612577565b816101346000828254610bff9190613660565b9091555050336000908152610135602052604081208054849290610c24908490613660565b909155505061012d54610c41906001600160a01b03163384612844565b60405182815233907f7084f5476618d8e60b11ef0d7d3f06914655adb8793e28ff7f018d4c76d505d5906020015b60405180910390a250610c82600160c955565b50565b6001600160a01b037f0000000000000000000000000000000000000000000000000000000000000000163003610d125760405162461bcd60e51b815260206004820152602c60248201527f46756e6374696f6e206d7573742062652063616c6c6564207468726f7567682060448201526b19195b1959d85d1958d85b1b60a21b6064820152608401610b7b565b7f00000000000000000000000000000000000000000000000000000000000000006001600160a01b0316610d6d7f360894a13ba1a3210667c828492db98dca3e2076cc3735a920a3ca505d382bbc546001600160a01b031690565b6001600160a01b031614610dd85760405162461bcd60e51b815260206004820152602c60248201527f46756e6374696f6e206d7573742062652063616c6c6564207468726f7567682060448201526b6163746976652070726f787960a01b6064820152608401610b7b565b610de1816128f9565b60408051600080825260208201909252610c8291839190612901565b610e05612471565b610e0d612aa1565b610e15612af3565b565b610131546001600160a01b03163314610e855760405162461bcd60e51b815260206004820152602a60248201527f43616c6c6572206973206e6f742052657761726473446973747269627574696f6044820152691b8818dbdb9d1c9858dd60b21b6064820152608401610b7b565b6000805b6002811015610fbc57600061012e8260028110610ea857610ea86136bf565b01546001600160a01b03169050610ebe81611eff565b6001600160a01b03821660009081526101306020526040902060030155610ee4816113b3565b6001600160a01b0380831660009081526101306020526040902060020191909155831615610fb357610f168382610875565b6001600160a01b03848116600081815261013360209081526040808320948716808452948252808320958655610130825280832060030154848452610132835281842086855283529281902083905594548551948552908401829052838501929092526060830191909152608082015290517fe18754a2d63e1e9c2a4f61712ccd2c8df6dfb1eae9f53b2158e316c62823ce2a9181900360a00190a15b50600101610e89565b50610137546001600160a01b03161561108457610fd76123f6565b61013b55610fe3611e61565b61013a556001600160a01b0381161561108457610fff81611e7d565b6001600160a01b03828116600081815261013e6020908152604080832095865561013b5461013d8352928190208390556101375495548151969095168652908501829052840191909152606083019190915260808201527fe18754a2d63e1e9c2a4f61712ccd2c8df6dfb1eae9f53b2158e316c62823ce2a9060a00160405180910390a15b600082116110fa5760405162461bcd60e51b815260206004820152602c60248201527f5570646174652052657761726420416d6f756e742073686f756c64206265206260448201527f6967676572207468616e203000000000000000000000000000000000000000006064820152608401610b7b565b6101375461013890611117906001600160a01b0316333086612b45565b6111218184612b9c565b610137546040518481526001600160a01b03909116907fac24935fd910bc682b5ccb1a07b718cadf8cf2f6d1404c4f3ddc3662dae40e299060200160405180910390a2505050565b6001600160a01b037f00000000000000000000000000000000000000000000000000000000000000001630036111f65760405162461bcd60e51b815260206004820152602c60248201527f46756e6374696f6e206d7573742062652063616c6c6564207468726f7567682060448201526b19195b1959d85d1958d85b1b60a21b6064820152608401610b7b565b7f00000000000000000000000000000000000000000000000000000000000000006001600160a01b03166112517f360894a13ba1a3210667c828492db98dca3e2076cc3735a920a3ca505d382bbc546001600160a01b031690565b6001600160a01b0316146112bc5760405162461bcd60e51b815260206004820152602c60248201527f46756e6374696f6e206d7573742062652063616c6c6564207468726f7567682060448201526b6163746976652070726f787960a01b6064820152608401610b7b565b6112c5826128f9565b6112d182826001612901565b5050565b6000306001600160a01b037f000000000000000000000000000000000000000000000000000000000000000016146113755760405162461bcd60e51b815260206004820152603860248201527f555550535570677261646561626c653a206d757374206e6f742062652063616c60448201527f6c6564207468726f7567682064656c656761746563616c6c00000000000000006064820152608401610b7b565b507f360894a13ba1a3210667c828492db98dca3e2076cc3735a920a3ca505d382bbc90565b61013654610139546000916113ae91613673565b905090565b6001600160a01b038116600090815261013060205260408120544281116113da57806113dc565b425b9392505050565b6113eb612471565b610e156000612c3a565b61012e816002811061140657600080fd5b01546001600160a01b0316905081565b600054610100900460ff16158080156114365750600054600160ff909116105b806114505750303b158015611450575060005460ff166001145b6114c25760405162461bcd60e51b815260206004820152602e60248201527f496e697469616c697a61626c653a20636f6e747261637420697320616c72656160448201527f647920696e697469616c697a65640000000000000000000000000000000000006064820152608401610b7b565b6000805460ff1916600117905580156114e5576000805461ff0019166101001790555b6114ed612c8c565b6114f5612cff565b6114fd612d72565b8015610c82576000805461ff0019169055604051600181527f7f26b83ff96e1f2b6a682f133852f6798a09c465da95921460cefb3847402498906020015b60405180910390a150565b61154e612471565b611556612524565b610e15612de5565b6115666124cb565b61156e612524565b3360005b60028110156116a557600061012e8260028110611591576115916136bf565b01546001600160a01b031690506115a781611eff565b6001600160a01b038216600090815261013060205260409020600301556115cd816113b3565b6001600160a01b038083166000908152610130602052604090206002019190915583161561169c576115ff8382610875565b6001600160a01b03848116600081815261013360209081526040808320948716808452948252808320958655610130825280832060030154848452610132835281842086855283529281902083905594548551948552908401829052838501929092526060830191909152608082015290517fe18754a2d63e1e9c2a4f61712ccd2c8df6dfb1eae9f53b2158e316c62823ce2a9181900360a00190a15b50600101611572565b50610137546001600160a01b03161561176d576116c06123f6565b61013b556116cc611e61565b61013a556001600160a01b0381161561176d576116e881611e7d565b6001600160a01b03828116600081815261013e6020908152604080832095865561013b5461013d8352928190208390556101375495548151969095168652908501829052840191909152606083019190915260808201527fe18754a2d63e1e9c2a4f61712ccd2c8df6dfb1eae9f53b2158e316c62823ce2a9060a00160405180910390a15b600082116117bd5760405162461bcd60e51b815260206004820152600e60248201527f43616e6e6f74207374616b6520300000000000000000000000000000000000006044820152606401610b7b565b8161013460008282546117d091906136ac565b90915550503360009081526101356020526040812080548492906117f59084906136ac565b909155505061012d54611813906001600160a01b0316333085612b45565b60405182815233907f9e71bc8eea02a63969f509818f2dafb9254532904319f9dbda79b67bd34a5f3d90602001610c6f565b61184d612471565b61012d80546001600160a01b0319166001600160a01b03861617905561187761012e8460026133bf565b506101369190915561013180546001600160a01b0319166001600160a01b039092169190911790555050565b6118ab6124cb565b6118b3612524565b3360005b60028110156119ea57600061012e82600281106118d6576118d66136bf565b01546001600160a01b031690506118ec81611eff565b6001600160a01b03821660009081526101306020526040902060030155611912816113b3565b6001600160a01b03808316600090815261013060205260409020600201919091558316156119e1576119448382610875565b6001600160a01b03848116600081815261013360209081526040808320948716808452948252808320958655610130825280832060030154848452610132835281842086855283529281902083905594548551948552908401829052838501929092526060830191909152608082015290517fe18754a2d63e1e9c2a4f61712ccd2c8df6dfb1eae9f53b2158e316c62823ce2a9181900360a00190a15b506001016118b7565b50610137546001600160a01b031615611ab257611a056123f6565b61013b55611a11611e61565b61013a556001600160a01b03811615611ab257611a2d81611e7d565b6001600160a01b03828116600081815261013e6020908152604080832095865561013b5461013d8352928190208390556101375495548151969095168652908501829052840191909152606083019190915260808201527fe18754a2d63e1e9c2a4f61712ccd2c8df6dfb1eae9f53b2158e316c62823ce2a9060a00160405180910390a15b60005b6002811015611cbb57600061012e8260028110611ad457611ad46136bf565b01546001600160a01b03166000818152610130602052604090209091508115611cb1578054611b0590610e106136ac565b61013654611b1390426136ac565b1115611bee576004818101546040516370a0823160e01b815230928101929092526000916001600160a01b038516906370a0823190602401602060405180830381865afa158015611b68573d6000803e3d6000fd5b505050506040513d601f19601f82011682018060405250810190611b8c91906136d5565b611b969190613660565b90508015611bec57611ba88282612b9c565b826001600160a01b03167fac24935fd910bc682b5ccb1a07b718cadf8cf2f6d1404c4f3ddc3662dae40e2982604051611be391815260200190565b60405180910390a25b505b336000908152610133602090815260408083206001600160a01b03861684529091529020548015611caf57336000908152610133602090815260408083206001600160a01b03871684529091528120819055600483018054839290611c54908490613660565b90915550611c6e90506001600160a01b0384163383612844565b6040518181526001600160a01b0384169033907f540798df468d7b23d11f156fdb954cb19ad414d150722a7b6d55ba369dea792e9060200160405180910390a35b505b5050600101611ab5565b50610137546001600160a01b031615611d765733600090815261013e6020526040902054610138908015611d735733600090815261013e60205260408120819055600483018054839290611d10908490613660565b909155505061013754611d2d906001600160a01b03163383612844565b610137546040518281526001600160a01b039091169033907f540798df468d7b23d11f156fdb954cb19ad414d150722a7b6d55ba369dea792e9060200160405180910390a35b50505b50610e15600160c955565b610136546001600160a01b03821660009081526101306020526040812060010154909161091a91613673565b611db5612471565b60008111611e2b5760405162461bcd60e51b815260206004820152602860248201527f726577617264206475726174696f6e692073686f756c64206265206c6f6e676560448201527f72207468616e20300000000000000000000000000000000000000000000000006064820152608401610b7b565b6101368190556040518181527ffb46ca5a5e06d4540d6387b930a7c978bce0db5f449ec6b3f5d07c6e1d44f2d39060200161153b565b61013854600090428111611e755780611e77565b425b91505090565b6001600160a01b038116600090815261013d60205260408120548190611ea16123f6565b611eab9190613660565b6001600160a01b038416600090815261013e60209081526040808320546101359092529091205491925090670de0b6b3a764000090611eeb908490613673565b611ef5919061368a565b6113dc91906136ac565b600061013454600003611f2c57506001600160a01b03166000908152610130602052604090206003015490565b6001600160a01b03821660009081526101306020526040812060020154611f52846113b3565b611f5c9190613660565b610134546001600160a01b0385166000908152610130602052604081206001015492935091611f8b9084613673565b611f9d90670de0b6b3a7640000613673565b611fa7919061368a565b6001600160a01b03851660009081526101306020526040902060030154909150611fd29082906136ac565b949350505050565b611fe2612471565b6001600160a01b03811661205e5760405162461bcd60e51b815260206004820152602660248201527f4f776e61626c653a206e6577206f776e657220697320746865207a65726f206160448201527f64647265737300000000000000000000000000000000000000000000000000006064820152608401610b7b565b610c8281612c3a565b610131546001600160a01b031633146120d55760405162461bcd60e51b815260206004820152602a60248201527f43616c6c6572206973206e6f742052657761726473446973747269627574696f6044820152691b8818dbdb9d1c9858dd60b21b6064820152608401610b7b565b6000805b600281101561220c57600061012e82600281106120f8576120f86136bf565b01546001600160a01b0316905061210e81611eff565b6001600160a01b03821660009081526101306020526040902060030155612134816113b3565b6001600160a01b0380831660009081526101306020526040902060020191909155831615612203576121668382610875565b6001600160a01b03848116600081815261013360209081526040808320948716808452948252808320958655610130825280832060030154848452610132835281842086855283529281902083905594548551948552908401829052838501929092526060830191909152608082015290517fe18754a2d63e1e9c2a4f61712ccd2c8df6dfb1eae9f53b2158e316c62823ce2a9181900360a00190a15b506001016120d9565b50610137546001600160a01b0316156122d4576122276123f6565b61013b55612233611e61565b61013a556001600160a01b038116156122d45761224f81611e7d565b6001600160a01b03828116600081815261013e6020908152604080832095865561013b5461013d8352928190208390556101375495548151969095168652908501829052840191909152606083019190915260808201527fe18754a2d63e1e9c2a4f61712ccd2c8df6dfb1eae9f53b2158e316c62823ce2a9060a00160405180910390a15b60005b60028110156112d157600061012e82600281106122f6576122f66136bf565b01546001600160a01b0316905080156123ed576001600160a01b0381166000818152610130602052604080822060048082015492516370a0823160e01b815230918101919091529093906370a0823190602401602060405180830381865afa158015612366573d6000803e3d6000fd5b505050506040513d601f19601f8201168201806040525081019061238a91906136d5565b6123949190613660565b905080156123ea576123a68282612b9c565b826001600160a01b03167fac24935fd910bc682b5ccb1a07b718cadf8cf2f6d1404c4f3ddc3662dae40e29826040516123e191815260200190565b60405180910390a25b50505b506001016122d7565b60006101345460000361240b575061013b5490565b61013a5460009061241a611e61565b6124249190613660565b610134546101395491925060009161243c9084613673565b61244e90670de0b6b3a7640000613673565b612458919061368a565b61013b5490915061246a9082906136ac565b9250505090565b6097546001600160a01b03163314610e155760405162461bcd60e51b815260206004820181905260248201527f4f776e61626c653a2063616c6c6572206973206e6f7420746865206f776e65726044820152606401610b7b565b600260c9540361251d5760405162461bcd60e51b815260206004820152601f60248201527f5265656e7472616e637947756172643a207265656e7472616e742063616c6c006044820152606401610b7b565b600260c955565b60fb5460ff1615610e155760405162461bcd60e51b815260206004820152601060248201527f5061757361626c653a20706175736564000000000000000000000000000000006044820152606401610b7b565b60005b600281101561278957600061012e8260028110612599576125996136bf565b01546001600160a01b031690508015612780576001600160a01b03811660009081526101306020526040902080546125d390610e106136ac565b610136546125e190426136ac565b11156126bc576004818101546040516370a0823160e01b815230928101929092526000916001600160a01b038516906370a0823190602401602060405180830381865afa158015612636573d6000803e3d6000fd5b505050506040513d601f19601f8201168201806040525081019061265a91906136d5565b6126649190613660565b905080156126ba576126768282612b9c565b826001600160a01b03167fac24935fd910bc682b5ccb1a07b718cadf8cf2f6d1404c4f3ddc3662dae40e29826040516126b191815260200190565b60405180910390a25b505b336000908152610133602090815260408083206001600160a01b0386168452909152902054801561277d57336000908152610133602090815260408083206001600160a01b03871684529091528120819055600483018054839290612722908490613660565b9091555061273c90506001600160a01b0384163383612844565b6040518181526001600160a01b0384169033907f540798df468d7b23d11f156fdb954cb19ad414d150722a7b6d55ba369dea792e9060200160405180910390a35b50505b5060010161257a565b50610137546001600160a01b031615610e155733600090815261013e60205260409020546101389080156112d15733600090815261013e602052604081208190556004830180548392906127de908490613660565b9091555050610137546127fb906001600160a01b03163383612844565b610137546040518281526001600160a01b039091169033907f540798df468d7b23d11f156fdb954cb19ad414d150722a7b6d55ba369dea792e9060200160405180910390a35050565b6040516001600160a01b0383166024820152604481018290526128ed9084907fa9059cbb00000000000000000000000000000000000000000000000000000000906064015b60408051601f198184030181529190526020810180517bffffffffffffffffffffffffffffffffffffffffffffffffffffffff167fffffffff0000000000000000000000000000000000000000000000000000000090931692909217909152612e22565b505050565b600160c955565b610c82612471565b7f4910fdfa16fed3260ed0e7147f7cc6da11a60208b5b9406d12a635614ffd91435460ff1615612934576128ed83612f0a565b826001600160a01b03166352d1902d6040518163ffffffff1660e01b8152600401602060405180830381865afa92505050801561298e575060408051601f3d908101601f1916820190925261298b918101906136d5565b60015b612a005760405162461bcd60e51b815260206004820152602e60248201527f45524331393637557067726164653a206e657720696d706c656d656e7461746960448201527f6f6e206973206e6f7420555550530000000000000000000000000000000000006064820152608401610b7b565b7f360894a13ba1a3210667c828492db98dca3e2076cc3735a920a3ca505d382bbc8114612a955760405162461bcd60e51b815260206004820152602960248201527f45524331393637557067726164653a20756e737570706f727465642070726f7860448201527f6961626c655555494400000000000000000000000000000000000000000000006064820152608401610b7b565b506128ed838383612fc8565b60fb5460ff16610e155760405162461bcd60e51b815260206004820152601460248201527f5061757361626c653a206e6f74207061757365640000000000000000000000006044820152606401610b7b565b612afb612aa1565b60fb805460ff191690557f5db9ee0a495bf2e6ff9c91a7834c1ba4fdd244a5e8aa4e537bd38aeae4b073aa335b6040516001600160a01b03909116815260200160405180910390a1565b6040516001600160a01b0380851660248301528316604482015260648101829052612b969085907f23b872dd0000000000000000000000000000000000000000000000000000000090608401612889565b50505050565b81544210612bbc5761013654612bb2908261368a565b6001830155612c03565b8154600090612bcc904290613660565b90506000836001015482612be09190613673565b61013654909150612bf182856136ac565b612bfb919061368a565b600185015550505b426002830181905561013654612c18916136ac565b8255600482018054829190600090612c319084906136ac565b90915550505050565b609780546001600160a01b038381166001600160a01b0319831681179093556040519116919082907f8be0079c531659141344cd1fd0a4f28419497f9722a3daafe3b4186f6b6457e090600090a35050565b600054610100900460ff16612cf75760405162461bcd60e51b815260206004820152602b60248201527f496e697469616c697a61626c653a20636f6e7472616374206973206e6f74206960448201526a6e697469616c697a696e6760a81b6064820152608401610b7b565b610e15612fed565b600054610100900460ff16612d6a5760405162461bcd60e51b815260206004820152602b60248201527f496e697469616c697a61626c653a20636f6e7472616374206973206e6f74206960448201526a6e697469616c697a696e6760a81b6064820152608401610b7b565b610e15613061565b600054610100900460ff16612ddd5760405162461bcd60e51b815260206004820152602b60248201527f496e697469616c697a61626c653a20636f6e7472616374206973206e6f74206960448201526a6e697469616c697a696e6760a81b6064820152608401610b7b565b610e156130cc565b612ded612524565b60fb805460ff191660011790557f62e78cea01bee320cd4e420270b5ea74000d11b0c9f74754ebdbfc544b05a258612b283390565b6000612e77826040518060400160405280602081526020017f5361666545524332303a206c6f772d6c6576656c2063616c6c206661696c6564815250856001600160a01b03166131439092919063ffffffff16565b9050805160001480612e98575080806020019051810190612e9891906136ee565b6128ed5760405162461bcd60e51b815260206004820152602a60248201527f5361666545524332303a204552433230206f7065726174696f6e20646964206e60448201527f6f742073756363656564000000000000000000000000000000000000000000006064820152608401610b7b565b6001600160a01b0381163b612f875760405162461bcd60e51b815260206004820152602d60248201527f455243313936373a206e657720696d706c656d656e746174696f6e206973206e60448201527f6f74206120636f6e7472616374000000000000000000000000000000000000006064820152608401610b7b565b7f360894a13ba1a3210667c828492db98dca3e2076cc3735a920a3ca505d382bbc80546001600160a01b0319166001600160a01b0392909216919091179055565b612fd183613152565b600082511180612fde5750805b156128ed57612b968383613192565b600054610100900460ff166130585760405162461bcd60e51b815260206004820152602b60248201527f496e697469616c697a61626c653a20636f6e7472616374206973206e6f74206960448201526a6e697469616c697a696e6760a81b6064820152608401610b7b565b610e1533612c3a565b600054610100900460ff166128f25760405162461bcd60e51b815260206004820152602b60248201527f496e697469616c697a61626c653a20636f6e7472616374206973206e6f74206960448201526a6e697469616c697a696e6760a81b6064820152608401610b7b565b600054610100900460ff166131375760405162461bcd60e51b815260206004820152602b60248201527f496e697469616c697a61626c653a20636f6e7472616374206973206e6f74206960448201526a6e697469616c697a696e6760a81b6064820152608401610b7b565b60fb805460ff19169055565b6060611fd284846000856131b7565b61315b81612f0a565b6040516001600160a01b038216907fbc7cd75a20ee27fd9adebab32041f755214dbc6bffa90cc0225b39da2e5c2d3b90600090a250565b60606113dc8383604051806060016040528060278152602001613784602791396132a9565b60608247101561322f5760405162461bcd60e51b815260206004820152602660248201527f416464726573733a20696e73756666696369656e742062616c616e636520666f60448201527f722063616c6c00000000000000000000000000000000000000000000000000006064820152608401610b7b565b600080866001600160a01b0316858760405161324b9190613734565b60006040518083038185875af1925050503d8060008114613288576040519150601f19603f3d011682016040523d82523d6000602084013e61328d565b606091505b509150915061329e87838387613321565b979650505050505050565b6060600080856001600160a01b0316856040516132c69190613734565b600060405180830381855af49150503d8060008114613301576040519150601f19603f3d011682016040523d82523d6000602084013e613306565b606091505b509150915061331786838387613321565b9695505050505050565b60608315613390578251600003613389576001600160a01b0385163b6133895760405162461bcd60e51b815260206004820152601d60248201527f416464726573733a2063616c6c20746f206e6f6e2d636f6e74726163740000006044820152606401610b7b565b5081611fd2565b611fd283838151156133a55781518083602001fd5b8060405162461bcd60e51b8152600401610b7b9190613750565b8260028101928215613407579160200282015b8281111561340757825182546001600160a01b0319166001600160a01b039091161782556020909201916001909101906133d2565b50613413929150613417565b5090565b5b808211156134135760008155600101613418565b80356001600160a01b038116811461344357600080fd5b919050565b60006020828403121561345a57600080fd5b6113dc8261342c565b6000806040838503121561347657600080fd5b61347f8361342c565b915061348d6020840161342c565b90509250929050565b6000602082840312156134a857600080fd5b5035919050565b634e487b7160e01b600052604160045260246000fd5b604051601f8201601f1916810167ffffffffffffffff811182821017156134ee576134ee6134af565b604052919050565b6000806040838503121561350957600080fd5b6135128361342c565b915060208084013567ffffffffffffffff8082111561353057600080fd5b818601915086601f83011261354457600080fd5b813581811115613556576135566134af565b613568601f8201601f191685016134c5565b9150808252878482850101111561357e57600080fd5b80848401858401376000848284010152508093505050509250929050565b60008060008060a085870312156135b257600080fd5b6135bb8561342c565b9350602086603f8701126135ce57600080fd5b6040516040810181811067ffffffffffffffff821117156135f1576135f16134af565b60405280606088018981111561360657600080fd5b602089015b818110156136295761361c8161342c565b835291840191840161360b565b509195505035925061363f90506080860161342c565b905092959194509250565b634e487b7160e01b600052601160045260246000fd5b8181038181111561091a5761091a61364a565b808202811582820484141761091a5761091a61364a565b6000826136a757634e487b7160e01b600052601260045260246000fd5b500490565b8082018082111561091a5761091a61364a565b634e487b7160e01b600052603260045260246000fd5b6000602082840312156136e757600080fd5b5051919050565b60006020828403121561370057600080fd5b815180151581146113dc57600080fd5b60005b8381101561372b578181015183820152602001613713565b50506000910152565b60008251613746818460208701613710565b9190910192915050565b602081526000825180602084015261376f816040850160208701613710565b601f01601f1916919091016040019291505056fe416464726573733a206c6f772d6c6576656c2064656c65676174652063616c6c206661696c6564a2646970667358221220e26315cf859d4a51aba226889f8f4309aa31ca426e8a4cd47813c6a16f85e87b64736f6c63430008180033",
  "linkReferences": {},
  "deployedLinkReferences": {}
}