{
  "_format": "hh-sol-artifact-1",
  "contractName": "EIP712Base",
  "sourceName": "contracts/commons/EIP712Base.sol",
  "abi": [
    {
      "inputs": [],
      "name": "domainSeparator",
      "outputs": [
        {
          "internalType": "bytes32",
          "name": "",
          "type": "bytes32"
        }
      ],
      "stateMutability": "view",
      "type": "function"
    },
    {
      "inputs": [],
      "name": "getChainId",
      "outputs": [
        {
          "internalType": "uint256",
          "name": "",
          "type": "uint256"
        }
      ],
      "stateMutability": "view",
      "type": "function"
    }
  ],
  "bytecode": "0x6080604052348015600f57600080fd5b5060898061001e6000396000f3fe6080604052348015600f57600080fd5b506004361060325760003560e01c80633408e470146037578063f698da2514604b575b600080fd5b465b60405190815260200160405180910390f35b60396000548156fea2646970667358221220b14ddb329295c2c7fdb104c34d67246006431a7b7853bd3bb194e14a8af0023564736f6c63430008180033",
  "linkReferences": {},
  "deployedLinkReferences": {}
}