{
  "_format": "hh-sol-artifact-1",
  "contractName": "WenGasStationV1",
  "sourceName": "contracts/WenCore/WenGasStation/WenGasStationV1.sol",
  "abi": [
    {
      "anonymous": false,
      "inputs": [
        {
          "indexed": false,
          "internalType": "address",
          "name": "previousAdmin",
          "type": "address"
        },
        {
          "indexed": false,
          "internalType": "address",
          "name": "newAdmin",
          "type": "address"
        }
      ],
      "name": "AdminChanged",
      "type": "event"
    },
    {
      "anonymous": false,
      "inputs": [
        {
          "indexed": true,
          "internalType": "address",
          "name": "beacon",
          "type": "address"
        }
      ],
      "name": "BeaconUpgraded",
      "type": "event"
    },
    {
      "anonymous": false,
      "inputs": [
        {
          "indexed": false,
          "internalType": "address",
          "name": "contractAddress",
          "type": "address"
        },
        {
          "indexed": false,
          "internalType": "uint256",
          "name": "amount",
          "type": "uint256"
        }
      ],
      "name": "FeesCollected",
      "type": "event"
    },
    {
      "anonymous": false,
      "inputs": [
        {
          "indexed": false,
          "internalType": "address",
          "name": "contractAddress",
          "type": "address"
        },
        {
          "indexed": false,
          "internalType": "uint256",
          "name": "amount",
          "type": "uint256"
        }
      ],
      "name": "FeesDistributed",
      "type": "event"
    },
    {
      "anonymous": false,
      "inputs": [
        {
          "indexed": false,
          "internalType": "uint256",
          "name": "amount",
          "type": "uint256"
        }
      ],
      "name": "FeesReceived",
      "type": "event"
    },
    {
      "anonymous": false,
      "inputs": [
        {
          "indexed": false,
          "internalType": "uint8",
          "name": "version",
          "type": "uint8"
        }
      ],
      "name": "Initialized",
      "type": "event"
    },
    {
      "anonymous": false,
      "inputs": [
        {
          "indexed": true,
          "internalType": "address",
          "name": "previousOwner",
          "type": "address"
        },
        {
          "indexed": true,
          "internalType": "address",
          "name": "newOwner",
          "type": "address"
        }
      ],
      "name": "OwnershipTransferred",
      "type": "event"
    },
    {
      "anonymous": false,
      "inputs": [
        {
          "indexed": false,
          "internalType": "address",
          "name": "account",
          "type": "address"
        }
      ],
      "name": "Paused",
      "type": "event"
    },
    {
      "anonymous": false,
      "inputs": [
        {
          "indexed": false,
          "internalType": "address",
          "name": "account",
          "type": "address"
        }
      ],
      "name": "Unpaused",
      "type": "event"
    },
    {
      "anonymous": false,
      "inputs": [
        {
          "indexed": true,
          "internalType": "address",
          "name": "implementation",
          "type": "address"
        }
      ],
      "name": "Upgraded",
      "type": "event"
    },
    {
      "anonymous": false,
      "inputs": [
        {
          "indexed": false,
          "internalType": "address",
          "name": "contractAddress",
          "type": "address"
        },
        {
          "indexed": false,
          "internalType": "address",
          "name": "receipient",
          "type": "address"
        },
        {
          "indexed": false,
          "internalType": "uint256",
          "name": "amount",
          "type": "uint256"
        }
      ],
      "name": "YieldClaimed",
      "type": "event"
    },
    {
      "stateMutability": "payable",
      "type": "fallback"
    },
    {
      "inputs": [
        {
          "internalType": "address",
          "name": "_giver",
          "type": "address"
        }
      ],
      "name": "addFeeGiver",
      "outputs": [],
      "stateMutability": "nonpayable",
      "type": "function"
    },
    {
      "inputs": [
        {
          "internalType": "address",
          "name": "_receiver",
          "type": "address"
        },
        {
          "internalType": "uint256",
          "name": "_percent",
          "type": "uint256"
        }
      ],
      "name": "addFeeReceiver",
      "outputs": [],
      "stateMutability": "nonpayable",
      "type": "function"
    },
    {
      "inputs": [],
      "name": "blast",
      "outputs": [
        {
          "internalType": "contract IBlast",
          "name": "",
          "type": "address"
        }
      ],
      "stateMutability": "view",
      "type": "function"
    },
    {
      "inputs": [
        {
          "internalType": "address",
          "name": "contractAddr",
          "type": "address"
        },
        {
          "internalType": "uint256",
          "name": "newPercentage",
          "type": "uint256"
        }
      ],
      "name": "changePercentage",
      "outputs": [],
      "stateMutability": "nonpayable",
      "type": "function"
    },
    {
      "inputs": [],
      "name": "claimAll",
      "outputs": [],
      "stateMutability": "nonpayable",
      "type": "function"
    },
    {
      "inputs": [
        {
          "internalType": "address",
          "name": "addr",
          "type": "address"
        }
      ],
      "name": "claimAllByContract",
      "outputs": [],
      "stateMutability": "nonpayable",
      "type": "function"
    },
    {
      "inputs": [
        {
          "internalType": "address",
          "name": "contractAddress",
          "type": "address"
        },
        {
          "internalType": "address",
          "name": "recipient",
          "type": "address"
        }
      ],
      "name": "claimAllYield",
      "outputs": [],
      "stateMutability": "nonpayable",
      "type": "function"
    },
    {
      "inputs": [
        {
          "internalType": "address",
          "name": "recipient",
          "type": "address"
        }
      ],
      "name": "claimAllYield",
      "outputs": [],
      "stateMutability": "nonpayable",
      "type": "function"
    },
    {
      "inputs": [
        {
          "internalType": "uint256",
          "name": "minClaimRateBips",
          "type": "uint256"
        }
      ],
      "name": "claimGasAtMinClaimRate",
      "outputs": [],
      "stateMutability": "nonpayable",
      "type": "function"
    },
    {
      "inputs": [
        {
          "internalType": "address",
          "name": "addr",
          "type": "address"
        },
        {
          "internalType": "uint256",
          "name": "minClaimRateBips",
          "type": "uint256"
        }
      ],
      "name": "claimGasAtMinClaimRateByContract",
      "outputs": [],
      "stateMutability": "nonpayable",
      "type": "function"
    },
    {
      "inputs": [],
      "name": "claimMax",
      "outputs": [],
      "stateMutability": "nonpayable",
      "type": "function"
    },
    {
      "inputs": [
        {
          "internalType": "address",
          "name": "addr",
          "type": "address"
        }
      ],
      "name": "claimMaxByContract",
      "outputs": [],
      "stateMutability": "nonpayable",
      "type": "function"
    },
    {
      "inputs": [
        {
          "internalType": "address",
          "name": "recipient",
          "type": "address"
        },
        {
          "internalType": "uint256",
          "name": "amount",
          "type": "uint256"
        }
      ],
      "name": "claimYield",
      "outputs": [],
      "stateMutability": "nonpayable",
      "type": "function"
    },
    {
      "inputs": [
        {
          "internalType": "address",
          "name": "contractAddress",
          "type": "address"
        },
        {
          "internalType": "address",
          "name": "recipient",
          "type": "address"
        },
        {
          "internalType": "uint256",
          "name": "amount",
          "type": "uint256"
        }
      ],
      "name": "claimYield",
      "outputs": [],
      "stateMutability": "nonpayable",
      "type": "function"
    },
    {
      "inputs": [],
      "name": "distributeFees",
      "outputs": [],
      "stateMutability": "nonpayable",
      "type": "function"
    },
    {
      "inputs": [
        {
          "internalType": "uint256",
          "name": "",
          "type": "uint256"
        }
      ],
      "name": "feeGivers",
      "outputs": [
        {
          "internalType": "address",
          "name": "giver",
          "type": "address"
        }
      ],
      "stateMutability": "view",
      "type": "function"
    },
    {
      "inputs": [
        {
          "internalType": "uint256",
          "name": "",
          "type": "uint256"
        }
      ],
      "name": "feeReceivers",
      "outputs": [
        {
          "internalType": "address",
          "name": "receiver",
          "type": "address"
        },
        {
          "internalType": "uint256",
          "name": "percent",
          "type": "uint256"
        }
      ],
      "stateMutability": "view",
      "type": "function"
    },
    {
      "inputs": [],
      "name": "initialize",
      "outputs": [],
      "stateMutability": "nonpayable",
      "type": "function"
    },
    {
      "inputs": [
        {
          "internalType": "address",
          "name": "",
          "type": "address"
        }
      ],
      "name": "operators",
      "outputs": [
        {
          "internalType": "bool",
          "name": "",
          "type": "bool"
        }
      ],
      "stateMutability": "view",
      "type": "function"
    },
    {
      "inputs": [],
      "name": "owner",
      "outputs": [
        {
          "internalType": "address",
          "name": "",
          "type": "address"
        }
      ],
      "stateMutability": "view",
      "type": "function"
    },
    {
      "inputs": [],
      "name": "pause",
      "outputs": [],
      "stateMutability": "nonpayable",
      "type": "function"
    },
    {
      "inputs": [],
      "name": "paused",
      "outputs": [
        {
          "internalType": "bool",
          "name": "",
          "type": "bool"
        }
      ],
      "stateMutability": "view",
      "type": "function"
    },
    {
      "inputs": [],
      "name": "proxiableUUID",
      "outputs": [
        {
          "internalType": "bytes32",
          "name": "",
          "type": "bytes32"
        }
      ],
      "stateMutability": "view",
      "type": "function"
    },
    {
      "inputs": [
        {
          "internalType": "address",
          "name": "_giver",
          "type": "address"
        }
      ],
      "name": "removeFeeGiver",
      "outputs": [],
      "stateMutability": "nonpayable",
      "type": "function"
    },
    {
      "inputs": [
        {
          "internalType": "address",
          "name": "_receiver",
          "type": "address"
        }
      ],
      "name": "removeFeeReceiver",
      "outputs": [],
      "stateMutability": "nonpayable",
      "type": "function"
    },
    {
      "inputs": [],
      "name": "renounceOwnership",
      "outputs": [],
      "stateMutability": "nonpayable",
      "type": "function"
    },
    {
      "inputs": [
        {
          "internalType": "address",
          "name": "_operator",
          "type": "address"
        }
      ],
      "name": "revokeOperator",
      "outputs": [],
      "stateMutability": "nonpayable",
      "type": "function"
    },
    {
      "inputs": [
        {
          "internalType": "address",
          "name": "_blast",
          "type": "address"
        }
      ],
      "name": "setBlast",
      "outputs": [],
      "stateMutability": "nonpayable",
      "type": "function"
    },
    {
      "inputs": [
        {
          "internalType": "address",
          "name": "_governor",
          "type": "address"
        }
      ],
      "name": "setBlastGovernor",
      "outputs": [],
      "stateMutability": "nonpayable",
      "type": "function"
    },
    {
      "inputs": [
        {
          "internalType": "address",
          "name": "_blast",
          "type": "address"
        }
      ],
      "name": "setInitialInfo",
      "outputs": [],
      "stateMutability": "nonpayable",
      "type": "function"
    },
    {
      "inputs": [
        {
          "internalType": "address[]",
          "name": "_operators",
          "type": "address[]"
        }
      ],
      "name": "setOperator",
      "outputs": [],
      "stateMutability": "nonpayable",
      "type": "function"
    },
    {
      "inputs": [
        {
          "internalType": "address",
          "name": "newOwner",
          "type": "address"
        }
      ],
      "name": "transferOwnership",
      "outputs": [],
      "stateMutability": "nonpayable",
      "type": "function"
    },
    {
      "inputs": [],
      "name": "unpause",
      "outputs": [],
      "stateMutability": "nonpayable",
      "type": "function"
    },
    {
      "inputs": [
        {
          "internalType": "address",
          "name": "newImplementation",
          "type": "address"
        }
      ],
      "name": "upgradeTo",
      "outputs": [],
      "stateMutability": "nonpayable",
      "type": "function"
    },
    {
      "inputs": [
        {
          "internalType": "address",
          "name": "newImplementation",
          "type": "address"
        },
        {
          "internalType": "bytes",
          "name": "data",
          "type": "bytes"
        }
      ],
      "name": "upgradeToAndCall",
      "outputs": [],
      "stateMutability": "payable",
      "type": "function"
    },
    {
      "stateMutability": "payable",
      "type": "receive"
    }
  ],
  "bytecode": "0x60a06040523060805234801561001457600080fd5b50608051612f9f61004c60003960008181610972015281816109f701528181610df001528181610e750152610f5f0152612f9f6000f3fe6080604052600436106102175760003560e01c8063715018a611610126578063bb57ad20116100a7578063d616ca9f11610079578063f2fde38b11610061578063f2fde38b1461061d578063f97196621461063d578063fad8b32a1461065d57005b8063d616ca9f146105dd578063e647a430146105fd57005b8063bb57ad2014610573578063c2d94aec14610588578063cf85c2fb146105a8578063d1058e59146105c857005b8063860043b6116100f8578063ad107a40116100e0578063ad107a4014610513578063ae1feb9514610533578063b24c73021461055357005b8063860043b6146104d55780638da5cb5b146104f557005b8063715018a6146104765780638129fc1c1461048b57806383f19e76146104a05780638456cb59146104c057005b80633f4ba83a116101b05780635744ee88116101825780635c975abb1161016a5780635c975abb1461041e57806360ac43b7146104365780636266d3241461045657005b80635744ee88146103bf5780635b381760146103df57005b80633f4ba83a1461035457806342082c1e146103695780634f1ef2861461038957806352d1902d1461039c57005b80632c7019bd116101e95780632c7019bd146102df5780633659cfe6146102ff57806337c349dc1461031f5780633e99fcfd1461033457005b806313e7c9d814610220578063175e1a7d146102665780631869ebda1461029f578063232bc804146102bf57005b3661021e57005b005b34801561022c57600080fd5b5061025161023b366004612bfb565b6101306020526000908152604090205460ff1681565b60405190151581526020015b60405180910390f35b34801561027257600080fd5b5061012d54610287906001600160a01b031681565b6040516001600160a01b03909116815260200161025d565b3480156102ab57600080fd5b5061021e6102ba366004612c16565b61067d565b3480156102cb57600080fd5b5061021e6102da366004612c16565b610793565b3480156102eb57600080fd5b5061021e6102fa366004612bfb565b6108a6565b34801561030b57600080fd5b5061021e61031a366004612bfb565b610968565b34801561032b57600080fd5b5061021e610ae3565b34801561034057600080fd5b5061021e61034f366004612bfb565b610c41565b34801561036057600080fd5b5061021e610d56565b34801561037557600080fd5b5061021e610384366004612c40565b610d70565b61021e610397366004612ccb565b610de6565b3480156103a857600080fd5b506103b1610f52565b60405190815260200161025d565b3480156103cb57600080fd5b5061021e6103da366004612bfb565b611017565b3480156103eb57600080fd5b506103ff6103fa366004612d8d565b611112565b604080516001600160a01b03909316835260208301919091520161025d565b34801561042a57600080fd5b5060fb5460ff16610251565b34801561044257600080fd5b5061021e610451366004612bfb565b61114b565b34801561046257600080fd5b5061021e610471366004612bfb565b611253565b34801561048257600080fd5b5061021e6112bc565b34801561049757600080fd5b5061021e6112ce565b3480156104ac57600080fd5b5061021e6104bb366004612c16565b6113fd565b3480156104cc57600080fd5b5061021e611508565b3480156104e157600080fd5b5061021e6104f0366004612da6565b611520565b34801561050157600080fd5b506097546001600160a01b0316610287565b34801561051f57600080fd5b5061021e61052e366004612bfb565b611689565b34801561053f57600080fd5b5061021e61054e366004612bfb565b6117a9565b34801561055f57600080fd5b5061021e61056e366004612c16565b611835565b34801561057f57600080fd5b5061021e611929565b34801561059457600080fd5b5061021e6105a3366004612bfb565b611bbf565b3480156105b457600080fd5b5061021e6105c3366004612bfb565b611d0e565b3480156105d457600080fd5b5061021e611d39565b3480156105e957600080fd5b5061021e6105f8366004612d8d565b611e97565b34801561060957600080fd5b50610287610618366004612d8d565b611ffc565b34801561062957600080fd5b5061021e610638366004612bfb565b612027565b34801561064957600080fd5b5061021e610658366004612dd9565b6120b4565b34801561066957600080fd5b5061021e610678366004612bfb565b6121db565b336000908152610130602052604090205460ff166106d45760405162461bcd60e51b815260206004820152600f60248201526e4e6f742061206f70657261746f727360881b60448201526064015b60405180910390fd5b61012d54604051637cb8cb3160e11b81523060048201526001600160a01b03848116602483015260448201849052600092169063f9719662906064016020604051808303816000875af115801561072f573d6000803e3d6000fd5b505050506040513d601f19601f820116820180604052508101906107539190612e15565b90507f91b044947b8ab661360de0aedacf8d16ad45adfb1f3bafb2ac8c4633e297b9718160405161078691815260200190565b60405180910390a1505050565b336000908152610130602052604090205460ff166107e55760405162461bcd60e51b815260206004820152600f60248201526e4e6f742061206f70657261746f727360881b60448201526064016106cb565b61012d54604051630951888f60e01b81526001600160a01b038481166004830152306024830152604482018490526000921690630951888f906064016020604051808303816000875af1158015610840573d6000803e3d6000fd5b505050506040513d601f19601f820116820180604052508101906108649190612e15565b604080516001600160a01b0386168152602081018390529192507f9dc46f23cfb5ddcad0ae7ea2be38d47fec07bb9382ec7e564efc69e036dd66ce9101610786565b6108ae61226e565b6001600160a01b0381166109045760405162461bcd60e51b815260206004820152601560248201527f496e76616c69642067697665722061646472657373000000000000000000000060448201526064016106cb565b60408051602081019091526001600160a01b03918216815261012f805460018101825560009190915290517f232da9e50dad2971456a78fb5cd6ff6b75019984d6e918139ce990999420f97990910180546001600160a01b03191691909216179055565b6001600160a01b037f00000000000000000000000000000000000000000000000000000000000000001630036109f55760405162461bcd60e51b815260206004820152602c60248201527f46756e6374696f6e206d7573742062652063616c6c6564207468726f7567682060448201526b19195b1959d85d1958d85b1b60a21b60648201526084016106cb565b7f00000000000000000000000000000000000000000000000000000000000000006001600160a01b0316610a507f360894a13ba1a3210667c828492db98dca3e2076cc3735a920a3ca505d382bbc546001600160a01b031690565b6001600160a01b031614610abb5760405162461bcd60e51b815260206004820152602c60248201527f46756e6374696f6e206d7573742062652063616c6c6564207468726f7567682060448201526b6163746976652070726f787960a01b60648201526084016106cb565b610ac4816122c8565b60408051600080825260208201909252610ae0918391906122d0565b50565b336000908152610130602052604090205460ff16610b355760405162461bcd60e51b815260206004820152600f60248201526e4e6f742061206f70657261746f727360881b60448201526064016106cb565b60005b61012f54811015610ae057600061012f8281548110610b5957610b59612e2e565b600091825260208083206040805192830181529201546001600160a01b0390811680835261012d54935163662aa11d60e01b81526004810191909152306024820152919450919091169063662aa11d906044016020604051808303816000875af1158015610bcb573d6000803e3d6000fd5b505050506040513d601f19601f82011682018060405250810190610bef9190612e15565b8251604080516001600160a01b039092168252602082018390529192507f9dc46f23cfb5ddcad0ae7ea2be38d47fec07bb9382ec7e564efc69e036dd66ce910160405180910390a15050600101610b38565b336000908152610130602052604090205460ff16610c935760405162461bcd60e51b815260206004820152600f60248201526e4e6f742061206f70657261746f727360881b60448201526064016106cb565b61012d5460405163662aa11d60e01b81526001600160a01b038381166004830152306024830152600092169063662aa11d906044015b6020604051808303816000875af1158015610ce8573d6000803e3d6000fd5b505050506040513d601f19601f82011682018060405250810190610d0c9190612e15565b604080516001600160a01b0385168152602081018390529192507f9dc46f23cfb5ddcad0ae7ea2be38d47fec07bb9382ec7e564efc69e036dd66ce91015b60405180910390a15050565b610d5e61226e565b610d66612470565b610d6e6124c2565b565b610d7861226e565b60005b81811015610de15760016101306000858585818110610d9c57610d9c612e2e565b9050602002016020810190610db19190612bfb565b6001600160a01b031681526020810191909152604001600020805460ff1916911515919091179055600101610d7b565b505050565b6001600160a01b037f0000000000000000000000000000000000000000000000000000000000000000163003610e735760405162461bcd60e51b815260206004820152602c60248201527f46756e6374696f6e206d7573742062652063616c6c6564207468726f7567682060448201526b19195b1959d85d1958d85b1b60a21b60648201526084016106cb565b7f00000000000000000000000000000000000000000000000000000000000000006001600160a01b0316610ece7f360894a13ba1a3210667c828492db98dca3e2076cc3735a920a3ca505d382bbc546001600160a01b031690565b6001600160a01b031614610f395760405162461bcd60e51b815260206004820152602c60248201527f46756e6374696f6e206d7573742062652063616c6c6564207468726f7567682060448201526b6163746976652070726f787960a01b60648201526084016106cb565b610f42826122c8565b610f4e828260016122d0565b5050565b6000306001600160a01b037f00000000000000000000000000000000000000000000000000000000000000001614610ff25760405162461bcd60e51b815260206004820152603860248201527f555550535570677261646561626c653a206d757374206e6f742062652063616c60448201527f6c6564207468726f7567682064656c656761746563616c6c000000000000000060648201526084016106cb565b507f360894a13ba1a3210667c828492db98dca3e2076cc3735a920a3ca505d382bbc90565b61101f61226e565b61012d80546001600160a01b0319166001600160a01b038316908117909155604080517ff098767a000000000000000000000000000000000000000000000000000000008152905163f098767a9160048082019260009290919082900301818387803b15801561108e57600080fd5b505af11580156110a2573d6000803e3d6000fd5b5050505061012d60009054906101000a90046001600160a01b03166001600160a01b0316634e606c476040518163ffffffff1660e01b8152600401600060405180830381600087803b1580156110f757600080fd5b505af115801561110b573d6000803e3d6000fd5b5050505050565b61012e818154811061112357600080fd5b6000918252602090912060029091020180546001909101546001600160a01b03909116915082565b61115361226e565b600061115e82612514565b905060001981036111b15760405162461bcd60e51b815260206004820152600f60248201527f4769766572206e6f7420666f756e64000000000000000000000000000000000060448201526064016106cb565b61012f80546111c290600190612e5a565b815481106111d2576111d2612e2e565b9060005260206000200161012f82815481106111f0576111f0612e2e565b600091825260209091209154910180546001600160a01b0319166001600160a01b0390921691909117905561012f80548061122d5761122d612e6d565b600082815260209020810160001990810180546001600160a01b03191690550190555050565b61125b61226e565b61012d546040517feb8646980000000000000000000000000000000000000000000000000000000081526001600160a01b0383811660048301529091169063eb86469890602401600060405180830381600087803b1580156110f757600080fd5b6112c461226e565b610d6e6000612573565b600054610100900460ff16158080156112ee5750600054600160ff909116105b806113085750303b158015611308575060005460ff166001145b61137a5760405162461bcd60e51b815260206004820152602e60248201527f496e697469616c697a61626c653a20636f6e747261637420697320616c72656160448201527f647920696e697469616c697a656400000000000000000000000000000000000060648201526084016106cb565b6000805460ff19166001179055801561139d576000805461ff0019166101001790555b6113a56125c5565b6113ad612638565b6113b56126ab565b8015610ae0576000805461ff0019169055604051600181527f7f26b83ff96e1f2b6a682f133852f6798a09c465da95921460cefb38474024989060200160405180910390a150565b61140561226e565b60006114108361271e565b905060001981036114635760405162461bcd60e51b815260206004820152601260248201527f5265636569766572206e6f7420666f756e64000000000000000000000000000060448201526064016106cb565b600082116114d95760405162461bcd60e51b815260206004820152602660248201527f4e65772050657263656e746167652073686f756c64206265206269676765722060448201527f7468616e2030000000000000000000000000000000000000000000000000000060648201526084016106cb565b8161012e82815481106114ee576114ee612e2e565b906000526020600020906002020160010181905550505050565b61151061226e565b611518612778565b610d6e6127cb565b336000908152610130602052604090205460ff166115725760405162461bcd60e51b815260206004820152600f60248201526e4e6f742061206f70657261746f727360881b60448201526064016106cb565b336000908152610130602052604090205460ff166115c45760405162461bcd60e51b815260206004820152600f60248201526e4e6f742061206f70657261746f727360881b60448201526064016106cb565b61012d5460405163430021db60e11b81526001600160a01b0384811660048301528381166024830152600092169063860043b6906044016020604051808303816000875af115801561161a573d6000803e3d6000fd5b505050506040513d601f19601f8201168201806040525081019061163e9190612e15565b604080516001600160a01b038087168252851660208201529081018290529091507ff3055bc8d92d9c8d2f12b45d112dd345cd2cfd17292b8d65c5642ac6f912dfd790606001610786565b61169161226e565b600061169c8261271e565b905060001981036116ef5760405162461bcd60e51b815260206004820152601260248201527f5265636569766572206e6f7420666f756e64000000000000000000000000000060448201526064016106cb565b61012e805461170090600190612e5a565b8154811061171057611710612e2e565b906000526020600020906002020161012e828154811061173257611732612e2e565b60009182526020909120825460029092020180546001600160a01b0319166001600160a01b0390921691909117815560019182015491015561012e80548061177c5761177c612e6d565b60008281526020812060026000199093019283020180546001600160a01b03191681556001015590555050565b336000908152610130602052604090205460ff166117fb5760405162461bcd60e51b815260206004820152600f60248201526e4e6f742061206f70657261746f727360881b60448201526064016106cb565b61012d54604051634aa7d2f760e11b81526001600160a01b038381166004830152306024830152600092169063954fa5ee90604401610cc9565b61183d61226e565b6001600160a01b0382166118935760405162461bcd60e51b815260206004820152601860248201527f496e76616c69642072656365697665722061646472657373000000000000000060448201526064016106cb565b604080518082019091526001600160a01b0392831681526020810191825261012e805460018101825560009190915290517fbdaadd9f750d0166045bf387a364eadd28ba243e04512a47282aa5147a68e37f600290920291820180546001600160a01b0319169190941617909255517fbdaadd9f750d0166045bf387a364eadd28ba243e04512a47282aa5147a68e38090910155565b336000908152610130602052604090205460ff1661197b5760405162461bcd60e51b815260206004820152600f60248201526e4e6f742061206f70657261746f727360881b60448201526064016106cb565b600047116119cb5760405162461bcd60e51b815260206004820152601560248201527f4e6f2045746820746f20646973747269627574652e000000000000000000000060448201526064016106cb565b476000805b61012e54811015611a165761012e81815481106119ef576119ef612e2e565b90600052602060002090600202016001015482611a0c9190612e83565b91506001016119d0565b5060008111611a8d5760405162461bcd60e51b815260206004820152602360248201527f546f74616c2070657263656e742073686f756c64206265206d6f72652074686160448201527f6e2030000000000000000000000000000000000000000000000000000000000060648201526084016106cb565b60005b61012e54811015610de157600061012e8281548110611ab157611ab1612e2e565b600091825260208083206040805180820190915260029093020180546001600160a01b03168352600101549082018190529092506402540be400908590611af89088612e96565b611b07906402540be400612e96565b611b119190612ead565b611b1b9190612ead565b82516040519192506001600160a01b0316908290600081818185875af1925050503d8060008114611b68576040519150601f19603f3d011682016040523d82523d6000602084013e611b6d565b606091505b50508251604080516001600160a01b039092168252602082018490527f63be20cc905d5ba0cf65db405c4999f99f2575e521875f13a8009d6eed7a09d992500160405180910390a15050600101611a90565b336000908152610130602052604090205460ff16611c115760405162461bcd60e51b815260206004820152600f60248201526e4e6f742061206f70657261746f727360881b60448201526064016106cb565b336000908152610130602052604090205460ff16611c635760405162461bcd60e51b815260206004820152600f60248201526e4e6f742061206f70657261746f727360881b60448201526064016106cb565b61012d5460405163430021db60e11b81523060048201526001600160a01b038381166024830152600092169063860043b6906044016020604051808303816000875af1158015611cb7573d6000803e3d6000fd5b505050506040513d601f19601f82011682018060405250810190611cdb9190612e15565b90507f91b044947b8ab661360de0aedacf8d16ad45adfb1f3bafb2ac8c4633e297b97181604051610d4a91815260200190565b611d1661226e565b61012d80546001600160a01b0319166001600160a01b0392909216919091179055565b336000908152610130602052604090205460ff16611d8b5760405162461bcd60e51b815260206004820152600f60248201526e4e6f742061206f70657261746f727360881b60448201526064016106cb565b60005b61012f54811015610ae057600061012f8281548110611daf57611daf612e2e565b600091825260208083206040805192830181529201546001600160a01b0390811680835261012d549351634aa7d2f760e11b81526004810191909152306024820152919450919091169063954fa5ee906044016020604051808303816000875af1158015611e21573d6000803e3d6000fd5b505050506040513d601f19601f82011682018060405250810190611e459190612e15565b8251604080516001600160a01b039092168252602082018390529192507f9dc46f23cfb5ddcad0ae7ea2be38d47fec07bb9382ec7e564efc69e036dd66ce910160405180910390a15050600101611d8e565b336000908152610130602052604090205460ff16611ee95760405162461bcd60e51b815260206004820152600f60248201526e4e6f742061206f70657261746f727360881b60448201526064016106cb565b60005b61012f54811015610f4e57600061012f8281548110611f0d57611f0d612e2e565b600091825260208083206040805192830181529201546001600160a01b0390811680835261012d549351630951888f60e01b81526004810191909152306024820152604481018890529194509190911690630951888f906064016020604051808303816000875af1158015611f86573d6000803e3d6000fd5b505050506040513d601f19601f82011682018060405250810190611faa9190612e15565b8251604080516001600160a01b039092168252602082018390529192507f9dc46f23cfb5ddcad0ae7ea2be38d47fec07bb9382ec7e564efc69e036dd66ce910160405180910390a15050600101611eec565b61012f818154811061200d57600080fd5b6000918252602090912001546001600160a01b0316905081565b61202f61226e565b6001600160a01b0381166120ab5760405162461bcd60e51b815260206004820152602660248201527f4f776e61626c653a206e6577206f776e657220697320746865207a65726f206160448201527f646472657373000000000000000000000000000000000000000000000000000060648201526084016106cb565b610ae081612573565b336000908152610130602052604090205460ff166121065760405162461bcd60e51b815260206004820152600f60248201526e4e6f742061206f70657261746f727360881b60448201526064016106cb565b61012d54604051637cb8cb3160e11b81526001600160a01b038581166004830152848116602483015260448201849052600092169063f9719662906064016020604051808303816000875af1158015612163573d6000803e3d6000fd5b505050506040513d601f19601f820116820180604052508101906121879190612e15565b604080516001600160a01b038088168252861660208201529081018290529091507ff3055bc8d92d9c8d2f12b45d112dd345cd2cfd17292b8d65c5642ac6f912dfd79060600160405180910390a150505050565b6121e361226e565b6001600160a01b0381166000908152610130602052604090205460ff1661224c5760405162461bcd60e51b815260206004820152601f60248201527f546869732061646472657373206973206e6f7420616e206f70657261746f720060448201526064016106cb565b6001600160a01b0316600090815261013060205260409020805460ff19169055565b6097546001600160a01b03163314610d6e5760405162461bcd60e51b815260206004820181905260248201527f4f776e61626c653a2063616c6c6572206973206e6f7420746865206f776e657260448201526064016106cb565b610ae061226e565b7f4910fdfa16fed3260ed0e7147f7cc6da11a60208b5b9406d12a635614ffd91435460ff161561230357610de183612808565b826001600160a01b03166352d1902d6040518163ffffffff1660e01b8152600401602060405180830381865afa92505050801561235d575060408051601f3d908101601f1916820190925261235a91810190612e15565b60015b6123cf5760405162461bcd60e51b815260206004820152602e60248201527f45524331393637557067726164653a206e657720696d706c656d656e7461746960448201527f6f6e206973206e6f74205555505300000000000000000000000000000000000060648201526084016106cb565b7f360894a13ba1a3210667c828492db98dca3e2076cc3735a920a3ca505d382bbc81146124645760405162461bcd60e51b815260206004820152602960248201527f45524331393637557067726164653a20756e737570706f727465642070726f7860448201527f6961626c6555554944000000000000000000000000000000000000000000000060648201526084016106cb565b50610de18383836128c6565b60fb5460ff16610d6e5760405162461bcd60e51b815260206004820152601460248201527f5061757361626c653a206e6f742070617573656400000000000000000000000060448201526064016106cb565b6124ca612470565b60fb805460ff191690557f5db9ee0a495bf2e6ff9c91a7834c1ba4fdd244a5e8aa4e537bd38aeae4b073aa335b6040516001600160a01b03909116815260200160405180910390a1565b6000805b61012f5481101561256957826001600160a01b031661012f828154811061254157612541612e2e565b6000918252602090912001546001600160a01b0316036125615792915050565b600101612518565b5060001992915050565b609780546001600160a01b038381166001600160a01b0319831681179093556040519116919082907f8be0079c531659141344cd1fd0a4f28419497f9722a3daafe3b4186f6b6457e090600090a35050565b600054610100900460ff166126305760405162461bcd60e51b815260206004820152602b60248201527f496e697469616c697a61626c653a20636f6e7472616374206973206e6f74206960448201526a6e697469616c697a696e6760a81b60648201526084016106cb565b610d6e6128f1565b600054610100900460ff166126a35760405162461bcd60e51b815260206004820152602b60248201527f496e697469616c697a61626c653a20636f6e7472616374206973206e6f74206960448201526a6e697469616c697a696e6760a81b60648201526084016106cb565b610d6e612965565b600054610100900460ff166127165760405162461bcd60e51b815260206004820152602b60248201527f496e697469616c697a61626c653a20636f6e7472616374206973206e6f74206960448201526a6e697469616c697a696e6760a81b60648201526084016106cb565b610d6e6129d7565b6000805b61012e5481101561256957826001600160a01b031661012e828154811061274b5761274b612e2e565b60009182526020909120600290910201546001600160a01b0316036127705792915050565b600101612722565b60fb5460ff1615610d6e5760405162461bcd60e51b815260206004820152601060248201527f5061757361626c653a207061757365640000000000000000000000000000000060448201526064016106cb565b6127d3612778565b60fb805460ff191660011790557f62e78cea01bee320cd4e420270b5ea74000d11b0c9f74754ebdbfc544b05a2586124f73390565b6001600160a01b0381163b6128855760405162461bcd60e51b815260206004820152602d60248201527f455243313936373a206e657720696d706c656d656e746174696f6e206973206e60448201527f6f74206120636f6e74726163740000000000000000000000000000000000000060648201526084016106cb565b7f360894a13ba1a3210667c828492db98dca3e2076cc3735a920a3ca505d382bbc80546001600160a01b0319166001600160a01b0392909216919091179055565b6128cf83612a4e565b6000825111806128dc5750805b15610de1576128eb8383612a8e565b50505050565b600054610100900460ff1661295c5760405162461bcd60e51b815260206004820152602b60248201527f496e697469616c697a61626c653a20636f6e7472616374206973206e6f74206960448201526a6e697469616c697a696e6760a81b60648201526084016106cb565b610d6e33612573565b600054610100900460ff166129d05760405162461bcd60e51b815260206004820152602b60248201527f496e697469616c697a61626c653a20636f6e7472616374206973206e6f74206960448201526a6e697469616c697a696e6760a81b60648201526084016106cb565b600160c955565b600054610100900460ff16612a425760405162461bcd60e51b815260206004820152602b60248201527f496e697469616c697a61626c653a20636f6e7472616374206973206e6f74206960448201526a6e697469616c697a696e6760a81b60648201526084016106cb565b60fb805460ff19169055565b612a5781612808565b6040516001600160a01b038216907fbc7cd75a20ee27fd9adebab32041f755214dbc6bffa90cc0225b39da2e5c2d3b90600090a250565b6060612ab38383604051806060016040528060278152602001612f4360279139612abc565b90505b92915050565b6060600080856001600160a01b031685604051612ad99190612ef3565b600060405180830381855af49150503d8060008114612b14576040519150601f19603f3d011682016040523d82523d6000602084013e612b19565b606091505b5091509150612b2a86838387612b34565b9695505050505050565b60608315612ba3578251600003612b9c576001600160a01b0385163b612b9c5760405162461bcd60e51b815260206004820152601d60248201527f416464726573733a2063616c6c20746f206e6f6e2d636f6e747261637400000060448201526064016106cb565b5081612bad565b612bad8383612bb5565b949350505050565b815115612bc55781518083602001fd5b8060405162461bcd60e51b81526004016106cb9190612f0f565b80356001600160a01b0381168114612bf657600080fd5b919050565b600060208284031215612c0d57600080fd5b612ab382612bdf565b60008060408385031215612c2957600080fd5b612c3283612bdf565b946020939093013593505050565b60008060208385031215612c5357600080fd5b823567ffffffffffffffff80821115612c6b57600080fd5b818501915085601f830112612c7f57600080fd5b813581811115612c8e57600080fd5b8660208260051b8501011115612ca357600080fd5b60209290920196919550909350505050565b634e487b7160e01b600052604160045260246000fd5b60008060408385031215612cde57600080fd5b612ce783612bdf565b9150602083013567ffffffffffffffff80821115612d0457600080fd5b818501915085601f830112612d1857600080fd5b813581811115612d2a57612d2a612cb5565b604051601f8201601f19908116603f01168101908382118183101715612d5257612d52612cb5565b81604052828152886020848701011115612d6b57600080fd5b8260208601602083013760006020848301015280955050505050509250929050565b600060208284031215612d9f57600080fd5b5035919050565b60008060408385031215612db957600080fd5b612dc283612bdf565b9150612dd060208401612bdf565b90509250929050565b600080600060608486031215612dee57600080fd5b612df784612bdf565b9250612e0560208501612bdf565b9150604084013590509250925092565b600060208284031215612e2757600080fd5b5051919050565b634e487b7160e01b600052603260045260246000fd5b634e487b7160e01b600052601160045260246000fd5b81810381811115612ab657612ab6612e44565b634e487b7160e01b600052603160045260246000fd5b80820180821115612ab657612ab6612e44565b8082028115828204841417612ab657612ab6612e44565b600082612eca57634e487b7160e01b600052601260045260246000fd5b500490565b60005b83811015612eea578181015183820152602001612ed2565b50506000910152565b60008251612f05818460208701612ecf565b9190910192915050565b6020815260008251806020840152612f2e816040850160208701612ecf565b601f01601f1916919091016040019291505056fe416464726573733a206c6f772d6c6576656c2064656c65676174652063616c6c206661696c6564a26469706673582212201c21bfe0802180e5ad860d8ed03612cd88e0f44f206c767ecd16766d94ab01e564736f6c63430008180033",
  "linkReferences": {},
  "deployedLinkReferences": {}
}