{
  "_format": "hh-sol-artifact-1",
  "contractName": "WenStakingV1",
  "sourceName": "contracts/WenCore/WenStakingV1.sol",
  "abi": [
    {
      "anonymous": false,
      "inputs": [
        {
          "indexed": false,
          "internalType": "address",
          "name": "previousAdmin",
          "type": "address"
        },
        {
          "indexed": false,
          "internalType": "address",
          "name": "newAdmin",
          "type": "address"
        }
      ],
      "name": "AdminChanged",
      "type": "event"
    },
    {
      "anonymous": false,
      "inputs": [
        {
          "indexed": true,
          "internalType": "address",
          "name": "beacon",
          "type": "address"
        }
      ],
      "name": "BeaconUpgraded",
      "type": "event"
    },
    {
      "anonymous": false,
      "inputs": [
        {
          "indexed": false,
          "internalType": "uint8",
          "name": "version",
          "type": "uint8"
        }
      ],
      "name": "Initialized",
      "type": "event"
    },
    {
      "anonymous": false,
      "inputs": [
        {
          "indexed": true,
          "internalType": "address",
          "name": "previousOwner",
          "type": "address"
        },
        {
          "indexed": true,
          "internalType": "address",
          "name": "newOwner",
          "type": "address"
        }
      ],
      "name": "OwnershipTransferred",
      "type": "event"
    },
    {
      "anonymous": false,
      "inputs": [
        {
          "indexed": false,
          "internalType": "address",
          "name": "account",
          "type": "address"
        }
      ],
      "name": "Paused",
      "type": "event"
    },
    {
      "anonymous": false,
      "inputs": [
        {
          "indexed": true,
          "internalType": "address",
          "name": "rewardsToken",
          "type": "address"
        },
        {
          "indexed": false,
          "internalType": "uint256",
          "name": "reward",
          "type": "uint256"
        }
      ],
      "name": "RewardAdded",
      "type": "event"
    },
    {
      "anonymous": false,
      "inputs": [
        {
          "indexed": true,
          "internalType": "address",
          "name": "user",
          "type": "address"
        },
        {
          "indexed": true,
          "internalType": "address",
          "name": "rewardsToken",
          "type": "address"
        },
        {
          "indexed": false,
          "internalType": "uint256",
          "name": "reward",
          "type": "uint256"
        }
      ],
      "name": "RewardPaid",
      "type": "event"
    },
    {
      "anonymous": false,
      "inputs": [
        {
          "indexed": false,
          "internalType": "uint256",
          "name": "newDuration",
          "type": "uint256"
        }
      ],
      "name": "RewardsDurationUpdated",
      "type": "event"
    },
    {
      "anonymous": false,
      "inputs": [
        {
          "indexed": true,
          "internalType": "address",
          "name": "user",
          "type": "address"
        },
        {
          "indexed": false,
          "internalType": "uint256",
          "name": "amount",
          "type": "uint256"
        }
      ],
      "name": "Staked",
      "type": "event"
    },
    {
      "anonymous": false,
      "inputs": [
        {
          "indexed": false,
          "internalType": "address",
          "name": "account",
          "type": "address"
        }
      ],
      "name": "Unpaused",
      "type": "event"
    },
    {
      "anonymous": false,
      "inputs": [
        {
          "indexed": false,
          "internalType": "address",
          "name": "rewardToken",
          "type": "address"
        },
        {
          "indexed": false,
          "internalType": "uint256",
          "name": "rewardPerTokenStored",
          "type": "uint256"
        },
        {
          "indexed": false,
          "internalType": "address",
          "name": "user",
          "type": "address"
        },
        {
          "indexed": false,
          "internalType": "uint256",
          "name": "earned",
          "type": "uint256"
        },
        {
          "indexed": false,
          "internalType": "uint256",
          "name": "userRewardPerTokenPaid",
          "type": "uint256"
        }
      ],
      "name": "UpdateReward",
      "type": "event"
    },
    {
      "anonymous": false,
      "inputs": [
        {
          "indexed": true,
          "internalType": "address",
          "name": "implementation",
          "type": "address"
        }
      ],
      "name": "Upgraded",
      "type": "event"
    },
    {
      "anonymous": false,
      "inputs": [
        {
          "indexed": true,
          "internalType": "address",
          "name": "user",
          "type": "address"
        },
        {
          "indexed": false,
          "internalType": "uint256",
          "name": "amount",
          "type": "uint256"
        }
      ],
      "name": "Withdrawn",
      "type": "event"
    },
    {
      "stateMutability": "payable",
      "type": "fallback"
    },
    {
      "inputs": [],
      "name": "REWARDS_DURATION",
      "outputs": [
        {
          "internalType": "uint256",
          "name": "",
          "type": "uint256"
        }
      ],
      "stateMutability": "view",
      "type": "function"
    },
    {
      "inputs": [
        {
          "internalType": "address",
          "name": "",
          "type": "address"
        }
      ],
      "name": "balanceOf",
      "outputs": [
        {
          "internalType": "uint256",
          "name": "",
          "type": "uint256"
        }
      ],
      "stateMutability": "view",
      "type": "function"
    },
    {
      "inputs": [],
      "name": "claimReward",
      "outputs": [],
      "stateMutability": "nonpayable",
      "type": "function"
    },
    {
      "inputs": [
        {
          "internalType": "address",
          "name": "account",
          "type": "address"
        },
        {
          "internalType": "address",
          "name": "_rewardsToken",
          "type": "address"
        }
      ],
      "name": "earned",
      "outputs": [
        {
          "internalType": "uint256",
          "name": "",
          "type": "uint256"
        }
      ],
      "stateMutability": "view",
      "type": "function"
    },
    {
      "inputs": [
        {
          "internalType": "address",
          "name": "_rewardsToken",
          "type": "address"
        }
      ],
      "name": "getRewardForDuration",
      "outputs": [
        {
          "internalType": "uint256",
          "name": "",
          "type": "uint256"
        }
      ],
      "stateMutability": "view",
      "type": "function"
    },
    {
      "inputs": [],
      "name": "initialize",
      "outputs": [],
      "stateMutability": "nonpayable",
      "type": "function"
    },
    {
      "inputs": [
        {
          "internalType": "address",
          "name": "_rewardsToken",
          "type": "address"
        }
      ],
      "name": "lastTimeRewardApplicable",
      "outputs": [
        {
          "internalType": "uint256",
          "name": "",
          "type": "uint256"
        }
      ],
      "stateMutability": "view",
      "type": "function"
    },
    {
      "inputs": [],
      "name": "owner",
      "outputs": [
        {
          "internalType": "address",
          "name": "",
          "type": "address"
        }
      ],
      "stateMutability": "view",
      "type": "function"
    },
    {
      "inputs": [],
      "name": "pause",
      "outputs": [],
      "stateMutability": "nonpayable",
      "type": "function"
    },
    {
      "inputs": [],
      "name": "paused",
      "outputs": [
        {
          "internalType": "bool",
          "name": "",
          "type": "bool"
        }
      ],
      "stateMutability": "view",
      "type": "function"
    },
    {
      "inputs": [],
      "name": "proxiableUUID",
      "outputs": [
        {
          "internalType": "bytes32",
          "name": "",
          "type": "bytes32"
        }
      ],
      "stateMutability": "view",
      "type": "function"
    },
    {
      "inputs": [],
      "name": "renounceOwnership",
      "outputs": [],
      "stateMutability": "nonpayable",
      "type": "function"
    },
    {
      "inputs": [
        {
          "internalType": "address",
          "name": "",
          "type": "address"
        }
      ],
      "name": "rewardData",
      "outputs": [
        {
          "internalType": "uint256",
          "name": "periodFinish",
          "type": "uint256"
        },
        {
          "internalType": "uint256",
          "name": "rewardRate",
          "type": "uint256"
        },
        {
          "internalType": "uint256",
          "name": "lastUpdateTime",
          "type": "uint256"
        },
        {
          "internalType": "uint256",
          "name": "rewardPerTokenStored",
          "type": "uint256"
        },
        {
          "internalType": "uint256",
          "name": "balance",
          "type": "uint256"
        }
      ],
      "stateMutability": "view",
      "type": "function"
    },
    {
      "inputs": [
        {
          "internalType": "address",
          "name": "_rewardsToken",
          "type": "address"
        }
      ],
      "name": "rewardPerToken",
      "outputs": [
        {
          "internalType": "uint256",
          "name": "",
          "type": "uint256"
        }
      ],
      "stateMutability": "view",
      "type": "function"
    },
    {
      "inputs": [
        {
          "internalType": "uint256",
          "name": "",
          "type": "uint256"
        }
      ],
      "name": "rewardTokens",
      "outputs": [
        {
          "internalType": "address",
          "name": "",
          "type": "address"
        }
      ],
      "stateMutability": "view",
      "type": "function"
    },
    {
      "inputs": [
        {
          "internalType": "address",
          "name": "",
          "type": "address"
        },
        {
          "internalType": "address",
          "name": "",
          "type": "address"
        }
      ],
      "name": "rewards",
      "outputs": [
        {
          "internalType": "uint256",
          "name": "",
          "type": "uint256"
        }
      ],
      "stateMutability": "view",
      "type": "function"
    },
    {
      "inputs": [],
      "name": "rewardsDistribution",
      "outputs": [
        {
          "internalType": "address",
          "name": "",
          "type": "address"
        }
      ],
      "stateMutability": "view",
      "type": "function"
    },
    {
      "inputs": [
        {
          "internalType": "address",
          "name": "_stakingToken",
          "type": "address"
        },
        {
          "internalType": "address[2]",
          "name": "_rewardTokens",
          "type": "address[2]"
        },
        {
          "internalType": "uint256",
          "name": "_rewardDuration",
          "type": "uint256"
        },
        {
          "internalType": "address",
          "name": "_rewardsDistribution",
          "type": "address"
        }
      ],
      "name": "setInitialInfo",
      "outputs": [],
      "stateMutability": "nonpayable",
      "type": "function"
    },
    {
      "inputs": [
        {
          "internalType": "address",
          "name": "_rewardsDistribution",
          "type": "address"
        }
      ],
      "name": "setRewardsDistribution",
      "outputs": [],
      "stateMutability": "nonpayable",
      "type": "function"
    },
    {
      "inputs": [
        {
          "internalType": "uint256",
          "name": "_rewardsDuration",
          "type": "uint256"
        }
      ],
      "name": "setRewardsDuration",
      "outputs": [],
      "stateMutability": "nonpayable",
      "type": "function"
    },
    {
      "inputs": [
        {
          "internalType": "address",
          "name": "_WenAddr",
          "type": "address"
        }
      ],
      "name": "setWen",
      "outputs": [],
      "stateMutability": "nonpayable",
      "type": "function"
    },
    {
      "inputs": [
        {
          "internalType": "uint256",
          "name": "amount",
          "type": "uint256"
        }
      ],
      "name": "stake",
      "outputs": [],
      "stateMutability": "nonpayable",
      "type": "function"
    },
    {
      "inputs": [],
      "name": "stakingToken",
      "outputs": [
        {
          "internalType": "contract IERC20Upgradeable",
          "name": "",
          "type": "address"
        }
      ],
      "stateMutability": "view",
      "type": "function"
    },
    {
      "inputs": [],
      "name": "totalSupply",
      "outputs": [
        {
          "internalType": "uint256",
          "name": "",
          "type": "uint256"
        }
      ],
      "stateMutability": "view",
      "type": "function"
    },
    {
      "inputs": [
        {
          "internalType": "address",
          "name": "newOwner",
          "type": "address"
        }
      ],
      "name": "transferOwnership",
      "outputs": [],
      "stateMutability": "nonpayable",
      "type": "function"
    },
    {
      "inputs": [],
      "name": "unpause",
      "outputs": [],
      "stateMutability": "nonpayable",
      "type": "function"
    },
    {
      "inputs": [],
      "name": "updateRewardAmount",
      "outputs": [],
      "stateMutability": "nonpayable",
      "type": "function"
    },
    {
      "inputs": [
        {
          "internalType": "address",
          "name": "newImplementation",
          "type": "address"
        }
      ],
      "name": "upgradeTo",
      "outputs": [],
      "stateMutability": "nonpayable",
      "type": "function"
    },
    {
      "inputs": [
        {
          "internalType": "address",
          "name": "newImplementation",
          "type": "address"
        },
        {
          "internalType": "bytes",
          "name": "data",
          "type": "bytes"
        }
      ],
      "name": "upgradeToAndCall",
      "outputs": [],
      "stateMutability": "payable",
      "type": "function"
    },
    {
      "inputs": [
        {
          "internalType": "address",
          "name": "",
          "type": "address"
        },
        {
          "internalType": "address",
          "name": "",
          "type": "address"
        }
      ],
      "name": "userRewardPerTokenPaid",
      "outputs": [
        {
          "internalType": "uint256",
          "name": "",
          "type": "uint256"
        }
      ],
      "stateMutability": "view",
      "type": "function"
    },
    {
      "inputs": [
        {
          "internalType": "address",
          "name": "account",
          "type": "address"
        }
      ],
      "name": "wen_earned",
      "outputs": [
        {
          "internalType": "uint256",
          "name": "",
          "type": "uint256"
        }
      ],
      "stateMutability": "view",
      "type": "function"
    },
    {
      "inputs": [],
      "name": "wen_getRewardForDuration",
      "outputs": [
        {
          "internalType": "uint256",
          "name": "",
          "type": "uint256"
        }
      ],
      "stateMutability": "view",
      "type": "function"
    },
    {
      "inputs": [],
      "name": "wen_lastTimeRewardApplicable",
      "outputs": [
        {
          "internalType": "uint256",
          "name": "",
          "type": "uint256"
        }
      ],
      "stateMutability": "view",
      "type": "function"
    },
    {
      "inputs": [],
      "name": "wen_rewardData",
      "outputs": [
        {
          "internalType": "uint256",
          "name": "periodFinish",
          "type": "uint256"
        },
        {
          "internalType": "uint256",
          "name": "rewardRate",
          "type": "uint256"
        },
        {
          "internalType": "uint256",
          "name": "lastUpdateTime",
          "type": "uint256"
        },
        {
          "internalType": "uint256",
          "name": "rewardPerTokenStored",
          "type": "uint256"
        },
        {
          "internalType": "uint256",
          "name": "balance",
          "type": "uint256"
        }
      ],
      "stateMutability": "view",
      "type": "function"
    },
    {
      "inputs": [],
      "name": "wen_rewardPerToken",
      "outputs": [
        {
          "internalType": "uint256",
          "name": "",
          "type": "uint256"
        }
      ],
      "stateMutability": "view",
      "type": "function"
    },
    {
      "inputs": [],
      "name": "wen_rewardToken",
      "outputs": [
        {
          "internalType": "address",
          "name": "",
          "type": "address"
        }
      ],
      "stateMutability": "view",
      "type": "function"
    },
    {
      "inputs": [
        {
          "internalType": "address",
          "name": "",
          "type": "address"
        }
      ],
      "name": "wen_rewards",
      "outputs": [
        {
          "internalType": "uint256",
          "name": "",
          "type": "uint256"
        }
      ],
      "stateMutability": "view",
      "type": "function"
    },
    {
      "inputs": [
        {
          "internalType": "uint256",
          "name": "_amount",
          "type": "uint256"
        }
      ],
      "name": "wen_updateRewardAmount",
      "outputs": [],
      "stateMutability": "nonpayable",
      "type": "function"
    },
    {
      "inputs": [
        {
          "internalType": "address",
          "name": "",
          "type": "address"
        }
      ],
      "name": "wen_userRewardPerTokenPaid",
      "outputs": [
        {
          "internalType": "uint256",
          "name": "",
          "type": "uint256"
        }
      ],
      "stateMutability": "view",
      "type": "function"
    },
    {
      "inputs": [
        {
          "internalType": "uint256",
          "name": "amount",
          "type": "uint256"
        }
      ],
      "name": "withdraw",
      "outputs": [],
      "stateMutability": "nonpayable",
      "type": "function"
    },
    {
      "stateMutability": "payable",
      "type": "receive"
    }
  ],
  "bytecode": "0x60a06040523060805234801561001457600080fd5b506080516137b661004c60003960008181610c6501528181610cea01528181611149015281816111ce01526112b801526137b66000f3fe60806040526004361061028f5760003560e01c80638129fc1c11610156578063cc6059c6116100bf578063f43c2bca11610079578063f833027d11610061578063f833027d1461079d578063fa9465d5146107cb578063fe7ed097146107e057005b8063f43c2bca1461075a578063f45424941461078657005b8063e70b9e27116100a7578063e70b9e27146106e1578063f12297771461071a578063f2fde38b1461073a57005b8063cc6059c6146106ac578063d9167de7146106c157005b8063a89d800311610110578063b88a802f116100f8578063b88a802f14610657578063bcd110141461066c578063cc1a378f1461068c57005b8063a89d800314610609578063b32f8d9f1461062957005b80638da5cb5b1161013e5780638da5cb5b146105aa57806390559094146105c8578063a694fc3a146105e957005b80638129fc1c146105805780638456cb591461059557005b80634f1ef286116101f85780637035ab98116101b2578063715018a61161019a578063715018a61461052a57806372f702f31461053f5780637bb7bed11461056057005b80637035ab98146104c357806370a08231146104fc57005b80635533de90116101e05780635533de901461046b5780635c975abb14610480578063638634ee146104a357005b80634f1ef2861461044357806352d1902d1461045657005b80633659cfe6116102495780633fc6df6e116102315780633fc6df6e14610377578063477c8fc1146103b057806348e5d9f8146103d057005b80633659cfe6146103425780633f4ba83a1461036257005b80631c9c4694116102775780631c9c4694146102e2578063211dc32d146103025780632e1a7d4d1461032257005b806318160ddd1461029857806319762143146102c257005b3661029657005b005b3480156102a457600080fd5b506102af6101345481565b6040519081526020015b60405180910390f35b3480156102ce57600080fd5b506102966102dd36600461341e565b6107f5565b3480156102ee57600080fd5b506102966102fd36600461341e565b610820565b34801561030e57600080fd5b506102af61031d366004613439565b61084b565b34801561032e57600080fd5b5061029661033d36600461346c565b6108f6565b34801561034e57600080fd5b5061029661035d36600461341e565b610c5b565b34801561036e57600080fd5b50610296610dd3565b34801561038357600080fd5b5061013154610398906001600160a01b031681565b6040516001600160a01b0390911681526020016102b9565b3480156103bc57600080fd5b506102966103cb36600461346c565b610ded565b3480156103dc57600080fd5b5061041b6103eb36600461341e565b61013060205260009081526040902080546001820154600283015460038401546004909401549293919290919085565b604080519586526020860194909452928401919091526060830152608082015260a0016102b9565b6102966104513660046134cc565b61113f565b34801561046257600080fd5b506102af6112ab565b34801561047757600080fd5b506102af611370565b34801561048c57600080fd5b5060fb5460ff1660405190151581526020016102b9565b3480156104af57600080fd5b506102af6104be36600461341e565b611389565b3480156104cf57600080fd5b506102af6104de366004613439565b61013260209081526000928352604080842090915290825290205481565b34801561050857600080fd5b506102af61051736600461341e565b6101356020526000908152604090205481565b34801561053657600080fd5b506102966113b9565b34801561054b57600080fd5b5061012d54610398906001600160a01b031681565b34801561056c57600080fd5b5061039861057b36600461346c565b6113cb565b34801561058c57600080fd5b506102966113ec565b3480156105a157600080fd5b5061029661151c565b3480156105b657600080fd5b506097546001600160a01b0316610398565b3480156105d457600080fd5b5061013754610398906001600160a01b031681565b3480156105f557600080fd5b5061029661060436600461346c565b611534565b34801561061557600080fd5b50610296610624366004613572565b61181b565b34801561063557600080fd5b506102af61064436600461341e565b61013e6020526000908152604090205481565b34801561066357600080fd5b50610296611879565b34801561067857600080fd5b506102af61068736600461341e565b611d57565b34801561069857600080fd5b506102966106a736600461346c565b611d83565b3480156106b857600080fd5b506102af611e37565b3480156106cd57600080fd5b506102af6106dc36600461341e565b611e53565b3480156106ed57600080fd5b506102af6106fc366004613439565b61013360209081526000928352604080842090915290825290205481565b34801561072657600080fd5b506102af61073536600461341e565b611ed5565b34801561074657600080fd5b5061029661075536600461341e565b611fb0565b34801561076657600080fd5b50610138546101395461013a5461013b5461013c5461041b949392919085565b34801561079257600080fd5b506102af6101365481565b3480156107a957600080fd5b506102af6107b836600461341e565b61013d6020526000908152604090205481565b3480156107d757600080fd5b5061029661203d565b3480156107ec57600080fd5b506102af6123cc565b6107fd612447565b61013180546001600160a01b0319166001600160a01b0392909216919091179055565b610828612447565b61013780546001600160a01b0319166001600160a01b0392909216919091179055565b6001600160a01b03808316600090815261013260209081526040808320938516835292905290812054819061087f84611ed5565b6108899190613636565b6001600160a01b038086166000818152610133602090815260408083209489168352938152838220549282526101359052919091205491925090670de0b6b3a7640000906108d8908490613649565b6108e29190613660565b6108ec9190613682565b9150505b92915050565b6108fe6124a1565b6109066124fa565b3360005b6002811015610a3d57600061012e826002811061092957610929613695565b01546001600160a01b0316905061093f81611ed5565b6001600160a01b0382166000908152610130602052604090206003015561096581611389565b6001600160a01b0380831660009081526101306020526040902060020191909155831615610a3457610997838261084b565b6001600160a01b03848116600081815261013360209081526040808320948716808452948252808320958655610130825280832060030154848452610132835281842086855283529281902083905594548551948552908401829052838501929092526060830191909152608082015290517fe18754a2d63e1e9c2a4f61712ccd2c8df6dfb1eae9f53b2158e316c62823ce2a9181900360a00190a15b5060010161090a565b50610137546001600160a01b031615610b0557610a586123cc565b61013b55610a64611e37565b61013a556001600160a01b03811615610b0557610a8081611e53565b6001600160a01b03828116600081815261013e6020908152604080832095865561013b5461013d8352928190208390556101375495548151969095168652908501829052840191909152606083019190915260808201527fe18754a2d63e1e9c2a4f61712ccd2c8df6dfb1eae9f53b2158e316c62823ce2a9060a00160405180910390a15b60008211610b5a5760405162461bcd60e51b815260206004820152601160248201527f43616e6e6f74207769746864726177203000000000000000000000000000000060448201526064015b60405180910390fd5b3360009081526101356020526040902054821115610bba5760405162461bcd60e51b815260206004820152601660248201527f42616c616e6365206973206e6f7420656e6f7567682e000000000000000000006044820152606401610b51565b610bc261254d565b816101346000828254610bd59190613636565b9091555050336000908152610135602052604081208054849290610bfa908490613636565b909155505061012d54610c17906001600160a01b0316338461281a565b60405182815233907f7084f5476618d8e60b11ef0d7d3f06914655adb8793e28ff7f018d4c76d505d5906020015b60405180910390a250610c58600160c955565b50565b6001600160a01b037f0000000000000000000000000000000000000000000000000000000000000000163003610ce85760405162461bcd60e51b815260206004820152602c60248201527f46756e6374696f6e206d7573742062652063616c6c6564207468726f7567682060448201526b19195b1959d85d1958d85b1b60a21b6064820152608401610b51565b7f00000000000000000000000000000000000000000000000000000000000000006001600160a01b0316610d437f360894a13ba1a3210667c828492db98dca3e2076cc3735a920a3ca505d382bbc546001600160a01b031690565b6001600160a01b031614610dae5760405162461bcd60e51b815260206004820152602c60248201527f46756e6374696f6e206d7573742062652063616c6c6564207468726f7567682060448201526b6163746976652070726f787960a01b6064820152608401610b51565b610db7816128cf565b60408051600080825260208201909252610c58918391906128d7565b610ddb612447565b610de3612a77565b610deb612ac9565b565b610131546001600160a01b03163314610e5b5760405162461bcd60e51b815260206004820152602a60248201527f43616c6c6572206973206e6f742052657761726473446973747269627574696f6044820152691b8818dbdb9d1c9858dd60b21b6064820152608401610b51565b6000805b6002811015610f9257600061012e8260028110610e7e57610e7e613695565b01546001600160a01b03169050610e9481611ed5565b6001600160a01b03821660009081526101306020526040902060030155610eba81611389565b6001600160a01b0380831660009081526101306020526040902060020191909155831615610f8957610eec838261084b565b6001600160a01b03848116600081815261013360209081526040808320948716808452948252808320958655610130825280832060030154848452610132835281842086855283529281902083905594548551948552908401829052838501929092526060830191909152608082015290517fe18754a2d63e1e9c2a4f61712ccd2c8df6dfb1eae9f53b2158e316c62823ce2a9181900360a00190a15b50600101610e5f565b50610137546001600160a01b03161561105a57610fad6123cc565b61013b55610fb9611e37565b61013a556001600160a01b0381161561105a57610fd581611e53565b6001600160a01b03828116600081815261013e6020908152604080832095865561013b5461013d8352928190208390556101375495548151969095168652908501829052840191909152606083019190915260808201527fe18754a2d63e1e9c2a4f61712ccd2c8df6dfb1eae9f53b2158e316c62823ce2a9060a00160405180910390a15b600082116110d05760405162461bcd60e51b815260206004820152602c60248201527f5570646174652052657761726420416d6f756e742073686f756c64206265206260448201527f6967676572207468616e203000000000000000000000000000000000000000006064820152608401610b51565b61013754610138906110ed906001600160a01b0316333086612b1b565b6110f78184612b72565b610137546040518481526001600160a01b03909116907fac24935fd910bc682b5ccb1a07b718cadf8cf2f6d1404c4f3ddc3662dae40e299060200160405180910390a2505050565b6001600160a01b037f00000000000000000000000000000000000000000000000000000000000000001630036111cc5760405162461bcd60e51b815260206004820152602c60248201527f46756e6374696f6e206d7573742062652063616c6c6564207468726f7567682060448201526b19195b1959d85d1958d85b1b60a21b6064820152608401610b51565b7f00000000000000000000000000000000000000000000000000000000000000006001600160a01b03166112277f360894a13ba1a3210667c828492db98dca3e2076cc3735a920a3ca505d382bbc546001600160a01b031690565b6001600160a01b0316146112925760405162461bcd60e51b815260206004820152602c60248201527f46756e6374696f6e206d7573742062652063616c6c6564207468726f7567682060448201526b6163746976652070726f787960a01b6064820152608401610b51565b61129b826128cf565b6112a7828260016128d7565b5050565b6000306001600160a01b037f0000000000000000000000000000000000000000000000000000000000000000161461134b5760405162461bcd60e51b815260206004820152603860248201527f555550535570677261646561626c653a206d757374206e6f742062652063616c60448201527f6c6564207468726f7567682064656c656761746563616c6c00000000000000006064820152608401610b51565b507f360894a13ba1a3210667c828492db98dca3e2076cc3735a920a3ca505d382bbc90565b610136546101395460009161138491613649565b905090565b6001600160a01b038116600090815261013060205260408120544281116113b057806113b2565b425b9392505050565b6113c1612447565b610deb6000612c10565b61012e81600281106113dc57600080fd5b01546001600160a01b0316905081565b600054610100900460ff161580801561140c5750600054600160ff909116105b806114265750303b158015611426575060005460ff166001145b6114985760405162461bcd60e51b815260206004820152602e60248201527f496e697469616c697a61626c653a20636f6e747261637420697320616c72656160448201527f647920696e697469616c697a65640000000000000000000000000000000000006064820152608401610b51565b6000805460ff1916600117905580156114bb576000805461ff0019166101001790555b6114c3612c62565b6114cb612cd5565b6114d3612d48565b8015610c58576000805461ff0019169055604051600181527f7f26b83ff96e1f2b6a682f133852f6798a09c465da95921460cefb3847402498906020015b60405180910390a150565b611524612447565b61152c6124fa565b610deb612dbb565b61153c6124a1565b6115446124fa565b3360005b600281101561167b57600061012e826002811061156757611567613695565b01546001600160a01b0316905061157d81611ed5565b6001600160a01b038216600090815261013060205260409020600301556115a381611389565b6001600160a01b0380831660009081526101306020526040902060020191909155831615611672576115d5838261084b565b6001600160a01b03848116600081815261013360209081526040808320948716808452948252808320958655610130825280832060030154848452610132835281842086855283529281902083905594548551948552908401829052838501929092526060830191909152608082015290517fe18754a2d63e1e9c2a4f61712ccd2c8df6dfb1eae9f53b2158e316c62823ce2a9181900360a00190a15b50600101611548565b50610137546001600160a01b031615611743576116966123cc565b61013b556116a2611e37565b61013a556001600160a01b03811615611743576116be81611e53565b6001600160a01b03828116600081815261013e6020908152604080832095865561013b5461013d8352928190208390556101375495548151969095168652908501829052840191909152606083019190915260808201527fe18754a2d63e1e9c2a4f61712ccd2c8df6dfb1eae9f53b2158e316c62823ce2a9060a00160405180910390a15b600082116117935760405162461bcd60e51b815260206004820152600e60248201527f43616e6e6f74207374616b6520300000000000000000000000000000000000006044820152606401610b51565b8161013460008282546117a69190613682565b90915550503360009081526101356020526040812080548492906117cb908490613682565b909155505061012d546117e9906001600160a01b0316333085612b1b565b60405182815233907f9e71bc8eea02a63969f509818f2dafb9254532904319f9dbda79b67bd34a5f3d90602001610c45565b611823612447565b61012d80546001600160a01b0319166001600160a01b03861617905561184d61012e846002613395565b506101369190915561013180546001600160a01b0319166001600160a01b039092169190911790555050565b6118816124a1565b6118896124fa565b3360005b60028110156119c057600061012e82600281106118ac576118ac613695565b01546001600160a01b031690506118c281611ed5565b6001600160a01b038216600090815261013060205260409020600301556118e881611389565b6001600160a01b03808316600090815261013060205260409020600201919091558316156119b75761191a838261084b565b6001600160a01b03848116600081815261013360209081526040808320948716808452948252808320958655610130825280832060030154848452610132835281842086855283529281902083905594548551948552908401829052838501929092526060830191909152608082015290517fe18754a2d63e1e9c2a4f61712ccd2c8df6dfb1eae9f53b2158e316c62823ce2a9181900360a00190a15b5060010161188d565b50610137546001600160a01b031615611a88576119db6123cc565b61013b556119e7611e37565b61013a556001600160a01b03811615611a8857611a0381611e53565b6001600160a01b03828116600081815261013e6020908152604080832095865561013b5461013d8352928190208390556101375495548151969095168652908501829052840191909152606083019190915260808201527fe18754a2d63e1e9c2a4f61712ccd2c8df6dfb1eae9f53b2158e316c62823ce2a9060a00160405180910390a15b60005b6002811015611c9157600061012e8260028110611aaa57611aaa613695565b01546001600160a01b03166000818152610130602052604090209091508115611c87578054611adb90610e10613682565b61013654611ae99042613682565b1115611bc4576004818101546040516370a0823160e01b815230928101929092526000916001600160a01b038516906370a0823190602401602060405180830381865afa158015611b3e573d6000803e3d6000fd5b505050506040513d601f19601f82011682018060405250810190611b6291906136ab565b611b6c9190613636565b90508015611bc257611b7e8282612b72565b826001600160a01b03167fac24935fd910bc682b5ccb1a07b718cadf8cf2f6d1404c4f3ddc3662dae40e2982604051611bb991815260200190565b60405180910390a25b505b336000908152610133602090815260408083206001600160a01b03861684529091529020548015611c8557336000908152610133602090815260408083206001600160a01b03871684529091528120819055600483018054839290611c2a908490613636565b90915550611c4490506001600160a01b038416338361281a565b6040518181526001600160a01b0384169033907f540798df468d7b23d11f156fdb954cb19ad414d150722a7b6d55ba369dea792e9060200160405180910390a35b505b5050600101611a8b565b50610137546001600160a01b031615611d4c5733600090815261013e6020526040902054610138908015611d495733600090815261013e60205260408120819055600483018054839290611ce6908490613636565b909155505061013754611d03906001600160a01b0316338361281a565b610137546040518281526001600160a01b039091169033907f540798df468d7b23d11f156fdb954cb19ad414d150722a7b6d55ba369dea792e9060200160405180910390a35b50505b50610deb600160c955565b610136546001600160a01b0382166000908152610130602052604081206001015490916108f091613649565b611d8b612447565b60008111611e015760405162461bcd60e51b815260206004820152602860248201527f726577617264206475726174696f6e692073686f756c64206265206c6f6e676560448201527f72207468616e20300000000000000000000000000000000000000000000000006064820152608401610b51565b6101368190556040518181527ffb46ca5a5e06d4540d6387b930a7c978bce0db5f449ec6b3f5d07c6e1d44f2d390602001611511565b61013854600090428111611e4b5780611e4d565b425b91505090565b6001600160a01b038116600090815261013d60205260408120548190611e776123cc565b611e819190613636565b6001600160a01b038416600090815261013e60209081526040808320546101359092529091205491925090670de0b6b3a764000090611ec1908490613649565b611ecb9190613660565b6113b29190613682565b600061013454600003611f0257506001600160a01b03166000908152610130602052604090206003015490565b6001600160a01b03821660009081526101306020526040812060020154611f2884611389565b611f329190613636565b610134546001600160a01b0385166000908152610130602052604081206001015492935091611f619084613649565b611f7390670de0b6b3a7640000613649565b611f7d9190613660565b6001600160a01b03851660009081526101306020526040902060030154909150611fa8908290613682565b949350505050565b611fb8612447565b6001600160a01b0381166120345760405162461bcd60e51b815260206004820152602660248201527f4f776e61626c653a206e6577206f776e657220697320746865207a65726f206160448201527f64647265737300000000000000000000000000000000000000000000000000006064820152608401610b51565b610c5881612c10565b610131546001600160a01b031633146120ab5760405162461bcd60e51b815260206004820152602a60248201527f43616c6c6572206973206e6f742052657761726473446973747269627574696f6044820152691b8818dbdb9d1c9858dd60b21b6064820152608401610b51565b6000805b60028110156121e257600061012e82600281106120ce576120ce613695565b01546001600160a01b031690506120e481611ed5565b6001600160a01b0382166000908152610130602052604090206003015561210a81611389565b6001600160a01b03808316600090815261013060205260409020600201919091558316156121d95761213c838261084b565b6001600160a01b03848116600081815261013360209081526040808320948716808452948252808320958655610130825280832060030154848452610132835281842086855283529281902083905594548551948552908401829052838501929092526060830191909152608082015290517fe18754a2d63e1e9c2a4f61712ccd2c8df6dfb1eae9f53b2158e316c62823ce2a9181900360a00190a15b506001016120af565b50610137546001600160a01b0316156122aa576121fd6123cc565b61013b55612209611e37565b61013a556001600160a01b038116156122aa5761222581611e53565b6001600160a01b03828116600081815261013e6020908152604080832095865561013b5461013d8352928190208390556101375495548151969095168652908501829052840191909152606083019190915260808201527fe18754a2d63e1e9c2a4f61712ccd2c8df6dfb1eae9f53b2158e316c62823ce2a9060a00160405180910390a15b60005b60028110156112a757600061012e82600281106122cc576122cc613695565b01546001600160a01b0316905080156123c3576001600160a01b0381166000818152610130602052604080822060048082015492516370a0823160e01b815230918101919091529093906370a0823190602401602060405180830381865afa15801561233c573d6000803e3d6000fd5b505050506040513d601f19601f8201168201806040525081019061236091906136ab565b61236a9190613636565b905080156123c05761237c8282612b72565b826001600160a01b03167fac24935fd910bc682b5ccb1a07b718cadf8cf2f6d1404c4f3ddc3662dae40e29826040516123b791815260200190565b60405180910390a25b50505b506001016122ad565b6000610134546000036123e1575061013b5490565b61013a546000906123f0611e37565b6123fa9190613636565b61013454610139549192506000916124129084613649565b61242490670de0b6b3a7640000613649565b61242e9190613660565b61013b54909150612440908290613682565b9250505090565b6097546001600160a01b03163314610deb5760405162461bcd60e51b815260206004820181905260248201527f4f776e61626c653a2063616c6c6572206973206e6f7420746865206f776e65726044820152606401610b51565b600260c954036124f35760405162461bcd60e51b815260206004820152601f60248201527f5265656e7472616e637947756172643a207265656e7472616e742063616c6c006044820152606401610b51565b600260c955565b60fb5460ff1615610deb5760405162461bcd60e51b815260206004820152601060248201527f5061757361626c653a20706175736564000000000000000000000000000000006044820152606401610b51565b60005b600281101561275f57600061012e826002811061256f5761256f613695565b01546001600160a01b031690508015612756576001600160a01b03811660009081526101306020526040902080546125a990610e10613682565b610136546125b79042613682565b1115612692576004818101546040516370a0823160e01b815230928101929092526000916001600160a01b038516906370a0823190602401602060405180830381865afa15801561260c573d6000803e3d6000fd5b505050506040513d601f19601f8201168201806040525081019061263091906136ab565b61263a9190613636565b905080156126905761264c8282612b72565b826001600160a01b03167fac24935fd910bc682b5ccb1a07b718cadf8cf2f6d1404c4f3ddc3662dae40e298260405161268791815260200190565b60405180910390a25b505b336000908152610133602090815260408083206001600160a01b0386168452909152902054801561275357336000908152610133602090815260408083206001600160a01b038716845290915281208190556004830180548392906126f8908490613636565b9091555061271290506001600160a01b038416338361281a565b6040518181526001600160a01b0384169033907f540798df468d7b23d11f156fdb954cb19ad414d150722a7b6d55ba369dea792e9060200160405180910390a35b50505b50600101612550565b50610137546001600160a01b031615610deb5733600090815261013e60205260409020546101389080156112a75733600090815261013e602052604081208190556004830180548392906127b4908490613636565b9091555050610137546127d1906001600160a01b0316338361281a565b610137546040518281526001600160a01b039091169033907f540798df468d7b23d11f156fdb954cb19ad414d150722a7b6d55ba369dea792e9060200160405180910390a35050565b6040516001600160a01b0383166024820152604481018290526128c39084907fa9059cbb00000000000000000000000000000000000000000000000000000000906064015b60408051601f198184030181529190526020810180517bffffffffffffffffffffffffffffffffffffffffffffffffffffffff167fffffffff0000000000000000000000000000000000000000000000000000000090931692909217909152612df8565b505050565b600160c955565b610c58612447565b7f4910fdfa16fed3260ed0e7147f7cc6da11a60208b5b9406d12a635614ffd91435460ff161561290a576128c383612ee0565b826001600160a01b03166352d1902d6040518163ffffffff1660e01b8152600401602060405180830381865afa925050508015612964575060408051601f3d908101601f19168201909252612961918101906136ab565b60015b6129d65760405162461bcd60e51b815260206004820152602e60248201527f45524331393637557067726164653a206e657720696d706c656d656e7461746960448201527f6f6e206973206e6f7420555550530000000000000000000000000000000000006064820152608401610b51565b7f360894a13ba1a3210667c828492db98dca3e2076cc3735a920a3ca505d382bbc8114612a6b5760405162461bcd60e51b815260206004820152602960248201527f45524331393637557067726164653a20756e737570706f727465642070726f7860448201527f6961626c655555494400000000000000000000000000000000000000000000006064820152608401610b51565b506128c3838383612f9e565b60fb5460ff16610deb5760405162461bcd60e51b815260206004820152601460248201527f5061757361626c653a206e6f74207061757365640000000000000000000000006044820152606401610b51565b612ad1612a77565b60fb805460ff191690557f5db9ee0a495bf2e6ff9c91a7834c1ba4fdd244a5e8aa4e537bd38aeae4b073aa335b6040516001600160a01b03909116815260200160405180910390a1565b6040516001600160a01b0380851660248301528316604482015260648101829052612b6c9085907f23b872dd000000000000000000000000000000000000000000000000000000009060840161285f565b50505050565b81544210612b925761013654612b889082613660565b6001830155612bd9565b8154600090612ba2904290613636565b90506000836001015482612bb69190613649565b61013654909150612bc78285613682565b612bd19190613660565b600185015550505b426002830181905561013654612bee91613682565b8255600482018054829190600090612c07908490613682565b90915550505050565b609780546001600160a01b038381166001600160a01b0319831681179093556040519116919082907f8be0079c531659141344cd1fd0a4f28419497f9722a3daafe3b4186f6b6457e090600090a35050565b600054610100900460ff16612ccd5760405162461bcd60e51b815260206004820152602b60248201527f496e697469616c697a61626c653a20636f6e7472616374206973206e6f74206960448201526a6e697469616c697a696e6760a81b6064820152608401610b51565b610deb612fc3565b600054610100900460ff16612d405760405162461bcd60e51b815260206004820152602b60248201527f496e697469616c697a61626c653a20636f6e7472616374206973206e6f74206960448201526a6e697469616c697a696e6760a81b6064820152608401610b51565b610deb613037565b600054610100900460ff16612db35760405162461bcd60e51b815260206004820152602b60248201527f496e697469616c697a61626c653a20636f6e7472616374206973206e6f74206960448201526a6e697469616c697a696e6760a81b6064820152608401610b51565b610deb6130a2565b612dc36124fa565b60fb805460ff191660011790557f62e78cea01bee320cd4e420270b5ea74000d11b0c9f74754ebdbfc544b05a258612afe3390565b6000612e4d826040518060400160405280602081526020017f5361666545524332303a206c6f772d6c6576656c2063616c6c206661696c6564815250856001600160a01b03166131199092919063ffffffff16565b9050805160001480612e6e575080806020019051810190612e6e91906136c4565b6128c35760405162461bcd60e51b815260206004820152602a60248201527f5361666545524332303a204552433230206f7065726174696f6e20646964206e60448201527f6f742073756363656564000000000000000000000000000000000000000000006064820152608401610b51565b6001600160a01b0381163b612f5d5760405162461bcd60e51b815260206004820152602d60248201527f455243313936373a206e657720696d706c656d656e746174696f6e206973206e60448201527f6f74206120636f6e7472616374000000000000000000000000000000000000006064820152608401610b51565b7f360894a13ba1a3210667c828492db98dca3e2076cc3735a920a3ca505d382bbc80546001600160a01b0319166001600160a01b0392909216919091179055565b612fa783613128565b600082511180612fb45750805b156128c357612b6c8383613168565b600054610100900460ff1661302e5760405162461bcd60e51b815260206004820152602b60248201527f496e697469616c697a61626c653a20636f6e7472616374206973206e6f74206960448201526a6e697469616c697a696e6760a81b6064820152608401610b51565b610deb33612c10565b600054610100900460ff166128c85760405162461bcd60e51b815260206004820152602b60248201527f496e697469616c697a61626c653a20636f6e7472616374206973206e6f74206960448201526a6e697469616c697a696e6760a81b6064820152608401610b51565b600054610100900460ff1661310d5760405162461bcd60e51b815260206004820152602b60248201527f496e697469616c697a61626c653a20636f6e7472616374206973206e6f74206960448201526a6e697469616c697a696e6760a81b6064820152608401610b51565b60fb805460ff19169055565b6060611fa8848460008561318d565b61313181612ee0565b6040516001600160a01b038216907fbc7cd75a20ee27fd9adebab32041f755214dbc6bffa90cc0225b39da2e5c2d3b90600090a250565b60606113b2838360405180606001604052806027815260200161375a6027913961327f565b6060824710156132055760405162461bcd60e51b815260206004820152602660248201527f416464726573733a20696e73756666696369656e742062616c616e636520666f60448201527f722063616c6c00000000000000000000000000000000000000000000000000006064820152608401610b51565b600080866001600160a01b03168587604051613221919061370a565b60006040518083038185875af1925050503d806000811461325e576040519150601f19603f3d011682016040523d82523d6000602084013e613263565b606091505b5091509150613274878383876132f7565b979650505050505050565b6060600080856001600160a01b03168560405161329c919061370a565b600060405180830381855af49150503d80600081146132d7576040519150601f19603f3d011682016040523d82523d6000602084013e6132dc565b606091505b50915091506132ed868383876132f7565b9695505050505050565b6060831561336657825160000361335f576001600160a01b0385163b61335f5760405162461bcd60e51b815260206004820152601d60248201527f416464726573733a2063616c6c20746f206e6f6e2d636f6e74726163740000006044820152606401610b51565b5081611fa8565b611fa8838381511561337b5781518083602001fd5b8060405162461bcd60e51b8152600401610b519190613726565b82600281019282156133dd579160200282015b828111156133dd57825182546001600160a01b0319166001600160a01b039091161782556020909201916001909101906133a8565b506133e99291506133ed565b5090565b5b808211156133e957600081556001016133ee565b80356001600160a01b038116811461341957600080fd5b919050565b60006020828403121561343057600080fd5b6113b282613402565b6000806040838503121561344c57600080fd5b61345583613402565b915061346360208401613402565b90509250929050565b60006020828403121561347e57600080fd5b5035919050565b634e487b7160e01b600052604160045260246000fd5b604051601f8201601f1916810167ffffffffffffffff811182821017156134c4576134c4613485565b604052919050565b600080604083850312156134df57600080fd5b6134e883613402565b915060208084013567ffffffffffffffff8082111561350657600080fd5b818601915086601f83011261351a57600080fd5b81358181111561352c5761352c613485565b61353e601f8201601f1916850161349b565b9150808252878482850101111561355457600080fd5b80848401858401376000848284010152508093505050509250929050565b60008060008060a0858703121561358857600080fd5b61359185613402565b9350602086603f8701126135a457600080fd5b6040516040810181811067ffffffffffffffff821117156135c7576135c7613485565b6040528060608801898111156135dc57600080fd5b602089015b818110156135ff576135f281613402565b83529184019184016135e1565b5091955050359250613615905060808601613402565b905092959194509250565b634e487b7160e01b600052601160045260246000fd5b818103818111156108f0576108f0613620565b80820281158282048414176108f0576108f0613620565b60008261367d57634e487b7160e01b600052601260045260246000fd5b500490565b808201808211156108f0576108f0613620565b634e487b7160e01b600052603260045260246000fd5b6000602082840312156136bd57600080fd5b5051919050565b6000602082840312156136d657600080fd5b815180151581146113b257600080fd5b60005b838110156137015781810151838201526020016136e9565b50506000910152565b6000825161371c8184602087016136e6565b9190910192915050565b60208152600082518060208401526137458160408501602087016136e6565b601f01601f1916919091016040019291505056fe416464726573733a206c6f772d6c6576656c2064656c65676174652063616c6c206661696c6564a26469706673582212201b16f3931547f571b7eca80ef3b7ee7921c88ae7bae04dd294984b879aca114b64736f6c63430008180033",
  "linkReferences": {},
  "deployedLinkReferences": {}
}